{"abi":[{"type":"constructor","inputs":[{"name":"_mmrRoot","type":"bytes32","internalType":"bytes32"},{"name":"_initialCheckpointLeaf","type":"tuple","internalType":"struct Types.BlockLeaf","components":[{"name":"blockHash","type":"bytes32","internalType":"bytes32"},{"name":"height","type":"uint64","internalType":"uint64"},{"name":"cumulativeChainwork","type":"uint256","internalType":"uint256"}]},{"name":"_depositToken","type":"address","internalType":"address"},{"name":"_circuitVerificationKey","type":"bytes32","internalType":"bytes32"},{"name":"_verifierContract","type":"address","internalType":"address"},{"name":"_feeRouterAddress","type":"address","internalType":"address"}],"stateMutability":"nonpayable"},{"type":"function","name":"CIRCUIT_VERIFICATION_KEY","inputs":[],"outputs":[{"name":"","type":"bytes32","internalType":"bytes32"}],"stateMutability":"view"},{"type":"function","name":"DEPOSIT_TOKEN","inputs":[],"outputs":[{"name":"","type":"address","internalType":"contract IERC20"}],"stateMutability":"view"},{"type":"function","name":"FEE_ROUTER_ADDRESS","inputs":[],"outputs":[{"name":"","type":"address","internalType":"address"}],"stateMutability":"view"},{"type":"function","name":"TOKEN_DECIMALS","inputs":[],"outputs":[{"name":"","type":"uint8","internalType":"uint8"}],"stateMutability":"view"},{"type":"function","name":"VERIFIER_CONTRACT","inputs":[],"outputs":[{"name":"","type":"address","internalType":"contract ISP1Verifier"}],"stateMutability":"view"},{"type":"function","name":"accumulatedFeeBalance","inputs":[],"outputs":[{"name":"","type":"uint256","internalType":"uint256"}],"stateMutability":"view"},{"type":"function","name":"depositLiquidity","inputs":[{"name":"specifiedPayoutAddress","type":"address","internalType":"address"},{"name":"depositAmountInSmallestTokenUnit","type":"uint256","internalType":"uint256"},{"name":"expectedSats","type":"uint64","internalType":"uint64"},{"name":"btcPayoutScriptPubKey","type":"bytes22","internalType":"bytes22"},{"name":"depositSalt","type":"bytes32","internalType":"bytes32"},{"name":"confirmationBlocks","type":"uint8","internalType":"uint8"}],"outputs":[],"stateMutability":"nonpayable"},{"type":"function","name":"depositLiquidityWithOverwrite","inputs":[{"name":"specifiedPayoutAddress","type":"address","internalType":"address"},{"name":"depositAmountInSmallestTokenUnit","type":"uint256","internalType":"uint256"},{"name":"expectedSats","type":"uint64","internalType":"uint64"},{"name":"btcPayoutScriptPubKey","type":"bytes22","internalType":"bytes22"},{"name":"depositSalt","type":"bytes32","internalType":"bytes32"},{"name":"confirmationBlocks","type":"uint8","internalType":"uint8"},{"name":"overwriteVault","type":"tuple","internalType":"struct Types.DepositVault","components":[{"name":"vaultIndex","type":"uint256","internalType":"uint256"},{"name":"depositTimestamp","type":"uint64","internalType":"uint64"},{"name":"depositAmount","type":"uint256","internalType":"uint256"},{"name":"depositFee","type":"uint256","internalType":"uint256"},{"name":"expectedSats","type":"uint64","internalType":"uint64"},{"name":"btcPayoutScriptPubKey","type":"bytes22","internalType":"bytes22"},{"name":"specifiedPayoutAddress","type":"address","internalType":"address"},{"name":"ownerAddress","type":"address","internalType":"address"},{"name":"nonce","type":"bytes32","internalType":"bytes32"},{"name":"confirmationBlocks","type":"uint8","internalType":"uint8"}]}],"outputs":[],"stateMutability":"nonpayable"},{"type":"function","name":"getSwapCommitment","inputs":[{"name":"swapIndex","type":"uint256","internalType":"uint256"}],"outputs":[{"name":"","type":"bytes32","internalType":"bytes32"}],"stateMutability":"view"},{"type":"function","name":"getSwapCommitmentsLength","inputs":[],"outputs":[{"name":"","type":"uint256","internalType":"uint256"}],"stateMutability":"view"},{"type":"function","name":"getVaultCommitment","inputs":[{"name":"vaultIndex","type":"uint256","internalType":"uint256"}],"outputs":[{"name":"","type":"bytes32","internalType":"bytes32"}],"stateMutability":"view"},{"type":"function","name":"getVaultCommitmentsLength","inputs":[],"outputs":[{"name":"","type":"uint256","internalType":"uint256"}],"stateMutability":"view"},{"type":"function","name":"initialCheckpointLeaf","inputs":[],"outputs":[{"name":"blockHash","type":"bytes32","internalType":"bytes32"},{"name":"height","type":"uint64","internalType":"uint64"},{"name":"cumulativeChainwork","type":"uint256","internalType":"uint256"}],"stateMutability":"view"},{"type":"function","name":"mmrRoot","inputs":[],"outputs":[{"name":"","type":"bytes32","internalType":"bytes32"}],"stateMutability":"view"},{"type":"function","name":"payoutToFeeRouter","inputs":[],"outputs":[],"stateMutability":"nonpayable"},{"type":"function","name":"proveBlockInclusion","inputs":[{"name":"blockLeaf","type":"tuple","internalType":"struct Types.BlockLeaf","components":[{"name":"blockHash","type":"bytes32","internalType":"bytes32"},{"name":"height","type":"uint64","internalType":"uint64"},{"name":"cumulativeChainwork","type":"uint256","internalType":"uint256"}]},{"name":"inclusionProof","type":"bytes32[]","internalType":"bytes32[]"}],"outputs":[{"name":"","type":"bool","internalType":"bool"}],"stateMutability":"view"},{"type":"function","name":"releaseLiquidity","inputs":[{"name":"swap","type":"tuple","internalType":"struct Types.ProposedSwap","components":[{"name":"swapIndex","type":"uint256","internalType":"uint256"},{"name":"aggregateVaultCommitment","type":"bytes32","internalType":"bytes32"},{"name":"swapBitcoinBlockHash","type":"bytes32","internalType":"bytes32"},{"name":"confirmationBlocks","type":"uint8","internalType":"uint8"},{"name":"liquidityUnlockTimestamp","type":"uint64","internalType":"uint64"},{"name":"specifiedPayoutAddress","type":"address","internalType":"address"},{"name":"totalSwapFee","type":"uint256","internalType":"uint256"},{"name":"totalSwapOutput","type":"uint256","internalType":"uint256"},{"name":"state","type":"uint8","internalType":"enum Types.SwapState"}]},{"name":"swapBlockChainwork","type":"uint256","internalType":"uint256"},{"name":"swapBlockHeight","type":"uint64","internalType":"uint64"},{"name":"bitcoinSwapBlockInclusionProof","type":"bytes32[]","internalType":"bytes32[]"},{"name":"bitcoinConfirmationBlockInclusionProof","type":"bytes32[]","internalType":"bytes32[]"},{"name":"bitcoinConfirmationBlockLeaf","type":"tuple","internalType":"struct Types.BlockLeaf","components":[{"name":"blockHash","type":"bytes32","internalType":"bytes32"},{"name":"height","type":"uint64","internalType":"uint64"},{"name":"cumulativeChainwork","type":"uint256","internalType":"uint256"}]},{"name":"utilizedVaults","type":"tuple[]","internalType":"struct Types.DepositVault[]","components":[{"name":"vaultIndex","type":"uint256","internalType":"uint256"},{"name":"depositTimestamp","type":"uint64","internalType":"uint64"},{"name":"depositAmount","type":"uint256","internalType":"uint256"},{"name":"depositFee","type":"uint256","internalType":"uint256"},{"name":"expectedSats","type":"uint64","internalType":"uint64"},{"name":"btcPayoutScriptPubKey","type":"bytes22","internalType":"bytes22"},{"name":"specifiedPayoutAddress","type":"address","internalType":"address"},{"name":"ownerAddress","type":"address","internalType":"address"},{"name":"nonce","type":"bytes32","internalType":"bytes32"},{"name":"confirmationBlocks","type":"uint8","internalType":"uint8"}]}],"outputs":[],"stateMutability":"nonpayable"},{"type":"function","name":"submitSwapProof","inputs":[{"name":"swapBitcoinTxid","type":"bytes32","internalType":"bytes32"},{"name":"swapBitcoinBlockHash","type":"bytes32","internalType":"bytes32"},{"name":"vaults","type":"tuple[]","internalType":"struct Types.DepositVault[]","components":[{"name":"vaultIndex","type":"uint256","internalType":"uint256"},{"name":"depositTimestamp","type":"uint64","internalType":"uint64"},{"name":"depositAmount","type":"uint256","internalType":"uint256"},{"name":"depositFee","type":"uint256","internalType":"uint256"},{"name":"expectedSats","type":"uint64","internalType":"uint64"},{"name":"btcPayoutScriptPubKey","type":"bytes22","internalType":"bytes22"},{"name":"specifiedPayoutAddress","type":"address","internalType":"address"},{"name":"ownerAddress","type":"address","internalType":"address"},{"name":"nonce","type":"bytes32","internalType":"bytes32"},{"name":"confirmationBlocks","type":"uint8","internalType":"uint8"}]},{"name":"specifiedPayoutAddress","type":"address","internalType":"address"},{"name":"priorMmrRoot","type":"bytes32","internalType":"bytes32"},{"name":"newMmrRoot","type":"bytes32","internalType":"bytes32"},{"name":"confirmationBlocks","type":"uint8","internalType":"uint8"},{"name":"totalSwapFee","type":"uint256","internalType":"uint256"},{"name":"totalSwapOutput","type":"uint256","internalType":"uint256"},{"name":"proof","type":"bytes","internalType":"bytes"},{"name":"compressedBlockLeaves","type":"bytes","internalType":"bytes"}],"outputs":[],"stateMutability":"nonpayable"},{"type":"function","name":"submitSwapProofWithOverwrite","inputs":[{"name":"swapBitcoinBlockHash","type":"bytes32","internalType":"bytes32"},{"name":"swapBitcoinTxid","type":"bytes32","internalType":"bytes32"},{"name":"confirmationBlocks","type":"uint8","internalType":"uint8"},{"name":"vaults","type":"tuple[]","internalType":"struct Types.DepositVault[]","components":[{"name":"vaultIndex","type":"uint256","internalType":"uint256"},{"name":"depositTimestamp","type":"uint64","internalType":"uint64"},{"name":"depositAmount","type":"uint256","internalType":"uint256"},{"name":"depositFee","type":"uint256","internalType":"uint256"},{"name":"expectedSats","type":"uint64","internalType":"uint64"},{"name":"btcPayoutScriptPubKey","type":"bytes22","internalType":"bytes22"},{"name":"specifiedPayoutAddress","type":"address","internalType":"address"},{"name":"ownerAddress","type":"address","internalType":"address"},{"name":"nonce","type":"bytes32","internalType":"bytes32"},{"name":"confirmationBlocks","type":"uint8","internalType":"uint8"}]},{"name":"specifiedPayoutAddress","type":"address","internalType":"address"},{"name":"priorMmrRoot","type":"bytes32","internalType":"bytes32"},{"name":"newMmrRoot","type":"bytes32","internalType":"bytes32"},{"name":"totalSwapFee","type":"uint256","internalType":"uint256"},{"name":"totalSwapOutput","type":"uint256","internalType":"uint256"},{"name":"proof","type":"bytes","internalType":"bytes"},{"name":"compressedBlockLeaves","type":"bytes","internalType":"bytes"},{"name":"overwriteSwap","type":"tuple","internalType":"struct Types.ProposedSwap","components":[{"name":"swapIndex","type":"uint256","internalType":"uint256"},{"name":"aggregateVaultCommitment","type":"bytes32","internalType":"bytes32"},{"name":"swapBitcoinBlockHash","type":"bytes32","internalType":"bytes32"},{"name":"confirmationBlocks","type":"uint8","internalType":"uint8"},{"name":"liquidityUnlockTimestamp","type":"uint64","internalType":"uint64"},{"name":"specifiedPayoutAddress","type":"address","internalType":"address"},{"name":"totalSwapFee","type":"uint256","internalType":"uint256"},{"name":"totalSwapOutput","type":"uint256","internalType":"uint256"},{"name":"state","type":"uint8","internalType":"enum Types.SwapState"}]}],"outputs":[],"stateMutability":"nonpayable"},{"type":"function","name":"swapCommitments","inputs":[{"name":"","type":"uint256","internalType":"uint256"}],"outputs":[{"name":"","type":"bytes32","internalType":"bytes32"}],"stateMutability":"view"},{"type":"function","name":"vaultCommitments","inputs":[{"name":"","type":"uint256","internalType":"uint256"}],"outputs":[{"name":"","type":"bytes32","internalType":"bytes32"}],"stateMutability":"view"},{"type":"function","name":"withdrawLiquidity","inputs":[{"name":"vault","type":"tuple","internalType":"struct Types.DepositVault","components":[{"name":"vaultIndex","type":"uint256","internalType":"uint256"},{"name":"depositTimestamp","type":"uint64","internalType":"uint64"},{"name":"depositAmount","type":"uint256","internalType":"uint256"},{"name":"depositFee","type":"uint256","internalType":"uint256"},{"name":"expectedSats","type":"uint64","internalType":"uint64"},{"name":"btcPayoutScriptPubKey","type":"bytes22","internalType":"bytes22"},{"name":"specifiedPayoutAddress","type":"address","internalType":"address"},{"name":"ownerAddress","type":"address","internalType":"address"},{"name":"nonce","type":"bytes32","internalType":"bytes32"},{"name":"confirmationBlocks","type":"uint8","internalType":"uint8"}]}],"outputs":[],"stateMutability":"nonpayable"},{"type":"event","name":"BlockTreeUpdated","inputs":[{"name":"treeRoot","type":"bytes32","indexed":false,"internalType":"bytes32"}],"anonymous":false},{"type":"event","name":"SwapUpdated","inputs":[{"name":"swap","type":"tuple","indexed":false,"internalType":"struct Types.ProposedSwap","components":[{"name":"swapIndex","type":"uint256","internalType":"uint256"},{"name":"aggregateVaultCommitment","type":"bytes32","internalType":"bytes32"},{"name":"swapBitcoinBlockHash","type":"bytes32","internalType":"bytes32"},{"name":"confirmationBlocks","type":"uint8","internalType":"uint8"},{"name":"liquidityUnlockTimestamp","type":"uint64","internalType":"uint64"},{"name":"specifiedPayoutAddress","type":"address","internalType":"address"},{"name":"totalSwapFee","type":"uint256","internalType":"uint256"},{"name":"totalSwapOutput","type":"uint256","internalType":"uint256"},{"name":"state","type":"uint8","internalType":"enum Types.SwapState"}]}],"anonymous":false},{"type":"event","name":"VaultUpdated","inputs":[{"name":"vault","type":"tuple","indexed":false,"internalType":"struct Types.DepositVault","components":[{"name":"vaultIndex","type":"uint256","internalType":"uint256"},{"name":"depositTimestamp","type":"uint64","internalType":"uint64"},{"name":"depositAmount","type":"uint256","internalType":"uint256"},{"name":"depositFee","type":"uint256","internalType":"uint256"},{"name":"expectedSats","type":"uint64","internalType":"uint64"},{"name":"btcPayoutScriptPubKey","type":"bytes22","internalType":"bytes22"},{"name":"specifiedPayoutAddress","type":"address","internalType":"address"},{"name":"ownerAddress","type":"address","internalType":"address"},{"name":"nonce","type":"bytes32","internalType":"bytes32"},{"name":"confirmationBlocks","type":"uint8","internalType":"uint8"}]}],"anonymous":false},{"type":"error","name":"CannotOverwriteOnGoingSwap","inputs":[]},{"type":"error","name":"DepositAmountTooLow","inputs":[]},{"type":"error","name":"DepositStillLocked","inputs":[]},{"type":"error","name":"DepositVaultDoesNotExist","inputs":[]},{"type":"error","name":"DepositVaultNotOverwritable","inputs":[]},{"type":"error","name":"EmptyDepositVault","inputs":[]},{"type":"error","name":"InvalidConfirmationBlockDelta","inputs":[]},{"type":"error","name":"InvalidConfirmationBlockInclusionProof","inputs":[]},{"type":"error","name":"InvalidConfirmationBlocks","inputs":[]},{"type":"error","name":"InvalidScriptPubKey","inputs":[]},{"type":"error","name":"InvalidSwapBlockInclusionProof","inputs":[]},{"type":"error","name":"InvalidVaultCommitment","inputs":[]},{"type":"error","name":"NoFeeToPay","inputs":[]},{"type":"error","name":"SatOutputTooLow","inputs":[]},{"type":"error","name":"StillInChallengePeriod","inputs":[]},{"type":"error","name":"SwapDoesNotExist","inputs":[]},{"type":"error","name":"SwapNotProved","inputs":[]},{"type":"error","name":"TransferFailed","inputs":[]}],"bytecode":{"object":"0x61012080604052346101ba5780611c72803803809161001e82856101e5565b83398101039061010082126101ba576060815192601f1901126101ba57604051606081016001600160401b038111828210176101d157604090815260208301518083529083015190916001600160401b0382168083036101ba576040826004946020809501526060870151918291015261009a60808701610208565b9160a0870151956100b960e06100b260c08b01610208565b9901610208565b5f99909955600155600280546001600160401b0319169190911790556003556001600160a01b0316608081905260405163313ce56760e01b815292839182905afa9081156101c6575f91610186575b5060a05260c0526001600160a01b031660e05261010052604051611a55908161021d823960805181818161019e01528181610a8c01528181610d84015261150a015260a05181610c9c015260c05181818161055a015261172f015260e05181818161041601526116e101526101005181818161016301526105920152f35b90506020813d6020116101be575b816101a1602093836101e5565b810103126101ba575160ff811681036101ba575f610108565b5f80fd5b3d9150610194565b6040513d5f823e3d90fd5b634e487b7160e01b5f52604160045260245ffd5b601f909101601f19168101906001600160401b038211908210176101d157604052565b51906001600160a01b03821682036101ba5756fe6080806040526004361015610012575f80fd5b5f3560e01c90816313f6658714610d7257508063365df23314610d495780634f585de814610cc05780635b7f415c14610c8357806363f7234114610b7f5780636a77158b14610b385780637e2b4901146109225780637ed34a3614610904578063830e8793146105c1578063898aeacb1461057d5780638d5ca05214610543578063992284a6146105265780639f63bd9714610508578063a6a0f96e146104d0578063b6ad21c014610445578063b8b2459214610401578063c102e1d6146102a6578063c28358161461026f578063ca18100d14610252578063d21ddc6114610236578063f23a94a91461012f5763f5095c161461010e575f80fd5b3461012b575f36600319011261012b576020600454604051908152f35b5f80fd5b3461012b575f36600319011261012b576006548015610227575f60065560405163a9059cbb60e01b81526001600160a01b037f0000000000000000000000000000000000000000000000000000000000000000166004820152602481019190915260208180604481015b03815f7f00000000000000000000000000000000000000000000000000000000000000006001600160a01b03165af190811561021c575f916101ed575b50156101de57005b6312171d8360e31b5f5260045ffd5b61020f915060203d602011610215575b6102078183610f49565b810190611167565b816101d6565b503d6101fd565b6040513d5f823e3d90fd5b630fbcad4560e21b5f5260045ffd5b3461012b575f36600319011261012b5760205f54604051908152f35b3461012b575f36600319011261012b576020600654604051908152f35b3461012b575f36600319011261012b5760606001546001600160401b03600254166003549060405192835260208301526040820152f35b3461012b5761028036600319011261012b5760443560ff8116810361012b576064356001600160401b03811161012b576102e4903690600401610e98565b909190608435906001600160a01b038216820361012b57610124356001600160401b03811161012b5761031b903690600401610ec9565b949093610144356001600160401b03811161012b5761033e903690600401610ec9565b906101203661016319011261012b576103556118cf565b5061026435600381101561012b57600119016103f2577f5d248001ee862aebdfe43bfaf026be2d34c08573daa99dcd4290c61dd78cee4b976103ed976103e1966103c9966103c19661016435809b610104359460e4359460c4359460a435946024359060043590611569565b919093610db3565b90919082549060031b91821b915f19901b1916179055565b60405191829182611020565b0390a1005b6318cf65dd60e21b5f5260045ffd5b3461012b575f36600319011261012b576040517f00000000000000000000000000000000000000000000000000000000000000006001600160a01b03168152602090f35b3461012b5760c036600319011261012b5761048c610461610e0c565b610469610e36565b610471610e60565b9161047a610e7a565b926084359260045492602435906112c9565b90600454600160401b8110156104bc576104ba926103c98260016104b594016004556004610df7565b61149a565b005b634e487b7160e01b5f52604160045260245ffd5b3461012b57602036600319011261012b5760043560045481101561012b576104f9602091610ddf565b90549060031b1c604051908152f35b3461012b57602036600319011261012b5760206104f9600435610ddf565b3461012b575f36600319011261012b576020600554604051908152f35b3461012b575f36600319011261012b5760206040517f00000000000000000000000000000000000000000000000000000000000000008152f35b3461012b575f36600319011261012b576040517f00000000000000000000000000000000000000000000000000000000000000006001600160a01b03168152602090f35b3461012b573660031901610220811261012b576101201361012b57610144356001600160401b03811680910361012b57610164356001600160401b03811161012b57610611903690600401610ff0565b5050610184356001600160401b03811161012b57610633903690600401610ff0565b50506060366101a319011261012b57610204356001600160401b03811161012b57610662903690600401610e98565b9161066b611890565b50610104356003811091821561012b57600182036108f557608435906001600160401b03821680830361012b5742106108e657604435956040516106ae81610ef6565b8781528260208201526040610124359101526106c936610fab565b506101c4356001600160401b0381169081810361012b57506064359260ff84169081850361012b57016001600160401b0381116108d2576001600160401b035f199116016001600160401b0381116108d2576001600160401b0316036108c3576107338187611903565b956024358097036108b4575f5b828110610842575050506040519561075787610f2d565b600435808852602088019690965260408701526060860152608085015260a435906001600160a01b038216820361012b578160a086015260c435908160c087015260e435938460e08801521561012b57856107ff7f5d248001ee862aebdfe43bfaf026be2d34c08573daa99dcd4290c61dd78cee4b936107f7602098600261080e966101006101999d01908152526103c96107f1866119b9565b91610db3565b6006546112bc565b60065560405191829182611020565b0390a160405163a9059cbb60e01b81526001600160a01b039091166004820152602481019190915291829081906044820190565b6001907fdbc99fb7886018fa2df0ff1cadd9886f10b40f9873366c1f818e413ff931fd376108ab61087d3661087885898961121b565b6110b1565b5f60408201525f606082015261089f61089582611867565b6103c98351610ddf565b6040519182918261117f565b0390a101610740565b63ceb1159d60e01b5f5260045ffd5b638e082f6760e01b5f5260045ffd5b634e487b7160e01b5f52601160045260245ffd5b632d5c37f560e21b5f5260045ffd5b6322fc5d4360e21b5f5260045ffd5b3461012b57602036600319011261012b5760206104f9600435610db3565b3461012b573660031901610140811261012b5761093d61147f565b506044358015610b2957602435916001600160401b03831680840361012b57617080016001600160401b0381116108d2576001600160401b03164210610b1a576101401361012b576040519161099283610f11565b6004359081845260208401526040830191808352606084019160643583526084356001600160401b038116810361012b57608086015260a43569ffffffffffffffffffff198116810361012b5760a086015260c4356001600160a01b038116810361012b5760c086015260e435906001600160a01b038216820361012b578160e087015261010435610100870152610124359060ff8216820361012b575f60209581610a8798610a56956101208c015252526103c9610a5088611867565b91610ddf565b60405163a9059cbb60e01b81526001600160a01b039091166004820152602481019190915291829081906044820190565b03815f7f00000000000000000000000000000000000000000000000000000000000000006001600160a01b03165af190811561021c575f91610afb575b50156101de576103ed7fdbc99fb7886018fa2df0ff1cadd9886f10b40f9873366c1f818e413ff931fd37916040519182918261117f565b610b14915060203d602011610215576102078183610f49565b82610ac4565b6301b512a960e21b5f5260045ffd5b637941e9ad60e01b5f5260045ffd5b3461012b57608036600319011261012b57610b5236610f6a565b506064356001600160401b03811161012b57610b72903690600401610ff0565b5050602060405160018152f35b3461012b5761016036600319011261012b576044356001600160401b03811161012b57610bb0903690600401610e98565b906064356001600160a01b038116810361012b5760c4359060ff8216820361012b57610124356001600160401b03811161012b57610bf2903690600401610ec9565b9161014435956001600160401b03871161012b57610c17610c39973690600401610ec9565b969095610104359360e4359360a4359360843593600435602435600554611569565b60055491600160401b8310156104bc576103e16103ed926103c98560017f5d248001ee862aebdfe43bfaf026be2d34c08573daa99dcd4290c61dd78cee4b97016005556005610df7565b3461012b575f36600319011261012b57602060405160ff7f0000000000000000000000000000000000000000000000000000000000000000168152f35b3461012b5761020036600319011261012b57610cda610e0c565b610ce2610e36565b610cea610e60565b91610cf3610e7a565b906101403660c319011261012b57610d189260c43594859160843593602435906112c9565b91610d21611440565b5061010435610d3a576104ba926103c96104b592610ddf565b630faaae6760e31b5f5260045ffd5b3461012b57602036600319011261012b5760043560055481101561012b576104f9602091610db3565b3461012b575f36600319011261012b577f00000000000000000000000000000000000000000000000000000000000000006001600160a01b03168152602090f35b600554811015610dcb5760055f5260205f2001905f90565b634e487b7160e01b5f52603260045260245ffd5b600454811015610dcb5760045f5260205f2001905f90565b8054821015610dcb575f5260205f2001905f90565b600435906001600160a01b038216820361012b57565b35906001600160a01b038216820361012b57565b604435906001600160401b038216820361012b57565b35906001600160401b038216820361012b57565b6064359069ffffffffffffffffffff198216820361012b57565b60a4359060ff8216820361012b57565b359060ff8216820361012b57565b9181601f8401121561012b578235916001600160401b03831161012b57602080850194610140850201011161012b57565b9181601f8401121561012b578235916001600160401b03831161012b576020838186019501011161012b57565b606081019081106001600160401b038211176104bc57604052565b61014081019081106001600160401b038211176104bc57604052565b61012081019081106001600160401b038211176104bc57604052565b90601f801991011681019081106001600160401b038211176104bc57604052565b606090600319011261012b5760405190610f8382610ef6565b8160043581526024356001600160401b038116810361012b5760208201526040604435910152565b6060906101a319011261012b5760405190610fc582610ef6565b816101a43581526101c4356001600160401b038116810361012b57602082015260406101e435910152565b9181601f8401121561012b578235916001600160401b03831161012b576020808501948460051b01011161012b57565b91909161010061012082019380518352602081015160208401526040810151604084015260ff60608201511660608401526001600160401b03608082015116608084015260018060a01b0360a08201511660a084015260c081015160c084015260e081015160e0840152015190600382101561109d576101000152565b634e487b7160e01b5f52602160045260245ffd5b91908261014091031261012b576040516110ca81610f11565b8092803582526110dc60208201610e4c565b6020830152604081013560408301526060810135606083015261110160808201610e4c565b608083015260a08101359069ffffffffffffffffffff198216820361012b5761012061116291819360a086015261113a60c08201610e22565b60c086015261114b60e08201610e22565b60e086015261010081013561010086015201610e8a565b910152565b9081602091031261012b5751801515810361012b5790565b91909161012060ff81610140840195805185526001600160401b03602082015116602086015260408101516040860152606081015160608601526001600160401b03608082015116608086015269ffffffffffffffffffff1960a08201511660a086015260018060a01b0360c08201511660c086015260018060a01b0360e08201511660e0860152610100810151610100860152015116910152565b9190811015610dcb57610140020190565b91908261012091031261012b5760405161124581610f2d565b610100819380358352602081013560208401526040810135604084015261126e60608201610e8a565b606084015261127f60808201610e4c565b608084015261129060a08201610e22565b60a084015260c081013560c084015260e081013560e0840152013590600382101561012b576101000152565b919082018092116108d257565b91969593969290925f6101206040516112e181610f11565b8281528260208201528260408201528260608201528260808201528260a08201528260c08201528260e08201528261010082015201526107d18410611431576001600160401b03166103e88110611422575f82901a60f81b6001600160f81b0319161580611404575b156113f55760058402848104600514851517156108d25761271090048085039485116108d257606060ff976040519081528a60208201524660408201522094604051996113968b610f11565b8a52426001600160401b031660208b015260408a01526060890152608088015269ffffffffffffffffffff191660a08701526001600160a01b031660c08601523360e0860152610100850152166101208301526113f282611867565b90565b63fad7db0760e01b5f5260045ffd5b50600182901a60f81b6001600160f81b031916600560fa1b1461134a565b63fde5943160e01b5f5260045ffd5b6355fcd02760e01b5f5260045ffd5b61145361144e3660c46110b1565b611867565b61146060c4356004610df7565b90549060031b1c81036114705790565b63cd1d240d60e01b5f5260045ffd5b61148d61144e3660046110b1565b6114606004356004610df7565b6114e0907fdbc99fb7886018fa2df0ff1cadd9886f10b40f9873366c1f818e413ff931fd37604051806114cd848261117f565b0390a160606040820151910151906112bc565b6040516323b872dd60e01b815233600482015230602482015260448101919091526020816064815f7f00000000000000000000000000000000000000000000000000000000000000006001600160a01b03165af190811561021c575f9161154a575b50156101de57565b611563915060203d602011610215576102078183610f49565b5f611542565b9e9d9097959a92989b939c919694999c5f9a5f61010060405161158b81610f2d565b8281528260208201528260408201528260608201528260808201528260a08201528260c08201528260e08201520152600260ff8c1610611858576115ce91611903565b966001600160401b0382116104bc57604051906115f5601f8401601f191660200183610f49565b8282526020820193368482011161012b578f92948f958f9260208f97805f93863783010152519020926040519561162b87610f11565b60ff861687528c60208801526040870193845260608701928c8452608088019060018060a01b0316815260a0880191825260c0880192835260e08801938b85526101008901958d87526101208a0197885260206040519a60ff828d019b168b52015160408b01525160608a015251608089015260018060a01b0390511660a08801525160c08701525160e086015251610100850152516101208401525161014083015261014082526116df61016083610f49565b7f00000000000000000000000000000000000000000000000000000000000000006001600160a01b031690813b1561012b576020859360845f966040519889978896879563020a49e360e51b87527f00000000000000000000000000000000000000000000000000000000000000006004880152606060248801525180918160648901528688015e85810185018b9052601f01601f1916850185810385016003190160448701528085018290529260a484013781810183018501899052601f01601f191601010301915afa801561021c5761183e575b50906117c0916119ce565b61012c42019384421161182a57509160ff916001600160401b0394936040519a6117e98c610f2d565b8b5260208b015260408a01521660608801521660808601526001600160a01b031660a085015260c084015260e083015260016101008301526113f2826119b9565b634e487b7160e01b81526011600452602490fd5b6117c0929196505f61184f91610f49565b5f9590916117b5565b63d581427360e01b5f5260045ffd5b60405161188a8161187c60208201948561117f565b03601f198101835282610f49565b51902090565b6118a361189e36600461122c565b6119b9565b6118b06004356005610df7565b90549060031b1c81036118c05790565b631a40316d60e01b5f5260045ffd5b6118de61189e3661016461122c565b6118b0610164356005610df7565b6001600160401b0381116104bc5760051b60200190565b61190c826118ec565b9061191a6040519283610f49565b828252611926836118ec565b602083019390601f19013685376004905f5b81811061194c57505050505160051b902090565b61195781838661121b565b61196f61196761144e36846110b1565b913585610df7565b90549060031b1c81036119ab57855182101561199857600582901b860160200152600101611938565b603284634e487b7160e01b5f525260245ffd5b8363cd1d240d60e01b5f525ffd5b60405161188a8161187c602082019485611020565b815f54821491821592611a15575b5050611a12576020817f6a4b923d1c5dda45ec7bb1dbea585a753c54a92c68a94adaab178a99b3c64b85925f55604051908152a1565b50565b149050815f6119dc56fea26469706673582212203116e8d69271a9bcf86e4dbf7f8b952967ed415ece296a72cf141cbe6c2d0af264736f6c634300081b0033","linkReferences":{}},"methodIdentifiers":{"CIRCUIT_VERIFICATION_KEY()":"8d5ca052","DEPOSIT_TOKEN()":"13f66587","FEE_ROUTER_ADDRESS()":"898aeacb","TOKEN_DECIMALS()":"5b7f415c","VERIFIER_CONTRACT()":"b8b24592","accumulatedFeeBalance()":"ca18100d","depositLiquidity(address,uint256,uint64,bytes22,bytes32,uint8)":"b6ad21c0","depositLiquidityWithOverwrite(address,uint256,uint64,bytes22,bytes32,uint8,(uint256,uint64,uint256,uint256,uint64,bytes22,address,address,bytes32,uint8))":"4f585de8","getSwapCommitment(uint256)":"7ed34a36","getSwapCommitmentsLength()":"992284a6","getVaultCommitment(uint256)":"9f63bd97","getVaultCommitmentsLength()":"f5095c16","initialCheckpointLeaf()":"c2835816","mmrRoot()":"d21ddc61","payoutToFeeRouter()":"f23a94a9","proveBlockInclusion((bytes32,uint64,uint256),bytes32[])":"6a77158b","releaseLiquidity((uint256,bytes32,bytes32,uint8,uint64,address,uint256,uint256,uint8),uint256,uint64,bytes32[],bytes32[],(bytes32,uint64,uint256),(uint256,uint64,uint256,uint256,uint64,bytes22,address,address,bytes32,uint8)[])":"830e8793","submitSwapProof(bytes32,bytes32,(uint256,uint64,uint256,uint256,uint64,bytes22,address,address,bytes32,uint8)[],address,bytes32,bytes32,uint8,uint256,uint256,bytes,bytes)":"63f72341","submitSwapProofWithOverwrite(bytes32,bytes32,uint8,(uint256,uint64,uint256,uint256,uint64,bytes22,address,address,bytes32,uint8)[],address,bytes32,bytes32,uint256,uint256,bytes,bytes,(uint256,bytes32,bytes32,uint8,uint64,address,uint256,uint256,uint8))":"c102e1d6","swapCommitments(uint256)":"365df233","vaultCommitments(uint256)":"a6a0f96e","withdrawLiquidity((uint256,uint64,uint256,uint256,uint64,bytes22,address,address,bytes32,uint8))":"7e2b4901"},"storageLayout":{"storage":[{"astId":42260,"contract":"src/RiftExchange.sol:RiftExchange","label":"mmrRoot","offset":0,"slot":"0","type":"t_bytes32"},{"astId":42263,"contract":"src/RiftExchange.sol:RiftExchange","label":"initialCheckpointLeaf","offset":0,"slot":"1","type":"t_struct(BlockLeaf)43719_storage"},{"astId":42371,"contract":"src/RiftExchange.sol:RiftExchange","label":"vaultCommitments","offset":0,"slot":"4","type":"t_array(t_bytes32)dyn_storage"},{"astId":42374,"contract":"src/RiftExchange.sol:RiftExchange","label":"swapCommitments","offset":0,"slot":"5","type":"t_array(t_bytes32)dyn_storage"},{"astId":42376,"contract":"src/RiftExchange.sol:RiftExchange","label":"accumulatedFeeBalance","offset":0,"slot":"6","type":"t_uint256"}],"types":{"t_array(t_bytes32)dyn_storage":{"encoding":"dynamic_array","label":"bytes32[]","numberOfBytes":"32","base":"t_bytes32"},"t_bytes32":{"encoding":"inplace","label":"bytes32","numberOfBytes":"32"},"t_struct(BlockLeaf)43719_storage":{"encoding":"inplace","label":"struct Types.BlockLeaf","numberOfBytes":"96","members":[{"astId":43714,"contract":"src/RiftExchange.sol:RiftExchange","label":"blockHash","offset":0,"slot":"0","type":"t_bytes32"},{"astId":43716,"contract":"src/RiftExchange.sol:RiftExchange","label":"height","offset":0,"slot":"1","type":"t_uint64"},{"astId":43718,"contract":"src/RiftExchange.sol:RiftExchange","label":"cumulativeChainwork","offset":0,"slot":"2","type":"t_uint256"}]},"t_uint256":{"encoding":"inplace","label":"uint256","numberOfBytes":"32"},"t_uint64":{"encoding":"inplace","label":"uint64","numberOfBytes":"8"}}},"id":41}