{"abi":[{"type":"constructor","inputs":[{"name":"_mmrRoot","type":"bytes32","internalType":"bytes32"},{"name":"_depositToken","type":"address","internalType":"address"},{"name":"_circuitVerificationKey","type":"bytes32","internalType":"bytes32"},{"name":"_verifier","type":"address","internalType":"address"},{"name":"_feeRouter","type":"address","internalType":"address"},{"name":"_tipBlockLeaf","type":"tuple","internalType":"struct Types.BlockLeaf","components":[{"name":"blockHash","type":"bytes32","internalType":"bytes32"},{"name":"height","type":"uint32","internalType":"uint32"},{"name":"cumulativeChainwork","type":"uint256","internalType":"uint256"}]}],"stateMutability":"nonpayable"},{"type":"function","name":"CIRCUIT_VERIFICATION_KEY","inputs":[],"outputs":[{"name":"","type":"bytes32","internalType":"bytes32"}],"stateMutability":"view"},{"type":"function","name":"DEPOSIT_TOKEN","inputs":[],"outputs":[{"name":"","type":"address","internalType":"contract IERC20"}],"stateMutability":"view"},{"type":"function","name":"TOKEN_DECIMALS","inputs":[],"outputs":[{"name":"","type":"uint8","internalType":"uint8"}],"stateMutability":"view"},{"type":"function","name":"VERIFIER","inputs":[],"outputs":[{"name":"","type":"address","internalType":"contract ISP1Verifier"}],"stateMutability":"view"},{"type":"function","name":"accumulatedFeeBalance","inputs":[],"outputs":[{"name":"","type":"uint256","internalType":"uint256"}],"stateMutability":"view"},{"type":"function","name":"checkpoints","inputs":[{"name":"","type":"bytes32","internalType":"bytes32"}],"outputs":[{"name":"established","type":"bool","internalType":"bool"},{"name":"tipBlockLeaf","type":"tuple","internalType":"struct Types.BlockLeaf","components":[{"name":"blockHash","type":"bytes32","internalType":"bytes32"},{"name":"height","type":"uint32","internalType":"uint32"},{"name":"cumulativeChainwork","type":"uint256","internalType":"uint256"}]}],"stateMutability":"view"},{"type":"function","name":"depositLiquidity","inputs":[{"name":"params","type":"tuple","internalType":"struct Types.DepositLiquidityParams","components":[{"name":"depositOwnerAddress","type":"address","internalType":"address"},{"name":"specifiedPayoutAddress","type":"address","internalType":"address"},{"name":"depositAmount","type":"uint256","internalType":"uint256"},{"name":"expectedSats","type":"uint64","internalType":"uint64"},{"name":"btcPayoutScriptPubKey","type":"bytes25","internalType":"bytes25"},{"name":"depositSalt","type":"bytes32","internalType":"bytes32"},{"name":"confirmationBlocks","type":"uint8","internalType":"uint8"},{"name":"safeBlockLeaf","type":"tuple","internalType":"struct Types.BlockLeaf","components":[{"name":"blockHash","type":"bytes32","internalType":"bytes32"},{"name":"height","type":"uint32","internalType":"uint32"},{"name":"cumulativeChainwork","type":"uint256","internalType":"uint256"}]},{"name":"safeBlockSiblings","type":"bytes32[]","internalType":"bytes32[]"},{"name":"safeBlockPeaks","type":"bytes32[]","internalType":"bytes32[]"}]}],"outputs":[{"name":"","type":"bytes32","internalType":"bytes32"}],"stateMutability":"nonpayable"},{"type":"function","name":"depositLiquidityWithOverwrite","inputs":[{"name":"params","type":"tuple","internalType":"struct Types.DepositLiquidityWithOverwriteParams","components":[{"name":"depositParams","type":"tuple","internalType":"struct Types.DepositLiquidityParams","components":[{"name":"depositOwnerAddress","type":"address","internalType":"address"},{"name":"specifiedPayoutAddress","type":"address","internalType":"address"},{"name":"depositAmount","type":"uint256","internalType":"uint256"},{"name":"expectedSats","type":"uint64","internalType":"uint64"},{"name":"btcPayoutScriptPubKey","type":"bytes25","internalType":"bytes25"},{"name":"depositSalt","type":"bytes32","internalType":"bytes32"},{"name":"confirmationBlocks","type":"uint8","internalType":"uint8"},{"name":"safeBlockLeaf","type":"tuple","internalType":"struct Types.BlockLeaf","components":[{"name":"blockHash","type":"bytes32","internalType":"bytes32"},{"name":"height","type":"uint32","internalType":"uint32"},{"name":"cumulativeChainwork","type":"uint256","internalType":"uint256"}]},{"name":"safeBlockSiblings","type":"bytes32[]","internalType":"bytes32[]"},{"name":"safeBlockPeaks","type":"bytes32[]","internalType":"bytes32[]"}]},{"name":"overwriteVault","type":"tuple","internalType":"struct Types.DepositVault","components":[{"name":"vaultIndex","type":"uint256","internalType":"uint256"},{"name":"depositTimestamp","type":"uint64","internalType":"uint64"},{"name":"depositUnlockTimestamp","type":"uint64","internalType":"uint64"},{"name":"depositAmount","type":"uint256","internalType":"uint256"},{"name":"depositFee","type":"uint256","internalType":"uint256"},{"name":"expectedSats","type":"uint64","internalType":"uint64"},{"name":"btcPayoutScriptPubKey","type":"bytes25","internalType":"bytes25"},{"name":"specifiedPayoutAddress","type":"address","internalType":"address"},{"name":"ownerAddress","type":"address","internalType":"address"},{"name":"salt","type":"bytes32","internalType":"bytes32"},{"name":"confirmationBlocks","type":"uint8","internalType":"uint8"},{"name":"attestedBitcoinBlockHeight","type":"uint64","internalType":"uint64"}]}]}],"outputs":[{"name":"","type":"bytes32","internalType":"bytes32"}],"stateMutability":"nonpayable"},{"type":"function","name":"feeRouterAddress","inputs":[],"outputs":[{"name":"","type":"address","internalType":"address"}],"stateMutability":"view"},{"type":"function","name":"getLightClientHeight","inputs":[],"outputs":[{"name":"","type":"uint32","internalType":"uint32"}],"stateMutability":"view"},{"type":"function","name":"getSwapCommitment","inputs":[{"name":"swapIndex","type":"uint256","internalType":"uint256"}],"outputs":[{"name":"","type":"bytes32","internalType":"bytes32"}],"stateMutability":"view"},{"type":"function","name":"getSwapCommitmentsLength","inputs":[],"outputs":[{"name":"","type":"uint256","internalType":"uint256"}],"stateMutability":"view"},{"type":"function","name":"getVaultCommitment","inputs":[{"name":"vaultIndex","type":"uint256","internalType":"uint256"}],"outputs":[{"name":"","type":"bytes32","internalType":"bytes32"}],"stateMutability":"view"},{"type":"function","name":"getVaultCommitmentsLength","inputs":[],"outputs":[{"name":"","type":"uint256","internalType":"uint256"}],"stateMutability":"view"},{"type":"function","name":"mmrRoot","inputs":[],"outputs":[{"name":"","type":"bytes32","internalType":"bytes32"}],"stateMutability":"view"},{"type":"function","name":"owner","inputs":[],"outputs":[{"name":"","type":"address","internalType":"address"}],"stateMutability":"view"},{"type":"function","name":"payoutToFeeRouter","inputs":[],"outputs":[],"stateMutability":"nonpayable"},{"type":"function","name":"proveBlockInclusion","inputs":[{"name":"blockLeaf","type":"tuple","internalType":"struct Types.BlockLeaf","components":[{"name":"blockHash","type":"bytes32","internalType":"bytes32"},{"name":"height","type":"uint32","internalType":"uint32"},{"name":"cumulativeChainwork","type":"uint256","internalType":"uint256"}]},{"name":"siblings","type":"bytes32[]","internalType":"bytes32[]"},{"name":"peaks","type":"bytes32[]","internalType":"bytes32[]"}],"outputs":[{"name":"","type":"bool","internalType":"bool"}],"stateMutability":"view"},{"type":"function","name":"releaseLiquidityBatch","inputs":[{"name":"paramsArray","type":"tuple[]","internalType":"struct Types.ReleaseLiquidityParams[]","components":[{"name":"swap","type":"tuple","internalType":"struct Types.ProposedSwap","components":[{"name":"swapIndex","type":"uint256","internalType":"uint256"},{"name":"depositVaultCommitment","type":"bytes32","internalType":"bytes32"},{"name":"swapBitcoinBlockLeaf","type":"tuple","internalType":"struct Types.BlockLeaf","components":[{"name":"blockHash","type":"bytes32","internalType":"bytes32"},{"name":"height","type":"uint32","internalType":"uint32"},{"name":"cumulativeChainwork","type":"uint256","internalType":"uint256"}]},{"name":"confirmationBlocks","type":"uint8","internalType":"uint8"},{"name":"liquidityUnlockTimestamp","type":"uint64","internalType":"uint64"},{"name":"specifiedPayoutAddress","type":"address","internalType":"address"},{"name":"totalSwapFee","type":"uint256","internalType":"uint256"},{"name":"totalSwapOutput","type":"uint256","internalType":"uint256"},{"name":"state","type":"uint8","internalType":"enum Types.SwapState"}]},{"name":"bitcoinSwapBlockSiblings","type":"bytes32[]","internalType":"bytes32[]"},{"name":"bitcoinSwapBlockPeaks","type":"bytes32[]","internalType":"bytes32[]"},{"name":"utilizedVault","type":"tuple","internalType":"struct Types.DepositVault","components":[{"name":"vaultIndex","type":"uint256","internalType":"uint256"},{"name":"depositTimestamp","type":"uint64","internalType":"uint64"},{"name":"depositUnlockTimestamp","type":"uint64","internalType":"uint64"},{"name":"depositAmount","type":"uint256","internalType":"uint256"},{"name":"depositFee","type":"uint256","internalType":"uint256"},{"name":"expectedSats","type":"uint64","internalType":"uint64"},{"name":"btcPayoutScriptPubKey","type":"bytes25","internalType":"bytes25"},{"name":"specifiedPayoutAddress","type":"address","internalType":"address"},{"name":"ownerAddress","type":"address","internalType":"address"},{"name":"salt","type":"bytes32","internalType":"bytes32"},{"name":"confirmationBlocks","type":"uint8","internalType":"uint8"},{"name":"attestedBitcoinBlockHeight","type":"uint64","internalType":"uint64"}]},{"name":"tipBlockHeight","type":"uint32","internalType":"uint32"}]}],"outputs":[],"stateMutability":"nonpayable"},{"type":"function","name":"renounceOwnership","inputs":[],"outputs":[],"stateMutability":"nonpayable"},{"type":"function","name":"serializeLightClientPublicInput","inputs":[{"name":"input","type":"tuple","internalType":"struct Types.LightClientPublicInput","components":[{"name":"previousMmrRoot","type":"bytes32","internalType":"bytes32"},{"name":"newMmrRoot","type":"bytes32","internalType":"bytes32"},{"name":"compressedLeavesCommitment","type":"bytes32","internalType":"bytes32"},{"name":"tipBlockLeaf","type":"tuple","internalType":"struct Types.BlockLeaf","components":[{"name":"blockHash","type":"bytes32","internalType":"bytes32"},{"name":"height","type":"uint32","internalType":"uint32"},{"name":"cumulativeChainwork","type":"uint256","internalType":"uint256"}]}]}],"outputs":[{"name":"","type":"bytes","internalType":"bytes"}],"stateMutability":"pure"},{"type":"function","name":"setFeeRouterAddress","inputs":[{"name":"_feeRouter","type":"address","internalType":"address"}],"outputs":[],"stateMutability":"nonpayable"},{"type":"function","name":"submitBatchSwapProof","inputs":[{"name":"swapParams","type":"tuple[]","internalType":"struct Types.SubmitSwapProofParams[]","components":[{"name":"swapBitcoinTxid","type":"bytes32","internalType":"bytes32"},{"name":"vault","type":"tuple","internalType":"struct Types.DepositVault","components":[{"name":"vaultIndex","type":"uint256","internalType":"uint256"},{"name":"depositTimestamp","type":"uint64","internalType":"uint64"},{"name":"depositUnlockTimestamp","type":"uint64","internalType":"uint64"},{"name":"depositAmount","type":"uint256","internalType":"uint256"},{"name":"depositFee","type":"uint256","internalType":"uint256"},{"name":"expectedSats","type":"uint64","internalType":"uint64"},{"name":"btcPayoutScriptPubKey","type":"bytes25","internalType":"bytes25"},{"name":"specifiedPayoutAddress","type":"address","internalType":"address"},{"name":"ownerAddress","type":"address","internalType":"address"},{"name":"salt","type":"bytes32","internalType":"bytes32"},{"name":"confirmationBlocks","type":"uint8","internalType":"uint8"},{"name":"attestedBitcoinBlockHeight","type":"uint64","internalType":"uint64"}]},{"name":"storageStrategy","type":"uint8","internalType":"enum Types.StorageStrategy"},{"name":"localOverwriteIndex","type":"uint16","internalType":"uint16"},{"name":"swapBitcoinBlockLeaf","type":"tuple","internalType":"struct Types.BlockLeaf","components":[{"name":"blockHash","type":"bytes32","internalType":"bytes32"},{"name":"height","type":"uint32","internalType":"uint32"},{"name":"cumulativeChainwork","type":"uint256","internalType":"uint256"}]},{"name":"swapBitcoinBlockSiblings","type":"bytes32[]","internalType":"bytes32[]"},{"name":"swapBitcoinBlockPeaks","type":"bytes32[]","internalType":"bytes32[]"}]},{"name":"overwriteSwaps","type":"tuple[]","internalType":"struct Types.ProposedSwap[]","components":[{"name":"swapIndex","type":"uint256","internalType":"uint256"},{"name":"depositVaultCommitment","type":"bytes32","internalType":"bytes32"},{"name":"swapBitcoinBlockLeaf","type":"tuple","internalType":"struct Types.BlockLeaf","components":[{"name":"blockHash","type":"bytes32","internalType":"bytes32"},{"name":"height","type":"uint32","internalType":"uint32"},{"name":"cumulativeChainwork","type":"uint256","internalType":"uint256"}]},{"name":"confirmationBlocks","type":"uint8","internalType":"uint8"},{"name":"liquidityUnlockTimestamp","type":"uint64","internalType":"uint64"},{"name":"specifiedPayoutAddress","type":"address","internalType":"address"},{"name":"totalSwapFee","type":"uint256","internalType":"uint256"},{"name":"totalSwapOutput","type":"uint256","internalType":"uint256"},{"name":"state","type":"uint8","internalType":"enum Types.SwapState"}]},{"name":"proof","type":"bytes","internalType":"bytes"}],"outputs":[],"stateMutability":"nonpayable"},{"type":"function","name":"submitBatchSwapProofWithLightClientUpdate","inputs":[{"name":"swapParams","type":"tuple[]","internalType":"struct Types.SubmitSwapProofParams[]","components":[{"name":"swapBitcoinTxid","type":"bytes32","internalType":"bytes32"},{"name":"vault","type":"tuple","internalType":"struct Types.DepositVault","components":[{"name":"vaultIndex","type":"uint256","internalType":"uint256"},{"name":"depositTimestamp","type":"uint64","internalType":"uint64"},{"name":"depositUnlockTimestamp","type":"uint64","internalType":"uint64"},{"name":"depositAmount","type":"uint256","internalType":"uint256"},{"name":"depositFee","type":"uint256","internalType":"uint256"},{"name":"expectedSats","type":"uint64","internalType":"uint64"},{"name":"btcPayoutScriptPubKey","type":"bytes25","internalType":"bytes25"},{"name":"specifiedPayoutAddress","type":"address","internalType":"address"},{"name":"ownerAddress","type":"address","internalType":"address"},{"name":"salt","type":"bytes32","internalType":"bytes32"},{"name":"confirmationBlocks","type":"uint8","internalType":"uint8"},{"name":"attestedBitcoinBlockHeight","type":"uint64","internalType":"uint64"}]},{"name":"storageStrategy","type":"uint8","internalType":"enum Types.StorageStrategy"},{"name":"localOverwriteIndex","type":"uint16","internalType":"uint16"},{"name":"swapBitcoinBlockLeaf","type":"tuple","internalType":"struct Types.BlockLeaf","components":[{"name":"blockHash","type":"bytes32","internalType":"bytes32"},{"name":"height","type":"uint32","internalType":"uint32"},{"name":"cumulativeChainwork","type":"uint256","internalType":"uint256"}]},{"name":"swapBitcoinBlockSiblings","type":"bytes32[]","internalType":"bytes32[]"},{"name":"swapBitcoinBlockPeaks","type":"bytes32[]","internalType":"bytes32[]"}]},{"name":"blockProofParams","type":"tuple","internalType":"struct Types.BlockProofParams","components":[{"name":"priorMmrRoot","type":"bytes32","internalType":"bytes32"},{"name":"newMmrRoot","type":"bytes32","internalType":"bytes32"},{"name":"compressedBlockLeaves","type":"bytes","internalType":"bytes"},{"name":"tipBlockLeaf","type":"tuple","internalType":"struct Types.BlockLeaf","components":[{"name":"blockHash","type":"bytes32","internalType":"bytes32"},{"name":"height","type":"uint32","internalType":"uint32"},{"name":"cumulativeChainwork","type":"uint256","internalType":"uint256"}]}]},{"name":"overwriteSwaps","type":"tuple[]","internalType":"struct Types.ProposedSwap[]","components":[{"name":"swapIndex","type":"uint256","internalType":"uint256"},{"name":"depositVaultCommitment","type":"bytes32","internalType":"bytes32"},{"name":"swapBitcoinBlockLeaf","type":"tuple","internalType":"struct Types.BlockLeaf","components":[{"name":"blockHash","type":"bytes32","internalType":"bytes32"},{"name":"height","type":"uint32","internalType":"uint32"},{"name":"cumulativeChainwork","type":"uint256","internalType":"uint256"}]},{"name":"confirmationBlocks","type":"uint8","internalType":"uint8"},{"name":"liquidityUnlockTimestamp","type":"uint64","internalType":"uint64"},{"name":"specifiedPayoutAddress","type":"address","internalType":"address"},{"name":"totalSwapFee","type":"uint256","internalType":"uint256"},{"name":"totalSwapOutput","type":"uint256","internalType":"uint256"},{"name":"state","type":"uint8","internalType":"enum Types.SwapState"}]},{"name":"proof","type":"bytes","internalType":"bytes"}],"outputs":[],"stateMutability":"nonpayable"},{"type":"function","name":"swapCommitments","inputs":[{"name":"","type":"uint256","internalType":"uint256"}],"outputs":[{"name":"","type":"bytes32","internalType":"bytes32"}],"stateMutability":"view"},{"type":"function","name":"transferOwnership","inputs":[{"name":"newOwner","type":"address","internalType":"address"}],"outputs":[],"stateMutability":"nonpayable"},{"type":"function","name":"updateLightClient","inputs":[{"name":"blockProofParams","type":"tuple","internalType":"struct Types.BlockProofParams","components":[{"name":"priorMmrRoot","type":"bytes32","internalType":"bytes32"},{"name":"newMmrRoot","type":"bytes32","internalType":"bytes32"},{"name":"compressedBlockLeaves","type":"bytes","internalType":"bytes"},{"name":"tipBlockLeaf","type":"tuple","internalType":"struct Types.BlockLeaf","components":[{"name":"blockHash","type":"bytes32","internalType":"bytes32"},{"name":"height","type":"uint32","internalType":"uint32"},{"name":"cumulativeChainwork","type":"uint256","internalType":"uint256"}]}]},{"name":"proof","type":"bytes","internalType":"bytes"}],"outputs":[],"stateMutability":"nonpayable"},{"type":"function","name":"vaultCommitments","inputs":[{"name":"","type":"uint256","internalType":"uint256"}],"outputs":[{"name":"","type":"bytes32","internalType":"bytes32"}],"stateMutability":"view"},{"type":"function","name":"verifyZkProof","inputs":[{"name":"proofPublicInput","type":"tuple","internalType":"struct Types.ProofPublicInput","components":[{"name":"proofType","type":"uint8","internalType":"enum Types.ProofType"},{"name":"swaps","type":"tuple[]","internalType":"struct Types.SwapPublicInput[]","components":[{"name":"swapBitcoinTxid","type":"bytes32","internalType":"bytes32"},{"name":"swapBitcoinBlockHash","type":"bytes32","internalType":"bytes32"},{"name":"depositVaultCommitment","type":"bytes32","internalType":"bytes32"}]},{"name":"lightClient","type":"tuple","internalType":"struct Types.LightClientPublicInput","components":[{"name":"previousMmrRoot","type":"bytes32","internalType":"bytes32"},{"name":"newMmrRoot","type":"bytes32","internalType":"bytes32"},{"name":"compressedLeavesCommitment","type":"bytes32","internalType":"bytes32"},{"name":"tipBlockLeaf","type":"tuple","internalType":"struct Types.BlockLeaf","components":[{"name":"blockHash","type":"bytes32","internalType":"bytes32"},{"name":"height","type":"uint32","internalType":"uint32"},{"name":"cumulativeChainwork","type":"uint256","internalType":"uint256"}]}]}]},{"name":"proof","type":"bytes","internalType":"bytes"}],"outputs":[],"stateMutability":"view"},{"type":"function","name":"withdrawLiquidity","inputs":[{"name":"vault","type":"tuple","internalType":"struct Types.DepositVault","components":[{"name":"vaultIndex","type":"uint256","internalType":"uint256"},{"name":"depositTimestamp","type":"uint64","internalType":"uint64"},{"name":"depositUnlockTimestamp","type":"uint64","internalType":"uint64"},{"name":"depositAmount","type":"uint256","internalType":"uint256"},{"name":"depositFee","type":"uint256","internalType":"uint256"},{"name":"expectedSats","type":"uint64","internalType":"uint64"},{"name":"btcPayoutScriptPubKey","type":"bytes25","internalType":"bytes25"},{"name":"specifiedPayoutAddress","type":"address","internalType":"address"},{"name":"ownerAddress","type":"address","internalType":"address"},{"name":"salt","type":"bytes32","internalType":"bytes32"},{"name":"confirmationBlocks","type":"uint8","internalType":"uint8"},{"name":"attestedBitcoinBlockHeight","type":"uint64","internalType":"uint64"}]}],"outputs":[],"stateMutability":"nonpayable"},{"type":"event","name":"BitcoinLightClientUpdated","inputs":[{"name":"priorMmrRoot","type":"bytes32","indexed":false,"internalType":"bytes32"},{"name":"newMmrRoot","type":"bytes32","indexed":false,"internalType":"bytes32"},{"name":"compressedBlockLeaves","type":"bytes","indexed":false,"internalType":"bytes"}],"anonymous":false},{"type":"event","name":"OwnershipTransferred","inputs":[{"name":"previousOwner","type":"address","indexed":true,"internalType":"address"},{"name":"newOwner","type":"address","indexed":true,"internalType":"address"}],"anonymous":false},{"type":"event","name":"SwapsUpdated","inputs":[{"name":"swaps","type":"tuple[]","indexed":false,"internalType":"struct Types.ProposedSwap[]","components":[{"name":"swapIndex","type":"uint256","internalType":"uint256"},{"name":"depositVaultCommitment","type":"bytes32","internalType":"bytes32"},{"name":"swapBitcoinBlockLeaf","type":"tuple","internalType":"struct Types.BlockLeaf","components":[{"name":"blockHash","type":"bytes32","internalType":"bytes32"},{"name":"height","type":"uint32","internalType":"uint32"},{"name":"cumulativeChainwork","type":"uint256","internalType":"uint256"}]},{"name":"confirmationBlocks","type":"uint8","internalType":"uint8"},{"name":"liquidityUnlockTimestamp","type":"uint64","internalType":"uint64"},{"name":"specifiedPayoutAddress","type":"address","internalType":"address"},{"name":"totalSwapFee","type":"uint256","internalType":"uint256"},{"name":"totalSwapOutput","type":"uint256","internalType":"uint256"},{"name":"state","type":"uint8","internalType":"enum Types.SwapState"}]},{"name":"context","type":"uint8","indexed":false,"internalType":"enum Types.SwapUpdateContext"}],"anonymous":false},{"type":"event","name":"VaultsUpdated","inputs":[{"name":"vaults","type":"tuple[]","indexed":false,"internalType":"struct Types.DepositVault[]","components":[{"name":"vaultIndex","type":"uint256","internalType":"uint256"},{"name":"depositTimestamp","type":"uint64","internalType":"uint64"},{"name":"depositUnlockTimestamp","type":"uint64","internalType":"uint64"},{"name":"depositAmount","type":"uint256","internalType":"uint256"},{"name":"depositFee","type":"uint256","internalType":"uint256"},{"name":"expectedSats","type":"uint64","internalType":"uint64"},{"name":"btcPayoutScriptPubKey","type":"bytes25","internalType":"bytes25"},{"name":"specifiedPayoutAddress","type":"address","internalType":"address"},{"name":"ownerAddress","type":"address","internalType":"address"},{"name":"salt","type":"bytes32","internalType":"bytes32"},{"name":"confirmationBlocks","type":"uint8","internalType":"uint8"},{"name":"attestedBitcoinBlockHeight","type":"uint64","internalType":"uint64"}]},{"name":"context","type":"uint8","indexed":false,"internalType":"enum Types.VaultUpdateContext"}],"anonymous":false},{"type":"error","name":"CannotOverwriteOngoingSwap","inputs":[]},{"type":"error","name":"ChainworkTooLow","inputs":[]},{"type":"error","name":"CheckpointNotEstablished","inputs":[]},{"type":"error","name":"DepositAmountTooLow","inputs":[]},{"type":"error","name":"DepositStillLocked","inputs":[]},{"type":"error","name":"DepositVaultDoesNotExist","inputs":[]},{"type":"error","name":"DepositVaultNotOverwritable","inputs":[]},{"type":"error","name":"EmptyDepositVault","inputs":[]},{"type":"error","name":"InvalidBlockInclusionProof","inputs":[]},{"type":"error","name":"InvalidScriptPubKey","inputs":[]},{"type":"error","name":"InvalidSwapBlockInclusionProof","inputs":[]},{"type":"error","name":"InvalidVaultCommitment","inputs":[]},{"type":"error","name":"NoFeeToPay","inputs":[]},{"type":"error","name":"NoSwapsToSubmit","inputs":[]},{"type":"error","name":"NotEnoughConfirmationBlocks","inputs":[]},{"type":"error","name":"NotEnoughConfirmations","inputs":[]},{"type":"error","name":"OwnableInvalidOwner","inputs":[{"name":"owner","type":"address","internalType":"address"}]},{"type":"error","name":"OwnableUnauthorizedAccount","inputs":[{"name":"account","type":"address","internalType":"address"}]},{"type":"error","name":"SatOutputTooLow","inputs":[]},{"type":"error","name":"StillInChallengePeriod","inputs":[]},{"type":"error","name":"SwapDoesNotExist","inputs":[]},{"type":"error","name":"SwapNotProved","inputs":[]},{"type":"error","name":"TransferFailed","inputs":[]}],"bytecode":{"object":"0x610100806040523461026b5780613123803803809161001e82856102a9565b833981010390610100821261026b5780519061003c602082016102cc565b60408201519161004e606082016102cc565b93606061005d608084016102cc565b96609f19011261026b5760405191606083016001600160401b038111848210176102955760405260a0810151835260c08101519063ffffffff8216820361026b5760e091602085015201516040830152805f5560405191604083019083821060018060401b0383111761029557600392604092835260018552602085019182525f526001602052815f209351151560ff8019865416911617845551805160018501556002840163ffffffff60208301511663ffffffff19825416179055015191015533156102825760028054336001600160a01b031982168117909255604051926020928492600492849290916001600160a01b03167f8be0079c531659141344cd1fd0a4f28419497f9722a3daafe3b4186f6b6457e05f80a36001600160a01b0316608081905263313ce56760e01b82525afa908115610277575f91610237575b5060a05260c0526001600160a01b0390811660e052600680546001600160a01b03191692909116919091179055604051612e4290816102e182396080518181816102610152818161076601528181610e13015281816113420152612bc2015260a05181610b5f015260c05181818161095e01528181610ce50152611b50015260e051818181610c00015281816113860152611af10152f35b90506020813d60201161026f575b81610252602093836102a9565b8101031261026b575160ff8116810361026b575f61019f565b5f80fd5b3d9150610245565b6040513d5f823e3d90fd5b631e4fbdf760e01b5f525f60045260245ffd5b634e487b7160e01b5f52604160045260245ffd5b601f909101601f19168101906001600160401b0382119082101761029557604052565b51906001600160a01b038216820361026b5756fe60806040526004361015610011575f80fd5b5f5f3560e01c8063029774141461152257806307a2ec52146113b557806308c84e701461137157806313f665871461132d5780631cbeebeb146112f0578063365df233146112c75780634276994614611201578063428f29b8146111d95780635861af0014610da5578063592b664914610b835780635b7f415c14610b455780636093855014610b00578063640179d814610a7c578063715018a614610a1f5780637c2301a6146109a05780637ed34a36146109815780638d5ca052146109465780638da5cb5b1461091d578063992284a6146108ff5780639f63bd97146108e0578063a6a0f96e146108a6578063c190c164146105e9578063ca18100d146105cb578063d21ddc61146105ae578063e16ddab31461041d578063eb5e91ff146103b9578063eb9ecdd1146102fa578063f23a94a91461020d578063f2fde38b146101845763f5095c1614610164575f80fd5b346101815780600319360112610181576020600354604051908152f35b80fd5b50346101815760203660031901126101815761019e611864565b6101a6612879565b6001600160a01b031680156101f957600280546001600160a01b0319811683179091556001600160a01b03167f8be0079c531659141344cd1fd0a4f28419497f9722a3daafe3b4186f6b6457e08380a380f35b631e4fbdf760e01b82526004829052602482fd5b503461018157806003193601126101815760055480156102eb57600582905560065460405163a9059cbb60e01b81526001600160a01b039091166004820152602481019190915260208180604481010381857f00000000000000000000000000000000000000000000000000000000000000006001600160a01b03165af19081156102e05782916102b1575b50156102a25780f35b6312171d8360e31b8152600490fd5b6102d3915060203d6020116102d9575b6102cb8183611793565b810190611f54565b5f610299565b503d6102c1565b6040513d84823e3d90fd5b630fbcad4560e21b8252600482fd5b5034610181576020366003190112610181576004356001600160401b0381116103b557803603906101a06003198301126103b1576024810161033b816125f2565b5060848201356103a2573592600482013592610182190183121561018157602061037d61039a866103956103748260048a8a01016128c2565b94859193611837565b90919082549060031b91821b915f19901b1916179055565b612b14565b604051908152f35b630faaae6760e31b8452600484fd5b8280fd5b5080fd5b5034610181576020366003190112610181576040608091600435815260016020522061041b6103ef600160ff84541693016118b2565b60405192151583526020830190604080918051845263ffffffff60208201511660208501520151910152565bf35b5034610181576080366003190112610181576004356001600160401b0381116103b55761044e90369060040161167c565b602435906001600160401b0382116105aa57816004019260c060031984360301126105a6576044356001600160401b0381116105a2576104929036906004016116ac565b90926064356001600160401b03811161059e576104b39036906004016116dd565b949093873593602488013592606489019460448a01996104d38b8d612012565b6104dd368a6117cb565b916104e992898c61274b565b6084016104f590612089565b936104ff946120ba565b9661050a9198612012565b369061051592612044565b80519060200120906040519361052a8561170a565b84526020840152604083015236610540916117cb565b60608201526040519361055285611725565b600285526020850152604084015261056992611ae9565b604051610577819282611982565b037fdc0391168b5903ca02f8020523ba62927809fd9d25baf94fcb8bb339e0c8f73191a180f35b8780fd5b8580fd5b8480fd5b8380fd5b503461018157806003193601126101815760209054604051908152f35b50346101815780600319360112610181576020600554604051908152f35b503461018157366003190161018081126103b55761060561262f565b50606435801561089757604435916001600160401b0383168084036105a657421061088857610180136103b1576040519161063f8361175c565b60043583526024356001600160401b03811681036105a65760208401526040830152606082018181526080830191608435835260a4356001600160401b03811681036105a25760a085015260c43566ffffffffffffff19811681036105a25760c085015260e4356001600160a01b03811681036105a25760e0850152610104356001600160a01b03811681036105a25780610100860152610124356101208601526101443560ff81168103610884576101408601528561016435946001600160401b03861686036103b55781602095610761976101608a0152525261073061072686612701565b61037d8751611837565b60405163a9059cbb60e01b81526001600160a01b039091166004820152602481019190915291829081906044820190565b0381867f00000000000000000000000000000000000000000000000000000000000000006001600160a01b03165af190811561087957839161085a575b501561084b576107ac611cc2565b906107b682611e77565b526107c081611e77565b5060405160408101604082528251809152602060608301930190845b81811061082a57505050807fbcf83654bbe8d2d5a003763444fb50a895b7721b0239dcd314d345f8a3cdfb1992600160208301520390a180f35b634e487b7160e01b5f52602160045260245ffd5b9091936020610180826108406001948951611f6c565b0195019291016107dc565b6312171d8360e31b8252600482fd5b610873915060203d6020116102d9576102cb8183611793565b5f61079e565b6040513d85823e3d90fd5b8680fd5b6301b512a960e21b8452600484fd5b637941e9ad60e01b8352600483fd5b503461018157602036600319011261018157600435906003548210156101815760206108d183611837565b90549060031b1c604051908152f35b50346101815760203660031901126101815760206108d1600435611837565b50346101815780600319360112610181576020600454604051908152f35b50346101815780600319360112610181576002546040516001600160a01b039091168152602090f35b503461018157806003193601126101815760206040517f00000000000000000000000000000000000000000000000000000000000000008152f35b50346101815760203660031901126101815760206108d160043561180b565b50346101815760c03660031901126101815750610a1b6040516109c28161170a565b6004358152602435602082015260443560408201526109e23660646117cb565b60608201526109f86040519160208301906119d2565b60c08152610a0760e082611793565b60405191829160208352602083019061188e565b0390f35b5034610181578060031936011261018157610a38612879565b600280546001600160a01b0319811690915581906001600160a01b03167f8be0079c531659141344cd1fd0a4f28419497f9722a3daafe3b4186f6b6457e08280a380f35b5034610181576020366003190112610181576004356001600160401b0381116103b55761018060031982360301126103b557600354610abd916004016128c2565b909160035490600160401b821015610aec57506020926103958361037d84600161039a9601600355600361184f565b634e487b7160e01b81526041600452602490fd5b503461018157602036600319011261018157610b1a611864565b610b22612879565b60018060a01b03166bffffffffffffffffffffffff60a01b600654161760065580f35b5034610181578060031936011261018157602060405160ff7f0000000000000000000000000000000000000000000000000000000000000000168152f35b5034610d76576040366003190112610d76576004356001600160401b038111610d7657806004019060c06003198236030112610d76576024356001600160401b038111610d7657610bd89036906004016116dd565b9190926044820190610bf4610bed8383612012565b3691612044565b805160209190910120947f00000000000000000000000000000000000000000000000000000000000000006001600160a01b031694604051956020610c398189611793565b5f8852601f19015f5b818110610d7a57505090610cb491610cc2853598606460248a013599019a60405190610c6d8261170a565b8b82528a60208301526040820152610c85368d6117cb565b606082015260405191610c9783611725565b600183526020830152604082015260405194859160208301611a18565b03601f198101855284611793565b803b15610d7657610d0d935f936040519586948593849363020a49e360e51b85527f000000000000000000000000000000000000000000000000000000000000000060048601611abd565b03915afa8015610d6b57610d43575b5091610d30610d3a9492610d409694612012565b94909336906117cb565b9161274b565b80f35b610d409593919650610d3a9492610d5d5f610d3093611793565b5f9792949650929450610d1c565b6040513d5f823e3d90fd5b5f80fd5b602090610d85611bbf565b82828c01015201610c42565b634e487b7160e01b5f52604160045260245ffd5b34610d76576020366003190112610d76576004356001600160401b038111610d7657610dd590369060040161167c565b610dde81611bdd565b90610de8816117b4565b92610df66040519485611793565b818452601f19610e05836117b4565b015f5b8181106111c25750507f00000000000000000000000000000000000000000000000000000000000000006001600160a01b03165f5b838110610f2e578585604051604081016040825282518091526020606083019301905f5b818110610f0d57505050807fdc0391168b5903ca02f8020523ba62927809fd9d25baf94fcb8bb339e0c8f73192600160208301520390a1604051604081016040825282518091526020606083019301905f5b818110610eec57505050807fbcf83654bbe8d2d5a003763444fb50a895b7721b0239dcd314d345f8a3cdfb1992600260208301520390a1005b909193602061018082610f026001948951611f6c565b019501929101610eb3565b909193602061016082610f2360019489516118ea565b019501929101610e61565b610f41610f3c828686611d02565b6125b5565b50610140610f50828686611d02565b01356003811015610d7657600190610f67816118e0565b036111b3576001600160401b03610f8a60c0610f84848888611d02565b01611d25565b1642106111a457610fa86101a0610fa2838787611d02565b016125f2565b6020610fb5838787611d02565b0135036111955761102b610fd6366040610fd0858989611d02565b016117cb565b8585610ff1610fe6868484611d02565b610160810190611d39565b9060ff61102460a061101e8a61101661100b828b8b611d02565b610180810190611d39565b999098611d02565b01611d6e565b169461264a565b611043366101a061103d848888611d02565b01611d9e565b5f60608201525f608082015261106561105b82612701565b61037d8351611837565b61106f8288611e84565b5261107a8187611e84565b5061108f3661108a838787611d02565b611e98565b9060026101008301526110b86110a483612729565b61037d6110b2848989611d02565b3561180b565b6110d36101006110c9838888611d02565b0135600554611f33565b60055561112f60206110f160e06110eb858a8a611d02565b01611f40565b6101206110ff858a8a611d02565b60405163a9059cbb60e01b81526001600160a01b0390931660048401520135602482015291829081906044820190565b03815f885af1908115610d6b575f91611177575b5015611168576001916111568288611e84565b526111618187611e84565b5001610e3d565b6312171d8360e31b5f5260045ffd5b61118f915060203d81116102d9576102cb8183611793565b88611143565b63ceb1159d60e01b5f5260045ffd5b632d5c37f560e21b5f5260045ffd5b6322fc5d4360e21b5f5260045ffd5b6020906111cd611c6a565b82828901015201610e08565b34610d76575f366003190112610d76576006546040516001600160a01b039091168152602090f35b34610d7657366003190160a08112610d7657606013610d765760405161122681611725565b600435815260243563ffffffff81168103610d7657602082015260443560408201526064356001600160401b038111610d765761126790369060040161167c565b91608435916001600160401b038311610d765760209361128e6112bd94369060040161167c565b916112b46112af5f545f52600160205263ffffffff600260405f2001541690565b611b93565b935f54956124b0565b6040519015158152f35b34610d76576020366003190112610d7657600435600454811015610d76576108d160209161180b565b34610d76575f366003190112610d7657602061131f5f545f52600160205263ffffffff600260405f2001541690565b63ffffffff60405191168152f35b34610d76575f366003190112610d76576040517f00000000000000000000000000000000000000000000000000000000000000006001600160a01b03168152602090f35b34610d76575f366003190112610d76576040517f00000000000000000000000000000000000000000000000000000000000000006001600160a01b03168152602090f35b34610d76576040366003190112610d76576004356001600160401b038111610d765780360390610100600319830112610d7657604051916113f583611725565b81600401356003811015610d7657835260248201356001600160401b038111610d7657820136602382011215610d76576004810135611433816117b4565b916114416040519384611793565b81835260206004606082860194028301010190368211610d7657602401915b8183106114e657505050602084015260c060431990910112610d76576114b16040519161148c8361170a565b60448101358352606481013560208401526084810135604084015260a43691016117cb565b60608201526040820152602435906001600160401b038211610d76576114de6114e49236906004016116dd565b91611ae9565b005b606083360312610d7657602060609160405161150181611725565b85358152828601358382015260408601356040820152815201920191611460565b34610d76576060366003190112610d76576004356001600160401b038111610d765761155290369060040161167c565b906024356001600160401b038111610d76576115729036906004016116ac565b9190604435936001600160401b038511610d76576115e56116779461166b936115c07fdc0391168b5903ca02f8020523ba62927809fd9d25baf94fcb8bb339e0c8f7319836906004016116dd565b9490966115e05f545f52600160205263ffffffff600260405f2001541690565b6120ba565b6040949194516115f48161170a565b5f81525f60208201525f6040820152606061160d611bbf565b91015260405161161c81611725565b5f81525f60208201525f6040820152604051906116388261170a565b5f82525f60208301525f604083015260608201526040519161165983611725565b5f835260208301526040820152611ae9565b60405191829182611982565b0390a1005b9181601f84011215610d76578235916001600160401b038311610d76576020808501948460051b010111610d7657565b9181601f84011215610d76578235916001600160401b038311610d76576020808501946101608502010111610d7657565b9181601f84011215610d76578235916001600160401b038311610d765760208381860195010111610d7657565b608081019081106001600160401b03821117610d9157604052565b606081019081106001600160401b03821117610d9157604052565b61012081019081106001600160401b03821117610d9157604052565b61018081019081106001600160401b03821117610d9157604052565b604081019081106001600160401b03821117610d9157604052565b90601f801991011681019081106001600160401b03821117610d9157604052565b6001600160401b038111610d915760051b60200190565b9190826060910312610d76576040516117e381611725565b809280358252602081013563ffffffff81168103610d76576020830152604090810135910152565b6004548110156118235760045f5260205f2001905f90565b634e487b7160e01b5f52603260045260245ffd5b6003548110156118235760035f5260205f2001905f90565b8054821015611823575f5260205f2001905f90565b600435906001600160a01b0382168203610d7657565b35906001600160a01b0382168203610d7657565b805180835260209291819084018484015e5f828201840152601f01601f1916010190565b906040516118bf81611725565b6040600282948054845263ffffffff60018201541660208501520154910152565b6003111561081657565b80518252602080820151818401526040808301518051828601529182015163ffffffff16606085015201516080830152610140906101009060ff60608201511660a08501526001600160401b0360808201511660c085015260018060a01b0360a08201511660e085015260c08101518285015260e0810151610120850152015191611974836118e0565b0152565b6002111561081657565b9190604083016040845281518091526020606085019201905f5b8181106119b15750919391505060205f910152565b9091926020610160826119c760019488516118ea565b01940192910161199c565b90606080611a16938051845260208101516020850152604081015160408501520151910190604080918051845263ffffffff60208201511660208501520151910152565b565b602081526101208101918051611a2d816118e0565b602083015260208101519261010060408401528351809152602061014084019401905f5b818110611a6f5750505060400151611a6c91606001906119d2565b90565b9091946020606060019260408951805183528481015185840152015160408201520196019101919091611a51565b908060209392818452848401375f828201840152601f01601f1916010190565b9290611a6c9492611adb91855260606020860152606085019061188e565b926040818503910152611a9d565b6040519192907f00000000000000000000000000000000000000000000000000000000000000006001600160a01b031690611b2d908490610cb49060208301611a18565b803b15610d7657611b78935f936040519586948593849363020a49e360e51b85527f000000000000000000000000000000000000000000000000000000000000000060048601611abd565b03915afa8015610d6b57611b895750565b5f611a1691611793565b63ffffffff60019116019063ffffffff8211611bab57565b634e487b7160e01b5f52601160045260245ffd5b60405190611bcc82611725565b5f6040838281528260208201520152565b90611be7826117b4565b611bf46040519182611793565b8281528092611c05601f19916117b4565b01905f5b828110611c1557505050565b602090604051611c2481611740565b5f81525f83820152611c34611bbf565b60408201525f60608201525f60808201525f60a08201525f60c08201525f60e08201525f61010082015282828501015201611c09565b60405190611c778261175c565b5f610160838281528260208201528260408201528260608201528260808201528260a08201528260c08201528260e08201528261010082015282610120820152826101408201520152565b60408051909190611cd38382611793565b6001815291601f1901825f5b828110611ceb57505050565b602090611cf6611c6a565b82828501015201611cdf565b91908110156118235760051b8101359061033e1981360301821215610d76570190565b356001600160401b0381168103610d765790565b903590601e1981360301821215610d7657018035906001600160401b038211610d7657602001918160051b36038313610d7657565b3560ff81168103610d765790565b35906001600160401b0382168203610d7657565b359060ff82168203610d7657565b919082610180910312610d7657604051611db78161175c565b809280358252611dc960208201611d7c565b6020830152611dda60408201611d7c565b60408301526060810135606083015260808101356080830152611dff60a08201611d7c565b60a083015260c08101359066ffffffffffffff1982168203610d7657610160611e7291819360c0860152611e3560e0820161187a565b60e0860152611e47610100820161187a565b610100860152610120810135610120860152611e666101408201611d90565b61014086015201611d7c565b910152565b8051156118235760200190565b80518210156118235760209160051b010190565b91909161016081840312610d765761014060405191611eb683611740565b611ed283958235855260208301356020860152604083016117cb565b6040840152611ee360a08201611d90565b6060840152611ef460c08201611d7c565b6080840152611f0560e0820161187a565b60a084015261010081013560c084015261012081013560e08401520135906003821015610d76576101000152565b91908201809211611bab57565b356001600160a01b0381168103610d765790565b90816020910312610d7657518015158103610d765790565b6001600160401b0361016080928051855282602082015116602086015282604082015116604086015260608101516060860152608081015160808601528260a08201511660a086015266ffffffffffffff1960c08201511660c086015260018060a01b0360e08201511660e086015260018060a01b036101008201511661010086015261012081015161012086015260ff61014082015116610140860152015116910152565b903590601e1981360301821215610d7657018035906001600160401b038211610d7657602001918136038313610d7657565b9291926001600160401b038211610d91576040519161206d601f8201601f191660200184611793565b829481845281830111610d76578281602093845f960137010152565b3563ffffffff81168103610d765790565b3561ffff81168103610d765790565b919081101561182357610160020190565b909391938415612491576120cd856117b4565b906120db6040519283611793565b858252601f196120ea876117b4565b015f5b81811061247a5750508161210087611bdd565b92600454985f995b898b101561246d57809a8060051b86013561027e1987360301811215610d765786016101a081013560028110159384610d765761214482611978565b816123d3575f198114611bab576001019d5b602083016121643682611d9e565b608060608201519101908151918260011b9280840460021490151715611bab5761219c8f92612196908e9351906128b5565b946125f2565b916121d4896101e08a01936040516121b381611725565b8b358152853560208201528660408201526121ce8383611e84565b52611e84565b506122256122206121e96102408b018b611d39565b91906101608c6121fd610260820182611d39565b929091019461220b86611d6e565b9360ff612218368c6117cb565b95169461264a565b611d6e565b9063ffffffff6001600160401b036122406101808c01611d25565b169116036001600160401b038111611bab576001600160401b03166085026001600160401b038116908103611bab5761e3b3016001600160401b038111611bab576001600160401b036103e88161012c9316041601906001600160401b038211611bab576122e86001600160401b036122bd8160ff951642611f33565b16936122cc6101008c01611f40565b95604051996122da8b611740565b8a5260208a015236906117cb565b604088015216606086015260808501526001600160a01b031660a084015260c083015260e08201526001610100820152612322848b611e84565b5261232d838a611e84565b5061234161233b848b611e84565b51612729565b93610d76578b918b9161235381611978565b806123895750505050600454600160401b811015610d915760019261037d82856123829401600455600461184f565b0199612108565b9060018096939261239981611978565b146123a8575b50505050612382565b6123ca9361037d9261ffff6123c36101c06110b2950161209a565b16916120a9565b895f8a8161239f565b9d5f94506123e082611978565b8b8d600184146123f2575b5050612156565b610140919250612429906101c086019361241c610f3c61ffff6124148861209a565b1683856120a9565b5061ffff6123c38661209a565b01356003811015610d7657600290612440816118e0565b0361245e578c8c61ffff6123c36124569461209a565b358b8d6123eb565b63a5f611fd60e01b5f5260045ffd5b5096509650505094505050565b602090612485611bbf565b828287010152016120ed565b6308d98c4f60e01b5f5260045ffd5b91908110156118235760051b0190565b919093929363ffffffff6124e784516020860195604084885116910151919091606092604051928352602083015260408201522090565b935116905f925b80841061256457505050505f905f5b83811061253e575b5050156125365761251591612c42565b90811561252f5763ffffffff165f5260205260405f201490565b5050505f90565b505050505f90565b8161254a8286886124a0565b3514612558576001016124fd565b50505060015f80612505565b9293600183811c949293811603612597576125808583856124a0565b355f52602052600160405f20945b019291906124ee565b6125a28583856124a0565b35905f52602052600160405f209461258e565b6125d36125ca6125c53684611e98565b612729565b9135600461184f565b90549060031b1c81036125e35790565b631a40316d60e01b5f5260045ffd5b6126106126076126023684611d9e565b612701565b9135600361184f565b90549060031b1c81036126205790565b63cd1d240d60e01b5f5260045ffd5b61263d612602366004611d9e565b612610600435600361184f565b949361267d939291926126736112af5f545f52600160205263ffffffff600260405f2001541690565b925f5494886124b0565b156126f25763ffffffff60206126a65f545f52600160205263ffffffff600260405f2001541690565b930151169063ffffffff5f1991160163ffffffff8111611bab5763ffffffff160163ffffffff8111611bab5763ffffffff8091169116106126e357565b635c9885ab60e11b5f5260045ffd5b637344e0b760e01b5f5260045ffd5b604051612712602082018093611f6c565b61018081526127236101a082611793565b51902090565b60405161273a6020820180936118ea565b610160815261272361018082611793565b9190925f5480851461287157835f52600160205260405f2061278460016040519261277584611778565b60ff81541615158452016118b2565b60208201525115612862575f526001602052600360405f20015460408301511115612853577f6768baae39ee0e687f7c44f7006a147b15ffb56031969140096fe95461eea2fd9461284e92600360408051926127df84611778565b6001845260208401908152885f526001602052815f209351151560ff8019865416911617845551805160018501556002840163ffffffff60208301511663ffffffff198254161790550151910155845f5560405194859485526020850152606060408501526060840191611a9d565b0390a1565b6307800bf560e21b5f5260045ffd5b63e1965c6560e01b5f5260045ffd5b505050505050565b6002546001600160a01b0316330361288d57565b63118cdaa760e01b5f523360045260245ffd5b3566ffffffffffffff1981168103610d765790565b91908203918211611bab57565b9190916128cd611c6a565b506040810135906107d18210612b0557606081016103e86001600160401b036128f583611d25565b1610612af65760c0820190600260ff61290d84611d6e565b1610612ae7576080830193612929612924866128a0565b612c93565b15612ad85761297d61293f610140860186611d39565b9061294e610160880188611d39565b9061295c3660e08b016117cb565b936112b46112af5f545f52600160205263ffffffff600260405f2001541690565b15612ac9576005810281810460051482151715611bab5761271090049460ff6129a585611d6e565b16611c20029163ffffffff8316928303611bab5786926129c59042611f33565b6001600160401b0316966129d8916128b5565b926129e290611d25565b906129ec906128a0565b906129f960208701611f40565b92612a0387611f40565b948a4660a08a013591612a29929091606092604051928352602083015260408201522090565b96612a3390611d6e565b9761010001612a4190612089565b986040519b612a4f8d61175c565b8c526001600160401b0342811660208e015260408d019190915260608c019190915260808b01919091521660a089015266ffffffffffffff191660c08801526001600160a01b0390811660e08801521661010086015261012085015260ff1661014084015263ffffffff16610160830152611a6c82612701565b634784fd3160e01b5f5260045ffd5b63fad7db0760e01b5f5260045ffd5b63bdf8f2b360e01b5f5260045ffd5b63fde5943160e01b5f5260045ffd5b6355fcd02760e01b5f5260045ffd5b612b1c611cc2565b9080612b2783611e77565b52612b3182611e77565b5060405191604083016040845281518091526020606085019201905f5b818110612c215750505082807fbcf83654bbe8d2d5a003763444fb50a895b7721b0239dcd314d345f8a3cdfb19925f6020612b989701520390a16080606082015191015190611f33565b6040516323b872dd60e01b815233600482015230602482015260448101919091526020816064815f7f00000000000000000000000000000000000000000000000000000000000000006001600160a01b03165af1908115610d6b575f91612c02575b501561116857565b612c1b915060203d6020116102d9576102cb8183611793565b5f612bfa565b909192602061018082612c376001948851611f6c565b019401929101612b4e565b8115612c8d575f19820191808311611bab57612c5f8382846124a0565b3592805b612c6d5750505090565b5f190192612c7c8483856124a0565b355f526020528260405f2093612c63565b50505f90565b5f81901a60f81b6001600160f81b03191680612cee575069ffffffffffffffffffff19165f81901a60f81b6001600160f81b031916159081612cd3575090565b60011a60f81b6001600160f81b031916600560fa1b14919050565b60a960f81b8103612d67575068ffffffffffffffffff19165f81901a60f81b6001600160f81b03191660a960f81b149081612d48575b81612d2d575090565b60161a60f81b6001600160f81b031916608760f81b14919050565b600181901a60f81b6001600160f81b031916600560fa1b149150612d24565b603b60f91b149081612d795750505f90565b81612ded575b81612dce575b81612daf575b81612d94575090565b60181a60f81b6001600160f81b031916602b60fa1b14919050565b601781901a60f81b6001600160f81b031916601160fb1b149150612d8b565b600281901a60f81b6001600160f81b031916600560fa1b149150612d85565b600181901a60f81b6001600160f81b03191660a960f81b149150612d7f56fea26469706673582212202b8990545dcb3c264f97a4f5fbd2b7ba28660e27e1302ba55c7142427d87f4a564736f6c634300081c0033","linkReferences":{}},"methodIdentifiers":{"CIRCUIT_VERIFICATION_KEY()":"8d5ca052","DEPOSIT_TOKEN()":"13f66587","TOKEN_DECIMALS()":"5b7f415c","VERIFIER()":"08c84e70","accumulatedFeeBalance()":"ca18100d","checkpoints(bytes32)":"eb5e91ff","depositLiquidity((address,address,uint256,uint64,bytes25,bytes32,uint8,(bytes32,uint32,uint256),bytes32[],bytes32[]))":"640179d8","depositLiquidityWithOverwrite(((address,address,uint256,uint64,bytes25,bytes32,uint8,(bytes32,uint32,uint256),bytes32[],bytes32[]),(uint256,uint64,uint64,uint256,uint256,uint64,bytes25,address,address,bytes32,uint8,uint64)))":"eb9ecdd1","feeRouterAddress()":"428f29b8","getLightClientHeight()":"1cbeebeb","getSwapCommitment(uint256)":"7ed34a36","getSwapCommitmentsLength()":"992284a6","getVaultCommitment(uint256)":"9f63bd97","getVaultCommitmentsLength()":"f5095c16","mmrRoot()":"d21ddc61","owner()":"8da5cb5b","payoutToFeeRouter()":"f23a94a9","proveBlockInclusion((bytes32,uint32,uint256),bytes32[],bytes32[])":"42769946","releaseLiquidityBatch(((uint256,bytes32,(bytes32,uint32,uint256),uint8,uint64,address,uint256,uint256,uint8),bytes32[],bytes32[],(uint256,uint64,uint64,uint256,uint256,uint64,bytes25,address,address,bytes32,uint8,uint64),uint32)[])":"5861af00","renounceOwnership()":"715018a6","serializeLightClientPublicInput((bytes32,bytes32,bytes32,(bytes32,uint32,uint256)))":"7c2301a6","setFeeRouterAddress(address)":"60938550","submitBatchSwapProof((bytes32,(uint256,uint64,uint64,uint256,uint256,uint64,bytes25,address,address,bytes32,uint8,uint64),uint8,uint16,(bytes32,uint32,uint256),bytes32[],bytes32[])[],(uint256,bytes32,(bytes32,uint32,uint256),uint8,uint64,address,uint256,uint256,uint8)[],bytes)":"02977414","submitBatchSwapProofWithLightClientUpdate((bytes32,(uint256,uint64,uint64,uint256,uint256,uint64,bytes25,address,address,bytes32,uint8,uint64),uint8,uint16,(bytes32,uint32,uint256),bytes32[],bytes32[])[],(bytes32,bytes32,bytes,(bytes32,uint32,uint256)),(uint256,bytes32,(bytes32,uint32,uint256),uint8,uint64,address,uint256,uint256,uint8)[],bytes)":"e16ddab3","swapCommitments(uint256)":"365df233","transferOwnership(address)":"f2fde38b","updateLightClient((bytes32,bytes32,bytes,(bytes32,uint32,uint256)),bytes)":"592b6649","vaultCommitments(uint256)":"a6a0f96e","verifyZkProof((uint8,(bytes32,bytes32,bytes32)[],(bytes32,bytes32,bytes32,(bytes32,uint32,uint256))),bytes)":"07a2ec52","withdrawLiquidity((uint256,uint64,uint64,uint256,uint256,uint64,bytes25,address,address,bytes32,uint8,uint64))":"c190c164"},"storageLayout":{"storage":[{"astId":41887,"contract":"src/RiftExchange.sol:RiftExchange","label":"mmrRoot","offset":0,"slot":"0","type":"t_bytes32"},{"astId":41892,"contract":"src/RiftExchange.sol:RiftExchange","label":"checkpoints","offset":0,"slot":"1","type":"t_mapping(t_bytes32,t_struct(BitcoinCheckpoint)44285_storage)"},{"astId":8,"contract":"src/RiftExchange.sol:RiftExchange","label":"_owner","offset":0,"slot":"2","type":"t_address"},{"astId":42123,"contract":"src/RiftExchange.sol:RiftExchange","label":"vaultCommitments","offset":0,"slot":"3","type":"t_array(t_bytes32)dyn_storage"},{"astId":42126,"contract":"src/RiftExchange.sol:RiftExchange","label":"swapCommitments","offset":0,"slot":"4","type":"t_array(t_bytes32)dyn_storage"},{"astId":42128,"contract":"src/RiftExchange.sol:RiftExchange","label":"accumulatedFeeBalance","offset":0,"slot":"5","type":"t_uint256"},{"astId":42130,"contract":"src/RiftExchange.sol:RiftExchange","label":"feeRouterAddress","offset":0,"slot":"6","type":"t_address"}],"types":{"t_address":{"encoding":"inplace","label":"address","numberOfBytes":"20"},"t_array(t_bytes32)dyn_storage":{"encoding":"dynamic_array","label":"bytes32[]","numberOfBytes":"32","base":"t_bytes32"},"t_bool":{"encoding":"inplace","label":"bool","numberOfBytes":"1"},"t_bytes32":{"encoding":"inplace","label":"bytes32","numberOfBytes":"32"},"t_mapping(t_bytes32,t_struct(BitcoinCheckpoint)44285_storage)":{"encoding":"mapping","key":"t_bytes32","label":"mapping(bytes32 => struct Types.BitcoinCheckpoint)","numberOfBytes":"32","value":"t_struct(BitcoinCheckpoint)44285_storage"},"t_struct(BitcoinCheckpoint)44285_storage":{"encoding":"inplace","label":"struct Types.BitcoinCheckpoint","numberOfBytes":"128","members":[{"astId":44281,"contract":"src/RiftExchange.sol:RiftExchange","label":"established","offset":0,"slot":"0","type":"t_bool"},{"astId":44284,"contract":"src/RiftExchange.sol:RiftExchange","label":"tipBlockLeaf","offset":0,"slot":"1","type":"t_struct(BlockLeaf)44077_storage"}]},"t_struct(BlockLeaf)44077_storage":{"encoding":"inplace","label":"struct Types.BlockLeaf","numberOfBytes":"96","members":[{"astId":44072,"contract":"src/RiftExchange.sol:RiftExchange","label":"blockHash","offset":0,"slot":"0","type":"t_bytes32"},{"astId":44074,"contract":"src/RiftExchange.sol:RiftExchange","label":"height","offset":0,"slot":"1","type":"t_uint32"},{"astId":44076,"contract":"src/RiftExchange.sol:RiftExchange","label":"cumulativeChainwork","offset":0,"slot":"2","type":"t_uint256"}]},"t_uint256":{"encoding":"inplace","label":"uint256","numberOfBytes":"32"},"t_uint32":{"encoding":"inplace","label":"uint32","numberOfBytes":"4"}}},"id":41}