{"abi":[{"type":"constructor","inputs":[{"name":"_mmrRoot","type":"bytes32","internalType":"bytes32"},{"name":"_initialCheckpointLeaf","type":"tuple","internalType":"struct Types.BlockLeaf","components":[{"name":"blockHash","type":"bytes32","internalType":"bytes32"},{"name":"height","type":"uint32","internalType":"uint32"},{"name":"cumulativeChainwork","type":"uint256","internalType":"uint256"}]},{"name":"_depositToken","type":"address","internalType":"address"},{"name":"_circuitVerificationKey","type":"bytes32","internalType":"bytes32"},{"name":"_verifier","type":"address","internalType":"address"},{"name":"_feeRouter","type":"address","internalType":"address"}],"stateMutability":"nonpayable"},{"type":"function","name":"CIRCUIT_VERIFICATION_KEY","inputs":[],"outputs":[{"name":"","type":"bytes32","internalType":"bytes32"}],"stateMutability":"view"},{"type":"function","name":"DEPOSIT_TOKEN","inputs":[],"outputs":[{"name":"","type":"address","internalType":"contract IERC20"}],"stateMutability":"view"},{"type":"function","name":"FEE_ROUTER_ADDRESS","inputs":[],"outputs":[{"name":"","type":"address","internalType":"address"}],"stateMutability":"view"},{"type":"function","name":"TOKEN_DECIMALS","inputs":[],"outputs":[{"name":"","type":"uint8","internalType":"uint8"}],"stateMutability":"view"},{"type":"function","name":"VERIFIER","inputs":[],"outputs":[{"name":"","type":"address","internalType":"contract ISP1Verifier"}],"stateMutability":"view"},{"type":"function","name":"_proveBlockInclusion","inputs":[{"name":"blockLeaf","type":"tuple","internalType":"struct Types.BlockLeaf","components":[{"name":"blockHash","type":"bytes32","internalType":"bytes32"},{"name":"height","type":"uint32","internalType":"uint32"},{"name":"cumulativeChainwork","type":"uint256","internalType":"uint256"}]},{"name":"siblings","type":"bytes32[]","internalType":"bytes32[]"},{"name":"peaks","type":"bytes32[]","internalType":"bytes32[]"},{"name":"tipBlockHeight","type":"uint32","internalType":"uint32"}],"outputs":[{"name":"","type":"bool","internalType":"bool"}],"stateMutability":"view"},{"type":"function","name":"_proveBlockInclusionAtTip","inputs":[{"name":"blockLeaf","type":"tuple","internalType":"struct Types.BlockLeaf","components":[{"name":"blockHash","type":"bytes32","internalType":"bytes32"},{"name":"height","type":"uint32","internalType":"uint32"},{"name":"cumulativeChainwork","type":"uint256","internalType":"uint256"}]},{"name":"siblings","type":"bytes32[]","internalType":"bytes32[]"},{"name":"peaks","type":"bytes32[]","internalType":"bytes32[]"}],"outputs":[{"name":"","type":"bool","internalType":"bool"}],"stateMutability":"view"},{"type":"function","name":"accumulatedFeeBalance","inputs":[],"outputs":[{"name":"","type":"uint256","internalType":"uint256"}],"stateMutability":"view"},{"type":"function","name":"depositLiquidity","inputs":[{"name":"specifiedPayoutAddress","type":"address","internalType":"address"},{"name":"depositAmount","type":"uint256","internalType":"uint256"},{"name":"expectedSats","type":"uint64","internalType":"uint64"},{"name":"btcPayoutScriptPubKey","type":"bytes22","internalType":"bytes22"},{"name":"depositSalt","type":"bytes32","internalType":"bytes32"},{"name":"confirmationBlocks","type":"uint8","internalType":"uint8"},{"name":"tipBlockLeaf","type":"tuple","internalType":"struct Types.BlockLeaf","components":[{"name":"blockHash","type":"bytes32","internalType":"bytes32"},{"name":"height","type":"uint32","internalType":"uint32"},{"name":"cumulativeChainwork","type":"uint256","internalType":"uint256"}]},{"name":"tipBlockSiblings","type":"bytes32[]","internalType":"bytes32[]"},{"name":"tipBlockPeaks","type":"bytes32[]","internalType":"bytes32[]"}],"outputs":[],"stateMutability":"nonpayable"},{"type":"function","name":"depositLiquidityWithOverwrite","inputs":[{"name":"specifiedPayoutAddress","type":"address","internalType":"address"},{"name":"depositAmount","type":"uint256","internalType":"uint256"},{"name":"expectedSats","type":"uint64","internalType":"uint64"},{"name":"btcPayoutScriptPubKey","type":"bytes22","internalType":"bytes22"},{"name":"depositSalt","type":"bytes32","internalType":"bytes32"},{"name":"confirmationBlocks","type":"uint8","internalType":"uint8"},{"name":"tipBlockLeaf","type":"tuple","internalType":"struct Types.BlockLeaf","components":[{"name":"blockHash","type":"bytes32","internalType":"bytes32"},{"name":"height","type":"uint32","internalType":"uint32"},{"name":"cumulativeChainwork","type":"uint256","internalType":"uint256"}]},{"name":"tipBlockSiblings","type":"bytes32[]","internalType":"bytes32[]"},{"name":"tipBlockPeaks","type":"bytes32[]","internalType":"bytes32[]"},{"name":"overwriteVault","type":"tuple","internalType":"struct Types.DepositVault","components":[{"name":"vaultIndex","type":"uint256","internalType":"uint256"},{"name":"depositTimestamp","type":"uint64","internalType":"uint64"},{"name":"depositAmount","type":"uint256","internalType":"uint256"},{"name":"depositFee","type":"uint256","internalType":"uint256"},{"name":"expectedSats","type":"uint64","internalType":"uint64"},{"name":"btcPayoutScriptPubKey","type":"bytes22","internalType":"bytes22"},{"name":"specifiedPayoutAddress","type":"address","internalType":"address"},{"name":"ownerAddress","type":"address","internalType":"address"},{"name":"nonce","type":"bytes32","internalType":"bytes32"},{"name":"confirmationBlocks","type":"uint8","internalType":"uint8"},{"name":"attestedBitcoinBlockHeight","type":"uint64","internalType":"uint64"}]}],"outputs":[],"stateMutability":"nonpayable"},{"type":"function","name":"getSwapCommitment","inputs":[{"name":"swapIndex","type":"uint256","internalType":"uint256"}],"outputs":[{"name":"","type":"bytes32","internalType":"bytes32"}],"stateMutability":"view"},{"type":"function","name":"getSwapCommitmentsLength","inputs":[],"outputs":[{"name":"","type":"uint256","internalType":"uint256"}],"stateMutability":"view"},{"type":"function","name":"getVaultCommitment","inputs":[{"name":"vaultIndex","type":"uint256","internalType":"uint256"}],"outputs":[{"name":"","type":"bytes32","internalType":"bytes32"}],"stateMutability":"view"},{"type":"function","name":"getVaultCommitmentsLength","inputs":[],"outputs":[{"name":"","type":"uint256","internalType":"uint256"}],"stateMutability":"view"},{"type":"function","name":"initialCheckpointLeaf","inputs":[],"outputs":[{"name":"blockHash","type":"bytes32","internalType":"bytes32"},{"name":"height","type":"uint32","internalType":"uint32"},{"name":"cumulativeChainwork","type":"uint256","internalType":"uint256"}],"stateMutability":"view"},{"type":"function","name":"mmrRoot","inputs":[],"outputs":[{"name":"","type":"bytes32","internalType":"bytes32"}],"stateMutability":"view"},{"type":"function","name":"payoutToFeeRouter","inputs":[],"outputs":[],"stateMutability":"nonpayable"},{"type":"function","name":"releaseLiquidity","inputs":[{"name":"swap","type":"tuple","internalType":"struct Types.ProposedSwap","components":[{"name":"swapIndex","type":"uint256","internalType":"uint256"},{"name":"aggregateVaultCommitment","type":"bytes32","internalType":"bytes32"},{"name":"swapBitcoinBlockHash","type":"bytes32","internalType":"bytes32"},{"name":"confirmationBlocks","type":"uint8","internalType":"uint8"},{"name":"liquidityUnlockTimestamp","type":"uint64","internalType":"uint64"},{"name":"specifiedPayoutAddress","type":"address","internalType":"address"},{"name":"totalSwapFee","type":"uint256","internalType":"uint256"},{"name":"totalSwapOutput","type":"uint256","internalType":"uint256"},{"name":"state","type":"uint8","internalType":"enum Types.SwapState"}]},{"name":"swapBlockChainwork","type":"uint256","internalType":"uint256"},{"name":"swapBlockHeight","type":"uint32","internalType":"uint32"},{"name":"bitcoinSwapBlockSiblings","type":"bytes32[]","internalType":"bytes32[]"},{"name":"bitcoinSwapBlockPeaks","type":"bytes32[]","internalType":"bytes32[]"},{"name":"bitcoinConfirmationBlockLeaf","type":"tuple","internalType":"struct Types.BlockLeaf","components":[{"name":"blockHash","type":"bytes32","internalType":"bytes32"},{"name":"height","type":"uint32","internalType":"uint32"},{"name":"cumulativeChainwork","type":"uint256","internalType":"uint256"}]},{"name":"bitcoinConfirmationBlockSiblings","type":"bytes32[]","internalType":"bytes32[]"},{"name":"bitcoinConfirmationBlockPeaks","type":"bytes32[]","internalType":"bytes32[]"},{"name":"utilizedVaults","type":"tuple[]","internalType":"struct Types.DepositVault[]","components":[{"name":"vaultIndex","type":"uint256","internalType":"uint256"},{"name":"depositTimestamp","type":"uint64","internalType":"uint64"},{"name":"depositAmount","type":"uint256","internalType":"uint256"},{"name":"depositFee","type":"uint256","internalType":"uint256"},{"name":"expectedSats","type":"uint64","internalType":"uint64"},{"name":"btcPayoutScriptPubKey","type":"bytes22","internalType":"bytes22"},{"name":"specifiedPayoutAddress","type":"address","internalType":"address"},{"name":"ownerAddress","type":"address","internalType":"address"},{"name":"nonce","type":"bytes32","internalType":"bytes32"},{"name":"confirmationBlocks","type":"uint8","internalType":"uint8"},{"name":"attestedBitcoinBlockHeight","type":"uint64","internalType":"uint64"}]},{"name":"tipBlockHeight","type":"uint32","internalType":"uint32"}],"outputs":[],"stateMutability":"nonpayable"},{"type":"function","name":"submitSwapProof","inputs":[{"name":"swapBitcoinTxid","type":"bytes32","internalType":"bytes32"},{"name":"swapBitcoinBlockHash","type":"bytes32","internalType":"bytes32"},{"name":"vaults","type":"tuple[]","internalType":"struct Types.DepositVault[]","components":[{"name":"vaultIndex","type":"uint256","internalType":"uint256"},{"name":"depositTimestamp","type":"uint64","internalType":"uint64"},{"name":"depositAmount","type":"uint256","internalType":"uint256"},{"name":"depositFee","type":"uint256","internalType":"uint256"},{"name":"expectedSats","type":"uint64","internalType":"uint64"},{"name":"btcPayoutScriptPubKey","type":"bytes22","internalType":"bytes22"},{"name":"specifiedPayoutAddress","type":"address","internalType":"address"},{"name":"ownerAddress","type":"address","internalType":"address"},{"name":"nonce","type":"bytes32","internalType":"bytes32"},{"name":"confirmationBlocks","type":"uint8","internalType":"uint8"},{"name":"attestedBitcoinBlockHeight","type":"uint64","internalType":"uint64"}]},{"name":"specifiedPayoutAddress","type":"address","internalType":"address"},{"name":"priorMmrRoot","type":"bytes32","internalType":"bytes32"},{"name":"newMmrRoot","type":"bytes32","internalType":"bytes32"},{"name":"confirmationBlocks","type":"uint8","internalType":"uint8"},{"name":"totalSwapFee","type":"uint256","internalType":"uint256"},{"name":"totalSwapOutput","type":"uint256","internalType":"uint256"},{"name":"proof","type":"bytes","internalType":"bytes"},{"name":"compressedBlockLeaves","type":"bytes","internalType":"bytes"},{"name":"tipBlockLeaf","type":"tuple","internalType":"struct Types.BlockLeaf","components":[{"name":"blockHash","type":"bytes32","internalType":"bytes32"},{"name":"height","type":"uint32","internalType":"uint32"},{"name":"cumulativeChainwork","type":"uint256","internalType":"uint256"}]},{"name":"tipBlockSiblings","type":"bytes32[]","internalType":"bytes32[]"},{"name":"tipBlockPeaks","type":"bytes32[]","internalType":"bytes32[]"}],"outputs":[],"stateMutability":"nonpayable"},{"type":"function","name":"submitSwapProofWithOverwrite","inputs":[{"name":"swapBitcoinBlockHash","type":"bytes32","internalType":"bytes32"},{"name":"swapBitcoinTxid","type":"bytes32","internalType":"bytes32"},{"name":"confirmationBlocks","type":"uint8","internalType":"uint8"},{"name":"vaults","type":"tuple[]","internalType":"struct Types.DepositVault[]","components":[{"name":"vaultIndex","type":"uint256","internalType":"uint256"},{"name":"depositTimestamp","type":"uint64","internalType":"uint64"},{"name":"depositAmount","type":"uint256","internalType":"uint256"},{"name":"depositFee","type":"uint256","internalType":"uint256"},{"name":"expectedSats","type":"uint64","internalType":"uint64"},{"name":"btcPayoutScriptPubKey","type":"bytes22","internalType":"bytes22"},{"name":"specifiedPayoutAddress","type":"address","internalType":"address"},{"name":"ownerAddress","type":"address","internalType":"address"},{"name":"nonce","type":"bytes32","internalType":"bytes32"},{"name":"confirmationBlocks","type":"uint8","internalType":"uint8"},{"name":"attestedBitcoinBlockHeight","type":"uint64","internalType":"uint64"}]},{"name":"specifiedPayoutAddress","type":"address","internalType":"address"},{"name":"priorMmrRoot","type":"bytes32","internalType":"bytes32"},{"name":"newMmrRoot","type":"bytes32","internalType":"bytes32"},{"name":"totalSwapFee","type":"uint256","internalType":"uint256"},{"name":"totalSwapOutput","type":"uint256","internalType":"uint256"},{"name":"proof","type":"bytes","internalType":"bytes"},{"name":"compressedBlockLeaves","type":"bytes","internalType":"bytes"},{"name":"tipBlockLeaf","type":"tuple","internalType":"struct Types.BlockLeaf","components":[{"name":"blockHash","type":"bytes32","internalType":"bytes32"},{"name":"height","type":"uint32","internalType":"uint32"},{"name":"cumulativeChainwork","type":"uint256","internalType":"uint256"}]},{"name":"tipBlockSiblings","type":"bytes32[]","internalType":"bytes32[]"},{"name":"tipBlockPeaks","type":"bytes32[]","internalType":"bytes32[]"},{"name":"overwriteSwap","type":"tuple","internalType":"struct Types.ProposedSwap","components":[{"name":"swapIndex","type":"uint256","internalType":"uint256"},{"name":"aggregateVaultCommitment","type":"bytes32","internalType":"bytes32"},{"name":"swapBitcoinBlockHash","type":"bytes32","internalType":"bytes32"},{"name":"confirmationBlocks","type":"uint8","internalType":"uint8"},{"name":"liquidityUnlockTimestamp","type":"uint64","internalType":"uint64"},{"name":"specifiedPayoutAddress","type":"address","internalType":"address"},{"name":"totalSwapFee","type":"uint256","internalType":"uint256"},{"name":"totalSwapOutput","type":"uint256","internalType":"uint256"},{"name":"state","type":"uint8","internalType":"enum Types.SwapState"}]}],"outputs":[],"stateMutability":"nonpayable"},{"type":"function","name":"swapCommitments","inputs":[{"name":"","type":"uint256","internalType":"uint256"}],"outputs":[{"name":"","type":"bytes32","internalType":"bytes32"}],"stateMutability":"view"},{"type":"function","name":"vaultCommitments","inputs":[{"name":"","type":"uint256","internalType":"uint256"}],"outputs":[{"name":"","type":"bytes32","internalType":"bytes32"}],"stateMutability":"view"},{"type":"function","name":"withdrawLiquidity","inputs":[{"name":"vault","type":"tuple","internalType":"struct Types.DepositVault","components":[{"name":"vaultIndex","type":"uint256","internalType":"uint256"},{"name":"depositTimestamp","type":"uint64","internalType":"uint64"},{"name":"depositAmount","type":"uint256","internalType":"uint256"},{"name":"depositFee","type":"uint256","internalType":"uint256"},{"name":"expectedSats","type":"uint64","internalType":"uint64"},{"name":"btcPayoutScriptPubKey","type":"bytes22","internalType":"bytes22"},{"name":"specifiedPayoutAddress","type":"address","internalType":"address"},{"name":"ownerAddress","type":"address","internalType":"address"},{"name":"nonce","type":"bytes32","internalType":"bytes32"},{"name":"confirmationBlocks","type":"uint8","internalType":"uint8"},{"name":"attestedBitcoinBlockHeight","type":"uint64","internalType":"uint64"}]}],"outputs":[],"stateMutability":"nonpayable"},{"type":"event","name":"BlockTreeUpdated","inputs":[{"name":"treeRoot","type":"bytes32","indexed":false,"internalType":"bytes32"}],"anonymous":false},{"type":"event","name":"SwapUpdated","inputs":[{"name":"swap","type":"tuple","indexed":false,"internalType":"struct Types.ProposedSwap","components":[{"name":"swapIndex","type":"uint256","internalType":"uint256"},{"name":"aggregateVaultCommitment","type":"bytes32","internalType":"bytes32"},{"name":"swapBitcoinBlockHash","type":"bytes32","internalType":"bytes32"},{"name":"confirmationBlocks","type":"uint8","internalType":"uint8"},{"name":"liquidityUnlockTimestamp","type":"uint64","internalType":"uint64"},{"name":"specifiedPayoutAddress","type":"address","internalType":"address"},{"name":"totalSwapFee","type":"uint256","internalType":"uint256"},{"name":"totalSwapOutput","type":"uint256","internalType":"uint256"},{"name":"state","type":"uint8","internalType":"enum Types.SwapState"}]}],"anonymous":false},{"type":"event","name":"VaultUpdated","inputs":[{"name":"vault","type":"tuple","indexed":false,"internalType":"struct Types.DepositVault","components":[{"name":"vaultIndex","type":"uint256","internalType":"uint256"},{"name":"depositTimestamp","type":"uint64","internalType":"uint64"},{"name":"depositAmount","type":"uint256","internalType":"uint256"},{"name":"depositFee","type":"uint256","internalType":"uint256"},{"name":"expectedSats","type":"uint64","internalType":"uint64"},{"name":"btcPayoutScriptPubKey","type":"bytes22","internalType":"bytes22"},{"name":"specifiedPayoutAddress","type":"address","internalType":"address"},{"name":"ownerAddress","type":"address","internalType":"address"},{"name":"nonce","type":"bytes32","internalType":"bytes32"},{"name":"confirmationBlocks","type":"uint8","internalType":"uint8"},{"name":"attestedBitcoinBlockHeight","type":"uint64","internalType":"uint64"}]}],"anonymous":false},{"type":"error","name":"CannotOverwriteOnGoingSwap","inputs":[]},{"type":"error","name":"DepositAmountTooLow","inputs":[]},{"type":"error","name":"DepositStillLocked","inputs":[]},{"type":"error","name":"DepositVaultDoesNotExist","inputs":[]},{"type":"error","name":"DepositVaultNotOverwritable","inputs":[]},{"type":"error","name":"EmptyDepositVault","inputs":[]},{"type":"error","name":"InvalidConfirmationBlockDelta","inputs":[]},{"type":"error","name":"InvalidConfirmationBlockInclusionProof","inputs":[]},{"type":"error","name":"InvalidScriptPubKey","inputs":[]},{"type":"error","name":"InvalidSwapBlockInclusionProof","inputs":[]},{"type":"error","name":"InvalidSwapTotals","inputs":[]},{"type":"error","name":"InvalidTipBlockInclusionProof","inputs":[]},{"type":"error","name":"InvalidVaultCommitment","inputs":[]},{"type":"error","name":"NoFeeToPay","inputs":[]},{"type":"error","name":"NoVaults","inputs":[]},{"type":"error","name":"NotEnoughConfirmationBlocks","inputs":[]},{"type":"error","name":"PayoutAddressMismatch","inputs":[]},{"type":"error","name":"SatOutputTooLow","inputs":[]},{"type":"error","name":"StillInChallengePeriod","inputs":[]},{"type":"error","name":"SwapDoesNotExist","inputs":[]},{"type":"error","name":"SwapNotProved","inputs":[]},{"type":"error","name":"TransferFailed","inputs":[]}],"bytecode":{"object":"0x61012080604052346101b95780612b6c803803809161001e82856101e4565b83398101039061010082126101b9576060815192601f1901126101b957604051606081016001600160401b038111828210176101d05760405260208201519081815260408301519063ffffffff82168083036101b9576040826004946020809501526060870151918291015261009660808701610207565b9160a0870151956100b560e06100ae60c08b01610207565b9901610207565b985f5560015563ffffffff19600254161760025560035560018060a01b0316806080526040519283809263313ce56760e01b82525afa9081156101c5575f91610185575b5060a05260c0526001600160a01b031660e05261010052604051612950908161021c82396080518181816101c2015281816113ce0152818161149901526125ab015260a0518161050f015260c05181818161046b015281816109960152611a14015260e05181818161094a015281816115c101526119c601526101005181818161017d01526104a60152f35b90506020813d6020116101bd575b816101a0602093836101e4565b810103126101b9575160ff811681036101b9575f6100f9565b5f80fd5b3d9150610193565b6040513d5f823e3d90fd5b634e487b7160e01b5f52604160045260245ffd5b601f909101601f19168101906001600160401b038211908210176101d057604052565b51906001600160a01b03821682036101b95756fe6102806040526004361015610012575f80fd5b5f6101a0525f3560e01c806307bf9d85146115f057806308c84e70146115a957806310e9619a146114c857806313f665871461148157806316a6db20146112315780632f25092214610e12578063365df23314610de95780634e96091514610d1c57806357038531146105335780635b7f415c146104f35780637ed34a36146104d5578063898aeacb1461048e5780638d5ca05214610451578063992284a6146104315780639f63bd9714610413578063a6a0f96e146103db578063c2835816146103a4578063ca18100d14610384578063d21ddc6114610362578063d9c2328f146102f9578063e78aa9d514610269578063f23a94a9146101435763f5095c161461011c575f80fd5b3461013c576101a05136600319011261013c576020600454604051908152f35b6101a05180fd5b3461013c576101a05136600319011261013c576006548015610254576101a05160065560405163a9059cbb60e01b81526001600160a01b037f0000000000000000000000000000000000000000000000000000000000000000166004820152602481019190915260208180604481015b03816101a05160018060a01b037f0000000000000000000000000000000000000000000000000000000000000000165af1908115610246576101a05191610217575b5015610202576101a05180f35b6312171d8360e31b6101a0515260046101a051fd5b610239915060203d60201161023f575b6102318183611ee3565b810190612141565b816101f5565b503d610227565b6040513d6101a051823e3d90fd5b630fbcad4560e21b6101a0515260046101a051fd5b3461013c5760c036600319011261013c5761028336611f04565b6064356001600160401b03811161013c576102a2903690600401611da7565b916084356001600160401b03811161013c576102c2903690600401611da7565b60a435939163ffffffff8516850361013c576020956102e36102ef9661220a565b936101a0515495612773565b6040519015158152f35b3461013c5760a036600319011261013c5761031336611f04565b6064356001600160401b03811161013c57610332903690600401611da7565b9190608435916001600160401b03831161013c5760209361035a6102ef943690600401611da7565b9390926122d0565b3461013c576101a05136600319011261013c5760206101a05154604051908152f35b3461013c576101a05136600319011261013c576020600654604051908152f35b3461013c576101a05136600319011261013c57606060015463ffffffff600254166003549060405192835260208301526040820152f35b3461013c57602036600319011261013c5760043560045481101561013c57610404602091611e1b565b90549060031b1c604051908152f35b3461013c57602036600319011261013c576020610404600435611e1b565b3461013c576101a05136600319011261013c576020600554604051908152f35b3461013c576101a05136600319011261013c5760206040517f00000000000000000000000000000000000000000000000000000000000000008152f35b3461013c576101a05136600319011261013c576040517f00000000000000000000000000000000000000000000000000000000000000006001600160a01b03168152602090f35b3461013c57602036600319011261013c576020610404600435611e47565b3461013c576101a05136600319011261013c57602060405160ff7f0000000000000000000000000000000000000000000000000000000000000000168152f35b3461013c5761032036600319011261013c5760443560ff8116810361013c576064356001600160401b03811161013c57610571903690600401611d01565b60843560c08190529091906001600160a01b038116900361013c57610124356001600160401b03811161013c576105ac903690600401611d7a565b610144929192356001600160401b03811161013c576105cf903690600401611d7a565b90610120529260606101631936011261013c576101c4356001600160401b03811161013c57610602903690600401611da7565b6101e4939193356001600160401b03811161013c57610625903690600401611da7565b9390926101203661020319011261013c5761063e612681565b5061030435600381101561013c5760011901610d075760405161066081611eab565b6101a05181526101a05160208201526101a05160408201526101a05160608201526101a05160808201526101a05160a08201526101a05160c08201526101a05160e08201526101006101a0519101528815610cf2576106c26101408801612013565b9660015b8a8110610c9f57506101a0515b8a8c818310610c60575050506101a0515b8a8110610c1457506107086106f88b6122f6565b6040516101405261014051611ee3565b61014080518b90525160200160e052366101608b0282011161013c57805b6101608b0282018110610bf357506101a051608081905260a08190526101008190525b61014051516101005110156107fe5761077790604061076e610100516101405161269e565b510151906122c3565b99610798606061078d610100516101405161269e565b51015160a0516122c3565b60a05260606107ad610100516101405161269e565b510151808060011b04600214811517156107e4576107d09060011b6080516122c3565b608052600161010051016101005299610749565b634e487b7160e01b6101a05152601160045260246101a051fd5b998b9a610812610104359160a0519061230d565b14801590610be5575b610bd057610828916126b2565b976001600160401b038111610bb65760405161084e601f8301601f191660200182611ee3565b8181526020810191368161012051011161013c578061012051843760206101a0519183010152519020896040519161088583611ec7565b60ff8216835260208301926004358452604081016024358152606082018d81526080830160018060a01b0360c05116815260a084019060e435825260c085019261010435845260e086019460a435865261012061010088019760c4358952019788526040519960ff60208c019a168a525160408b01525160608a015251608089015260018060a01b0390511660a08801525160c08701525160e0860152516101008501525161012084015251610140830152610140825261094861016083611ee3565b7f00000000000000000000000000000000000000000000000000000000000000006001600160a01b031690813b1561013c576020849360846040519788968795869463020a49e360e51b86527f00000000000000000000000000000000000000000000000000000000000000006004870152606060248701525180918160648801528587015e6101a051858201850152601f01601f1916840184810384016003190160448601528084018290529160a48301376101a08051828a0184018601525197601f01601f191601010301915afa801561024657610b9b575b50610a4793610a3660c43560a435612878565b610a4236610164611f42565b6122d0565b15610b86576101843563ffffffff81169182820361013c576001600160401b0391501690036001600160401b0381116107e4576001600160401b0316608502906001600160401b0382169182036107e4577f5d248001ee862aebdfe43bfaf026be2d34c08573daa99dcd4290c61dd78cee4b9260ff6001600160401b03610ae981610ae26103e882610adb610b7c9a612027565b1604612046565b16426122c3565b169160405193610af885611eab565b61020435855260208501526004356040850152166060830152608082015260c080516001600160a01b031660a083015260e435908201526101043560e08201526001610100820152610b70610b4c8261274e565b610b5861020435611e47565b90919082549060031b91821b915f19901b1916179055565b60405191829182611f82565b0390a16101a05180f35b633666f0e160e21b6101a0515260046101a051fd5b6101a051610ba891611ee3565b6101a05161013c5787610a23565b634e487b7160e01b6101a05152604160045260246101a051fd5b63234758f560e21b6101a0515260046101a051fd5b5060e435608051141561081b565b61016090610c013682612064565b60e05152602060e0510160e05201610726565b60018060a01b0360c051168b610c3d60c0610c378560018060a01b039488612222565b0161212d565b1603610c4b576001016106e4565b631e2ad0ad60e21b6101a0515260046101a051fd5b610c7c610120610c768560ff8095169588612222565b016121fc565b1611610c8a576001016106d3565b63bdf8f2b360e01b6101a0515260046101a051fd5b8a610cb7610140610cb1848487612222565b01612013565b6001600160401b03808c16911610610cd3575b506001016106c6565b819950610140610cb1600193610ce99386612222565b9890508a610cca565b639406b8a760e01b6101a0515260046101a051fd5b6318cf65dd60e21b6101a0515260046101a051fd5b3461013c5761016036600319011261013c57610d36611d32565b610d3e611dd7565b90610d47611e01565b610d4f611d5c565b60603660c319011261013c57610124356001600160401b03811161013c57610d7b903690600401611da7565b9161014435956001600160401b03871161013c57610da0610db4973690600401611da7565b96909560843592600454926024359061231a565b90600454600160401b811015610bb657610de292610b58826001610ddd94016004556004611e5f565b61253b565b6101a05180f35b3461013c57602036600319011261013c5760043560055481101561013c57610404602091611e47565b3461013c573660031901610280811261013c576101201361013c576101443563ffffffff81169081900361013c57610164356001600160401b03811161013c57610e60903690600401611da7565b610184356001600160401b03811161013c57610e80903690600401611da7565b90916060366101a319011261013c57610204356001600160401b03811161013c57610eaf903690600401611da7565b9490610224356001600160401b03811161013c57610ed1903690600401611da7565b610244979197356001600160401b03811161013c57610ef4903690600401611d01565b9490986101a05150610264359263ffffffff8416840361013c57610f16612642565b50610104359860038a109a8b1561013c575f198b0161121c57608435996001600160401b038b16808c0361013c57421061120757610f87928f9260405193610f5d85611e74565b60443585526020850152610124356040850152610f798961220a565b926101a05154988995612773565b156111f25760405191610f9983611e74565b6101a43583526101a051506101c4359563ffffffff87169788880361013c57610fd3610fd9978960208801526101e435604088015261220a565b94612773565b156111dd57506064359660ff88169081890361013c570163ffffffff81116107e45763ffffffff5f1991160163ffffffff81116107e45763ffffffff16036111c85761102581866126b2565b946024358096036111b3576101a0515b82811061113b57505060405195905061104d86611eab565b600435808752602087019590955260443560408701526060860152608085015260a435906001600160a01b038216820361013c578160a086015260c435908160c087015260e435938460e08801521561013c57856110f87f5d248001ee862aebdfe43bfaf026be2d34c08573daa99dcd4290c61dd78cee4b936110f06020986002611107966101006101b39d0190815252610b586110ea8661274e565b91611e47565b6006546122c3565b60065560405191829182611f82565b0390a160405163a9059cbb60e01b81526001600160a01b039091166004820152602481019190915291829081906044820190565b6001907f32471f3f0779c3838c27ab991c84d0b550621b719c340d6f61a682d979f35f626111aa61117636611171858989612222565b612064565b6101a05160408201526101a051606082015261119e61119482612619565b610b588351611e1b565b60405191829182612159565b0390a101611035565b63ceb1159d60e01b6101a0515260046101a051fd5b638e082f6760e01b6101a0515260046101a051fd5b638ce0b4c760e01b6101a0515260046101a051fd5b637344e0b760e01b6101a0515260046101a051fd5b632d5c37f560e21b6101a0515260046101a051fd5b6322fc5d4360e21b6101a0515260046101a051fd5b3461013c573660031901610160811261013c5761124c612520565b5060443590811561146c57602435906001600160401b03821680830361013c57617080016001600160401b0381116107e4576001600160401b03164210611457576101601361013c57604051916112a283611e8f565b60043580845260208401929092526040830181815260643560608501908152929091906084356001600160401b038116810361013c57608086015260a43569ffffffffffffffffffff198116810361013c5760a086015260c4356001600160a01b038116810361013c5760c086015260e435906001600160a01b038216820361013c5760e08601829052610104356101008701526101243560ff8116810361013c5761012087015261014435906001600160401b038216820361013c576113bf9560209561138e936101408a01526101a05190526101a0519052610b5861138888612619565b91611e1b565b60405163a9059cbb60e01b81526001600160a01b039091166004820152602481019190915291829081906044820190565b03816101a05160018060a01b037f0000000000000000000000000000000000000000000000000000000000000000165af1908115610246576101a05191611438575b501561020257610b7c7f32471f3f0779c3838c27ab991c84d0b550621b719c340d6f61a682d979f35f629160405191829182612159565b611451915060203d60201161023f576102318183611ee3565b82611401565b6301b512a960e21b6101a0515260046101a051fd5b637941e9ad60e01b6101a0515260046101a051fd5b3461013c576101a05136600319011261013c576040517f00000000000000000000000000000000000000000000000000000000000000006001600160a01b03168152602090f35b3461013c576102c036600319011261013c576114e2611d32565b6114ea611dd7565b6114f2611e01565b916114fb611d5c565b9060603660c319011261013c57610124356001600160401b03811161013c57611528903690600401611da7565b90610144356001600160401b03811161013c57611549903690600401611da7565b9490936101603661016319011261013c576115729661016435988991608435936024359061231a565b9161157b6124df565b506101a43561159457610de292610b58610ddd92611e1b565b630faaae6760e31b6101a0515260046101a051fd5b3461013c576101a05136600319011261013c576040517f00000000000000000000000000000000000000000000000000000000000000006001600160a01b03168152602090f35b34611be757610200366003190112611be7576044356001600160401b038111611be757611621903690600401611d01565b6064356102208190526001600160a01b0381169003611be75760c4359060ff82168203611be757610124356001600160401b038111611be757611668903690600401611d7a565b90610144356001600160401b038111611be757611689903690600401611d7a565b6101e05294606036610163190112611be7576101c4356001600160401b038111611be7576116bb903690600401611da7565b906101e4356001600160401b038111611be7576116dc903690600401611da7565b949093600554610240525f6101006040516116f681611eab565b8281528260208201528260408201528260608201528260808201528260a08201528260c08201528260e082015201528715611cf2576117386101408201612013565b9760015b818110611ca957505f5b818110611c7557505f5b818110611c385750611774611764826122f6565b6040516102605261026051611ee3565b610260805182905251602001366101608302840111611be75782905b610160830284018210611c1d5750505f610160525f610160525f6101c0525f610180525f610200525b610260515161020051101561186f576117e960406117dd610200516102605161269e565b5101516101c0516122c3565b6101c05261180e6060611802610200516102605161269e565b510151610180516122c3565b610180526060611824610200516102605161269e565b5101518060011b908082046002149015171561185b5761184790610160516122c3565b6101605260016102005101610200526117b9565b634e487b7160e01b5f52601160045260245ffd5b61010435611883610180516101c05161230d565b14801590611c0e575b611bff57611899916126b2565b986001600160401b036101e05111611beb576040516118c56020601f19601f6101e05101160182611ee3565b6101e05181526020810191366101e051820111611be7576101e0519083375f60206101e0518301015251902088604051916118ff83611ec7565b60ff82168352602083019260243584526040810160043581528d606083019081526080830160018060a01b036102205116815260a084019060e435825260c085019261010435845260e0860194608435865261012061010088019760a4358952019788526040519960ff60208c019a168a525160408b01525160608a015251608089015260018060a01b0390511660a08801525160c08701525160e086015251610100850152516101208401525161014083015261014082526119c461016083611ee3565b7f00000000000000000000000000000000000000000000000000000000000000006001600160a01b031690813b15611be7576020899360845f966040519c8d978896879563020a49e360e51b87527f00000000000000000000000000000000000000000000000000000000000000006004880152606060248801525180918160648901528688015e85810185018b9052601f01601f1916850185810385016003190160448701528085018290529260a484013781810183018501899052601f01601f191601010301915afa948515611bdc57611aae95611bc7575b50610a3660a435608435612878565b15610b86576101843563ffffffff81169182820361013c576001600160401b0391501690036001600160401b0381116107e4576001600160401b03166085026001600160401b0381169081036107e4576001600160401b03611b1c81610ae26103e882610adb60ff97612027565b169160405193611b2b85611eab565b610240518552602085015260243560408501521660608301526080820152610220516001600160a01b031660a082015260e43560c08201526101043560e08201526001610100820152611b7d8161274e565b60055491600160401b831015610bb657610b70610b7c92610b588560017f5d248001ee862aebdfe43bfaf026be2d34c08573daa99dcd4290c61dd78cee4b97016005556005611e5f565b5f611bd191611ee3565b5f6101a05288611a9f565b6040513d5f823e3d90fd5b5f80fd5b634e487b7160e01b5f52604160045260245ffd5b63234758f560e21b5f5260045ffd5b5060e43561016051141561188c565b602061016091611c2d3685612064565b815201910190611790565b610220516001600160a01b0390811690611c5860c0610c37858789612222565b1603611c6657600101611750565b631e2ad0ad60e21b5f5260045ffd5b60ff8b1660ff611c8c610120610c76858789612222565b1611611c9a57600101611746565b63bdf8f2b360e01b5f5260045ffd5b611cba610140610cb1838587612222565b6001600160401b03808c16911610611cd5575b60010161173c565b98506001611cea610140610cb18c8587612222565b999050611ccd565b639406b8a760e01b5f5260045ffd5b9181601f84011215611be7578235916001600160401b038311611be7576020808501946101608502010111611be757565b600435906001600160a01b0382168203611be757565b35906001600160a01b0382168203611be757565b60a4359060ff82168203611be757565b359060ff82168203611be757565b9181601f84011215611be7578235916001600160401b038311611be75760208381860195010111611be757565b9181601f84011215611be7578235916001600160401b038311611be7576020808501948460051b010111611be757565b604435906001600160401b0382168203611be757565b35906001600160401b0382168203611be757565b6064359069ffffffffffffffffffff1982168203611be757565b600454811015611e335760045f5260205f2001905f90565b634e487b7160e01b5f52603260045260245ffd5b600554811015611e335760055f5260205f2001905f90565b8054821015611e33575f5260205f2001905f90565b606081019081106001600160401b03821117611beb57604052565b61016081019081106001600160401b03821117611beb57604052565b61012081019081106001600160401b03821117611beb57604052565b61014081019081106001600160401b03821117611beb57604052565b90601f801991011681019081106001600160401b03821117611beb57604052565b6060906003190112611be75760405190611f1d82611e74565b81600435815260243563ffffffff81168103611be75760208201526040604435910152565b9190826060910312611be757604051611f5a81611e74565b809280358252602081013563ffffffff81168103611be7576020830152604090810135910152565b91909161010061012082019380518352602081015160208401526040810151604084015260ff60608201511660608401526001600160401b03608082015116608084015260018060a01b0360a08201511660a084015260c081015160c084015260e081015160e08401520151906003821015611fff576101000152565b634e487b7160e01b5f52602160045260245ffd5b356001600160401b0381168103611be75790565b6001600160401b0361e3b3911601906001600160401b03821161185b57565b6001600160401b03603c911601906001600160401b03821161185b57565b919082610160910312611be75760405161207d81611e8f565b80928035825261208f60208201611ded565b602083015260408101356040830152606081013560608301526120b460808201611ded565b608083015260a08101359069ffffffffffffffffffff1982168203611be75761014061212891819360a08601526120ed60c08201611d48565b60c08601526120fe60e08201611d48565b60e086015261010081013561010086015261211c6101208201611d6c565b61012086015201611ded565b910152565b356001600160a01b0381168103611be75790565b90816020910312611be757518015158103611be75790565b9190916101406001600160401b038161016084019580518552826020820151166020860152604081015160408601526060810151606086015282608082015116608086015269ffffffffffffffffffff1960a08201511660a086015260018060a01b0360c08201511660c086015260018060a01b0360e08201511660e086015261010081015161010086015260ff61012082015116610120860152015116910152565b3560ff81168103611be75790565b63ffffffff60019116019063ffffffff821161185b57565b9190811015611e3357610160020190565b919082610120910312611be75760405161224c81611eab565b610100819380358352602081013560208401526040810135604084015261227560608201611d6c565b606084015261228660808201611ded565b608084015261229760a08201611d48565b60a084015260c081013560c084015260e081013560e08401520135906003821015611be7576101000152565b9190820180921161185b57565b926122f39491926122ea63ffffffff60208701511661220a565b935f5495612773565b90565b6001600160401b038111611beb5760051b60200190565b9190820391821161185b57565b94989097959692939a99915f61014060405161233581611e8f565b8281528260208201528260408201528260608201528260808201528260a08201528260c08201528260e0820152826101008201528261012082015201526107d189106124d0576001600160401b0316956103e887106124c1575f85901a60f81b6001600160f81b03191615806124a3575b15612494576123ba93610a423660c4611f42565b1561248557600585028581046005148615171561185b576123e36127106123fe9204809761230d565b60408051988952602089018b90524690890152606090972090565b9260e4359563ffffffff871697888803611be75760ff97506040519a6124238c611e8f565b8b52426001600160401b031660208c015260408b015260608a0152608089015269ffffffffffffffffffff191660a08801526001600160a01b031660c08701523360e0870152610100860152166101208401526101408301526122f382612619565b633666f0e160e21b5f5260045ffd5b63fad7db0760e01b5f5260045ffd5b50600185901a60f81b6001600160f81b031916600560fa1b146123a6565b63fde5943160e01b5f5260045ffd5b6355fcd02760e01b5f5260045ffd5b6124f36124ee36610164612064565b612619565b612501610164356004611e5f565b90549060031b1c81036125115790565b63cd1d240d60e01b5f5260045ffd5b61252e6124ee366004612064565b6125016004356004611e5f565b612581907f32471f3f0779c3838c27ab991c84d0b550621b719c340d6f61a682d979f35f626040518061256e8482612159565b0390a160606040820151910151906122c3565b6040516323b872dd60e01b815233600482015230602482015260448101919091526020816064815f7f00000000000000000000000000000000000000000000000000000000000000006001600160a01b03165af1908115611bdc575f916125fa575b50156125eb57565b6312171d8360e31b5f5260045ffd5b612613915060203d60201161023f576102318183611ee3565b5f6125e3565b60405161263c8161262e602082019485612159565b03601f198101835282611ee3565b51902090565b612655612650366004612233565b61274e565b6126626004356005611e5f565b90549060031b1c81036126725790565b631a40316d60e01b5f5260045ffd5b61269061265036610204612233565b612662610204356005611e5f565b8051821015611e335760209160051b010190565b6126bb826122f6565b906126c96040519283611ee3565b8282526126d5836122f6565b602083019390601f19013685376004905f5b8181106126fb57505050505160051b902090565b612706818386612222565b61271e6127166124ee3684612064565b913585611e5f565b90549060031b1c81036127405760019190612739828861269e565b52016126e7565b8363cd1d240d60e01b5f525ffd5b60405161263c8161262e602082019485611f82565b9190811015611e335760051b0190565b919093929363ffffffff6127aa84516020860195604084885116910151919091606092604051928352602083015260408201522090565b935116905f925b80841061282757505050505f905f5b838110612801575b5050156127f9576127d8916128c9565b9081156127f25763ffffffff165f5260205260405f201490565b5050505f90565b505050505f90565b8161280d828688612763565b351461281b576001016127c0565b50505060015f806127c8565b9293600183811c94929381160361285a57612843858385612763565b355f52602052600160405f20945b019291906127b1565b612865858385612763565b35905f52602052600160405f2094612851565b815f548214918215926128bf575b50506128bc576020817f6a4b923d1c5dda45ec7bb1dbea585a753c54a92c68a94adaab178a99b3c64b85925f55604051908152a1565b50565b149050815f612886565b8115612914575f1982019180831161185b576128e6838284612763565b3592805b6128f45750505090565b5f190192612903848385612763565b355f526020528260405f20936128ea565b50505f9056fea26469706673582212200a021b2e9f67d82337b220a71cfada68f34883f08ea312500a34024bb388ee2564736f6c634300081b0033","linkReferences":{}},"methodIdentifiers":{"CIRCUIT_VERIFICATION_KEY()":"8d5ca052","DEPOSIT_TOKEN()":"13f66587","FEE_ROUTER_ADDRESS()":"898aeacb","TOKEN_DECIMALS()":"5b7f415c","VERIFIER()":"08c84e70","_proveBlockInclusion((bytes32,uint32,uint256),bytes32[],bytes32[],uint32)":"e78aa9d5","_proveBlockInclusionAtTip((bytes32,uint32,uint256),bytes32[],bytes32[])":"d9c2328f","accumulatedFeeBalance()":"ca18100d","depositLiquidity(address,uint256,uint64,bytes22,bytes32,uint8,(bytes32,uint32,uint256),bytes32[],bytes32[])":"4e960915","depositLiquidityWithOverwrite(address,uint256,uint64,bytes22,bytes32,uint8,(bytes32,uint32,uint256),bytes32[],bytes32[],(uint256,uint64,uint256,uint256,uint64,bytes22,address,address,bytes32,uint8,uint64))":"10e9619a","getSwapCommitment(uint256)":"7ed34a36","getSwapCommitmentsLength()":"992284a6","getVaultCommitment(uint256)":"9f63bd97","getVaultCommitmentsLength()":"f5095c16","initialCheckpointLeaf()":"c2835816","mmrRoot()":"d21ddc61","payoutToFeeRouter()":"f23a94a9","releaseLiquidity((uint256,bytes32,bytes32,uint8,uint64,address,uint256,uint256,uint8),uint256,uint32,bytes32[],bytes32[],(bytes32,uint32,uint256),bytes32[],bytes32[],(uint256,uint64,uint256,uint256,uint64,bytes22,address,address,bytes32,uint8,uint64)[],uint32)":"2f250922","submitSwapProof(bytes32,bytes32,(uint256,uint64,uint256,uint256,uint64,bytes22,address,address,bytes32,uint8,uint64)[],address,bytes32,bytes32,uint8,uint256,uint256,bytes,bytes,(bytes32,uint32,uint256),bytes32[],bytes32[])":"07bf9d85","submitSwapProofWithOverwrite(bytes32,bytes32,uint8,(uint256,uint64,uint256,uint256,uint64,bytes22,address,address,bytes32,uint8,uint64)[],address,bytes32,bytes32,uint256,uint256,bytes,bytes,(bytes32,uint32,uint256),bytes32[],bytes32[],(uint256,bytes32,bytes32,uint8,uint64,address,uint256,uint256,uint8))":"57038531","swapCommitments(uint256)":"365df233","vaultCommitments(uint256)":"a6a0f96e","withdrawLiquidity((uint256,uint64,uint256,uint256,uint64,bytes22,address,address,bytes32,uint8,uint64))":"16a6db20"},"storageLayout":{"storage":[{"astId":42260,"contract":"src/RiftExchange.sol:RiftExchange","label":"mmrRoot","offset":0,"slot":"0","type":"t_bytes32"},{"astId":42263,"contract":"src/RiftExchange.sol:RiftExchange","label":"initialCheckpointLeaf","offset":0,"slot":"1","type":"t_struct(BlockLeaf)43934_storage"},{"astId":42407,"contract":"src/RiftExchange.sol:RiftExchange","label":"vaultCommitments","offset":0,"slot":"4","type":"t_array(t_bytes32)dyn_storage"},{"astId":42410,"contract":"src/RiftExchange.sol:RiftExchange","label":"swapCommitments","offset":0,"slot":"5","type":"t_array(t_bytes32)dyn_storage"},{"astId":42412,"contract":"src/RiftExchange.sol:RiftExchange","label":"accumulatedFeeBalance","offset":0,"slot":"6","type":"t_uint256"}],"types":{"t_array(t_bytes32)dyn_storage":{"encoding":"dynamic_array","label":"bytes32[]","numberOfBytes":"32","base":"t_bytes32"},"t_bytes32":{"encoding":"inplace","label":"bytes32","numberOfBytes":"32"},"t_struct(BlockLeaf)43934_storage":{"encoding":"inplace","label":"struct Types.BlockLeaf","numberOfBytes":"96","members":[{"astId":43929,"contract":"src/RiftExchange.sol:RiftExchange","label":"blockHash","offset":0,"slot":"0","type":"t_bytes32"},{"astId":43931,"contract":"src/RiftExchange.sol:RiftExchange","label":"height","offset":0,"slot":"1","type":"t_uint32"},{"astId":43933,"contract":"src/RiftExchange.sol:RiftExchange","label":"cumulativeChainwork","offset":0,"slot":"2","type":"t_uint256"}]},"t_uint256":{"encoding":"inplace","label":"uint256","numberOfBytes":"32"},"t_uint32":{"encoding":"inplace","label":"uint32","numberOfBytes":"4"}}},"id":41}