{"abi":[{"type":"constructor","inputs":[{"name":"_mmrRoot","type":"bytes32","internalType":"bytes32"},{"name":"_depositToken","type":"address","internalType":"address"},{"name":"_circuitVerificationKey","type":"bytes32","internalType":"bytes32"},{"name":"_verifier","type":"address","internalType":"address"},{"name":"_feeRouter","type":"address","internalType":"address"}],"stateMutability":"nonpayable"},{"type":"function","name":"CIRCUIT_VERIFICATION_KEY","inputs":[],"outputs":[{"name":"","type":"bytes32","internalType":"bytes32"}],"stateMutability":"view"},{"type":"function","name":"DEPOSIT_TOKEN","inputs":[],"outputs":[{"name":"","type":"address","internalType":"contract IERC20"}],"stateMutability":"view"},{"type":"function","name":"FEE_ROUTER_ADDRESS","inputs":[],"outputs":[{"name":"","type":"address","internalType":"address"}],"stateMutability":"view"},{"type":"function","name":"TOKEN_DECIMALS","inputs":[],"outputs":[{"name":"","type":"uint8","internalType":"uint8"}],"stateMutability":"view"},{"type":"function","name":"VERIFIER","inputs":[],"outputs":[{"name":"","type":"address","internalType":"contract ISP1Verifier"}],"stateMutability":"view"},{"type":"function","name":"_proveBlockInclusion","inputs":[{"name":"blockLeaf","type":"tuple","internalType":"struct Types.BlockLeaf","components":[{"name":"blockHash","type":"bytes32","internalType":"bytes32"},{"name":"height","type":"uint32","internalType":"uint32"},{"name":"cumulativeChainwork","type":"uint256","internalType":"uint256"}]},{"name":"siblings","type":"bytes32[]","internalType":"bytes32[]"},{"name":"peaks","type":"bytes32[]","internalType":"bytes32[]"},{"name":"tipBlockHeight","type":"uint32","internalType":"uint32"}],"outputs":[{"name":"","type":"bool","internalType":"bool"}],"stateMutability":"view"},{"type":"function","name":"_proveBlockInclusionAtTip","inputs":[{"name":"blockLeaf","type":"tuple","internalType":"struct Types.BlockLeaf","components":[{"name":"blockHash","type":"bytes32","internalType":"bytes32"},{"name":"height","type":"uint32","internalType":"uint32"},{"name":"cumulativeChainwork","type":"uint256","internalType":"uint256"}]},{"name":"siblings","type":"bytes32[]","internalType":"bytes32[]"},{"name":"peaks","type":"bytes32[]","internalType":"bytes32[]"}],"outputs":[{"name":"","type":"bool","internalType":"bool"}],"stateMutability":"view"},{"type":"function","name":"accumulatedFeeBalance","inputs":[],"outputs":[{"name":"","type":"uint256","internalType":"uint256"}],"stateMutability":"view"},{"type":"function","name":"depositLiquidity","inputs":[{"name":"specifiedPayoutAddress","type":"address","internalType":"address"},{"name":"depositAmount","type":"uint256","internalType":"uint256"},{"name":"expectedSats","type":"uint64","internalType":"uint64"},{"name":"btcPayoutScriptPubKey","type":"bytes22","internalType":"bytes22"},{"name":"depositSalt","type":"bytes32","internalType":"bytes32"},{"name":"confirmationBlocks","type":"uint8","internalType":"uint8"},{"name":"tipBlockLeaf","type":"tuple","internalType":"struct Types.BlockLeaf","components":[{"name":"blockHash","type":"bytes32","internalType":"bytes32"},{"name":"height","type":"uint32","internalType":"uint32"},{"name":"cumulativeChainwork","type":"uint256","internalType":"uint256"}]},{"name":"tipBlockSiblings","type":"bytes32[]","internalType":"bytes32[]"},{"name":"tipBlockPeaks","type":"bytes32[]","internalType":"bytes32[]"}],"outputs":[],"stateMutability":"nonpayable"},{"type":"function","name":"depositLiquidityWithOverwrite","inputs":[{"name":"specifiedPayoutAddress","type":"address","internalType":"address"},{"name":"depositAmount","type":"uint256","internalType":"uint256"},{"name":"expectedSats","type":"uint64","internalType":"uint64"},{"name":"btcPayoutScriptPubKey","type":"bytes22","internalType":"bytes22"},{"name":"depositSalt","type":"bytes32","internalType":"bytes32"},{"name":"confirmationBlocks","type":"uint8","internalType":"uint8"},{"name":"tipBlockLeaf","type":"tuple","internalType":"struct Types.BlockLeaf","components":[{"name":"blockHash","type":"bytes32","internalType":"bytes32"},{"name":"height","type":"uint32","internalType":"uint32"},{"name":"cumulativeChainwork","type":"uint256","internalType":"uint256"}]},{"name":"tipBlockSiblings","type":"bytes32[]","internalType":"bytes32[]"},{"name":"tipBlockPeaks","type":"bytes32[]","internalType":"bytes32[]"},{"name":"overwriteVault","type":"tuple","internalType":"struct Types.DepositVault","components":[{"name":"vaultIndex","type":"uint256","internalType":"uint256"},{"name":"depositTimestamp","type":"uint64","internalType":"uint64"},{"name":"depositAmount","type":"uint256","internalType":"uint256"},{"name":"depositFee","type":"uint256","internalType":"uint256"},{"name":"expectedSats","type":"uint64","internalType":"uint64"},{"name":"btcPayoutScriptPubKey","type":"bytes22","internalType":"bytes22"},{"name":"specifiedPayoutAddress","type":"address","internalType":"address"},{"name":"ownerAddress","type":"address","internalType":"address"},{"name":"nonce","type":"bytes32","internalType":"bytes32"},{"name":"confirmationBlocks","type":"uint8","internalType":"uint8"},{"name":"attestedBitcoinBlockHeight","type":"uint64","internalType":"uint64"}]}],"outputs":[],"stateMutability":"nonpayable"},{"type":"function","name":"getSwapCommitment","inputs":[{"name":"swapIndex","type":"uint256","internalType":"uint256"}],"outputs":[{"name":"","type":"bytes32","internalType":"bytes32"}],"stateMutability":"view"},{"type":"function","name":"getSwapCommitmentsLength","inputs":[],"outputs":[{"name":"","type":"uint256","internalType":"uint256"}],"stateMutability":"view"},{"type":"function","name":"getVaultCommitment","inputs":[{"name":"vaultIndex","type":"uint256","internalType":"uint256"}],"outputs":[{"name":"","type":"bytes32","internalType":"bytes32"}],"stateMutability":"view"},{"type":"function","name":"getVaultCommitmentsLength","inputs":[],"outputs":[{"name":"","type":"uint256","internalType":"uint256"}],"stateMutability":"view"},{"type":"function","name":"mmrRoot","inputs":[],"outputs":[{"name":"","type":"bytes32","internalType":"bytes32"}],"stateMutability":"view"},{"type":"function","name":"payoutToFeeRouter","inputs":[],"outputs":[],"stateMutability":"nonpayable"},{"type":"function","name":"releaseLiquidity","inputs":[{"name":"swap","type":"tuple","internalType":"struct Types.ProposedSwap","components":[{"name":"swapIndex","type":"uint256","internalType":"uint256"},{"name":"aggregateVaultCommitment","type":"bytes32","internalType":"bytes32"},{"name":"depositVaultNonce","type":"bytes32","internalType":"bytes32"},{"name":"swapBitcoinBlockHash","type":"bytes32","internalType":"bytes32"},{"name":"confirmationBlocks","type":"uint8","internalType":"uint8"},{"name":"liquidityUnlockTimestamp","type":"uint64","internalType":"uint64"},{"name":"specifiedPayoutAddress","type":"address","internalType":"address"},{"name":"totalSwapFee","type":"uint256","internalType":"uint256"},{"name":"totalSwapOutput","type":"uint256","internalType":"uint256"},{"name":"state","type":"uint8","internalType":"enum Types.SwapState"}]},{"name":"swapBlockChainwork","type":"uint256","internalType":"uint256"},{"name":"swapBlockHeight","type":"uint32","internalType":"uint32"},{"name":"bitcoinSwapBlockSiblings","type":"bytes32[]","internalType":"bytes32[]"},{"name":"bitcoinSwapBlockPeaks","type":"bytes32[]","internalType":"bytes32[]"},{"name":"bitcoinConfirmationBlockLeaf","type":"tuple","internalType":"struct Types.BlockLeaf","components":[{"name":"blockHash","type":"bytes32","internalType":"bytes32"},{"name":"height","type":"uint32","internalType":"uint32"},{"name":"cumulativeChainwork","type":"uint256","internalType":"uint256"}]},{"name":"bitcoinConfirmationBlockSiblings","type":"bytes32[]","internalType":"bytes32[]"},{"name":"bitcoinConfirmationBlockPeaks","type":"bytes32[]","internalType":"bytes32[]"},{"name":"utilizedVault","type":"tuple","internalType":"struct Types.DepositVault","components":[{"name":"vaultIndex","type":"uint256","internalType":"uint256"},{"name":"depositTimestamp","type":"uint64","internalType":"uint64"},{"name":"depositAmount","type":"uint256","internalType":"uint256"},{"name":"depositFee","type":"uint256","internalType":"uint256"},{"name":"expectedSats","type":"uint64","internalType":"uint64"},{"name":"btcPayoutScriptPubKey","type":"bytes22","internalType":"bytes22"},{"name":"specifiedPayoutAddress","type":"address","internalType":"address"},{"name":"ownerAddress","type":"address","internalType":"address"},{"name":"nonce","type":"bytes32","internalType":"bytes32"},{"name":"confirmationBlocks","type":"uint8","internalType":"uint8"},{"name":"attestedBitcoinBlockHeight","type":"uint64","internalType":"uint64"}]},{"name":"tipBlockHeight","type":"uint32","internalType":"uint32"}],"outputs":[],"stateMutability":"nonpayable"},{"type":"function","name":"submitSwapProof","inputs":[{"name":"swapBitcoinTxid","type":"bytes32","internalType":"bytes32"},{"name":"swapBitcoinBlockHash","type":"bytes32","internalType":"bytes32"},{"name":"vault","type":"tuple","internalType":"struct Types.DepositVault","components":[{"name":"vaultIndex","type":"uint256","internalType":"uint256"},{"name":"depositTimestamp","type":"uint64","internalType":"uint64"},{"name":"depositAmount","type":"uint256","internalType":"uint256"},{"name":"depositFee","type":"uint256","internalType":"uint256"},{"name":"expectedSats","type":"uint64","internalType":"uint64"},{"name":"btcPayoutScriptPubKey","type":"bytes22","internalType":"bytes22"},{"name":"specifiedPayoutAddress","type":"address","internalType":"address"},{"name":"ownerAddress","type":"address","internalType":"address"},{"name":"nonce","type":"bytes32","internalType":"bytes32"},{"name":"confirmationBlocks","type":"uint8","internalType":"uint8"},{"name":"attestedBitcoinBlockHeight","type":"uint64","internalType":"uint64"}]},{"name":"priorMmrRoot","type":"bytes32","internalType":"bytes32"},{"name":"newMmrRoot","type":"bytes32","internalType":"bytes32"},{"name":"proof","type":"bytes","internalType":"bytes"},{"name":"compressedBlockLeaves","type":"bytes","internalType":"bytes"},{"name":"tipBlockLeaf","type":"tuple","internalType":"struct Types.BlockLeaf","components":[{"name":"blockHash","type":"bytes32","internalType":"bytes32"},{"name":"height","type":"uint32","internalType":"uint32"},{"name":"cumulativeChainwork","type":"uint256","internalType":"uint256"}]},{"name":"tipBlockSiblings","type":"bytes32[]","internalType":"bytes32[]"},{"name":"tipBlockPeaks","type":"bytes32[]","internalType":"bytes32[]"}],"outputs":[],"stateMutability":"nonpayable"},{"type":"function","name":"submitSwapProofWithOverwrite","inputs":[{"name":"swapBitcoinBlockHash","type":"bytes32","internalType":"bytes32"},{"name":"swapBitcoinTxid","type":"bytes32","internalType":"bytes32"},{"name":"vault","type":"tuple","internalType":"struct Types.DepositVault","components":[{"name":"vaultIndex","type":"uint256","internalType":"uint256"},{"name":"depositTimestamp","type":"uint64","internalType":"uint64"},{"name":"depositAmount","type":"uint256","internalType":"uint256"},{"name":"depositFee","type":"uint256","internalType":"uint256"},{"name":"expectedSats","type":"uint64","internalType":"uint64"},{"name":"btcPayoutScriptPubKey","type":"bytes22","internalType":"bytes22"},{"name":"specifiedPayoutAddress","type":"address","internalType":"address"},{"name":"ownerAddress","type":"address","internalType":"address"},{"name":"nonce","type":"bytes32","internalType":"bytes32"},{"name":"confirmationBlocks","type":"uint8","internalType":"uint8"},{"name":"attestedBitcoinBlockHeight","type":"uint64","internalType":"uint64"}]},{"name":"priorMmrRoot","type":"bytes32","internalType":"bytes32"},{"name":"newMmrRoot","type":"bytes32","internalType":"bytes32"},{"name":"proof","type":"bytes","internalType":"bytes"},{"name":"compressedBlockLeaves","type":"bytes","internalType":"bytes"},{"name":"tipBlockLeaf","type":"tuple","internalType":"struct Types.BlockLeaf","components":[{"name":"blockHash","type":"bytes32","internalType":"bytes32"},{"name":"height","type":"uint32","internalType":"uint32"},{"name":"cumulativeChainwork","type":"uint256","internalType":"uint256"}]},{"name":"tipBlockSiblings","type":"bytes32[]","internalType":"bytes32[]"},{"name":"tipBlockPeaks","type":"bytes32[]","internalType":"bytes32[]"},{"name":"overwriteSwap","type":"tuple","internalType":"struct Types.ProposedSwap","components":[{"name":"swapIndex","type":"uint256","internalType":"uint256"},{"name":"aggregateVaultCommitment","type":"bytes32","internalType":"bytes32"},{"name":"depositVaultNonce","type":"bytes32","internalType":"bytes32"},{"name":"swapBitcoinBlockHash","type":"bytes32","internalType":"bytes32"},{"name":"confirmationBlocks","type":"uint8","internalType":"uint8"},{"name":"liquidityUnlockTimestamp","type":"uint64","internalType":"uint64"},{"name":"specifiedPayoutAddress","type":"address","internalType":"address"},{"name":"totalSwapFee","type":"uint256","internalType":"uint256"},{"name":"totalSwapOutput","type":"uint256","internalType":"uint256"},{"name":"state","type":"uint8","internalType":"enum Types.SwapState"}]}],"outputs":[],"stateMutability":"nonpayable"},{"type":"function","name":"swapCommitments","inputs":[{"name":"","type":"uint256","internalType":"uint256"}],"outputs":[{"name":"","type":"bytes32","internalType":"bytes32"}],"stateMutability":"view"},{"type":"function","name":"vaultCommitments","inputs":[{"name":"","type":"uint256","internalType":"uint256"}],"outputs":[{"name":"","type":"bytes32","internalType":"bytes32"}],"stateMutability":"view"},{"type":"function","name":"withdrawLiquidity","inputs":[{"name":"vault","type":"tuple","internalType":"struct Types.DepositVault","components":[{"name":"vaultIndex","type":"uint256","internalType":"uint256"},{"name":"depositTimestamp","type":"uint64","internalType":"uint64"},{"name":"depositAmount","type":"uint256","internalType":"uint256"},{"name":"depositFee","type":"uint256","internalType":"uint256"},{"name":"expectedSats","type":"uint64","internalType":"uint64"},{"name":"btcPayoutScriptPubKey","type":"bytes22","internalType":"bytes22"},{"name":"specifiedPayoutAddress","type":"address","internalType":"address"},{"name":"ownerAddress","type":"address","internalType":"address"},{"name":"nonce","type":"bytes32","internalType":"bytes32"},{"name":"confirmationBlocks","type":"uint8","internalType":"uint8"},{"name":"attestedBitcoinBlockHeight","type":"uint64","internalType":"uint64"}]}],"outputs":[],"stateMutability":"nonpayable"},{"type":"event","name":"BlockTreeUpdated","inputs":[{"name":"treeRoot","type":"bytes32","indexed":false,"internalType":"bytes32"},{"name":"compressedBlockLeaves","type":"bytes","indexed":false,"internalType":"bytes"}],"anonymous":false},{"type":"event","name":"SwapUpdated","inputs":[{"name":"swap","type":"tuple","indexed":false,"internalType":"struct Types.ProposedSwap","components":[{"name":"swapIndex","type":"uint256","internalType":"uint256"},{"name":"aggregateVaultCommitment","type":"bytes32","internalType":"bytes32"},{"name":"depositVaultNonce","type":"bytes32","internalType":"bytes32"},{"name":"swapBitcoinBlockHash","type":"bytes32","internalType":"bytes32"},{"name":"confirmationBlocks","type":"uint8","internalType":"uint8"},{"name":"liquidityUnlockTimestamp","type":"uint64","internalType":"uint64"},{"name":"specifiedPayoutAddress","type":"address","internalType":"address"},{"name":"totalSwapFee","type":"uint256","internalType":"uint256"},{"name":"totalSwapOutput","type":"uint256","internalType":"uint256"},{"name":"state","type":"uint8","internalType":"enum Types.SwapState"}]},{"name":"context","type":"uint8","indexed":false,"internalType":"enum Types.SwapUpdateContext"}],"anonymous":false},{"type":"event","name":"VaultUpdated","inputs":[{"name":"vault","type":"tuple","indexed":false,"internalType":"struct Types.DepositVault","components":[{"name":"vaultIndex","type":"uint256","internalType":"uint256"},{"name":"depositTimestamp","type":"uint64","internalType":"uint64"},{"name":"depositAmount","type":"uint256","internalType":"uint256"},{"name":"depositFee","type":"uint256","internalType":"uint256"},{"name":"expectedSats","type":"uint64","internalType":"uint64"},{"name":"btcPayoutScriptPubKey","type":"bytes22","internalType":"bytes22"},{"name":"specifiedPayoutAddress","type":"address","internalType":"address"},{"name":"ownerAddress","type":"address","internalType":"address"},{"name":"nonce","type":"bytes32","internalType":"bytes32"},{"name":"confirmationBlocks","type":"uint8","internalType":"uint8"},{"name":"attestedBitcoinBlockHeight","type":"uint64","internalType":"uint64"}]},{"name":"context","type":"uint8","indexed":false,"internalType":"enum Types.VaultUpdateContext"}],"anonymous":false},{"type":"error","name":"CannotOverwriteOnGoingSwap","inputs":[]},{"type":"error","name":"DepositAmountTooLow","inputs":[]},{"type":"error","name":"DepositStillLocked","inputs":[]},{"type":"error","name":"DepositVaultDoesNotExist","inputs":[]},{"type":"error","name":"DepositVaultNotOverwritable","inputs":[]},{"type":"error","name":"EmptyDepositVault","inputs":[]},{"type":"error","name":"InvalidConfirmationBlockDelta","inputs":[]},{"type":"error","name":"InvalidConfirmationBlockInclusionProof","inputs":[]},{"type":"error","name":"InvalidScriptPubKey","inputs":[]},{"type":"error","name":"InvalidSwapBlockInclusionProof","inputs":[]},{"type":"error","name":"InvalidTipBlockInclusionProof","inputs":[]},{"type":"error","name":"InvalidVaultCommitment","inputs":[]},{"type":"error","name":"NoFeeToPay","inputs":[]},{"type":"error","name":"SatOutputTooLow","inputs":[]},{"type":"error","name":"StillInChallengePeriod","inputs":[]},{"type":"error","name":"SwapDoesNotExist","inputs":[]},{"type":"error","name":"SwapNotProved","inputs":[]},{"type":"error","name":"TransferFailed","inputs":[]}],"bytecode":{"object":"0x61012080604052346101425760a08161218680380380916100208285610159565b8339810103126101425780519061003960208201610190565b6004602060408401519261005b608061005460608801610190565b9601610190565b5f969096556001600160a01b0316608081905260405163313ce56760e01b815292839182905afa90811561014e575f9161010e575b5060a05260c0526001600160a01b031660e05261010052604051611fe190816101a5823960805181818161019f01528181610e9101528181610f5e0152611861015260a05181610735015260c0518181816106970152611bf1015260e05181818161107a0152611ba301526101005181818161016401526106cf0152f35b90506020813d602011610146575b8161012960209383610159565b81010312610142575160ff81168103610142575f610090565b5f80fd5b3d915061011c565b6040513d5f823e3d90fd5b601f909101601f19168101906001600160401b0382119082101761017c57604052565b634e487b7160e01b5f52604160045260245ffd5b51906001600160a01b03821682036101425756fe610100806040526004361015610013575f80fd5b5f3560e01c90816308c84e70146110685750806310e9619a14610f8d57806313f6658714610f4957806316a6db2014610d1057806335cf0d3e1461084a578063365df233146108215780634e960915146107595780635b7f415c1461071c5780637ed34a36146106fe578063898aeacb146106ba5780638d5ca05214610680578063992284a6146106635780639f63bd9714610645578063a6a0f96e1461060d578063b9eb3ce8146104e5578063be0c4e9314610366578063ca18100d14610349578063d21ddc611461032d578063d9c2328f146102c4578063e78aa9d514610237578063f23a94a9146101305763f5095c161461010f575f80fd5b3461012c575f36600319011261012c576020600154604051908152f35b5f80fd5b3461012c575f36600319011261012c576003548015610228575f60035560405163a9059cbb60e01b81526001600160a01b037f0000000000000000000000000000000000000000000000000000000000000000166004820152602481019190915260208180604481015b03815f7f00000000000000000000000000000000000000000000000000000000000000006001600160a01b03165af190811561021d575f916101ee575b50156101df57005b6312171d8360e31b5f5260045ffd5b610210915060203d602011610216575b610208818361123b565b8101906113a0565b816101d7565b503d6101fe565b6040513d5f823e3d90fd5b630fbcad4560e21b5f5260045ffd5b3461012c5760c036600319011261012c576102513661125c565b6064356001600160401b03811161012c57610270903690600401611132565b916084356001600160401b03811161012c57610290903690600401611132565b60a435939163ffffffff8516850361012c576020956102b16102ba96611471565b935f5495611de9565b6040519015158152f35b3461012c5760a036600319011261012c576102de3661125c565b6064356001600160401b03811161012c576102fd903690600401611132565b9190608435916001600160401b03831161012c576020936103256102ba943690600401611132565b9390926115b1565b3461012c575f36600319011261012c5760205f54604051908152f35b3461012c575f36600319011261012c576020600354604051908152f35b3461012c5761040036600319011261012c5761016036604319011261012c576101e4356001600160401b03811161012c576103a59036906004016111bb565b90610204356001600160401b03811161012c576103c69036906004016111bb565b9060603661022319011261012c57610284356001600160401b03811161012c576103f4903690600401611132565b6102a4959195356001600160401b03811161012c57610417903690600401611132565b91610140366102c319011261012c5761042e611927565b506103e435600381101561012c5760029061044881611453565b036104d6577f2fbcb7a28033609237c6bf9332bee64f5913a7ebb456577c901d8093b523877d976104b69661049e96610496966102c4359a6101c4356101a4358d6024359060043590611986565b91909361118e565b90919082549060031b91821b915f19901b1916179055565b60405180916104ca82610160810192611532565b5f6101408301520390a1005b6318cf65dd60e21b5f5260045ffd5b3461012c576102c036600319011261012c5761016036604319011261012c576101e4356001600160401b03811161012c576105249036906004016111bb565b610204356001600160401b03811161012c576105449036906004016111bb565b90929060603661022319011261012c57610284356001600160401b03811161012c57610574903690600401611132565b916102a435956001600160401b03871161012c576105996105b2973690600401611132565b9690956101c4356101a435600435602435600254611986565b90600254600160401b8110156105f9577f2fbcb7a28033609237c6bf9332bee64f5913a7ebb456577c901d8093b523877d9261049e8260016104b6940160025560026111a6565b634e487b7160e01b5f52604160045260245ffd5b3461012c57602036600319011261012c5760043560015481101561012c57610636602091611162565b90549060031b1c604051908152f35b3461012c57602036600319011261012c576020610636600435611162565b3461012c575f36600319011261012c576020600254604051908152f35b3461012c575f36600319011261012c5760206040517f00000000000000000000000000000000000000000000000000000000000000008152f35b3461012c575f36600319011261012c576040517f00000000000000000000000000000000000000000000000000000000000000006001600160a01b03168152602090f35b3461012c57602036600319011261012c57602061063660043561118e565b3461012c575f36600319011261012c57602060405160ff7f0000000000000000000000000000000000000000000000000000000000000000168152f35b3461012c5761016036600319011261012c576107736110a9565b61077b6110d3565b906107846110fd565b61078c611114565b60603660c319011261012c57610124356001600160401b03811161012c576107b8903690600401611132565b9161014435956001600160401b03871161012c576107dd6107f1973690600401611132565b9690956084359260015492602435906115db565b90600154600160401b8110156105f95761081f9261049e82600161081a940160015560016111a6565b6117ea565b005b3461012c57602036600319011261012c5760043560025481101561012c5761063660209161118e565b3461012c5736600319016103e0811261012c576101401361012c576101643563ffffffff811680910361012c57610184356001600160401b03811161012c57610897903690600401611132565b6101a4356001600160401b03811161012c576108b7903690600401611132565b90926060366101c319011261012c57610224356001600160401b03811161012c576108e6903690600401611132565b9091610244356001600160401b03811161012c57610908903690600401611132565b91906101603661026319011261012c576103c4359263ffffffff8416840361012c576109326118e8565b506101243597600389101561012c5761094a89611453565b60018903610d015760a435976001600160401b038916808a0361012c574210610cf2576109aa918c916064359c8d9360405194610986866111e8565b8552602085015261014435604085015261099f89611471565b925f54988995611de9565b15610ce357604051916109bc836111e8565b6101c43583526101e4359563ffffffff87169788880361012c576109f16109f797896020880152610204356040880152611471565b94611de9565b15610cd457506084359460ff86169081870361012c570163ffffffff8111610cc05763ffffffff1603610cb157610a38610a33366102646112da565b6118c0565b9361026435610a488160016111a6565b90549060031b1c8603610ca257602435809603610c935760405190610a6c82611203565b8152610284356001600160401b038116810361012c576020820152604081016102a435815260608201916102c43583526102e4356001600160401b038116810361012c576080820152610304356001600160501b03198116810361012c5760a0820152610324356001600160a01b038116810361012c5760c0820152610344356001600160a01b038116810361012c5760e0820152610364356101008201526103843560ff8116810361012c576101208201526103a435916001600160401b038316830361012c577f24e3dfec7094aa50543676beff35467ddf376469fa05571e4d1b729f3514507f935f8092610180956101408601525252610b7b610b71826118c0565b61049e8351611162565b610b8860405180926113b8565b6002610160820152a160405193610b9e8561121f565b600435808652602086019690965260443560408601526060850152608084015260a083015260c4356001600160a01b038116810361012c577f2fbcb7a28033609237c6bf9332bee64f5913a7ebb456577c901d8093b523877d83610c4561019a968460c06020980152610c3d60e435918260e0860152600261010435988961010088015261012087019081525261049e610c3786611944565b9161118e565b600354611525565b600355610c556040518092611532565b600161014082015261016090a160405163a9059cbb60e01b81526001600160a01b039091166004820152602481019190915291829081906044820190565b63ceb1159d60e01b5f5260045ffd5b63cd1d240d60e01b5f5260045ffd5b638e082f6760e01b5f5260045ffd5b634e487b7160e01b5f52601160045260245ffd5b638ce0b4c760e01b5f5260045ffd5b637344e0b760e01b5f5260045ffd5b632d5c37f560e21b5f5260045ffd5b6322fc5d4360e21b5f5260045ffd5b3461012c573660031901610160811261012c57610d2b6117cf565b506044358015610f3a57602435916001600160401b03831680840361012c57617080016001600160401b038111610cc0576001600160401b03164210610f2b576101601361012c5760405191610d8083611203565b6004359081845260208401526040830191808352606084019160643583526084356001600160401b038116810361012c57608086015260a4356001600160501b03198116810361012c5760a086015260c4356001600160a01b038116810361012c5760c086015260e435906001600160a01b038216820361012c578160e0870152610104356101008701526101243560ff8116810361012c5761012087015261014435906001600160401b038216820361012c575f60209581610e8c98610e5b956101408c0152525261049e610e55886118c0565b91611162565b60405163a9059cbb60e01b81526001600160a01b039091166004820152602481019190915291829081906044820190565b03815f7f00000000000000000000000000000000000000000000000000000000000000006001600160a01b03165af190811561021d575f91610f0c575b50156101df576101807f24e3dfec7094aa50543676beff35467ddf376469fa05571e4d1b729f3514507f91610f0160405180926113b8565b6001610160820152a1005b610f25915060203d60201161021657610208818361123b565b82610ec9565b6301b512a960e21b5f5260045ffd5b637941e9ad60e01b5f5260045ffd5b3461012c575f36600319011261012c576040517f00000000000000000000000000000000000000000000000000000000000000006001600160a01b03168152602090f35b3461012c576102c036600319011261012c57610fa76110a9565b610faf6110d3565b610fb76110fd565b91610fc0611114565b9060603660c319011261012c57610124356001600160401b03811161012c57610fed903690600401611132565b90610144356001600160401b03811161012c5761100e903690600401611132565b9490936101603661016319011261012c57611037966101643598899160843593602435906115db565b916110406117a2565b506101a4356110595761081f9261049e61081a92611162565b630faaae6760e31b5f5260045ffd5b3461012c575f36600319011261012c577f00000000000000000000000000000000000000000000000000000000000000006001600160a01b03168152602090f35b600435906001600160a01b038216820361012c57565b35906001600160a01b038216820361012c57565b604435906001600160401b038216820361012c57565b35906001600160401b038216820361012c57565b606435906001600160501b03198216820361012c57565b60a4359060ff8216820361012c57565b359060ff8216820361012c57565b9181601f8401121561012c578235916001600160401b03831161012c576020808501948460051b01011161012c57565b60015481101561117a5760015f5260205f2001905f90565b634e487b7160e01b5f52603260045260245ffd5b60025481101561117a5760025f5260205f2001905f90565b805482101561117a575f5260205f2001905f90565b9181601f8401121561012c578235916001600160401b03831161012c576020838186019501011161012c57565b606081019081106001600160401b038211176105f957604052565b61016081019081106001600160401b038211176105f957604052565b61014081019081106001600160401b038211176105f957604052565b90601f801991011681019081106001600160401b038211176105f957604052565b606090600319011261012c5760405190611275826111e8565b81600435815260243563ffffffff8116810361012c5760208201526040604435910152565b919082606091031261012c576040516112b2816111e8565b809280358252602081013563ffffffff8116810361012c576020830152604090810135910152565b91908261016091031261012c576040516112f381611203565b809280358252611305602082016110e9565b6020830152604081013560408301526060810135606083015261132a608082016110e9565b608083015260a0810135906001600160501b03198216820361012c5761014061139b91819360a086015261136060c082016110bf565b60c086015261137160e082016110bf565b60e086015261010081013561010086015261138f6101208201611124565b610120860152016110e9565b910152565b9081602091031261012c5751801515810361012c5790565b6001600160401b03610140809280518552826020820151166020860152604081015160408601526060810151606086015282608082015116608086015269ffffffffffffffffffff1960a08201511660a086015260018060a01b0360c08201511660c086015260018060a01b0360e08201511660e086015261010081015161010086015260ff61012082015116610120860152015116910152565b6003111561145d57565b634e487b7160e01b5f52602160045260245ffd5b63ffffffff60019116019063ffffffff8211610cc057565b91908261014091031261012c576040516114a28161121f565b6101208193803583526020810135602084015260408101356040840152606081013560608401526114d560808201611124565b60808401526114e660a082016110e9565b60a08401526114f760c082016110bf565b60c084015260e081013560e0840152610100810135610100840152013590600382101561012c576101200152565b91908201809211610cc057565b61012080918051845260208101516020850152604081015160408501526060810151606085015260ff60808201511660808501526001600160401b0360a08201511660a085015260018060a01b0360c08201511660c085015260e081015160e08501526101008101516101008501520151916115ad83611453565b0152565b926115cb9491926102b163ffffffff602087015116611471565b90565b91908203918211610cc057565b94989097959692939a99915f6101406040516115f681611203565b8281528260208201528260408201528260608201528260808201528260a08201528260c08201528260e0820152826101008201528261012082015201526107d18910611793576001600160401b0316956103e88710611784575f85901a60f81b6001600160f81b0319161580611766575b15611757576116809361167b3660c461129a565b6115b1565b15611748576005850285810460051486151715610cc0576116a96127106116c4920480976115ce565b60408051988952602089018b90524690890152606090972090565b9260e4359563ffffffff87169788880361012c5760ff97506040519a6116e98c611203565b8b52426001600160401b031660208c015260408b015260608a015260808901526001600160501b03191660a08801526001600160a01b031660c08701523360e0870152610100860152166101208401526101408301526115cb826118c0565b633666f0e160e21b5f5260045ffd5b63fad7db0760e01b5f5260045ffd5b50600185901a60f81b6001600160f81b031916600560fa1b14611667565b63fde5943160e01b5f5260045ffd5b6355fcd02760e01b5f5260045ffd5b6117b1610a33366101646112da565b6117bf6101643560016111a6565b90549060031b1c8103610ca25790565b6117dd610a333660046112da565b6117bf60043560016111a6565b611837907f24e3dfec7094aa50543676beff35467ddf376469fa05571e4d1b729f3514507f61018060405161181f81856113b8565b5f610160820152a16060604082015191015190611525565b6040516323b872dd60e01b815233600482015230602482015260448101919091526020816064815f7f00000000000000000000000000000000000000000000000000000000000000006001600160a01b03165af190811561021d575f916118a1575b50156101df57565b6118ba915060203d60201161021657610208818361123b565b5f611899565b6040516118d16020820180936113b8565b61016081526118e26101808261123b565b51902090565b6118fb6118f6366004611489565b611944565b61190860043560026111a6565b90549060031b1c81036119185790565b631a40316d60e01b5f5260045ffd5b6119366118f6366102c4611489565b6119086102c43560026111a6565b604051611955602082018093611532565b61014081526118e26101608261123b565b908060209392818452848401375f828201840152601f01601f1916010190565b9c9b9793919995909a96929a9894986080525f995f6101206040516119aa8161121f565b8281528260208201528260408201528260608201528260808201528260a08201528260c08201528260e082015282610100820152015261018435996001600160401b038b168b0361012c57611a003660446112da565b6040810151606082015160c05260c05160c05160011b0460021460c051151715610cc0576060611a32920151906115ce565b60e052611a43610a333660446112da565b60a052611a5360443560016111a6565b90549060031b1c60a05103610ca2576001600160401b0386116105f957604051611a87601f8801601f19166020018261123b565b8681526020810190368888011161012c57878783375f6020898301015251902060ff6101643516610164350361012c57610104356001600160a01b038116900361012c578d90604051611ad98161121f565b60ff6101643516815260208101926080518452604082019586526060820160a05181526080830160018060a01b036101043516815260a084019060c05160011b825260c085019260e051845260e086019485526101206101008701968d8852019687526040519960208b019860ff61016435168a525160408c01525160608b01525160808a015260018060a01b0390511660a08901525160c08801525160e08701525161010086015251610120850152516101408401526101408352611ba16101608461123b565b7f00000000000000000000000000000000000000000000000000000000000000006001600160a01b031690813b1561012c575f93611c4f6084946040519788968795869563020a49e360e51b87527f00000000000000000000000000000000000000000000000000000000000000006004880152606060248801525180918160648901528388015e85810182018a9052601f01601f1916850185810382016003190160448701520191611966565b03915afa801561021d57611db7575b5090611c709291611c7c98999a611eee565b61167b3661022461129a565b15611da857610244359063ffffffff821691828103611da457906001600160401b0391501690036001600160401b038111611d90576001600160401b03166085026001600160401b038116908103611d90576001600160401b0361e3b39116016001600160401b038111610cc0576001600160401b036103e881603c93160416016001600160401b038111610cc057611d1f6001600160401b0380921642611525565b1660405193611d2d8561121f565b845260a0516020850152610144356040850152608051606085015260ff6101643516608085015260a084015260018060a01b03610104351660c084015260c05160011b60e084015260e0516101008401525060016101208301526115cb82611944565b634e487b7160e01b82526011600452602482fd5b8380fd5b633666f0e160e21b8252600482fd5b611c7c98995090611dcd5f611c7095949361123b565b5f999850909192611c5e565b919081101561117a5760051b0190565b919093929363ffffffff611e2084516020860195604084885116910151919091606092604051928352602083015260408201522090565b935116905f925b808410611e9d57505050505f905f5b838110611e77575b505015611e6f57611e4e91611f5a565b908115611e685763ffffffff165f5260205260405f201490565b5050505f90565b505050505f90565b81611e83828688611dd9565b3514611e9157600101611e36565b50505060015f80611e3e565b9293600183811c949293811603611ed057611eb9858385611dd9565b355f52602052600160405f20945b01929190611e27565b611edb858385611dd9565b35905f52602052600160405f2094611ec7565b929192815f54821491821592611f50575b5050611f4b57611f467f9b2f63e83fb6fca69cac8064b1700d250ea342927ef73fb1a519b5df4e4f111893825f556040519384938452604060208501526040840191611966565b0390a1565b505050565b149050815f611eff565b8115611fa5575f19820191808311610cc057611f77838284611dd9565b3592805b611f855750505090565b5f190192611f94848385611dd9565b355f526020528260405f2093611f7b565b50505f9056fea26469706673582212200a7b51356eac45c01899364f58f07ee4be3b2855b118f1c9874ef56faa41efcd64736f6c634300081c0033","linkReferences":{}},"methodIdentifiers":{"CIRCUIT_VERIFICATION_KEY()":"8d5ca052","DEPOSIT_TOKEN()":"13f66587","FEE_ROUTER_ADDRESS()":"898aeacb","TOKEN_DECIMALS()":"5b7f415c","VERIFIER()":"08c84e70","_proveBlockInclusion((bytes32,uint32,uint256),bytes32[],bytes32[],uint32)":"e78aa9d5","_proveBlockInclusionAtTip((bytes32,uint32,uint256),bytes32[],bytes32[])":"d9c2328f","accumulatedFeeBalance()":"ca18100d","depositLiquidity(address,uint256,uint64,bytes22,bytes32,uint8,(bytes32,uint32,uint256),bytes32[],bytes32[])":"4e960915","depositLiquidityWithOverwrite(address,uint256,uint64,bytes22,bytes32,uint8,(bytes32,uint32,uint256),bytes32[],bytes32[],(uint256,uint64,uint256,uint256,uint64,bytes22,address,address,bytes32,uint8,uint64))":"10e9619a","getSwapCommitment(uint256)":"7ed34a36","getSwapCommitmentsLength()":"992284a6","getVaultCommitment(uint256)":"9f63bd97","getVaultCommitmentsLength()":"f5095c16","mmrRoot()":"d21ddc61","payoutToFeeRouter()":"f23a94a9","releaseLiquidity((uint256,bytes32,bytes32,bytes32,uint8,uint64,address,uint256,uint256,uint8),uint256,uint32,bytes32[],bytes32[],(bytes32,uint32,uint256),bytes32[],bytes32[],(uint256,uint64,uint256,uint256,uint64,bytes22,address,address,bytes32,uint8,uint64),uint32)":"35cf0d3e","submitSwapProof(bytes32,bytes32,(uint256,uint64,uint256,uint256,uint64,bytes22,address,address,bytes32,uint8,uint64),bytes32,bytes32,bytes,bytes,(bytes32,uint32,uint256),bytes32[],bytes32[])":"b9eb3ce8","submitSwapProofWithOverwrite(bytes32,bytes32,(uint256,uint64,uint256,uint256,uint64,bytes22,address,address,bytes32,uint8,uint64),bytes32,bytes32,bytes,bytes,(bytes32,uint32,uint256),bytes32[],bytes32[],(uint256,bytes32,bytes32,bytes32,uint8,uint64,address,uint256,uint256,uint8))":"be0c4e93","swapCommitments(uint256)":"365df233","vaultCommitments(uint256)":"a6a0f96e","withdrawLiquidity((uint256,uint64,uint256,uint256,uint64,bytes22,address,address,bytes32,uint8,uint64))":"16a6db20"},"storageLayout":{"storage":[{"astId":42260,"contract":"src/RiftExchange.sol:RiftExchange","label":"mmrRoot","offset":0,"slot":"0","type":"t_bytes32"},{"astId":42402,"contract":"src/RiftExchange.sol:RiftExchange","label":"vaultCommitments","offset":0,"slot":"1","type":"t_array(t_bytes32)dyn_storage"},{"astId":42405,"contract":"src/RiftExchange.sol:RiftExchange","label":"swapCommitments","offset":0,"slot":"2","type":"t_array(t_bytes32)dyn_storage"},{"astId":42407,"contract":"src/RiftExchange.sol:RiftExchange","label":"accumulatedFeeBalance","offset":0,"slot":"3","type":"t_uint256"}],"types":{"t_array(t_bytes32)dyn_storage":{"encoding":"dynamic_array","label":"bytes32[]","numberOfBytes":"32","base":"t_bytes32"},"t_bytes32":{"encoding":"inplace","label":"bytes32","numberOfBytes":"32"},"t_uint256":{"encoding":"inplace","label":"uint256","numberOfBytes":"32"}}},"id":41}