{"abi":[{"type":"constructor","inputs":[{"name":"_mmrRoot","type":"bytes32","internalType":"bytes32"},{"name":"_initialCheckpointLeaf","type":"tuple","internalType":"struct Types.BlockLeaf","components":[{"name":"blockHash","type":"bytes32","internalType":"bytes32"},{"name":"height","type":"uint32","internalType":"uint32"},{"name":"cumulativeChainwork","type":"uint256","internalType":"uint256"}]},{"name":"_depositToken","type":"address","internalType":"address"},{"name":"_circuitVerificationKey","type":"bytes32","internalType":"bytes32"},{"name":"_verifier","type":"address","internalType":"address"},{"name":"_feeRouter","type":"address","internalType":"address"}],"stateMutability":"nonpayable"},{"type":"function","name":"CIRCUIT_VERIFICATION_KEY","inputs":[],"outputs":[{"name":"","type":"bytes32","internalType":"bytes32"}],"stateMutability":"view"},{"type":"function","name":"DEPOSIT_TOKEN","inputs":[],"outputs":[{"name":"","type":"address","internalType":"contract IERC20"}],"stateMutability":"view"},{"type":"function","name":"FEE_ROUTER_ADDRESS","inputs":[],"outputs":[{"name":"","type":"address","internalType":"address"}],"stateMutability":"view"},{"type":"function","name":"TOKEN_DECIMALS","inputs":[],"outputs":[{"name":"","type":"uint8","internalType":"uint8"}],"stateMutability":"view"},{"type":"function","name":"VERIFIER","inputs":[],"outputs":[{"name":"","type":"address","internalType":"contract ISP1Verifier"}],"stateMutability":"view"},{"type":"function","name":"_proveBlockInclusion","inputs":[{"name":"blockLeaf","type":"tuple","internalType":"struct Types.BlockLeaf","components":[{"name":"blockHash","type":"bytes32","internalType":"bytes32"},{"name":"height","type":"uint32","internalType":"uint32"},{"name":"cumulativeChainwork","type":"uint256","internalType":"uint256"}]},{"name":"siblings","type":"bytes32[]","internalType":"bytes32[]"},{"name":"peaks","type":"bytes32[]","internalType":"bytes32[]"},{"name":"tipBlockHeight","type":"uint32","internalType":"uint32"}],"outputs":[{"name":"","type":"bool","internalType":"bool"}],"stateMutability":"view"},{"type":"function","name":"_proveBlockInclusionAtTip","inputs":[{"name":"blockLeaf","type":"tuple","internalType":"struct Types.BlockLeaf","components":[{"name":"blockHash","type":"bytes32","internalType":"bytes32"},{"name":"height","type":"uint32","internalType":"uint32"},{"name":"cumulativeChainwork","type":"uint256","internalType":"uint256"}]},{"name":"siblings","type":"bytes32[]","internalType":"bytes32[]"},{"name":"peaks","type":"bytes32[]","internalType":"bytes32[]"}],"outputs":[{"name":"","type":"bool","internalType":"bool"}],"stateMutability":"view"},{"type":"function","name":"accumulatedFeeBalance","inputs":[],"outputs":[{"name":"","type":"uint256","internalType":"uint256"}],"stateMutability":"view"},{"type":"function","name":"depositLiquidity","inputs":[{"name":"specifiedPayoutAddress","type":"address","internalType":"address"},{"name":"depositAmount","type":"uint256","internalType":"uint256"},{"name":"expectedSats","type":"uint64","internalType":"uint64"},{"name":"btcPayoutScriptPubKey","type":"bytes22","internalType":"bytes22"},{"name":"depositSalt","type":"bytes32","internalType":"bytes32"},{"name":"confirmationBlocks","type":"uint8","internalType":"uint8"},{"name":"tipBlockLeaf","type":"tuple","internalType":"struct Types.BlockLeaf","components":[{"name":"blockHash","type":"bytes32","internalType":"bytes32"},{"name":"height","type":"uint32","internalType":"uint32"},{"name":"cumulativeChainwork","type":"uint256","internalType":"uint256"}]},{"name":"tipBlockSiblings","type":"bytes32[]","internalType":"bytes32[]"},{"name":"tipBlockPeaks","type":"bytes32[]","internalType":"bytes32[]"}],"outputs":[],"stateMutability":"nonpayable"},{"type":"function","name":"depositLiquidityWithOverwrite","inputs":[{"name":"specifiedPayoutAddress","type":"address","internalType":"address"},{"name":"depositAmount","type":"uint256","internalType":"uint256"},{"name":"expectedSats","type":"uint64","internalType":"uint64"},{"name":"btcPayoutScriptPubKey","type":"bytes22","internalType":"bytes22"},{"name":"depositSalt","type":"bytes32","internalType":"bytes32"},{"name":"confirmationBlocks","type":"uint8","internalType":"uint8"},{"name":"tipBlockLeaf","type":"tuple","internalType":"struct Types.BlockLeaf","components":[{"name":"blockHash","type":"bytes32","internalType":"bytes32"},{"name":"height","type":"uint32","internalType":"uint32"},{"name":"cumulativeChainwork","type":"uint256","internalType":"uint256"}]},{"name":"tipBlockSiblings","type":"bytes32[]","internalType":"bytes32[]"},{"name":"tipBlockPeaks","type":"bytes32[]","internalType":"bytes32[]"},{"name":"overwriteVault","type":"tuple","internalType":"struct Types.DepositVault","components":[{"name":"vaultIndex","type":"uint256","internalType":"uint256"},{"name":"depositTimestamp","type":"uint64","internalType":"uint64"},{"name":"depositAmount","type":"uint256","internalType":"uint256"},{"name":"depositFee","type":"uint256","internalType":"uint256"},{"name":"expectedSats","type":"uint64","internalType":"uint64"},{"name":"btcPayoutScriptPubKey","type":"bytes22","internalType":"bytes22"},{"name":"specifiedPayoutAddress","type":"address","internalType":"address"},{"name":"ownerAddress","type":"address","internalType":"address"},{"name":"nonce","type":"bytes32","internalType":"bytes32"},{"name":"confirmationBlocks","type":"uint8","internalType":"uint8"},{"name":"attestedBitcoinBlockHeight","type":"uint64","internalType":"uint64"}]}],"outputs":[],"stateMutability":"nonpayable"},{"type":"function","name":"getSwapCommitment","inputs":[{"name":"swapIndex","type":"uint256","internalType":"uint256"}],"outputs":[{"name":"","type":"bytes32","internalType":"bytes32"}],"stateMutability":"view"},{"type":"function","name":"getSwapCommitmentsLength","inputs":[],"outputs":[{"name":"","type":"uint256","internalType":"uint256"}],"stateMutability":"view"},{"type":"function","name":"getVaultCommitment","inputs":[{"name":"vaultIndex","type":"uint256","internalType":"uint256"}],"outputs":[{"name":"","type":"bytes32","internalType":"bytes32"}],"stateMutability":"view"},{"type":"function","name":"getVaultCommitmentsLength","inputs":[],"outputs":[{"name":"","type":"uint256","internalType":"uint256"}],"stateMutability":"view"},{"type":"function","name":"initialCheckpointLeaf","inputs":[],"outputs":[{"name":"blockHash","type":"bytes32","internalType":"bytes32"},{"name":"height","type":"uint32","internalType":"uint32"},{"name":"cumulativeChainwork","type":"uint256","internalType":"uint256"}],"stateMutability":"view"},{"type":"function","name":"mmrRoot","inputs":[],"outputs":[{"name":"","type":"bytes32","internalType":"bytes32"}],"stateMutability":"view"},{"type":"function","name":"payoutToFeeRouter","inputs":[],"outputs":[],"stateMutability":"nonpayable"},{"type":"function","name":"releaseLiquidity","inputs":[{"name":"swap","type":"tuple","internalType":"struct Types.ProposedSwap","components":[{"name":"swapIndex","type":"uint256","internalType":"uint256"},{"name":"aggregateVaultCommitment","type":"bytes32","internalType":"bytes32"},{"name":"swapBitcoinBlockHash","type":"bytes32","internalType":"bytes32"},{"name":"confirmationBlocks","type":"uint8","internalType":"uint8"},{"name":"liquidityUnlockTimestamp","type":"uint64","internalType":"uint64"},{"name":"specifiedPayoutAddress","type":"address","internalType":"address"},{"name":"totalSwapFee","type":"uint256","internalType":"uint256"},{"name":"totalSwapOutput","type":"uint256","internalType":"uint256"},{"name":"state","type":"uint8","internalType":"enum Types.SwapState"}]},{"name":"swapBlockChainwork","type":"uint256","internalType":"uint256"},{"name":"swapBlockHeight","type":"uint32","internalType":"uint32"},{"name":"bitcoinSwapBlockSiblings","type":"bytes32[]","internalType":"bytes32[]"},{"name":"bitcoinSwapBlockPeaks","type":"bytes32[]","internalType":"bytes32[]"},{"name":"bitcoinConfirmationBlockLeaf","type":"tuple","internalType":"struct Types.BlockLeaf","components":[{"name":"blockHash","type":"bytes32","internalType":"bytes32"},{"name":"height","type":"uint32","internalType":"uint32"},{"name":"cumulativeChainwork","type":"uint256","internalType":"uint256"}]},{"name":"bitcoinConfirmationBlockSiblings","type":"bytes32[]","internalType":"bytes32[]"},{"name":"bitcoinConfirmationBlockPeaks","type":"bytes32[]","internalType":"bytes32[]"},{"name":"utilizedVault","type":"tuple","internalType":"struct Types.DepositVault","components":[{"name":"vaultIndex","type":"uint256","internalType":"uint256"},{"name":"depositTimestamp","type":"uint64","internalType":"uint64"},{"name":"depositAmount","type":"uint256","internalType":"uint256"},{"name":"depositFee","type":"uint256","internalType":"uint256"},{"name":"expectedSats","type":"uint64","internalType":"uint64"},{"name":"btcPayoutScriptPubKey","type":"bytes22","internalType":"bytes22"},{"name":"specifiedPayoutAddress","type":"address","internalType":"address"},{"name":"ownerAddress","type":"address","internalType":"address"},{"name":"nonce","type":"bytes32","internalType":"bytes32"},{"name":"confirmationBlocks","type":"uint8","internalType":"uint8"},{"name":"attestedBitcoinBlockHeight","type":"uint64","internalType":"uint64"}]},{"name":"tipBlockHeight","type":"uint32","internalType":"uint32"}],"outputs":[],"stateMutability":"nonpayable"},{"type":"function","name":"submitSwapProof","inputs":[{"name":"swapBitcoinTxid","type":"bytes32","internalType":"bytes32"},{"name":"swapBitcoinBlockHash","type":"bytes32","internalType":"bytes32"},{"name":"vault","type":"tuple","internalType":"struct Types.DepositVault","components":[{"name":"vaultIndex","type":"uint256","internalType":"uint256"},{"name":"depositTimestamp","type":"uint64","internalType":"uint64"},{"name":"depositAmount","type":"uint256","internalType":"uint256"},{"name":"depositFee","type":"uint256","internalType":"uint256"},{"name":"expectedSats","type":"uint64","internalType":"uint64"},{"name":"btcPayoutScriptPubKey","type":"bytes22","internalType":"bytes22"},{"name":"specifiedPayoutAddress","type":"address","internalType":"address"},{"name":"ownerAddress","type":"address","internalType":"address"},{"name":"nonce","type":"bytes32","internalType":"bytes32"},{"name":"confirmationBlocks","type":"uint8","internalType":"uint8"},{"name":"attestedBitcoinBlockHeight","type":"uint64","internalType":"uint64"}]},{"name":"priorMmrRoot","type":"bytes32","internalType":"bytes32"},{"name":"newMmrRoot","type":"bytes32","internalType":"bytes32"},{"name":"proof","type":"bytes","internalType":"bytes"},{"name":"compressedBlockLeaves","type":"bytes","internalType":"bytes"},{"name":"tipBlockLeaf","type":"tuple","internalType":"struct Types.BlockLeaf","components":[{"name":"blockHash","type":"bytes32","internalType":"bytes32"},{"name":"height","type":"uint32","internalType":"uint32"},{"name":"cumulativeChainwork","type":"uint256","internalType":"uint256"}]},{"name":"tipBlockSiblings","type":"bytes32[]","internalType":"bytes32[]"},{"name":"tipBlockPeaks","type":"bytes32[]","internalType":"bytes32[]"}],"outputs":[],"stateMutability":"nonpayable"},{"type":"function","name":"submitSwapProofWithOverwrite","inputs":[{"name":"swapBitcoinBlockHash","type":"bytes32","internalType":"bytes32"},{"name":"swapBitcoinTxid","type":"bytes32","internalType":"bytes32"},{"name":"vault","type":"tuple","internalType":"struct Types.DepositVault","components":[{"name":"vaultIndex","type":"uint256","internalType":"uint256"},{"name":"depositTimestamp","type":"uint64","internalType":"uint64"},{"name":"depositAmount","type":"uint256","internalType":"uint256"},{"name":"depositFee","type":"uint256","internalType":"uint256"},{"name":"expectedSats","type":"uint64","internalType":"uint64"},{"name":"btcPayoutScriptPubKey","type":"bytes22","internalType":"bytes22"},{"name":"specifiedPayoutAddress","type":"address","internalType":"address"},{"name":"ownerAddress","type":"address","internalType":"address"},{"name":"nonce","type":"bytes32","internalType":"bytes32"},{"name":"confirmationBlocks","type":"uint8","internalType":"uint8"},{"name":"attestedBitcoinBlockHeight","type":"uint64","internalType":"uint64"}]},{"name":"priorMmrRoot","type":"bytes32","internalType":"bytes32"},{"name":"newMmrRoot","type":"bytes32","internalType":"bytes32"},{"name":"proof","type":"bytes","internalType":"bytes"},{"name":"compressedBlockLeaves","type":"bytes","internalType":"bytes"},{"name":"tipBlockLeaf","type":"tuple","internalType":"struct Types.BlockLeaf","components":[{"name":"blockHash","type":"bytes32","internalType":"bytes32"},{"name":"height","type":"uint32","internalType":"uint32"},{"name":"cumulativeChainwork","type":"uint256","internalType":"uint256"}]},{"name":"tipBlockSiblings","type":"bytes32[]","internalType":"bytes32[]"},{"name":"tipBlockPeaks","type":"bytes32[]","internalType":"bytes32[]"},{"name":"overwriteSwap","type":"tuple","internalType":"struct Types.ProposedSwap","components":[{"name":"swapIndex","type":"uint256","internalType":"uint256"},{"name":"aggregateVaultCommitment","type":"bytes32","internalType":"bytes32"},{"name":"swapBitcoinBlockHash","type":"bytes32","internalType":"bytes32"},{"name":"confirmationBlocks","type":"uint8","internalType":"uint8"},{"name":"liquidityUnlockTimestamp","type":"uint64","internalType":"uint64"},{"name":"specifiedPayoutAddress","type":"address","internalType":"address"},{"name":"totalSwapFee","type":"uint256","internalType":"uint256"},{"name":"totalSwapOutput","type":"uint256","internalType":"uint256"},{"name":"state","type":"uint8","internalType":"enum Types.SwapState"}]}],"outputs":[],"stateMutability":"nonpayable"},{"type":"function","name":"swapCommitments","inputs":[{"name":"","type":"uint256","internalType":"uint256"}],"outputs":[{"name":"","type":"bytes32","internalType":"bytes32"}],"stateMutability":"view"},{"type":"function","name":"vaultCommitments","inputs":[{"name":"","type":"uint256","internalType":"uint256"}],"outputs":[{"name":"","type":"bytes32","internalType":"bytes32"}],"stateMutability":"view"},{"type":"function","name":"withdrawLiquidity","inputs":[{"name":"vault","type":"tuple","internalType":"struct Types.DepositVault","components":[{"name":"vaultIndex","type":"uint256","internalType":"uint256"},{"name":"depositTimestamp","type":"uint64","internalType":"uint64"},{"name":"depositAmount","type":"uint256","internalType":"uint256"},{"name":"depositFee","type":"uint256","internalType":"uint256"},{"name":"expectedSats","type":"uint64","internalType":"uint64"},{"name":"btcPayoutScriptPubKey","type":"bytes22","internalType":"bytes22"},{"name":"specifiedPayoutAddress","type":"address","internalType":"address"},{"name":"ownerAddress","type":"address","internalType":"address"},{"name":"nonce","type":"bytes32","internalType":"bytes32"},{"name":"confirmationBlocks","type":"uint8","internalType":"uint8"},{"name":"attestedBitcoinBlockHeight","type":"uint64","internalType":"uint64"}]}],"outputs":[],"stateMutability":"nonpayable"},{"type":"event","name":"BlockTreeUpdated","inputs":[{"name":"treeRoot","type":"bytes32","indexed":false,"internalType":"bytes32"}],"anonymous":false},{"type":"event","name":"SwapUpdated","inputs":[{"name":"swap","type":"tuple","indexed":false,"internalType":"struct Types.ProposedSwap","components":[{"name":"swapIndex","type":"uint256","internalType":"uint256"},{"name":"aggregateVaultCommitment","type":"bytes32","internalType":"bytes32"},{"name":"swapBitcoinBlockHash","type":"bytes32","internalType":"bytes32"},{"name":"confirmationBlocks","type":"uint8","internalType":"uint8"},{"name":"liquidityUnlockTimestamp","type":"uint64","internalType":"uint64"},{"name":"specifiedPayoutAddress","type":"address","internalType":"address"},{"name":"totalSwapFee","type":"uint256","internalType":"uint256"},{"name":"totalSwapOutput","type":"uint256","internalType":"uint256"},{"name":"state","type":"uint8","internalType":"enum Types.SwapState"}]}],"anonymous":false},{"type":"event","name":"VaultUpdated","inputs":[{"name":"vault","type":"tuple","indexed":false,"internalType":"struct Types.DepositVault","components":[{"name":"vaultIndex","type":"uint256","internalType":"uint256"},{"name":"depositTimestamp","type":"uint64","internalType":"uint64"},{"name":"depositAmount","type":"uint256","internalType":"uint256"},{"name":"depositFee","type":"uint256","internalType":"uint256"},{"name":"expectedSats","type":"uint64","internalType":"uint64"},{"name":"btcPayoutScriptPubKey","type":"bytes22","internalType":"bytes22"},{"name":"specifiedPayoutAddress","type":"address","internalType":"address"},{"name":"ownerAddress","type":"address","internalType":"address"},{"name":"nonce","type":"bytes32","internalType":"bytes32"},{"name":"confirmationBlocks","type":"uint8","internalType":"uint8"},{"name":"attestedBitcoinBlockHeight","type":"uint64","internalType":"uint64"}]}],"anonymous":false},{"type":"error","name":"CannotOverwriteOnGoingSwap","inputs":[]},{"type":"error","name":"DepositAmountTooLow","inputs":[]},{"type":"error","name":"DepositStillLocked","inputs":[]},{"type":"error","name":"DepositVaultDoesNotExist","inputs":[]},{"type":"error","name":"DepositVaultNotOverwritable","inputs":[]},{"type":"error","name":"EmptyDepositVault","inputs":[]},{"type":"error","name":"InvalidConfirmationBlockDelta","inputs":[]},{"type":"error","name":"InvalidConfirmationBlockInclusionProof","inputs":[]},{"type":"error","name":"InvalidScriptPubKey","inputs":[]},{"type":"error","name":"InvalidSwapBlockInclusionProof","inputs":[]},{"type":"error","name":"InvalidTipBlockInclusionProof","inputs":[]},{"type":"error","name":"InvalidVaultCommitment","inputs":[]},{"type":"error","name":"NoFeeToPay","inputs":[]},{"type":"error","name":"SatOutputTooLow","inputs":[]},{"type":"error","name":"StillInChallengePeriod","inputs":[]},{"type":"error","name":"SwapDoesNotExist","inputs":[]},{"type":"error","name":"SwapNotProved","inputs":[]},{"type":"error","name":"TransferFailed","inputs":[]}],"bytecode":{"object":"0x61012080604052346101ab57806121a6803803809161001e82856101d6565b83398101039061010082126101ab576060815192601f1901126101ab57604051606081016001600160401b038111828210176101c25760405260208201519081815260408301519063ffffffff82168083036101ab5760408260049460208095015260608701519182910152610096608087016101f9565b9160a0870151956100b560e06100ae60c08b016101f9565b99016101f9565b985f5560015563ffffffff19600254161760025560035560018060a01b0316806080526040519283809263313ce56760e01b82525afa9081156101b7575f91610177575b5060a05260c0526001600160a01b031660e05261010052604051611f98908161020e82396080518181816101a9015281816109f901528181610ace01526118ef015260a05181610763015260c0518181816106c50152611bbf015260e0518181816110850152611b7101526101005181818161016e01526106fd0152f35b90506020813d6020116101af575b81610192602093836101d6565b810103126101ab575160ff811681036101ab575f6100f9565b5f80fd5b3d9150610185565b6040513d5f823e3d90fd5b634e487b7160e01b5f52604160045260245ffd5b601f909101601f19168101906001600160401b038211908210176101c257604052565b51906001600160a01b03821682036101ab5756fe60c0806040526004361015610012575f80fd5b5f3560e01c90816308c84e701461107357508063094d164614610bd857806310e9619a14610afd57806313f6658714610ab957806316a6db2014610878578063365df2331461084f5780634e960915146107875780635b7f415c1461074a5780637ed34a361461072c578063898aeacb146106e85780638d5ca052146106ae578063992284a6146106915780639f63bd9714610673578063a6a0f96e1461063b578063b9eb3ce814610510578063c2835816146104dc578063ca18100d146104bf578063d21ddc61146104a3578063d746767b14610337578063d9c2328f146102ce578063e78aa9d514610241578063f23a94a91461013a5763f5095c1614610119575f80fd5b34610136575f366003190112610136576020600454604051908152f35b5f80fd5b34610136575f366003190112610136576006548015610232575f60065560405163a9059cbb60e01b81526001600160a01b037f0000000000000000000000000000000000000000000000000000000000000000166004820152602481019190915260208180604481015b03815f7f00000000000000000000000000000000000000000000000000000000000000006001600160a01b03165af1908115610227575f916101f8575b50156101e957005b6312171d8360e31b5f5260045ffd5b61021a915060203d602011610220575b6102128183611246565b810190611594565b816101e1565b503d610208565b6040513d5f823e3d90fd5b630fbcad4560e21b5f5260045ffd5b346101365760c03660031901126101365761025b36611267565b6064356001600160401b0381116101365761027a9036906004016110b4565b916084356001600160401b0381116101365761029a9036906004016110b4565b60a435939163ffffffff85168503610136576020956102bb6102c4966112e5565b935f5495611dbb565b6040519015158152f35b346101365760a0366003190112610136576102e836611267565b6064356001600160401b038111610136576103079036906004016110b4565b9190608435916001600160401b0383116101365760209361032f6102c49436906004016110b4565b9390926115ac565b34610136576103e036600319011261013657610160366043190112610136576101e4356001600160401b038111610136576103769036906004016111c6565b610204356001600160401b038111610136576103969036906004016111c6565b90929060603661022319011261013657610284356001600160401b038111610136576103c69036906004016110b4565b9490936102a4356001600160401b038111610136576103e99036906004016110b4565b90610120366102c319011261013657610400611608565b506103c43560038110156101365760011901610494577f5d248001ee862aebdfe43bfaf026be2d34c08573daa99dcd4290c61dd78cee4b9761048f976104839661046b96610463966102c4359a6101c4356101a4358d602435906004359061194e565b919093611199565b90919082549060031b91821b915f19901b1916179055565b60405191829182611503565b0390a1005b6318cf65dd60e21b5f5260045ffd5b34610136575f3660031901126101365760205f54604051908152f35b34610136575f366003190112610136576020600654604051908152f35b34610136575f36600319011261013657606060015463ffffffff600254166003549060405192835260208301526040820152f35b34610136576102c036600319011261013657610160366043190112610136576101e4356001600160401b0381116101365761054f9036906004016111c6565b610204356001600160401b0381116101365761056f9036906004016111c6565b90929060603661022319011261013657610284356001600160401b0381116101365761059f9036906004016110b4565b916102a435956001600160401b038711610136576105c46105dd9736906004016110b4565b9690956101c4356101a43560043560243560055461194e565b60055491600160401b8310156106275761048361048f9261046b8560017f5d248001ee862aebdfe43bfaf026be2d34c08573daa99dcd4290c61dd78cee4b970160055560056111b1565b634e487b7160e01b5f52604160045260245ffd5b34610136576020366003190112610136576004356004548110156101365761066460209161116d565b90549060031b1c604051908152f35b3461013657602036600319011261013657602061066460043561116d565b34610136575f366003190112610136576020600554604051908152f35b34610136575f3660031901126101365760206040517f00000000000000000000000000000000000000000000000000000000000000008152f35b34610136575f366003190112610136576040517f00000000000000000000000000000000000000000000000000000000000000006001600160a01b03168152602090f35b34610136576020366003190112610136576020610664600435611199565b34610136575f36600319011261013657602060405160ff7f0000000000000000000000000000000000000000000000000000000000000000168152f35b3461013657610160366003190112610136576107a16110e4565b6107a961110e565b906107b2611138565b6107ba61114f565b60603660c319011261013657610124356001600160401b038111610136576107e69036906004016110b4565b9161014435956001600160401b0387116101365761080b61081f9736906004016110b4565b9690956084359260045492602435906116b8565b90600454600160401b8110156106275761084d9261046b826001610848940160045560046111b1565b61187f565b005b346101365760203660031901126101365760043560055481101561013657610664602091611199565b34610136573660031901610160811261013657610893611652565b506044358015610aaa57602435916001600160401b03831680840361013657617080016001600160401b038111610a96576001600160401b03164210610a87576101601361013657604051916108e88361120e565b6004359081845260208401526040830191808352606084019160643583526084356001600160401b038116810361013657608086015260a4356001600160501b0319811681036101365760a086015260c4356001600160a01b03811681036101365760c086015260e435906001600160a01b0382168203610136578160e0870152610104356101008701526101243560ff811681036101365761012087015261014435906001600160401b0382168203610136575f602095816109f4986109c3956101408c0152525261046b6109bd8861166d565b9161116d565b60405163a9059cbb60e01b81526001600160a01b039091166004820152602481019190915291829081906044820190565b03815f7f00000000000000000000000000000000000000000000000000000000000000006001600160a01b03165af1908115610227575f91610a68575b50156101e95761048f7f32471f3f0779c3838c27ab991c84d0b550621b719c340d6f61a682d979f35f6291604051918291826113c3565b610a81915060203d602011610220576102128183611246565b82610a31565b6301b512a960e21b5f5260045ffd5b634e487b7160e01b5f52601160045260245ffd5b637941e9ad60e01b5f5260045ffd5b34610136575f366003190112610136576040517f00000000000000000000000000000000000000000000000000000000000000006001600160a01b03168152602090f35b34610136576102c036600319011261013657610b176110e4565b610b1f61110e565b610b27611138565b91610b3061114f565b9060603660c319011261013657610124356001600160401b03811161013657610b5d9036906004016110b4565b90610144356001600160401b03811161013657610b7e9036906004016110b4565b9490936101603661016319011261013657610ba7966101643598899160843593602435906116b8565b91610bb0611625565b506101a435610bc95761084d9261046b6108489261116d565b630faaae6760e31b5f5260045ffd5b346101365736600319016103c081126101365761012013610136576101443563ffffffff811680910361013657610164356001600160401b03811161013657610c259036906004016110b4565b610184929192356001600160401b03811161013657610c489036906004016110b4565b9093906060366101a319011261013657610204356001600160401b03811161013657610c789036906004016110b4565b610224356001600160401b03811161013657610c989036906004016110b4565b9461016036610243190112610136576103a4359163ffffffff8316830361013657610cc16115c9565b50610104359660038810988915610136576001890361106457608435976001600160401b038916808a0361013657421061105557610d32918c916044359e8f9360405194610d0e866111f3565b85526020850152610124356040850152610d27896112e5565b925f54988995611dbb565b156110465760405191610d44836111f3565b6101a43583526101c4359563ffffffff87169788880361013657610d79610d7f978960208801526101e43560408801526112e5565b94611dbb565b1561103757506064359460ff861690818703610136570163ffffffff8111610a965763ffffffff160361102857610dc0610dbb366102446112fd565b61166d565b9361024435610dd08160046111b1565b90549060031b1c86036110195760243580960361100a5760405190610df48261120e565b8152610264356001600160401b03811681036101365760208201526040810161028435815260608201916102a43583526102c4356001600160401b03811681036101365760808201526102e4356001600160501b0319811681036101365760a0820152610304356001600160a01b03811681036101365760c0820152610324356001600160a01b03811681036101365760e0820152610344356101008201526103643560ff811681036101365761012082015261038435916001600160401b0383168303610136577f32471f3f0779c3838c27ab991c84d0b550621b719c340d6f61a682d979f35f62935f8092610f0f956101408601525252610f03610ef98261166d565b61046b835161116d565b604051918291826113c3565b0390a160405195610f1f8761122a565b600435808852602088019690965260408701526060860152608085015260a435906001600160a01b0382168203610136578160a086015260c435908160c087015260e435938460e0880152156101365785610fc77f5d248001ee862aebdfe43bfaf026be2d34c08573daa99dcd4290c61dd78cee4b93610fbf6020986002610fd6966101006101a49d019081525261046b610fb986611696565b91611199565b6006546114f6565b60065560405191829182611503565b0390a160405163a9059cbb60e01b81526001600160a01b039091166004820152602481019190915291829081906044820190565b63ceb1159d60e01b5f5260045ffd5b63cd1d240d60e01b5f5260045ffd5b638e082f6760e01b5f5260045ffd5b638ce0b4c760e01b5f5260045ffd5b637344e0b760e01b5f5260045ffd5b632d5c37f560e21b5f5260045ffd5b6322fc5d4360e21b5f5260045ffd5b34610136575f366003190112610136577f00000000000000000000000000000000000000000000000000000000000000006001600160a01b03168152602090f35b9181601f84011215610136578235916001600160401b038311610136576020808501948460051b01011161013657565b600435906001600160a01b038216820361013657565b35906001600160a01b038216820361013657565b604435906001600160401b038216820361013657565b35906001600160401b038216820361013657565b606435906001600160501b03198216820361013657565b60a4359060ff8216820361013657565b359060ff8216820361013657565b6004548110156111855760045f5260205f2001905f90565b634e487b7160e01b5f52603260045260245ffd5b6005548110156111855760055f5260205f2001905f90565b8054821015611185575f5260205f2001905f90565b9181601f84011215610136578235916001600160401b038311610136576020838186019501011161013657565b606081019081106001600160401b0382111761062757604052565b61016081019081106001600160401b0382111761062757604052565b61012081019081106001600160401b0382111761062757604052565b90601f801991011681019081106001600160401b0382111761062757604052565b60609060031901126101365760405190611280826111f3565b81600435815260243563ffffffff811681036101365760208201526040604435910152565b9190826060910312610136576040516112bd816111f3565b809280358252602081013563ffffffff81168103610136576020830152604090810135910152565b63ffffffff60019116019063ffffffff8211610a9657565b919082610160910312610136576040516113168161120e565b80928035825261132860208201611124565b6020830152604081013560408301526060810135606083015261134d60808201611124565b608083015260a0810135906001600160501b031982168203610136576101406113be91819360a086015261138360c082016110fa565b60c086015261139460e082016110fa565b60e08601526101008101356101008601526113b2610120820161115f565b61012086015201611124565b910152565b9190916101406001600160401b038161016084019580518552826020820151166020860152604081015160408601526060810151606086015282608082015116608086015269ffffffffffffffffffff1960a08201511660a086015260018060a01b0360c08201511660c086015260018060a01b0360e08201511660e086015261010081015161010086015260ff61012082015116610120860152015116910152565b9190826101209103126101365760405161147f8161122a565b61010081938035835260208101356020840152604081013560408401526114a86060820161115f565b60608401526114b960808201611124565b60808401526114ca60a082016110fa565b60a084015260c081013560c084015260e081013560e08401520135906003821015610136576101000152565b91908201809211610a9657565b91909161010061012082019380518352602081015160208401526040810151604084015260ff60608201511660608401526001600160401b03608082015116608084015260018060a01b0360a08201511660a084015260c081015160c084015260e081015160e08401520151906003821015611580576101000152565b634e487b7160e01b5f52602160045260245ffd5b90816020910312610136575180151581036101365790565b926115c69491926102bb63ffffffff6020870151166112e5565b90565b6115dc6115d7366004611466565b611696565b6115e960043560056111b1565b90549060031b1c81036115f95790565b631a40316d60e01b5f5260045ffd5b6116176115d7366102c4611466565b6115e96102c43560056111b1565b611634610dbb366101646112fd565b6116426101643560046111b1565b90549060031b1c81036110195790565b611660610dbb3660046112fd565b61164260043560046111b1565b604051611690816116826020820194856113c3565b03601f198101835282611246565b51902090565b60405161169081611682602082019485611503565b91908203918211610a9657565b94989097959692939a99915f6101406040516116d38161120e565b8281528260208201528260408201528260608201528260808201528260a08201528260c08201528260e0820152826101008201528261012082015201526107d18910611870576001600160401b0316956103e88710611861575f85901a60f81b6001600160f81b0319161580611843575b156118345761175d936117583660c46112a5565b6115ac565b15611825576005850285810460051486151715610a96576117866127106117a1920480976116ab565b60408051988952602089018b90524690890152606090972090565b9260e4359563ffffffff8716978888036101365760ff97506040519a6117c68c61120e565b8b52426001600160401b031660208c015260408b015260608a015260808901526001600160501b03191660a08801526001600160a01b031660c08701523360e0870152610100860152166101208401526101408301526115c68261166d565b633666f0e160e21b5f5260045ffd5b63fad7db0760e01b5f5260045ffd5b50600185901a60f81b6001600160f81b031916600560fa1b14611744565b63fde5943160e01b5f5260045ffd5b6355fcd02760e01b5f5260045ffd5b6118c5907f32471f3f0779c3838c27ab991c84d0b550621b719c340d6f61a682d979f35f62604051806118b284826113c3565b0390a160606040820151910151906114f6565b6040516323b872dd60e01b815233600482015230602482015260448101919091526020816064815f7f00000000000000000000000000000000000000000000000000000000000000006001600160a01b03165af1908115610227575f9161192f575b50156101e957565b611948915060203d602011610220576102128183611246565b5f611927565b9c9b95909a94979a999391969998929860a0525f975f6101006040516119738161122a565b8281528260208201528260408201528260608201528260808201528260a08201528260c08201528260e0820152015261018435976001600160401b0389168903610136576119c23660446112fd565b9b60408d01519c60608101519d8e808060011b0460021490151715610a965760606119ef920151906116ab565b9d6119fe610dbb3660446112fd565b608052611a0e60443560046111b1565b90549060031b1c60805103611019576001600160401b0381116106275760405190611a43601f8201601f191660200183611246565b8082526020820192368282011161013657815f9260209286378301015251902060ff6101643516610164350361013657610104356001600160a01b038116900361013657604051906101408201918083106001600160401b03841117610627578f8f93908f9160405260ff61016435168352602083019460a051865260408401968752606084016080518152608085019060018060a01b036101043516825260a086019260011b835260c0860193845260e086019485526101206101008701968d8852019687526040519860208a019860ff61016435168a525160408b01525160608a015251608089015260018060a01b0390511660a08801525160c08701525160e08601525161010085015251610120840152516101408301526101408252611b6f61016083611246565b7f00000000000000000000000000000000000000000000000000000000000000006001600160a01b031690813b15610136576020859360845f966040519889978896879563020a49e360e51b87527f00000000000000000000000000000000000000000000000000000000000000006004880152606060248801525180918160648901528688015e85810185018b9052601f01601f1916850185810385016003190160448701528085018290529260a484013781810183018501899052601f01601f191601010301915afa801561022757611d8d575b50611c5590611c61969798611ec0565b611758366102246112a5565b15611d7e57610244359063ffffffff821691828103611d7a57906001600160401b0391501690036001600160401b038111611d66576001600160401b03166085026001600160401b038116908103611d66576001600160401b0361e3b39116016001600160401b038111610a96576001600160401b036103e881603c93160416016001600160401b038111610a9657611d046001600160401b03809216426114f6565b16905060405194611d148661122a565b8552608051602086015260a051604086015260ff61016435166060860152608085015260018060a01b03610104351660a085015260011b60c084015260e083015260016101008301526115c682611696565b634e487b7160e01b82526011600452602482fd5b8380fd5b633666f0e160e21b8252600482fd5b611c6196975090611da15f611c5593611246565b5f97965090611c45565b91908110156111855760051b0190565b919093929363ffffffff611df284516020860195604084885116910151919091606092604051928352602083015260408201522090565b935116905f925b808410611e6f57505050505f905f5b838110611e49575b505015611e4157611e2091611f11565b908115611e3a5763ffffffff165f5260205260405f201490565b5050505f90565b505050505f90565b81611e55828688611dab565b3514611e6357600101611e08565b50505060015f80611e10565b9293600183811c949293811603611ea257611e8b858385611dab565b355f52602052600160405f20945b01929190611df9565b611ead858385611dab565b35905f52602052600160405f2094611e99565b815f54821491821592611f07575b5050611f04576020817f6a4b923d1c5dda45ec7bb1dbea585a753c54a92c68a94adaab178a99b3c64b85925f55604051908152a1565b50565b149050815f611ece565b8115611f5c575f19820191808311610a9657611f2e838284611dab565b3592805b611f3c5750505090565b5f190192611f4b848385611dab565b355f526020528260405f2093611f32565b50505f9056fea26469706673582212206bcced7a7f68b91fe9c3fa390bdf6682ea617ca28918e54331c30b2ab2b8049664736f6c634300081b0033","linkReferences":{}},"methodIdentifiers":{"CIRCUIT_VERIFICATION_KEY()":"8d5ca052","DEPOSIT_TOKEN()":"13f66587","FEE_ROUTER_ADDRESS()":"898aeacb","TOKEN_DECIMALS()":"5b7f415c","VERIFIER()":"08c84e70","_proveBlockInclusion((bytes32,uint32,uint256),bytes32[],bytes32[],uint32)":"e78aa9d5","_proveBlockInclusionAtTip((bytes32,uint32,uint256),bytes32[],bytes32[])":"d9c2328f","accumulatedFeeBalance()":"ca18100d","depositLiquidity(address,uint256,uint64,bytes22,bytes32,uint8,(bytes32,uint32,uint256),bytes32[],bytes32[])":"4e960915","depositLiquidityWithOverwrite(address,uint256,uint64,bytes22,bytes32,uint8,(bytes32,uint32,uint256),bytes32[],bytes32[],(uint256,uint64,uint256,uint256,uint64,bytes22,address,address,bytes32,uint8,uint64))":"10e9619a","getSwapCommitment(uint256)":"7ed34a36","getSwapCommitmentsLength()":"992284a6","getVaultCommitment(uint256)":"9f63bd97","getVaultCommitmentsLength()":"f5095c16","initialCheckpointLeaf()":"c2835816","mmrRoot()":"d21ddc61","payoutToFeeRouter()":"f23a94a9","releaseLiquidity((uint256,bytes32,bytes32,uint8,uint64,address,uint256,uint256,uint8),uint256,uint32,bytes32[],bytes32[],(bytes32,uint32,uint256),bytes32[],bytes32[],(uint256,uint64,uint256,uint256,uint64,bytes22,address,address,bytes32,uint8,uint64),uint32)":"094d1646","submitSwapProof(bytes32,bytes32,(uint256,uint64,uint256,uint256,uint64,bytes22,address,address,bytes32,uint8,uint64),bytes32,bytes32,bytes,bytes,(bytes32,uint32,uint256),bytes32[],bytes32[])":"b9eb3ce8","submitSwapProofWithOverwrite(bytes32,bytes32,(uint256,uint64,uint256,uint256,uint64,bytes22,address,address,bytes32,uint8,uint64),bytes32,bytes32,bytes,bytes,(bytes32,uint32,uint256),bytes32[],bytes32[],(uint256,bytes32,bytes32,uint8,uint64,address,uint256,uint256,uint8))":"d746767b","swapCommitments(uint256)":"365df233","vaultCommitments(uint256)":"a6a0f96e","withdrawLiquidity((uint256,uint64,uint256,uint256,uint64,bytes22,address,address,bytes32,uint8,uint64))":"16a6db20"},"storageLayout":{"storage":[{"astId":41705,"contract":"src/RiftExchange.sol:RiftExchange","label":"mmrRoot","offset":0,"slot":"0","type":"t_bytes32"},{"astId":41708,"contract":"src/RiftExchange.sol:RiftExchange","label":"initialCheckpointLeaf","offset":0,"slot":"1","type":"t_struct(BlockLeaf)43317_storage"},{"astId":41854,"contract":"src/RiftExchange.sol:RiftExchange","label":"vaultCommitments","offset":0,"slot":"4","type":"t_array(t_bytes32)dyn_storage"},{"astId":41857,"contract":"src/RiftExchange.sol:RiftExchange","label":"swapCommitments","offset":0,"slot":"5","type":"t_array(t_bytes32)dyn_storage"},{"astId":41859,"contract":"src/RiftExchange.sol:RiftExchange","label":"accumulatedFeeBalance","offset":0,"slot":"6","type":"t_uint256"}],"types":{"t_array(t_bytes32)dyn_storage":{"encoding":"dynamic_array","label":"bytes32[]","numberOfBytes":"32","base":"t_bytes32"},"t_bytes32":{"encoding":"inplace","label":"bytes32","numberOfBytes":"32"},"t_struct(BlockLeaf)43317_storage":{"encoding":"inplace","label":"struct Types.BlockLeaf","numberOfBytes":"96","members":[{"astId":43312,"contract":"src/RiftExchange.sol:RiftExchange","label":"blockHash","offset":0,"slot":"0","type":"t_bytes32"},{"astId":43314,"contract":"src/RiftExchange.sol:RiftExchange","label":"height","offset":0,"slot":"1","type":"t_uint32"},{"astId":43316,"contract":"src/RiftExchange.sol:RiftExchange","label":"cumulativeChainwork","offset":0,"slot":"2","type":"t_uint256"}]},"t_uint256":{"encoding":"inplace","label":"uint256","numberOfBytes":"32"},"t_uint32":{"encoding":"inplace","label":"uint32","numberOfBytes":"4"}}},"id":39}