{"abi":[{"type":"constructor","inputs":[{"name":"_initialOwner","type":"address","internalType":"address"},{"name":"_mmrRoot","type":"bytes32","internalType":"bytes32"},{"name":"_initialCheckpointLeaf","type":"tuple","internalType":"struct Types.BlockLeaf","components":[{"name":"blockHash","type":"bytes32","internalType":"bytes32"},{"name":"height","type":"uint64","internalType":"uint64"},{"name":"cumulativeChainwork","type":"uint256","internalType":"uint256"}]},{"name":"_depositToken","type":"address","internalType":"address"},{"name":"_circuitVerificationKey","type":"bytes32","internalType":"bytes32"},{"name":"_verifierContract","type":"address","internalType":"address"},{"name":"_feeRouterAddress","type":"address","internalType":"address"}],"stateMutability":"nonpayable"},{"type":"function","name":"CIRCUIT_VERIFICATION_KEY","inputs":[],"outputs":[{"name":"","type":"bytes32","internalType":"bytes32"}],"stateMutability":"view"},{"type":"function","name":"DEPOSIT_TOKEN","inputs":[],"outputs":[{"name":"","type":"address","internalType":"contract IERC20"}],"stateMutability":"view"},{"type":"function","name":"FEE_ROUTER_ADDRESS","inputs":[],"outputs":[{"name":"","type":"address","internalType":"address"}],"stateMutability":"view"},{"type":"function","name":"TOKEN_DECIMALS","inputs":[],"outputs":[{"name":"","type":"uint8","internalType":"uint8"}],"stateMutability":"view"},{"type":"function","name":"VERIFIER_CONTRACT","inputs":[],"outputs":[{"name":"","type":"address","internalType":"contract ISP1Verifier"}],"stateMutability":"view"},{"type":"function","name":"accumulatedFeeBalance","inputs":[],"outputs":[{"name":"","type":"uint256","internalType":"uint256"}],"stateMutability":"view"},{"type":"function","name":"depositLiquidity","inputs":[{"name":"specifiedPayoutAddress","type":"address","internalType":"address"},{"name":"initialDepositAmount","type":"uint256","internalType":"uint256"},{"name":"expectedSats","type":"uint64","internalType":"uint64"},{"name":"btcPayoutScriptPubKey","type":"bytes22","internalType":"bytes22"},{"name":"depositSalt","type":"bytes32","internalType":"bytes32"}],"outputs":[],"stateMutability":"nonpayable"},{"type":"function","name":"depositLiquidityWithOverwrite","inputs":[{"name":"specifiedPayoutAddress","type":"address","internalType":"address"},{"name":"initialDepositAmount","type":"uint256","internalType":"uint256"},{"name":"expectedSats","type":"uint64","internalType":"uint64"},{"name":"btcPayoutScriptPubKey","type":"bytes22","internalType":"bytes22"},{"name":"depositSalt","type":"bytes32","internalType":"bytes32"},{"name":"overwriteVault","type":"tuple","internalType":"struct Types.DepositVault","components":[{"name":"vaultIndex","type":"uint256","internalType":"uint256"},{"name":"depositTimestamp","type":"uint64","internalType":"uint64"},{"name":"depositAmount","type":"uint256","internalType":"uint256"},{"name":"depositFee","type":"uint256","internalType":"uint256"},{"name":"expectedSats","type":"uint64","internalType":"uint64"},{"name":"btcPayoutScriptPubKey","type":"bytes22","internalType":"bytes22"},{"name":"specifiedPayoutAddress","type":"address","internalType":"address"},{"name":"ownerAddress","type":"address","internalType":"address"},{"name":"nonce","type":"bytes32","internalType":"bytes32"}]}],"outputs":[],"stateMutability":"nonpayable"},{"type":"function","name":"getSwapCommitment","inputs":[{"name":"swapIndex","type":"uint256","internalType":"uint256"}],"outputs":[{"name":"","type":"bytes32","internalType":"bytes32"}],"stateMutability":"view"},{"type":"function","name":"getSwapCommitmentsLength","inputs":[],"outputs":[{"name":"","type":"uint256","internalType":"uint256"}],"stateMutability":"view"},{"type":"function","name":"getVaultCommitment","inputs":[{"name":"vaultIndex","type":"uint256","internalType":"uint256"}],"outputs":[{"name":"","type":"bytes32","internalType":"bytes32"}],"stateMutability":"view"},{"type":"function","name":"getVaultCommitmentsLength","inputs":[],"outputs":[{"name":"","type":"uint256","internalType":"uint256"}],"stateMutability":"view"},{"type":"function","name":"initialCheckpointLeaf","inputs":[],"outputs":[{"name":"blockHash","type":"bytes32","internalType":"bytes32"},{"name":"height","type":"uint64","internalType":"uint64"},{"name":"cumulativeChainwork","type":"uint256","internalType":"uint256"}],"stateMutability":"view"},{"type":"function","name":"mmrRoot","inputs":[],"outputs":[{"name":"","type":"bytes32","internalType":"bytes32"}],"stateMutability":"view"},{"type":"function","name":"owner","inputs":[],"outputs":[{"name":"","type":"address","internalType":"address"}],"stateMutability":"view"},{"type":"function","name":"payoutToFeeRouter","inputs":[],"outputs":[],"stateMutability":"nonpayable"},{"type":"function","name":"proveBlockInclusion","inputs":[{"name":"blockLeaf","type":"tuple","internalType":"struct Types.BlockLeaf","components":[{"name":"blockHash","type":"bytes32","internalType":"bytes32"},{"name":"height","type":"uint64","internalType":"uint64"},{"name":"cumulativeChainwork","type":"uint256","internalType":"uint256"}]},{"name":"inclusionProof","type":"bytes32[]","internalType":"bytes32[]"}],"outputs":[{"name":"","type":"bool","internalType":"bool"}],"stateMutability":"view"},{"type":"function","name":"releaseLiquidity","inputs":[{"name":"swap","type":"tuple","internalType":"struct Types.ProposedSwap","components":[{"name":"swapIndex","type":"uint256","internalType":"uint256"},{"name":"aggregateVaultCommitment","type":"bytes32","internalType":"bytes32"},{"name":"proposedBlockLeaf","type":"tuple","internalType":"struct Types.BlockLeaf","components":[{"name":"blockHash","type":"bytes32","internalType":"bytes32"},{"name":"height","type":"uint64","internalType":"uint64"},{"name":"cumulativeChainwork","type":"uint256","internalType":"uint256"}]},{"name":"liquidityUnlockTimestamp","type":"uint64","internalType":"uint64"},{"name":"specifiedPayoutAddress","type":"address","internalType":"address"},{"name":"totalSwapFee","type":"uint256","internalType":"uint256"},{"name":"totalSwapAmount","type":"uint256","internalType":"uint256"},{"name":"state","type":"uint8","internalType":"enum Types.SwapState"}]},{"name":"bitcoinBlockInclusionProof","type":"bytes32[]","internalType":"bytes32[]"},{"name":"utilizedVaults","type":"tuple[]","internalType":"struct Types.DepositVault[]","components":[{"name":"vaultIndex","type":"uint256","internalType":"uint256"},{"name":"depositTimestamp","type":"uint64","internalType":"uint64"},{"name":"depositAmount","type":"uint256","internalType":"uint256"},{"name":"depositFee","type":"uint256","internalType":"uint256"},{"name":"expectedSats","type":"uint64","internalType":"uint64"},{"name":"btcPayoutScriptPubKey","type":"bytes22","internalType":"bytes22"},{"name":"specifiedPayoutAddress","type":"address","internalType":"address"},{"name":"ownerAddress","type":"address","internalType":"address"},{"name":"nonce","type":"bytes32","internalType":"bytes32"}]}],"outputs":[],"stateMutability":"nonpayable"},{"type":"function","name":"renounceOwnership","inputs":[],"outputs":[],"stateMutability":"nonpayable"},{"type":"function","name":"submitSwapProof","inputs":[{"name":"proposedBlockHash","type":"bytes32","internalType":"bytes32"},{"name":"proposedBlockHeight","type":"uint64","internalType":"uint64"},{"name":"proposedBlockCumulativeChainwork","type":"uint256","internalType":"uint256"},{"name":"vaults","type":"tuple[]","internalType":"struct Types.DepositVault[]","components":[{"name":"vaultIndex","type":"uint256","internalType":"uint256"},{"name":"depositTimestamp","type":"uint64","internalType":"uint64"},{"name":"depositAmount","type":"uint256","internalType":"uint256"},{"name":"depositFee","type":"uint256","internalType":"uint256"},{"name":"expectedSats","type":"uint64","internalType":"uint64"},{"name":"btcPayoutScriptPubKey","type":"bytes22","internalType":"bytes22"},{"name":"specifiedPayoutAddress","type":"address","internalType":"address"},{"name":"ownerAddress","type":"address","internalType":"address"},{"name":"nonce","type":"bytes32","internalType":"bytes32"}]},{"name":"specifiedPayoutAddress","type":"address","internalType":"address"},{"name":"priorMmrRoot","type":"bytes32","internalType":"bytes32"},{"name":"newMmrRoot","type":"bytes32","internalType":"bytes32"},{"name":"totalSwapFee","type":"uint256","internalType":"uint256"},{"name":"totalSwapAmount","type":"uint256","internalType":"uint256"},{"name":"proof","type":"bytes","internalType":"bytes"},{"name":"compressedBlockLeaves","type":"bytes","internalType":"bytes"}],"outputs":[],"stateMutability":"nonpayable"},{"type":"function","name":"submitSwapProofWithOverwrite","inputs":[{"name":"proposedBlockHash","type":"bytes32","internalType":"bytes32"},{"name":"proposedBlockHeight","type":"uint64","internalType":"uint64"},{"name":"proposedBlockCumulativeChainwork","type":"uint256","internalType":"uint256"},{"name":"vaults","type":"tuple[]","internalType":"struct Types.DepositVault[]","components":[{"name":"vaultIndex","type":"uint256","internalType":"uint256"},{"name":"depositTimestamp","type":"uint64","internalType":"uint64"},{"name":"depositAmount","type":"uint256","internalType":"uint256"},{"name":"depositFee","type":"uint256","internalType":"uint256"},{"name":"expectedSats","type":"uint64","internalType":"uint64"},{"name":"btcPayoutScriptPubKey","type":"bytes22","internalType":"bytes22"},{"name":"specifiedPayoutAddress","type":"address","internalType":"address"},{"name":"ownerAddress","type":"address","internalType":"address"},{"name":"nonce","type":"bytes32","internalType":"bytes32"}]},{"name":"specifiedPayoutAddress","type":"address","internalType":"address"},{"name":"priorMmrRoot","type":"bytes32","internalType":"bytes32"},{"name":"newMmrRoot","type":"bytes32","internalType":"bytes32"},{"name":"totalSwapFee","type":"uint256","internalType":"uint256"},{"name":"totalSwapAmount","type":"uint256","internalType":"uint256"},{"name":"proof","type":"bytes","internalType":"bytes"},{"name":"compressedBlockLeaves","type":"bytes","internalType":"bytes"},{"name":"overwriteSwap","type":"tuple","internalType":"struct Types.ProposedSwap","components":[{"name":"swapIndex","type":"uint256","internalType":"uint256"},{"name":"aggregateVaultCommitment","type":"bytes32","internalType":"bytes32"},{"name":"proposedBlockLeaf","type":"tuple","internalType":"struct Types.BlockLeaf","components":[{"name":"blockHash","type":"bytes32","internalType":"bytes32"},{"name":"height","type":"uint64","internalType":"uint64"},{"name":"cumulativeChainwork","type":"uint256","internalType":"uint256"}]},{"name":"liquidityUnlockTimestamp","type":"uint64","internalType":"uint64"},{"name":"specifiedPayoutAddress","type":"address","internalType":"address"},{"name":"totalSwapFee","type":"uint256","internalType":"uint256"},{"name":"totalSwapAmount","type":"uint256","internalType":"uint256"},{"name":"state","type":"uint8","internalType":"enum Types.SwapState"}]}],"outputs":[],"stateMutability":"nonpayable"},{"type":"function","name":"swapCommitments","inputs":[{"name":"","type":"uint256","internalType":"uint256"}],"outputs":[{"name":"","type":"bytes32","internalType":"bytes32"}],"stateMutability":"view"},{"type":"function","name":"transferOwnership","inputs":[{"name":"newOwner","type":"address","internalType":"address"}],"outputs":[],"stateMutability":"nonpayable"},{"type":"function","name":"vaultCommitments","inputs":[{"name":"","type":"uint256","internalType":"uint256"}],"outputs":[{"name":"","type":"bytes32","internalType":"bytes32"}],"stateMutability":"view"},{"type":"function","name":"withdrawLiquidity","inputs":[{"name":"vault","type":"tuple","internalType":"struct Types.DepositVault","components":[{"name":"vaultIndex","type":"uint256","internalType":"uint256"},{"name":"depositTimestamp","type":"uint64","internalType":"uint64"},{"name":"depositAmount","type":"uint256","internalType":"uint256"},{"name":"depositFee","type":"uint256","internalType":"uint256"},{"name":"expectedSats","type":"uint64","internalType":"uint64"},{"name":"btcPayoutScriptPubKey","type":"bytes22","internalType":"bytes22"},{"name":"specifiedPayoutAddress","type":"address","internalType":"address"},{"name":"ownerAddress","type":"address","internalType":"address"},{"name":"nonce","type":"bytes32","internalType":"bytes32"}]}],"outputs":[],"stateMutability":"nonpayable"},{"type":"event","name":"BlockTreeUpdated","inputs":[{"name":"treeRoot","type":"bytes32","indexed":false,"internalType":"bytes32"}],"anonymous":false},{"type":"event","name":"OwnershipTransferred","inputs":[{"name":"previousOwner","type":"address","indexed":true,"internalType":"address"},{"name":"newOwner","type":"address","indexed":true,"internalType":"address"}],"anonymous":false},{"type":"event","name":"SwapUpdated","inputs":[{"name":"swap","type":"tuple","indexed":false,"internalType":"struct Types.ProposedSwap","components":[{"name":"swapIndex","type":"uint256","internalType":"uint256"},{"name":"aggregateVaultCommitment","type":"bytes32","internalType":"bytes32"},{"name":"proposedBlockLeaf","type":"tuple","internalType":"struct Types.BlockLeaf","components":[{"name":"blockHash","type":"bytes32","internalType":"bytes32"},{"name":"height","type":"uint64","internalType":"uint64"},{"name":"cumulativeChainwork","type":"uint256","internalType":"uint256"}]},{"name":"liquidityUnlockTimestamp","type":"uint64","internalType":"uint64"},{"name":"specifiedPayoutAddress","type":"address","internalType":"address"},{"name":"totalSwapFee","type":"uint256","internalType":"uint256"},{"name":"totalSwapAmount","type":"uint256","internalType":"uint256"},{"name":"state","type":"uint8","internalType":"enum Types.SwapState"}]}],"anonymous":false},{"type":"event","name":"VaultUpdated","inputs":[{"name":"vault","type":"tuple","indexed":false,"internalType":"struct Types.DepositVault","components":[{"name":"vaultIndex","type":"uint256","internalType":"uint256"},{"name":"depositTimestamp","type":"uint64","internalType":"uint64"},{"name":"depositAmount","type":"uint256","internalType":"uint256"},{"name":"depositFee","type":"uint256","internalType":"uint256"},{"name":"expectedSats","type":"uint64","internalType":"uint64"},{"name":"btcPayoutScriptPubKey","type":"bytes22","internalType":"bytes22"},{"name":"specifiedPayoutAddress","type":"address","internalType":"address"},{"name":"ownerAddress","type":"address","internalType":"address"},{"name":"nonce","type":"bytes32","internalType":"bytes32"}]}],"anonymous":false},{"type":"error","name":"CannotOverwriteOnGoingSwap","inputs":[]},{"type":"error","name":"DepositAmountTooLow","inputs":[]},{"type":"error","name":"DepositStillLocked","inputs":[]},{"type":"error","name":"DepositVaultDoesNotExist","inputs":[]},{"type":"error","name":"DepositVaultNotOverwritable","inputs":[]},{"type":"error","name":"EmptyDepositVault","inputs":[]},{"type":"error","name":"InvalidBlockInclusionProof","inputs":[]},{"type":"error","name":"InvalidScriptPubKey","inputs":[]},{"type":"error","name":"InvalidVaultCommitment","inputs":[]},{"type":"error","name":"NoFeeToPay","inputs":[]},{"type":"error","name":"OwnableInvalidOwner","inputs":[{"name":"owner","type":"address","internalType":"address"}]},{"type":"error","name":"OwnableUnauthorizedAccount","inputs":[{"name":"account","type":"address","internalType":"address"}]},{"type":"error","name":"SatOutputTooLow","inputs":[]},{"type":"error","name":"StillInChallengePeriod","inputs":[]},{"type":"error","name":"SwapDoesNotExist","inputs":[]},{"type":"error","name":"SwapNotProved","inputs":[]},{"type":"error","name":"TransferFailed","inputs":[]}],"bytecode":{"object":"0x61012080604052346102165780611dad803803809161001e8285610254565b83398101039061012082126102165761003681610277565b6060602083015193603f19011261021657604051606081016001600160401b0381118282101761024057604052604083015191828252606084015160018060401b03811692838203610216576040916020820152608086015191829101526100a060a08601610277565b9260c0860151946100c06101006100b960e08a01610277565b9801610277565b5f98909855600155600280546001600160401b0319169190911790556003556001600160a01b0316801561022d57600480546001600160a01b031981168317825560405193602093859392849291906001600160a01b03167f8be0079c531659141344cd1fd0a4f28419497f9722a3daafe3b4186f6b6457e05f80a36001600160a01b0316608081905263313ce56760e01b82525afa908115610222575f916101e2575b5060a05260c0526001600160a01b031660e05261010052604051611b21908161028c8239608051818181610240015281816107ce01528181610d1d01526114cf015260a05181610a6c015260c0518181816108f10152611962015260e051818181610522015261191401526101005181818161020501526109290152f35b90506020813d60201161021a575b816101fd60209383610254565b81010312610216575160ff81168103610216575f610164565b5f80fd5b3d91506101f0565b6040513d5f823e3d90fd5b631e4fbdf760e01b5f525f60045260245ffd5b634e487b7160e01b5f52604160045260245ffd5b601f909101601f19168101906001600160401b0382119082101761024057604052565b51906001600160a01b03821682036102165756fe60806040526004361015610011575f80fd5b5f3560e01c80630162787114610d4c57806313f6658714610d08578063365df23314610cdf57806355665add14610a905780635b7f415c14610a535780636a77158b146109d1578063715018a6146109765780637ed34a3614610958578063898aeacb146109145780638d5ca052146108da5780638da5cb5b146108b2578063992284a6146108955780639f63bd9714610877578063a6a0f96e1461083f578063b833585d14610645578063b83e9f4b14610551578063b8b245921461050d578063c2835816146104d6578063ca18100d146104b9578063d21ddc611461049d578063ecaf87c51461036a578063ecbabd6b146102d0578063f23a94a9146101d3578063f2fde38b1461014d5763f5095c161461012c575f80fd5b34610149575f366003190112610149576020600554604051908152f35b5f80fd5b3461014957602036600319011261014957610166610dcb565b61016e611739565b6001600160a01b031680156101c057600480546001600160a01b0319811683179091556001600160a01b03167f8be0079c531659141344cd1fd0a4f28419497f9722a3daafe3b4186f6b6457e05f80a3005b631e4fbdf760e01b5f525f60045260245ffd5b34610149575f36600319011261014957600754156102c1575f60075560405163a9059cbb60e01b815260018060a01b037f00000000000000000000000000000000000000000000000000000000000000001660048201525f60248201526020816044815f60018060a01b037f0000000000000000000000000000000000000000000000000000000000000000165af19081156102b6575f91610287575b501561027857005b6312171d8360e31b5f5260045ffd5b6102a9915060203d6020116102af575b6102a18183610f72565b8101906111e0565b81610270565b503d610297565b6040513d5f823e3d90fd5b630fbcad4560e21b5f5260045ffd5b346101495760a03660031901126101495761030e6102ec610dcb565b6102f4610e0b565b906102fd610e4b565b608435926005549260243590611285565b90600554600160401b811015610356576103549261033782600161034f94016005556005610ea9565b90919082549060031b91821b915f19901b1916179055565b61145f565b005b634e487b7160e01b5f52604160045260245ffd5b34610149576102a036600319011261014957610384610e21565b6064356001600160401b038111610149576103a3903690600401610eee565b90916103ad610de1565b91610124356001600160401b038111610149576103ce903690600401610fcc565b949093610144356001600160401b038111610149576103f1903690600401610fcc565b90610140366101631901126101495761040861156d565b50610284356003811015610149576001190161048e577f913980dad24c6dd5f5fcebd61125f76966f36005a44118cefb1cc9378d833fc9976104899761047d966103379661047596610164359a8b91610104359460e4359460c4359460a435946044359160043590611760565b919093610e91565b60405191829182611141565b0390a1005b6318cf65dd60e21b5f5260045ffd5b34610149575f3660031901126101495760205f54604051908152f35b34610149575f366003190112610149576020600754604051908152f35b34610149575f3660031901126101495760606001546001600160401b03600254166003549060405192835260208301526040820152f35b34610149575f366003190112610149576040517f00000000000000000000000000000000000000000000000000000000000000006001600160a01b03168152602090f35b34610149576101603660031901126101495761056b610e21565b6064356001600160401b0381116101495761058a903690600401610eee565b91610593610de1565b610124356001600160401b038111610149576105b3903690600401610fcc565b9161014435956001600160401b038711610149576105d86105fb973690600401610fcc565b969095610104359360e4359360c4359360a4359360443590600435600654611760565b60065491600160401b8310156103565761047d610489926103378560017f913980dad24c6dd5f5fcebd61125f76966f36005a44118cefb1cc9378d833fc997016006556006610ea9565b34610149573660031901610120811261014957610660611444565b5060443590811561083057602435906001600160401b03821680830361014957617080016001600160401b03811161081c576001600160401b0316421061080d576101201361014957604051916106b683610f3a565b60043591828452602084015260408301818152606084019260643584526084356001600160401b038116810361014957608086015260a43569ffffffffffffffffffff19811681036101495760a086015260c4356001600160a01b03811681036101495760c086015260e435916001600160a01b038316830361014957856107897f419ec5532c9572f8fc9100c7f568c45cb0ec8a0084d8af51610965496336c95c935f60209881610795968960e06107c99e015261010435610100880152525261033761078384611636565b91610e65565b604051918291826111f8565b0390a160405163a9059cbb60e01b81526001600160a01b039091166004820152602481019190915291829081906044820190565b03815f7f00000000000000000000000000000000000000000000000000000000000000006001600160a01b03165af19081156102b6575f9161028757501561027857005b6301b512a960e21b5f5260045ffd5b634e487b7160e01b5f52601160045260245ffd5b637941e9ad60e01b5f5260045ffd5b346101495760203660031901126101495760043560055481101561014957610868602091610e65565b90549060031b1c604051908152f35b34610149576020366003190112610149576020610868600435610e65565b34610149575f366003190112610149576020600654604051908152f35b34610149575f366003190112610149576004546040516001600160a01b039091168152602090f35b34610149575f3660031901126101495760206040517f00000000000000000000000000000000000000000000000000000000000000008152f35b34610149575f366003190112610149576040517f00000000000000000000000000000000000000000000000000000000000000006001600160a01b03168152602090f35b34610149576020366003190112610149576020610868600435610e91565b34610149575f3660031901126101495761098e611739565b600480546001600160a01b031981169091555f906001600160a01b03167f8be0079c531659141344cd1fd0a4f28419497f9722a3daafe3b4186f6b6457e08280a3005b346101495736600319016080811261014957606013610149576040516109f681610f1f565b60043581526024356001600160401b038116810361014957602082015260443560408201526064356001600160401b03811161014957602091610a40610a49923690600401610ebe565b905f5492611674565b6040519015158152f35b34610149575f36600319011261014957602060405160ff7f0000000000000000000000000000000000000000000000000000000000000000168152f35b346101495736600319016101808112610149576101401361014957610144356001600160401b03811161014957610acb903690600401610ebe565b90610164356001600160401b03811161014957610aec903690600401610eee565b610af792919261152e565b506101243590600382109283156101495760018303610cd05760a435956001600160401b038716808803610149574210610cc15760603660431901126101495760405190610b4482610f1f565b6044358252606435926001600160401b038416840361014957610b7693602084015260843560408401525f5492611674565b15610cb257610b8581856115a1565b93602435809503610ca3575f5b828110610c645750505060405193610ba985610f56565b600435938486526020860152610bc0366044610f93565b6040860152606085015260c435906001600160a01b03821682036101495781608086015260e435908160a087015261010435938460c0880152156101495785610c557f913980dad24c6dd5f5fcebd61125f76966f36005a44118cefb1cc9378d833fc993610c4d60209860026107959660e06107c99d0190815252610337610c478661165f565b91610e91565b600754611134565b60075560405191829182611141565b600190610c9d610c7e36610c79848888610ff9565b61100a565b5f60408201525f6060820152610337610c9682611636565b9151610e65565b01610b92565b63ceb1159d60e01b5f5260045ffd5b634784fd3160e01b5f5260045ffd5b632d5c37f560e21b5f5260045ffd5b6322fc5d4360e21b5f5260045ffd5b346101495760203660031901126101495760043560065481101561014957610868602091610e91565b34610149575f366003190112610149576040517f00000000000000000000000000000000000000000000000000000000000000006001600160a01b03168152602090f35b34610149576101c036600319011261014957610d66610dcb565b610d6e610e0b565b610d76610e4b565b916101203660a319011261014957610d9b9160a4359384916084359360243590611285565b91610da4611405565b5060e435610dbc576103549261033761034f92610e65565b630faaae6760e31b5f5260045ffd5b600435906001600160a01b038216820361014957565b608435906001600160a01b038216820361014957565b35906001600160a01b038216820361014957565b604435906001600160401b038216820361014957565b602435906001600160401b038216820361014957565b35906001600160401b038216820361014957565b6064359069ffffffffffffffffffff198216820361014957565b600554811015610e7d5760055f5260205f2001905f90565b634e487b7160e01b5f52603260045260245ffd5b600654811015610e7d5760065f5260205f2001905f90565b8054821015610e7d575f5260205f2001905f90565b9181601f84011215610149578235916001600160401b038311610149576020808501948460051b01011161014957565b9181601f84011215610149578235916001600160401b03831161014957602080850194610120850201011161014957565b606081019081106001600160401b0382111761035657604052565b61012081019081106001600160401b0382111761035657604052565b61010081019081106001600160401b0382111761035657604052565b90601f801991011681019081106001600160401b0382111761035657604052565b919082606091031261014957604051610fab81610f1f565b604080829480358452610fc060208201610e37565b60208501520135910152565b9181601f84011215610149578235916001600160401b038311610149576020838186019501011161014957565b9190811015610e7d57610120020190565b9190826101209103126101495760405161102381610f3a565b80928035825261103560208201610e37565b6020830152604081013560408301526060810135606083015261105a60808201610e37565b608083015260a081013569ffffffffffffffffffff19811681036101495761010091829160a085015261108f60c08201610df7565b60c08501526110a060e08201610df7565b60e08501520135910152565b9190916101408184031261014957610120604051916110ca83610f56565b6110e68395823585526020830135602086015260408301610f93565b60408401526110f760a08201610e37565b606084015261110860c08201610df7565b608084015260e081013560a084015261010081013560c084015201359060038210156101495760e00152565b9190820180921161081c57565b91909160e061014082019380518352602081015160208401526040808201518051828601526001600160401b036020820151166060860152015160808401526001600160401b0360608201511660a084015260018060a01b0360808201511660c084015260a08101518284015260c081015161010084015201519060038210156111cc576101200152565b634e487b7160e01b5f52602160045260245ffd5b90816020910312610149575180151581036101495790565b91909161010080610120830194805184526001600160401b03602082015116602085015260408101516040850152606081015160608501526001600160401b03608082015116608085015269ffffffffffffffffffff1960a08201511660a085015260018060a01b0360c08201511660c085015260018060a01b0360e08201511660e08501520151910152565b929195949093955f61010060405161129c81610f3a565b8281528260208201528260408201528260608201528260808201528260a08201528260c08201528260e08201520152620186a185106113f6576001600160401b0316906103e882106113e7575f83901a60f81b6001600160f81b03191615806113c9575b156113ba57600a8502858104600a148615171561081c57612710900490620186a082106113af575b81860395861161081c576040805191825260208201899052469082015260609020946040519761135789610f3a565b8852426001600160401b0316602089015260408801526060870152608086015269ffffffffffffffffffff191660a08501526001600160a01b031660c08401523360e08401526101008301526113ac82611636565b90565b620186a09150611328565b63fad7db0760e01b5f5260045ffd5b50600183901a60f81b6001600160f81b031916600560fa1b14611300565b63fde5943160e01b5f5260045ffd5b6355fcd02760e01b5f5260045ffd5b6114186114133660a461100a565b611636565b61142560a4356005610ea9565b90549060031b1c81036114355790565b63cd1d240d60e01b5f5260045ffd5b61145261141336600461100a565b6114256004356005610ea9565b6114a5907f419ec5532c9572f8fc9100c7f568c45cb0ec8a0084d8af51610965496336c95c6040518061149284826111f8565b0390a16060604082015191015190611134565b6040516323b872dd60e01b815233600482015230602482015260448101919091526020816064815f7f00000000000000000000000000000000000000000000000000000000000000006001600160a01b03165af19081156102b6575f9161150f575b501561027857565b611528915060203d6020116102af576102a18183610f72565b5f611507565b61154161153c3660046110ac565b61165f565b61154e6004356006610ea9565b90549060031b1c810361155e5790565b631a40316d60e01b5f5260045ffd5b61157c61153c366101646110ac565b61154e610164356006610ea9565b6001600160401b0381116103565760051b60200190565b6115aa8261158a565b906115b86040519283610f72565b8282526115c48361158a565b602083019390601f19013685376005905f5b8181106115ea57505050505160051b902090565b6115f5818386610ff9565b9061160e611606611413368561100a565b923585610ea9565b90549060031b1c8203611435578551811015610e7d57600191602082861b88010152016115d6565b6040516116598161164b6020820194856111f8565b03601f198101835282610f72565b51902090565b6040516116598161164b602082019485611141565b6116a89080519060406001600160401b03602083015116910151919091606092604051928352602083015260408201522090565b6116b18361158a565b916116bf6040519384610f72565b83835260208301809460051b82019136831161014957905b8282106117295750505090805192836116f3575b505090501490565b9260051b01602001905b8251811160051b90815260208351911852602060405f209201918183106116fd57915050805f806116eb565b81358152602091820191016116d7565b6004546001600160a01b0316330361174d57565b63118cdaa760e01b5f523360045260245ffd5b9e9d97946117ce909d91999c9397949a9d9b92969b5f9b5f60e060405161178681610f56565b82815282602082015260405161179b81610f1f565b83815283602082015283604082015260408201528260608201528260808201528260a08201528260c082015201526115a1565b976001600160401b03811161035657604051906117f5601f8201601f191660200183610f72565b8082526020820192368282011161014957815f9260209286378301015251902094604051906101608201968288106001600160401b03891117610356578d8f916001600160401b03908f8e9583918f8f9e604052888a5260208a01528b60408a01528c60608a01526080890193845260a089019d8e5260c089019060018060a01b031681528260e08a0192169d8e83526101008a0194600286526101208b019788526101408b0198895260606040519b60208d019b8c528c604060208301519101528c826040830151910152015160808c01525160a08b01525160c08a015260018060a01b0390511660e0890152511661010087015251166101208501525161014084015251610160830152610160825261191261018083610f72565b7f00000000000000000000000000000000000000000000000000000000000000006001600160a01b031690813b15610149576020859360845f966040519889978896879563020a49e360e51b87527f00000000000000000000000000000000000000000000000000000000000000006004880152606060248801525180918160648901528688015e85810185018b9052601f01601f1916850185810385016003190160448701528085018290529260a484013781810183018501899052601f01601f191601010301915afa80156102b657611a80575b50906119f391611a9a565b60405193611a0085610f1f565b84526020840152604083015261012c420192834211611a6c5750906001600160401b03929160405198611a328a610f56565b8952602089015260408801521660608601526001600160a01b0316608085015260a084015260c0830152600160e08301526113ac8261165f565b634e487b7160e01b81526011600452602490fd5b6119f3929197505f611a9191610f72565b5f9690916119e8565b815f54821491821592611ae1575b5050611ade576020817f6a4b923d1c5dda45ec7bb1dbea585a753c54a92c68a94adaab178a99b3c64b85925f55604051908152a1565b50565b149050815f611aa856fea26469706673582212203f7defc7cc4175196908709a17ea34b0d629a706f3cde71da887c234f58ad75f64736f6c634300081b0033","linkReferences":{}},"methodIdentifiers":{"CIRCUIT_VERIFICATION_KEY()":"8d5ca052","DEPOSIT_TOKEN()":"13f66587","FEE_ROUTER_ADDRESS()":"898aeacb","TOKEN_DECIMALS()":"5b7f415c","VERIFIER_CONTRACT()":"b8b24592","accumulatedFeeBalance()":"ca18100d","depositLiquidity(address,uint256,uint64,bytes22,bytes32)":"ecbabd6b","depositLiquidityWithOverwrite(address,uint256,uint64,bytes22,bytes32,(uint256,uint64,uint256,uint256,uint64,bytes22,address,address,bytes32))":"01627871","getSwapCommitment(uint256)":"7ed34a36","getSwapCommitmentsLength()":"992284a6","getVaultCommitment(uint256)":"9f63bd97","getVaultCommitmentsLength()":"f5095c16","initialCheckpointLeaf()":"c2835816","mmrRoot()":"d21ddc61","owner()":"8da5cb5b","payoutToFeeRouter()":"f23a94a9","proveBlockInclusion((bytes32,uint64,uint256),bytes32[])":"6a77158b","releaseLiquidity((uint256,bytes32,(bytes32,uint64,uint256),uint64,address,uint256,uint256,uint8),bytes32[],(uint256,uint64,uint256,uint256,uint64,bytes22,address,address,bytes32)[])":"55665add","renounceOwnership()":"715018a6","submitSwapProof(bytes32,uint64,uint256,(uint256,uint64,uint256,uint256,uint64,bytes22,address,address,bytes32)[],address,bytes32,bytes32,uint256,uint256,bytes,bytes)":"b83e9f4b","submitSwapProofWithOverwrite(bytes32,uint64,uint256,(uint256,uint64,uint256,uint256,uint64,bytes22,address,address,bytes32)[],address,bytes32,bytes32,uint256,uint256,bytes,bytes,(uint256,bytes32,(bytes32,uint64,uint256),uint64,address,uint256,uint256,uint8))":"ecaf87c5","swapCommitments(uint256)":"365df233","transferOwnership(address)":"f2fde38b","vaultCommitments(uint256)":"a6a0f96e","withdrawLiquidity((uint256,uint64,uint256,uint256,uint64,bytes22,address,address,bytes32))":"b833585d"},"storageLayout":{"storage":[{"astId":41883,"contract":"src/RiftExchange.sol:RiftExchange","label":"mmrRoot","offset":0,"slot":"0","type":"t_bytes32"},{"astId":41886,"contract":"src/RiftExchange.sol:RiftExchange","label":"initialCheckpointLeaf","offset":0,"slot":"1","type":"t_struct(BlockLeaf)43288_storage"},{"astId":8,"contract":"src/RiftExchange.sol:RiftExchange","label":"_owner","offset":0,"slot":"4","type":"t_address"},{"astId":41998,"contract":"src/RiftExchange.sol:RiftExchange","label":"vaultCommitments","offset":0,"slot":"5","type":"t_array(t_bytes32)dyn_storage"},{"astId":42001,"contract":"src/RiftExchange.sol:RiftExchange","label":"swapCommitments","offset":0,"slot":"6","type":"t_array(t_bytes32)dyn_storage"},{"astId":42003,"contract":"src/RiftExchange.sol:RiftExchange","label":"accumulatedFeeBalance","offset":0,"slot":"7","type":"t_uint256"}],"types":{"t_address":{"encoding":"inplace","label":"address","numberOfBytes":"20"},"t_array(t_bytes32)dyn_storage":{"encoding":"dynamic_array","label":"bytes32[]","numberOfBytes":"32","base":"t_bytes32"},"t_bytes32":{"encoding":"inplace","label":"bytes32","numberOfBytes":"32"},"t_struct(BlockLeaf)43288_storage":{"encoding":"inplace","label":"struct Types.BlockLeaf","numberOfBytes":"96","members":[{"astId":43283,"contract":"src/RiftExchange.sol:RiftExchange","label":"blockHash","offset":0,"slot":"0","type":"t_bytes32"},{"astId":43285,"contract":"src/RiftExchange.sol:RiftExchange","label":"height","offset":0,"slot":"1","type":"t_uint64"},{"astId":43287,"contract":"src/RiftExchange.sol:RiftExchange","label":"cumulativeChainwork","offset":0,"slot":"2","type":"t_uint256"}]},"t_uint256":{"encoding":"inplace","label":"uint256","numberOfBytes":"32"},"t_uint64":{"encoding":"inplace","label":"uint64","numberOfBytes":"8"}}},"id":41}