{"abi":[{"type":"constructor","inputs":[{"name":"_mmrRoot","type":"bytes32","internalType":"bytes32"},{"name":"_initialCheckpointLeaf","type":"tuple","internalType":"struct Types.BlockLeaf","components":[{"name":"blockHash","type":"bytes32","internalType":"bytes32"},{"name":"height","type":"uint32","internalType":"uint32"},{"name":"cumulativeChainwork","type":"uint256","internalType":"uint256"}]},{"name":"_depositToken","type":"address","internalType":"address"},{"name":"_circuitVerificationKey","type":"bytes32","internalType":"bytes32"},{"name":"_verifier","type":"address","internalType":"address"},{"name":"_feeRouter","type":"address","internalType":"address"}],"stateMutability":"nonpayable"},{"type":"function","name":"CIRCUIT_VERIFICATION_KEY","inputs":[],"outputs":[{"name":"","type":"bytes32","internalType":"bytes32"}],"stateMutability":"view"},{"type":"function","name":"DEPOSIT_TOKEN","inputs":[],"outputs":[{"name":"","type":"address","internalType":"contract IERC20"}],"stateMutability":"view"},{"type":"function","name":"FEE_ROUTER_ADDRESS","inputs":[],"outputs":[{"name":"","type":"address","internalType":"address"}],"stateMutability":"view"},{"type":"function","name":"TOKEN_DECIMALS","inputs":[],"outputs":[{"name":"","type":"uint8","internalType":"uint8"}],"stateMutability":"view"},{"type":"function","name":"VERIFIER","inputs":[],"outputs":[{"name":"","type":"address","internalType":"contract ISP1Verifier"}],"stateMutability":"view"},{"type":"function","name":"_proveBlockInclusion","inputs":[{"name":"blockLeaf","type":"tuple","internalType":"struct Types.BlockLeaf","components":[{"name":"blockHash","type":"bytes32","internalType":"bytes32"},{"name":"height","type":"uint32","internalType":"uint32"},{"name":"cumulativeChainwork","type":"uint256","internalType":"uint256"}]},{"name":"siblings","type":"bytes32[]","internalType":"bytes32[]"},{"name":"peaks","type":"bytes32[]","internalType":"bytes32[]"},{"name":"tipBlockHeight","type":"uint32","internalType":"uint32"}],"outputs":[{"name":"","type":"bool","internalType":"bool"}],"stateMutability":"view"},{"type":"function","name":"_proveBlockInclusionAtTip","inputs":[{"name":"blockLeaf","type":"tuple","internalType":"struct Types.BlockLeaf","components":[{"name":"blockHash","type":"bytes32","internalType":"bytes32"},{"name":"height","type":"uint32","internalType":"uint32"},{"name":"cumulativeChainwork","type":"uint256","internalType":"uint256"}]},{"name":"siblings","type":"bytes32[]","internalType":"bytes32[]"},{"name":"peaks","type":"bytes32[]","internalType":"bytes32[]"}],"outputs":[{"name":"","type":"bool","internalType":"bool"}],"stateMutability":"view"},{"type":"function","name":"accumulatedFeeBalance","inputs":[],"outputs":[{"name":"","type":"uint256","internalType":"uint256"}],"stateMutability":"view"},{"type":"function","name":"depositLiquidity","inputs":[{"name":"specifiedPayoutAddress","type":"address","internalType":"address"},{"name":"depositAmount","type":"uint256","internalType":"uint256"},{"name":"expectedSats","type":"uint64","internalType":"uint64"},{"name":"btcPayoutScriptPubKey","type":"bytes22","internalType":"bytes22"},{"name":"depositSalt","type":"bytes32","internalType":"bytes32"},{"name":"confirmationBlocks","type":"uint8","internalType":"uint8"},{"name":"tipBlockLeaf","type":"tuple","internalType":"struct Types.BlockLeaf","components":[{"name":"blockHash","type":"bytes32","internalType":"bytes32"},{"name":"height","type":"uint32","internalType":"uint32"},{"name":"cumulativeChainwork","type":"uint256","internalType":"uint256"}]},{"name":"tipBlockSiblings","type":"bytes32[]","internalType":"bytes32[]"},{"name":"tipBlockPeaks","type":"bytes32[]","internalType":"bytes32[]"}],"outputs":[],"stateMutability":"nonpayable"},{"type":"function","name":"depositLiquidityWithOverwrite","inputs":[{"name":"specifiedPayoutAddress","type":"address","internalType":"address"},{"name":"depositAmount","type":"uint256","internalType":"uint256"},{"name":"expectedSats","type":"uint64","internalType":"uint64"},{"name":"btcPayoutScriptPubKey","type":"bytes22","internalType":"bytes22"},{"name":"depositSalt","type":"bytes32","internalType":"bytes32"},{"name":"confirmationBlocks","type":"uint8","internalType":"uint8"},{"name":"tipBlockLeaf","type":"tuple","internalType":"struct Types.BlockLeaf","components":[{"name":"blockHash","type":"bytes32","internalType":"bytes32"},{"name":"height","type":"uint32","internalType":"uint32"},{"name":"cumulativeChainwork","type":"uint256","internalType":"uint256"}]},{"name":"tipBlockSiblings","type":"bytes32[]","internalType":"bytes32[]"},{"name":"tipBlockPeaks","type":"bytes32[]","internalType":"bytes32[]"},{"name":"overwriteVault","type":"tuple","internalType":"struct Types.DepositVault","components":[{"name":"vaultIndex","type":"uint256","internalType":"uint256"},{"name":"depositTimestamp","type":"uint64","internalType":"uint64"},{"name":"depositAmount","type":"uint256","internalType":"uint256"},{"name":"depositFee","type":"uint256","internalType":"uint256"},{"name":"expectedSats","type":"uint64","internalType":"uint64"},{"name":"btcPayoutScriptPubKey","type":"bytes22","internalType":"bytes22"},{"name":"specifiedPayoutAddress","type":"address","internalType":"address"},{"name":"ownerAddress","type":"address","internalType":"address"},{"name":"nonce","type":"bytes32","internalType":"bytes32"},{"name":"confirmationBlocks","type":"uint8","internalType":"uint8"},{"name":"attestedBitcoinBlockHeight","type":"uint64","internalType":"uint64"}]}],"outputs":[],"stateMutability":"nonpayable"},{"type":"function","name":"getSwapCommitment","inputs":[{"name":"swapIndex","type":"uint256","internalType":"uint256"}],"outputs":[{"name":"","type":"bytes32","internalType":"bytes32"}],"stateMutability":"view"},{"type":"function","name":"getSwapCommitmentsLength","inputs":[],"outputs":[{"name":"","type":"uint256","internalType":"uint256"}],"stateMutability":"view"},{"type":"function","name":"getVaultCommitment","inputs":[{"name":"vaultIndex","type":"uint256","internalType":"uint256"}],"outputs":[{"name":"","type":"bytes32","internalType":"bytes32"}],"stateMutability":"view"},{"type":"function","name":"getVaultCommitmentsLength","inputs":[],"outputs":[{"name":"","type":"uint256","internalType":"uint256"}],"stateMutability":"view"},{"type":"function","name":"initialCheckpointLeaf","inputs":[],"outputs":[{"name":"blockHash","type":"bytes32","internalType":"bytes32"},{"name":"height","type":"uint32","internalType":"uint32"},{"name":"cumulativeChainwork","type":"uint256","internalType":"uint256"}],"stateMutability":"view"},{"type":"function","name":"mmrRoot","inputs":[],"outputs":[{"name":"","type":"bytes32","internalType":"bytes32"}],"stateMutability":"view"},{"type":"function","name":"payoutToFeeRouter","inputs":[],"outputs":[],"stateMutability":"nonpayable"},{"type":"function","name":"releaseLiquidity","inputs":[{"name":"swap","type":"tuple","internalType":"struct Types.ProposedSwap","components":[{"name":"swapIndex","type":"uint256","internalType":"uint256"},{"name":"aggregateVaultCommitment","type":"bytes32","internalType":"bytes32"},{"name":"depositVaultNonce","type":"bytes32","internalType":"bytes32"},{"name":"swapBitcoinBlockHash","type":"bytes32","internalType":"bytes32"},{"name":"confirmationBlocks","type":"uint8","internalType":"uint8"},{"name":"liquidityUnlockTimestamp","type":"uint64","internalType":"uint64"},{"name":"specifiedPayoutAddress","type":"address","internalType":"address"},{"name":"totalSwapFee","type":"uint256","internalType":"uint256"},{"name":"totalSwapOutput","type":"uint256","internalType":"uint256"},{"name":"state","type":"uint8","internalType":"enum Types.SwapState"}]},{"name":"swapBlockChainwork","type":"uint256","internalType":"uint256"},{"name":"swapBlockHeight","type":"uint32","internalType":"uint32"},{"name":"bitcoinSwapBlockSiblings","type":"bytes32[]","internalType":"bytes32[]"},{"name":"bitcoinSwapBlockPeaks","type":"bytes32[]","internalType":"bytes32[]"},{"name":"bitcoinConfirmationBlockLeaf","type":"tuple","internalType":"struct Types.BlockLeaf","components":[{"name":"blockHash","type":"bytes32","internalType":"bytes32"},{"name":"height","type":"uint32","internalType":"uint32"},{"name":"cumulativeChainwork","type":"uint256","internalType":"uint256"}]},{"name":"bitcoinConfirmationBlockSiblings","type":"bytes32[]","internalType":"bytes32[]"},{"name":"bitcoinConfirmationBlockPeaks","type":"bytes32[]","internalType":"bytes32[]"},{"name":"utilizedVault","type":"tuple","internalType":"struct Types.DepositVault","components":[{"name":"vaultIndex","type":"uint256","internalType":"uint256"},{"name":"depositTimestamp","type":"uint64","internalType":"uint64"},{"name":"depositAmount","type":"uint256","internalType":"uint256"},{"name":"depositFee","type":"uint256","internalType":"uint256"},{"name":"expectedSats","type":"uint64","internalType":"uint64"},{"name":"btcPayoutScriptPubKey","type":"bytes22","internalType":"bytes22"},{"name":"specifiedPayoutAddress","type":"address","internalType":"address"},{"name":"ownerAddress","type":"address","internalType":"address"},{"name":"nonce","type":"bytes32","internalType":"bytes32"},{"name":"confirmationBlocks","type":"uint8","internalType":"uint8"},{"name":"attestedBitcoinBlockHeight","type":"uint64","internalType":"uint64"}]},{"name":"tipBlockHeight","type":"uint32","internalType":"uint32"}],"outputs":[],"stateMutability":"nonpayable"},{"type":"function","name":"submitSwapProof","inputs":[{"name":"swapBitcoinTxid","type":"bytes32","internalType":"bytes32"},{"name":"swapBitcoinBlockHash","type":"bytes32","internalType":"bytes32"},{"name":"vault","type":"tuple","internalType":"struct Types.DepositVault","components":[{"name":"vaultIndex","type":"uint256","internalType":"uint256"},{"name":"depositTimestamp","type":"uint64","internalType":"uint64"},{"name":"depositAmount","type":"uint256","internalType":"uint256"},{"name":"depositFee","type":"uint256","internalType":"uint256"},{"name":"expectedSats","type":"uint64","internalType":"uint64"},{"name":"btcPayoutScriptPubKey","type":"bytes22","internalType":"bytes22"},{"name":"specifiedPayoutAddress","type":"address","internalType":"address"},{"name":"ownerAddress","type":"address","internalType":"address"},{"name":"nonce","type":"bytes32","internalType":"bytes32"},{"name":"confirmationBlocks","type":"uint8","internalType":"uint8"},{"name":"attestedBitcoinBlockHeight","type":"uint64","internalType":"uint64"}]},{"name":"priorMmrRoot","type":"bytes32","internalType":"bytes32"},{"name":"newMmrRoot","type":"bytes32","internalType":"bytes32"},{"name":"proof","type":"bytes","internalType":"bytes"},{"name":"compressedBlockLeaves","type":"bytes","internalType":"bytes"},{"name":"tipBlockLeaf","type":"tuple","internalType":"struct Types.BlockLeaf","components":[{"name":"blockHash","type":"bytes32","internalType":"bytes32"},{"name":"height","type":"uint32","internalType":"uint32"},{"name":"cumulativeChainwork","type":"uint256","internalType":"uint256"}]},{"name":"tipBlockSiblings","type":"bytes32[]","internalType":"bytes32[]"},{"name":"tipBlockPeaks","type":"bytes32[]","internalType":"bytes32[]"}],"outputs":[],"stateMutability":"nonpayable"},{"type":"function","name":"submitSwapProofWithOverwrite","inputs":[{"name":"swapBitcoinBlockHash","type":"bytes32","internalType":"bytes32"},{"name":"swapBitcoinTxid","type":"bytes32","internalType":"bytes32"},{"name":"vault","type":"tuple","internalType":"struct Types.DepositVault","components":[{"name":"vaultIndex","type":"uint256","internalType":"uint256"},{"name":"depositTimestamp","type":"uint64","internalType":"uint64"},{"name":"depositAmount","type":"uint256","internalType":"uint256"},{"name":"depositFee","type":"uint256","internalType":"uint256"},{"name":"expectedSats","type":"uint64","internalType":"uint64"},{"name":"btcPayoutScriptPubKey","type":"bytes22","internalType":"bytes22"},{"name":"specifiedPayoutAddress","type":"address","internalType":"address"},{"name":"ownerAddress","type":"address","internalType":"address"},{"name":"nonce","type":"bytes32","internalType":"bytes32"},{"name":"confirmationBlocks","type":"uint8","internalType":"uint8"},{"name":"attestedBitcoinBlockHeight","type":"uint64","internalType":"uint64"}]},{"name":"priorMmrRoot","type":"bytes32","internalType":"bytes32"},{"name":"newMmrRoot","type":"bytes32","internalType":"bytes32"},{"name":"proof","type":"bytes","internalType":"bytes"},{"name":"compressedBlockLeaves","type":"bytes","internalType":"bytes"},{"name":"tipBlockLeaf","type":"tuple","internalType":"struct Types.BlockLeaf","components":[{"name":"blockHash","type":"bytes32","internalType":"bytes32"},{"name":"height","type":"uint32","internalType":"uint32"},{"name":"cumulativeChainwork","type":"uint256","internalType":"uint256"}]},{"name":"tipBlockSiblings","type":"bytes32[]","internalType":"bytes32[]"},{"name":"tipBlockPeaks","type":"bytes32[]","internalType":"bytes32[]"},{"name":"overwriteSwap","type":"tuple","internalType":"struct Types.ProposedSwap","components":[{"name":"swapIndex","type":"uint256","internalType":"uint256"},{"name":"aggregateVaultCommitment","type":"bytes32","internalType":"bytes32"},{"name":"depositVaultNonce","type":"bytes32","internalType":"bytes32"},{"name":"swapBitcoinBlockHash","type":"bytes32","internalType":"bytes32"},{"name":"confirmationBlocks","type":"uint8","internalType":"uint8"},{"name":"liquidityUnlockTimestamp","type":"uint64","internalType":"uint64"},{"name":"specifiedPayoutAddress","type":"address","internalType":"address"},{"name":"totalSwapFee","type":"uint256","internalType":"uint256"},{"name":"totalSwapOutput","type":"uint256","internalType":"uint256"},{"name":"state","type":"uint8","internalType":"enum Types.SwapState"}]}],"outputs":[],"stateMutability":"nonpayable"},{"type":"function","name":"swapCommitments","inputs":[{"name":"","type":"uint256","internalType":"uint256"}],"outputs":[{"name":"","type":"bytes32","internalType":"bytes32"}],"stateMutability":"view"},{"type":"function","name":"vaultCommitments","inputs":[{"name":"","type":"uint256","internalType":"uint256"}],"outputs":[{"name":"","type":"bytes32","internalType":"bytes32"}],"stateMutability":"view"},{"type":"function","name":"withdrawLiquidity","inputs":[{"name":"vault","type":"tuple","internalType":"struct Types.DepositVault","components":[{"name":"vaultIndex","type":"uint256","internalType":"uint256"},{"name":"depositTimestamp","type":"uint64","internalType":"uint64"},{"name":"depositAmount","type":"uint256","internalType":"uint256"},{"name":"depositFee","type":"uint256","internalType":"uint256"},{"name":"expectedSats","type":"uint64","internalType":"uint64"},{"name":"btcPayoutScriptPubKey","type":"bytes22","internalType":"bytes22"},{"name":"specifiedPayoutAddress","type":"address","internalType":"address"},{"name":"ownerAddress","type":"address","internalType":"address"},{"name":"nonce","type":"bytes32","internalType":"bytes32"},{"name":"confirmationBlocks","type":"uint8","internalType":"uint8"},{"name":"attestedBitcoinBlockHeight","type":"uint64","internalType":"uint64"}]}],"outputs":[],"stateMutability":"nonpayable"},{"type":"event","name":"BlockTreeUpdated","inputs":[{"name":"treeRoot","type":"bytes32","indexed":false,"internalType":"bytes32"},{"name":"compressedBlockLeaves","type":"bytes","indexed":false,"internalType":"bytes"}],"anonymous":false},{"type":"event","name":"SwapUpdated","inputs":[{"name":"swap","type":"tuple","indexed":false,"internalType":"struct Types.ProposedSwap","components":[{"name":"swapIndex","type":"uint256","internalType":"uint256"},{"name":"aggregateVaultCommitment","type":"bytes32","internalType":"bytes32"},{"name":"depositVaultNonce","type":"bytes32","internalType":"bytes32"},{"name":"swapBitcoinBlockHash","type":"bytes32","internalType":"bytes32"},{"name":"confirmationBlocks","type":"uint8","internalType":"uint8"},{"name":"liquidityUnlockTimestamp","type":"uint64","internalType":"uint64"},{"name":"specifiedPayoutAddress","type":"address","internalType":"address"},{"name":"totalSwapFee","type":"uint256","internalType":"uint256"},{"name":"totalSwapOutput","type":"uint256","internalType":"uint256"},{"name":"state","type":"uint8","internalType":"enum Types.SwapState"}]},{"name":"context","type":"uint8","indexed":false,"internalType":"enum Types.SwapUpdateContext"}],"anonymous":false},{"type":"event","name":"VaultUpdated","inputs":[{"name":"vault","type":"tuple","indexed":false,"internalType":"struct Types.DepositVault","components":[{"name":"vaultIndex","type":"uint256","internalType":"uint256"},{"name":"depositTimestamp","type":"uint64","internalType":"uint64"},{"name":"depositAmount","type":"uint256","internalType":"uint256"},{"name":"depositFee","type":"uint256","internalType":"uint256"},{"name":"expectedSats","type":"uint64","internalType":"uint64"},{"name":"btcPayoutScriptPubKey","type":"bytes22","internalType":"bytes22"},{"name":"specifiedPayoutAddress","type":"address","internalType":"address"},{"name":"ownerAddress","type":"address","internalType":"address"},{"name":"nonce","type":"bytes32","internalType":"bytes32"},{"name":"confirmationBlocks","type":"uint8","internalType":"uint8"},{"name":"attestedBitcoinBlockHeight","type":"uint64","internalType":"uint64"}]},{"name":"context","type":"uint8","indexed":false,"internalType":"enum Types.VaultUpdateContext"}],"anonymous":false},{"type":"error","name":"CannotOverwriteOnGoingSwap","inputs":[]},{"type":"error","name":"DepositAmountTooLow","inputs":[]},{"type":"error","name":"DepositStillLocked","inputs":[]},{"type":"error","name":"DepositVaultDoesNotExist","inputs":[]},{"type":"error","name":"DepositVaultNotOverwritable","inputs":[]},{"type":"error","name":"EmptyDepositVault","inputs":[]},{"type":"error","name":"InvalidConfirmationBlockDelta","inputs":[]},{"type":"error","name":"InvalidConfirmationBlockInclusionProof","inputs":[]},{"type":"error","name":"InvalidScriptPubKey","inputs":[]},{"type":"error","name":"InvalidSwapBlockInclusionProof","inputs":[]},{"type":"error","name":"InvalidTipBlockInclusionProof","inputs":[]},{"type":"error","name":"InvalidVaultCommitment","inputs":[]},{"type":"error","name":"NoFeeToPay","inputs":[]},{"type":"error","name":"SatOutputTooLow","inputs":[]},{"type":"error","name":"StillInChallengePeriod","inputs":[]},{"type":"error","name":"SwapDoesNotExist","inputs":[]},{"type":"error","name":"SwapNotProved","inputs":[]},{"type":"error","name":"TransferFailed","inputs":[]}],"bytecode":{"object":"0x61012080604052346101ab578061222e803803809161001e82856101d6565b83398101039061010082126101ab576060815192601f1901126101ab57604051606081016001600160401b038111828210176101c25760405260208201519081815260408301519063ffffffff82168083036101ab5760408260049460208095015260608701519182910152610096608087016101f9565b9160a0870151956100b560e06100ae60c08b016101f9565b99016101f9565b985f5560015563ffffffff19600254161760025560035560018060a01b0316806080526040519283809263313ce56760e01b82525afa9081156101b7575f91610177575b5060a05260c0526001600160a01b031660e05261010052604051612020908161020e82396080518181816101aa01528181610ed001528181610f9d01526118a0015260a05181610774015260c0518181816106d60152611c30015260e0518181816110b90152611be201526101005181818161016f015261070e0152f35b90506020813d6020116101af575b81610192602093836101d6565b810103126101ab575160ff811681036101ab575f6100f9565b5f80fd5b3d9150610185565b6040513d5f823e3d90fd5b634e487b7160e01b5f52604160045260245ffd5b601f909101601f19168101906001600160401b038211908210176101c257604052565b51906001600160a01b03821682036101ab5756fe610100806040526004361015610013575f80fd5b5f3560e01c90816308c84e70146110a75750806310e9619a14610fcc57806313f6658714610f8857806316a6db2014610d4f57806335cf0d3e14610889578063365df233146108605780634e960915146107985780635b7f415c1461075b5780637ed34a361461073d578063898aeacb146106f95780638d5ca052146106bf578063992284a6146106a25780639f63bd9714610684578063a6a0f96e1461064c578063b9eb3ce814610524578063be0c4e93146103a5578063c283581614610371578063ca18100d14610354578063d21ddc6114610338578063d9c2328f146102cf578063e78aa9d514610242578063f23a94a91461013b5763f5095c161461011a575f80fd5b34610137575f366003190112610137576020600454604051908152f35b5f80fd5b34610137575f366003190112610137576006548015610233575f60065560405163a9059cbb60e01b81526001600160a01b037f0000000000000000000000000000000000000000000000000000000000000000166004820152602481019190915260208180604481015b03815f7f00000000000000000000000000000000000000000000000000000000000000006001600160a01b03165af1908115610228575f916101f9575b50156101ea57005b6312171d8360e31b5f5260045ffd5b61021b915060203d602011610221575b610213818361127a565b8101906113df565b816101e2565b503d610209565b6040513d5f823e3d90fd5b630fbcad4560e21b5f5260045ffd5b346101375760c03660031901126101375761025c3661129b565b6064356001600160401b0381116101375761027b903690600401611171565b916084356001600160401b0381116101375761029b903690600401611171565b60a435939163ffffffff85168503610137576020956102bc6102c5966114b0565b935f5495611e28565b6040519015158152f35b346101375760a0366003190112610137576102e93661129b565b6064356001600160401b03811161013757610308903690600401611171565b9190608435916001600160401b038311610137576020936103306102c5943690600401611171565b9390926115f0565b34610137575f3660031901126101375760205f54604051908152f35b34610137575f366003190112610137576020600654604051908152f35b34610137575f36600319011261013757606060015463ffffffff600254166003549060405192835260208301526040820152f35b346101375761040036600319011261013757610160366043190112610137576101e4356001600160401b038111610137576103e49036906004016111fa565b90610204356001600160401b038111610137576104059036906004016111fa565b9060603661022319011261013757610284356001600160401b03811161013757610433903690600401611171565b6102a4959195356001600160401b03811161013757610456903690600401611171565b91610140366102c31901126101375761046d611966565b506103e43560038110156101375760029061048781611492565b03610515577f2fbcb7a28033609237c6bf9332bee64f5913a7ebb456577c901d8093b523877d976104f5966104dd966104d5966102c4359a6101c4356101a4358d60243590600435906119c5565b9190936111cd565b90919082549060031b91821b915f19901b1916179055565b604051809161050982610160810192611571565b5f6101408301520390a1005b6318cf65dd60e21b5f5260045ffd5b34610137576102c036600319011261013757610160366043190112610137576101e4356001600160401b038111610137576105639036906004016111fa565b610204356001600160401b038111610137576105839036906004016111fa565b90929060603661022319011261013757610284356001600160401b038111610137576105b3903690600401611171565b916102a435956001600160401b038711610137576105d86105f1973690600401611171565b9690956101c4356101a4356004356024356005546119c5565b90600554600160401b811015610638577f2fbcb7a28033609237c6bf9332bee64f5913a7ebb456577c901d8093b523877d926104dd8260016104f5940160055560056111e5565b634e487b7160e01b5f52604160045260245ffd5b3461013757602036600319011261013757600435600454811015610137576106756020916111a1565b90549060031b1c604051908152f35b346101375760203660031901126101375760206106756004356111a1565b34610137575f366003190112610137576020600554604051908152f35b34610137575f3660031901126101375760206040517f00000000000000000000000000000000000000000000000000000000000000008152f35b34610137575f366003190112610137576040517f00000000000000000000000000000000000000000000000000000000000000006001600160a01b03168152602090f35b346101375760203660031901126101375760206106756004356111cd565b34610137575f36600319011261013757602060405160ff7f0000000000000000000000000000000000000000000000000000000000000000168152f35b3461013757610160366003190112610137576107b26110e8565b6107ba611112565b906107c361113c565b6107cb611153565b60603660c319011261013757610124356001600160401b038111610137576107f7903690600401611171565b9161014435956001600160401b0387116101375761081c610830973690600401611171565b96909560843592600454926024359061161a565b90600454600160401b8110156106385761085e926104dd826001610859940160045560046111e5565b611829565b005b3461013757602036600319011261013757600435600554811015610137576106756020916111cd565b346101375736600319016103e081126101375761014013610137576101643563ffffffff811680910361013757610184356001600160401b038111610137576108d6903690600401611171565b6101a4356001600160401b038111610137576108f6903690600401611171565b90926060366101c319011261013757610224356001600160401b03811161013757610925903690600401611171565b9091610244356001600160401b03811161013757610947903690600401611171565b919061016036610263190112610137576103c4359263ffffffff8416840361013757610971611927565b50610124359760038910156101375761098989611492565b60018903610d405760a435976001600160401b038916808a03610137574210610d31576109e9918c916064359c8d93604051946109c586611227565b855260208501526101443560408501526109de896114b0565b925f54988995611e28565b15610d2257604051916109fb83611227565b6101c43583526101e4359563ffffffff87169788880361013757610a30610a36978960208801526102043560408801526114b0565b94611e28565b15610d1357506084359460ff861690818703610137570163ffffffff8111610cff5763ffffffff1603610cf057610a77610a7236610264611319565b6118ff565b9361026435610a878160046111e5565b90549060031b1c8603610ce157602435809603610cd25760405190610aab82611242565b8152610284356001600160401b0381168103610137576020820152604081016102a435815260608201916102c43583526102e4356001600160401b0381168103610137576080820152610304356001600160501b0319811681036101375760a0820152610324356001600160a01b03811681036101375760c0820152610344356001600160a01b03811681036101375760e0820152610364356101008201526103843560ff81168103610137576101208201526103a435916001600160401b0383168303610137577f24e3dfec7094aa50543676beff35467ddf376469fa05571e4d1b729f3514507f935f8092610180956101408601525252610bba610bb0826118ff565b6104dd83516111a1565b610bc760405180926113f7565b6002610160820152a160405193610bdd8561125e565b600435808652602086019690965260443560408601526060850152608084015260a083015260c4356001600160a01b0381168103610137577f2fbcb7a28033609237c6bf9332bee64f5913a7ebb456577c901d8093b523877d83610c846101a5968460c06020980152610c7c60e435918260e086015260026101043598896101008801526101208701908152526104dd610c7686611983565b916111cd565b600654611564565b600655610c946040518092611571565b600161014082015261016090a160405163a9059cbb60e01b81526001600160a01b039091166004820152602481019190915291829081906044820190565b63ceb1159d60e01b5f5260045ffd5b63cd1d240d60e01b5f5260045ffd5b638e082f6760e01b5f5260045ffd5b634e487b7160e01b5f52601160045260245ffd5b638ce0b4c760e01b5f5260045ffd5b637344e0b760e01b5f5260045ffd5b632d5c37f560e21b5f5260045ffd5b6322fc5d4360e21b5f5260045ffd5b34610137573660031901610160811261013757610d6a61180e565b506044358015610f7957602435916001600160401b03831680840361013757617080016001600160401b038111610cff576001600160401b03164210610f6a57610160136101375760405191610dbf83611242565b6004359081845260208401526040830191808352606084019160643583526084356001600160401b038116810361013757608086015260a4356001600160501b0319811681036101375760a086015260c4356001600160a01b03811681036101375760c086015260e435906001600160a01b0382168203610137578160e0870152610104356101008701526101243560ff811681036101375761012087015261014435906001600160401b0382168203610137575f60209581610ecb98610e9a956101408c015252526104dd610e94886118ff565b916111a1565b60405163a9059cbb60e01b81526001600160a01b039091166004820152602481019190915291829081906044820190565b03815f7f00000000000000000000000000000000000000000000000000000000000000006001600160a01b03165af1908115610228575f91610f4b575b50156101ea576101807f24e3dfec7094aa50543676beff35467ddf376469fa05571e4d1b729f3514507f91610f4060405180926113f7565b6001610160820152a1005b610f64915060203d60201161022157610213818361127a565b82610f08565b6301b512a960e21b5f5260045ffd5b637941e9ad60e01b5f5260045ffd5b34610137575f366003190112610137576040517f00000000000000000000000000000000000000000000000000000000000000006001600160a01b03168152602090f35b34610137576102c036600319011261013757610fe66110e8565b610fee611112565b610ff661113c565b91610fff611153565b9060603660c319011261013757610124356001600160401b0381116101375761102c903690600401611171565b90610144356001600160401b0381116101375761104d903690600401611171565b94909361016036610163190112610137576110769661016435988991608435936024359061161a565b9161107f6117e1565b506101a4356110985761085e926104dd610859926111a1565b630faaae6760e31b5f5260045ffd5b34610137575f366003190112610137577f00000000000000000000000000000000000000000000000000000000000000006001600160a01b03168152602090f35b600435906001600160a01b038216820361013757565b35906001600160a01b038216820361013757565b604435906001600160401b038216820361013757565b35906001600160401b038216820361013757565b606435906001600160501b03198216820361013757565b60a4359060ff8216820361013757565b359060ff8216820361013757565b9181601f84011215610137578235916001600160401b038311610137576020808501948460051b01011161013757565b6004548110156111b95760045f5260205f2001905f90565b634e487b7160e01b5f52603260045260245ffd5b6005548110156111b95760055f5260205f2001905f90565b80548210156111b9575f5260205f2001905f90565b9181601f84011215610137578235916001600160401b038311610137576020838186019501011161013757565b606081019081106001600160401b0382111761063857604052565b61016081019081106001600160401b0382111761063857604052565b61014081019081106001600160401b0382111761063857604052565b90601f801991011681019081106001600160401b0382111761063857604052565b606090600319011261013757604051906112b482611227565b81600435815260243563ffffffff811681036101375760208201526040604435910152565b9190826060910312610137576040516112f181611227565b809280358252602081013563ffffffff81168103610137576020830152604090810135910152565b9190826101609103126101375760405161133281611242565b80928035825261134460208201611128565b6020830152604081013560408301526060810135606083015261136960808201611128565b608083015260a0810135906001600160501b031982168203610137576101406113da91819360a086015261139f60c082016110fe565b60c08601526113b060e082016110fe565b60e08601526101008101356101008601526113ce6101208201611163565b61012086015201611128565b910152565b90816020910312610137575180151581036101375790565b6001600160401b03610140809280518552826020820151166020860152604081015160408601526060810151606086015282608082015116608086015269ffffffffffffffffffff1960a08201511660a086015260018060a01b0360c08201511660c086015260018060a01b0360e08201511660e086015261010081015161010086015260ff61012082015116610120860152015116910152565b6003111561149c57565b634e487b7160e01b5f52602160045260245ffd5b63ffffffff60019116019063ffffffff8211610cff57565b919082610140910312610137576040516114e18161125e565b61012081938035835260208101356020840152604081013560408401526060810135606084015261151460808201611163565b608084015261152560a08201611128565b60a084015261153660c082016110fe565b60c084015260e081013560e08401526101008101356101008401520135906003821015610137576101200152565b91908201809211610cff57565b61012080918051845260208101516020850152604081015160408501526060810151606085015260ff60808201511660808501526001600160401b0360a08201511660a085015260018060a01b0360c08201511660c085015260e081015160e08501526101008101516101008501520151916115ec83611492565b0152565b9261160a9491926102bc63ffffffff6020870151166114b0565b90565b91908203918211610cff57565b94989097959692939a99915f61014060405161163581611242565b8281528260208201528260408201528260608201528260808201528260a08201528260c08201528260e0820152826101008201528261012082015201526107d189106117d2576001600160401b0316956103e887106117c3575f85901a60f81b6001600160f81b03191615806117a5575b15611796576116bf936116ba3660c46112d9565b6115f0565b15611787576005850285810460051486151715610cff576116e86127106117039204809761160d565b60408051988952602089018b90524690890152606090972090565b9260e4359563ffffffff8716978888036101375760ff97506040519a6117288c611242565b8b52426001600160401b031660208c015260408b015260608a015260808901526001600160501b03191660a08801526001600160a01b031660c08701523360e08701526101008601521661012084015261014083015261160a826118ff565b633666f0e160e21b5f5260045ffd5b63fad7db0760e01b5f5260045ffd5b50600185901a60f81b6001600160f81b031916600560fa1b146116a6565b63fde5943160e01b5f5260045ffd5b6355fcd02760e01b5f5260045ffd5b6117f0610a7236610164611319565b6117fe6101643560046111e5565b90549060031b1c8103610ce15790565b61181c610a72366004611319565b6117fe60043560046111e5565b611876907f24e3dfec7094aa50543676beff35467ddf376469fa05571e4d1b729f3514507f61018060405161185e81856113f7565b5f610160820152a16060604082015191015190611564565b6040516323b872dd60e01b815233600482015230602482015260448101919091526020816064815f7f00000000000000000000000000000000000000000000000000000000000000006001600160a01b03165af1908115610228575f916118e0575b50156101ea57565b6118f9915060203d60201161022157610213818361127a565b5f6118d8565b6040516119106020820180936113f7565b61016081526119216101808261127a565b51902090565b61193a6119353660046114c8565b611983565b61194760043560056111e5565b90549060031b1c81036119575790565b631a40316d60e01b5f5260045ffd5b611975611935366102c46114c8565b6119476102c43560056111e5565b604051611994602082018093611571565b61014081526119216101608261127a565b908060209392818452848401375f828201840152601f01601f1916010190565b9c9b9793919995909a96929a9894986080525f995f6101206040516119e98161125e565b8281528260208201528260408201528260608201528260808201528260a08201528260c08201528260e082015282610100820152015261018435996001600160401b038b168b0361013757611a3f366044611319565b6040810151606082015160c05260c05160c05160011b0460021460c051151715610cff576060611a719201519061160d565b60e052611a82610a72366044611319565b60a052611a9260443560046111e5565b90549060031b1c60a05103610ce1576001600160401b03861161063857604051611ac6601f8801601f19166020018261127a565b8681526020810190368888011161013757878783375f6020898301015251902060ff6101643516610164350361013757610104356001600160a01b0381169003610137578d90604051611b188161125e565b60ff6101643516815260208101926080518452604082019586526060820160a05181526080830160018060a01b036101043516815260a084019060c05160011b825260c085019260e051845260e086019485526101206101008701968d8852019687526040519960208b019860ff61016435168a525160408c01525160608b01525160808a015260018060a01b0390511660a08901525160c08801525160e08701525161010086015251610120850152516101408401526101408352611be06101608461127a565b7f00000000000000000000000000000000000000000000000000000000000000006001600160a01b031690813b15610137575f93611c8e6084946040519788968795869563020a49e360e51b87527f00000000000000000000000000000000000000000000000000000000000000006004880152606060248801525180918160648901528388015e85810182018a9052601f01601f19168501858103820160031901604487015201916119a5565b03915afa801561022857611df6575b5090611caf9291611cbb98999a611f2d565b6116ba366102246112d9565b15611de757610244359063ffffffff821691828103611de357906001600160401b0391501690036001600160401b038111611dcf576001600160401b03166085026001600160401b038116908103611dcf576001600160401b0361e3b39116016001600160401b038111610cff576001600160401b036103e881603c93160416016001600160401b038111610cff57611d5e6001600160401b0380921642611564565b1660405193611d6c8561125e565b845260a0516020850152610144356040850152608051606085015260ff6101643516608085015260a084015260018060a01b03610104351660c084015260c05160011b60e084015260e05161010084015250600161012083015261160a82611983565b634e487b7160e01b82526011600452602482fd5b8380fd5b633666f0e160e21b8252600482fd5b611cbb98995090611e0c5f611caf95949361127a565b5f999850909192611c9d565b91908110156111b95760051b0190565b919093929363ffffffff611e5f84516020860195604084885116910151919091606092604051928352602083015260408201522090565b935116905f925b808410611edc57505050505f905f5b838110611eb6575b505015611eae57611e8d91611f99565b908115611ea75763ffffffff165f5260205260405f201490565b5050505f90565b505050505f90565b81611ec2828688611e18565b3514611ed057600101611e75565b50505060015f80611e7d565b9293600183811c949293811603611f0f57611ef8858385611e18565b355f52602052600160405f20945b01929190611e66565b611f1a858385611e18565b35905f52602052600160405f2094611f06565b929192815f54821491821592611f8f575b5050611f8a57611f857f9b2f63e83fb6fca69cac8064b1700d250ea342927ef73fb1a519b5df4e4f111893825f5560405193849384526040602085015260408401916119a5565b0390a1565b505050565b149050815f611f3e565b8115611fe4575f19820191808311610cff57611fb6838284611e18565b3592805b611fc45750505090565b5f190192611fd3848385611e18565b355f526020528260405f2093611fba565b50505f9056fea26469706673582212208b7604fd1cad19884914ddb3030cdc6a7ae43066a62f29391cd7ac56d38aa4ae64736f6c634300081c0033","linkReferences":{}},"methodIdentifiers":{"CIRCUIT_VERIFICATION_KEY()":"8d5ca052","DEPOSIT_TOKEN()":"13f66587","FEE_ROUTER_ADDRESS()":"898aeacb","TOKEN_DECIMALS()":"5b7f415c","VERIFIER()":"08c84e70","_proveBlockInclusion((bytes32,uint32,uint256),bytes32[],bytes32[],uint32)":"e78aa9d5","_proveBlockInclusionAtTip((bytes32,uint32,uint256),bytes32[],bytes32[])":"d9c2328f","accumulatedFeeBalance()":"ca18100d","depositLiquidity(address,uint256,uint64,bytes22,bytes32,uint8,(bytes32,uint32,uint256),bytes32[],bytes32[])":"4e960915","depositLiquidityWithOverwrite(address,uint256,uint64,bytes22,bytes32,uint8,(bytes32,uint32,uint256),bytes32[],bytes32[],(uint256,uint64,uint256,uint256,uint64,bytes22,address,address,bytes32,uint8,uint64))":"10e9619a","getSwapCommitment(uint256)":"7ed34a36","getSwapCommitmentsLength()":"992284a6","getVaultCommitment(uint256)":"9f63bd97","getVaultCommitmentsLength()":"f5095c16","initialCheckpointLeaf()":"c2835816","mmrRoot()":"d21ddc61","payoutToFeeRouter()":"f23a94a9","releaseLiquidity((uint256,bytes32,bytes32,bytes32,uint8,uint64,address,uint256,uint256,uint8),uint256,uint32,bytes32[],bytes32[],(bytes32,uint32,uint256),bytes32[],bytes32[],(uint256,uint64,uint256,uint256,uint64,bytes22,address,address,bytes32,uint8,uint64),uint32)":"35cf0d3e","submitSwapProof(bytes32,bytes32,(uint256,uint64,uint256,uint256,uint64,bytes22,address,address,bytes32,uint8,uint64),bytes32,bytes32,bytes,bytes,(bytes32,uint32,uint256),bytes32[],bytes32[])":"b9eb3ce8","submitSwapProofWithOverwrite(bytes32,bytes32,(uint256,uint64,uint256,uint256,uint64,bytes22,address,address,bytes32,uint8,uint64),bytes32,bytes32,bytes,bytes,(bytes32,uint32,uint256),bytes32[],bytes32[],(uint256,bytes32,bytes32,bytes32,uint8,uint64,address,uint256,uint256,uint8))":"be0c4e93","swapCommitments(uint256)":"365df233","vaultCommitments(uint256)":"a6a0f96e","withdrawLiquidity((uint256,uint64,uint256,uint256,uint64,bytes22,address,address,bytes32,uint8,uint64))":"16a6db20"},"storageLayout":{"storage":[{"astId":42260,"contract":"src/RiftExchange.sol:RiftExchange","label":"mmrRoot","offset":0,"slot":"0","type":"t_bytes32"},{"astId":42263,"contract":"src/RiftExchange.sol:RiftExchange","label":"initialCheckpointLeaf","offset":0,"slot":"1","type":"t_struct(BlockLeaf)43904_storage"},{"astId":42412,"contract":"src/RiftExchange.sol:RiftExchange","label":"vaultCommitments","offset":0,"slot":"4","type":"t_array(t_bytes32)dyn_storage"},{"astId":42415,"contract":"src/RiftExchange.sol:RiftExchange","label":"swapCommitments","offset":0,"slot":"5","type":"t_array(t_bytes32)dyn_storage"},{"astId":42417,"contract":"src/RiftExchange.sol:RiftExchange","label":"accumulatedFeeBalance","offset":0,"slot":"6","type":"t_uint256"}],"types":{"t_array(t_bytes32)dyn_storage":{"encoding":"dynamic_array","label":"bytes32[]","numberOfBytes":"32","base":"t_bytes32"},"t_bytes32":{"encoding":"inplace","label":"bytes32","numberOfBytes":"32"},"t_struct(BlockLeaf)43904_storage":{"encoding":"inplace","label":"struct Types.BlockLeaf","numberOfBytes":"96","members":[{"astId":43899,"contract":"src/RiftExchange.sol:RiftExchange","label":"blockHash","offset":0,"slot":"0","type":"t_bytes32"},{"astId":43901,"contract":"src/RiftExchange.sol:RiftExchange","label":"height","offset":0,"slot":"1","type":"t_uint32"},{"astId":43903,"contract":"src/RiftExchange.sol:RiftExchange","label":"cumulativeChainwork","offset":0,"slot":"2","type":"t_uint256"}]},"t_uint256":{"encoding":"inplace","label":"uint256","numberOfBytes":"32"},"t_uint32":{"encoding":"inplace","label":"uint32","numberOfBytes":"4"}}},"id":41}