{"abi":[{"type":"constructor","inputs":[{"name":"_mmrRoot","type":"bytes32","internalType":"bytes32"},{"name":"_depositToken","type":"address","internalType":"address"},{"name":"_circuitVerificationKey","type":"bytes32","internalType":"bytes32"},{"name":"_verifier","type":"address","internalType":"address"},{"name":"_feeRouter","type":"address","internalType":"address"},{"name":"_tipBlockLeaf","type":"tuple","internalType":"struct Types.BlockLeaf","components":[{"name":"blockHash","type":"bytes32","internalType":"bytes32"},{"name":"height","type":"uint32","internalType":"uint32"},{"name":"cumulativeChainwork","type":"uint256","internalType":"uint256"}]}],"stateMutability":"nonpayable"},{"type":"function","name":"CIRCUIT_VERIFICATION_KEY","inputs":[],"outputs":[{"name":"","type":"bytes32","internalType":"bytes32"}],"stateMutability":"view"},{"type":"function","name":"DEPOSIT_TOKEN","inputs":[],"outputs":[{"name":"","type":"address","internalType":"contract IERC20"}],"stateMutability":"view"},{"type":"function","name":"FEE_ROUTER_ADDRESS","inputs":[],"outputs":[{"name":"","type":"address","internalType":"address"}],"stateMutability":"view"},{"type":"function","name":"TOKEN_DECIMALS","inputs":[],"outputs":[{"name":"","type":"uint8","internalType":"uint8"}],"stateMutability":"view"},{"type":"function","name":"VERIFIER","inputs":[],"outputs":[{"name":"","type":"address","internalType":"contract ISP1Verifier"}],"stateMutability":"view"},{"type":"function","name":"accumulatedFeeBalance","inputs":[],"outputs":[{"name":"","type":"uint256","internalType":"uint256"}],"stateMutability":"view"},{"type":"function","name":"checkpoints","inputs":[{"name":"","type":"bytes32","internalType":"bytes32"}],"outputs":[{"name":"established","type":"bool","internalType":"bool"},{"name":"tipBlockLeaf","type":"tuple","internalType":"struct Types.BlockLeaf","components":[{"name":"blockHash","type":"bytes32","internalType":"bytes32"},{"name":"height","type":"uint32","internalType":"uint32"},{"name":"cumulativeChainwork","type":"uint256","internalType":"uint256"}]}],"stateMutability":"view"},{"type":"function","name":"depositLiquidity","inputs":[{"name":"params","type":"tuple","internalType":"struct Types.DepositLiquidityParams","components":[{"name":"depositOwnerAddress","type":"address","internalType":"address"},{"name":"specifiedPayoutAddress","type":"address","internalType":"address"},{"name":"depositAmount","type":"uint256","internalType":"uint256"},{"name":"expectedSats","type":"uint64","internalType":"uint64"},{"name":"btcPayoutScriptPubKey","type":"bytes25","internalType":"bytes25"},{"name":"depositSalt","type":"bytes32","internalType":"bytes32"},{"name":"confirmationBlocks","type":"uint8","internalType":"uint8"},{"name":"safeBlockLeaf","type":"tuple","internalType":"struct Types.BlockLeaf","components":[{"name":"blockHash","type":"bytes32","internalType":"bytes32"},{"name":"height","type":"uint32","internalType":"uint32"},{"name":"cumulativeChainwork","type":"uint256","internalType":"uint256"}]},{"name":"safeBlockSiblings","type":"bytes32[]","internalType":"bytes32[]"},{"name":"safeBlockPeaks","type":"bytes32[]","internalType":"bytes32[]"}]}],"outputs":[],"stateMutability":"nonpayable"},{"type":"function","name":"depositLiquidityWithOverwrite","inputs":[{"name":"params","type":"tuple","internalType":"struct Types.DepositLiquidityWithOverwriteParams","components":[{"name":"depositParams","type":"tuple","internalType":"struct Types.DepositLiquidityParams","components":[{"name":"depositOwnerAddress","type":"address","internalType":"address"},{"name":"specifiedPayoutAddress","type":"address","internalType":"address"},{"name":"depositAmount","type":"uint256","internalType":"uint256"},{"name":"expectedSats","type":"uint64","internalType":"uint64"},{"name":"btcPayoutScriptPubKey","type":"bytes25","internalType":"bytes25"},{"name":"depositSalt","type":"bytes32","internalType":"bytes32"},{"name":"confirmationBlocks","type":"uint8","internalType":"uint8"},{"name":"safeBlockLeaf","type":"tuple","internalType":"struct Types.BlockLeaf","components":[{"name":"blockHash","type":"bytes32","internalType":"bytes32"},{"name":"height","type":"uint32","internalType":"uint32"},{"name":"cumulativeChainwork","type":"uint256","internalType":"uint256"}]},{"name":"safeBlockSiblings","type":"bytes32[]","internalType":"bytes32[]"},{"name":"safeBlockPeaks","type":"bytes32[]","internalType":"bytes32[]"}]},{"name":"overwriteVault","type":"tuple","internalType":"struct Types.DepositVault","components":[{"name":"vaultIndex","type":"uint256","internalType":"uint256"},{"name":"depositTimestamp","type":"uint64","internalType":"uint64"},{"name":"depositAmount","type":"uint256","internalType":"uint256"},{"name":"depositFee","type":"uint256","internalType":"uint256"},{"name":"expectedSats","type":"uint64","internalType":"uint64"},{"name":"btcPayoutScriptPubKey","type":"bytes25","internalType":"bytes25"},{"name":"specifiedPayoutAddress","type":"address","internalType":"address"},{"name":"ownerAddress","type":"address","internalType":"address"},{"name":"salt","type":"bytes32","internalType":"bytes32"},{"name":"confirmationBlocks","type":"uint8","internalType":"uint8"},{"name":"attestedBitcoinBlockHeight","type":"uint64","internalType":"uint64"}]}]}],"outputs":[],"stateMutability":"nonpayable"},{"type":"function","name":"getLightClientHeight","inputs":[],"outputs":[{"name":"","type":"uint32","internalType":"uint32"}],"stateMutability":"view"},{"type":"function","name":"getSwapCommitment","inputs":[{"name":"swapIndex","type":"uint256","internalType":"uint256"}],"outputs":[{"name":"","type":"bytes32","internalType":"bytes32"}],"stateMutability":"view"},{"type":"function","name":"getSwapCommitmentsLength","inputs":[],"outputs":[{"name":"","type":"uint256","internalType":"uint256"}],"stateMutability":"view"},{"type":"function","name":"getVaultCommitment","inputs":[{"name":"vaultIndex","type":"uint256","internalType":"uint256"}],"outputs":[{"name":"","type":"bytes32","internalType":"bytes32"}],"stateMutability":"view"},{"type":"function","name":"getVaultCommitmentsLength","inputs":[],"outputs":[{"name":"","type":"uint256","internalType":"uint256"}],"stateMutability":"view"},{"type":"function","name":"mmrRoot","inputs":[],"outputs":[{"name":"","type":"bytes32","internalType":"bytes32"}],"stateMutability":"view"},{"type":"function","name":"payoutToFeeRouter","inputs":[],"outputs":[],"stateMutability":"nonpayable"},{"type":"function","name":"proveBlockInclusion","inputs":[{"name":"blockLeaf","type":"tuple","internalType":"struct Types.BlockLeaf","components":[{"name":"blockHash","type":"bytes32","internalType":"bytes32"},{"name":"height","type":"uint32","internalType":"uint32"},{"name":"cumulativeChainwork","type":"uint256","internalType":"uint256"}]},{"name":"siblings","type":"bytes32[]","internalType":"bytes32[]"},{"name":"peaks","type":"bytes32[]","internalType":"bytes32[]"}],"outputs":[{"name":"","type":"bool","internalType":"bool"}],"stateMutability":"view"},{"type":"function","name":"releaseLiquidityBatch","inputs":[{"name":"paramsArray","type":"tuple[]","internalType":"struct Types.ReleaseLiquidityParams[]","components":[{"name":"swap","type":"tuple","internalType":"struct Types.ProposedSwap","components":[{"name":"swapIndex","type":"uint256","internalType":"uint256"},{"name":"depositVaultCommitment","type":"bytes32","internalType":"bytes32"},{"name":"swapBitcoinBlockHash","type":"bytes32","internalType":"bytes32"},{"name":"confirmationBlocks","type":"uint8","internalType":"uint8"},{"name":"liquidityUnlockTimestamp","type":"uint64","internalType":"uint64"},{"name":"specifiedPayoutAddress","type":"address","internalType":"address"},{"name":"totalSwapFee","type":"uint256","internalType":"uint256"},{"name":"totalSwapOutput","type":"uint256","internalType":"uint256"},{"name":"state","type":"uint8","internalType":"enum Types.SwapState"}]},{"name":"swapBlockChainwork","type":"uint256","internalType":"uint256"},{"name":"swapBlockHeight","type":"uint32","internalType":"uint32"},{"name":"bitcoinSwapBlockSiblings","type":"bytes32[]","internalType":"bytes32[]"},{"name":"bitcoinSwapBlockPeaks","type":"bytes32[]","internalType":"bytes32[]"},{"name":"utilizedVault","type":"tuple","internalType":"struct Types.DepositVault","components":[{"name":"vaultIndex","type":"uint256","internalType":"uint256"},{"name":"depositTimestamp","type":"uint64","internalType":"uint64"},{"name":"depositAmount","type":"uint256","internalType":"uint256"},{"name":"depositFee","type":"uint256","internalType":"uint256"},{"name":"expectedSats","type":"uint64","internalType":"uint64"},{"name":"btcPayoutScriptPubKey","type":"bytes25","internalType":"bytes25"},{"name":"specifiedPayoutAddress","type":"address","internalType":"address"},{"name":"ownerAddress","type":"address","internalType":"address"},{"name":"salt","type":"bytes32","internalType":"bytes32"},{"name":"confirmationBlocks","type":"uint8","internalType":"uint8"},{"name":"attestedBitcoinBlockHeight","type":"uint64","internalType":"uint64"}]},{"name":"tipBlockHeight","type":"uint32","internalType":"uint32"}]}],"outputs":[],"stateMutability":"nonpayable"},{"type":"function","name":"submitBatchSwapProof","inputs":[{"name":"swapParams","type":"tuple[]","internalType":"struct Types.SubmitSwapProofParams[]","components":[{"name":"swapBitcoinTxid","type":"bytes32","internalType":"bytes32"},{"name":"vault","type":"tuple","internalType":"struct Types.DepositVault","components":[{"name":"vaultIndex","type":"uint256","internalType":"uint256"},{"name":"depositTimestamp","type":"uint64","internalType":"uint64"},{"name":"depositAmount","type":"uint256","internalType":"uint256"},{"name":"depositFee","type":"uint256","internalType":"uint256"},{"name":"expectedSats","type":"uint64","internalType":"uint64"},{"name":"btcPayoutScriptPubKey","type":"bytes25","internalType":"bytes25"},{"name":"specifiedPayoutAddress","type":"address","internalType":"address"},{"name":"ownerAddress","type":"address","internalType":"address"},{"name":"salt","type":"bytes32","internalType":"bytes32"},{"name":"confirmationBlocks","type":"uint8","internalType":"uint8"},{"name":"attestedBitcoinBlockHeight","type":"uint64","internalType":"uint64"}]},{"name":"storageStrategy","type":"uint8","internalType":"enum Types.StorageStrategy"},{"name":"localOverwriteIndex","type":"uint16","internalType":"uint16"},{"name":"swapBitcoinBlockLeaf","type":"tuple","internalType":"struct Types.BlockLeaf","components":[{"name":"blockHash","type":"bytes32","internalType":"bytes32"},{"name":"height","type":"uint32","internalType":"uint32"},{"name":"cumulativeChainwork","type":"uint256","internalType":"uint256"}]},{"name":"swapBitcoinBlockSiblings","type":"bytes32[]","internalType":"bytes32[]"},{"name":"swapBitcoinBlockPeaks","type":"bytes32[]","internalType":"bytes32[]"}]},{"name":"overwriteSwaps","type":"tuple[]","internalType":"struct Types.ProposedSwap[]","components":[{"name":"swapIndex","type":"uint256","internalType":"uint256"},{"name":"depositVaultCommitment","type":"bytes32","internalType":"bytes32"},{"name":"swapBitcoinBlockHash","type":"bytes32","internalType":"bytes32"},{"name":"confirmationBlocks","type":"uint8","internalType":"uint8"},{"name":"liquidityUnlockTimestamp","type":"uint64","internalType":"uint64"},{"name":"specifiedPayoutAddress","type":"address","internalType":"address"},{"name":"totalSwapFee","type":"uint256","internalType":"uint256"},{"name":"totalSwapOutput","type":"uint256","internalType":"uint256"},{"name":"state","type":"uint8","internalType":"enum Types.SwapState"}]},{"name":"proof","type":"bytes","internalType":"bytes"}],"outputs":[],"stateMutability":"nonpayable"},{"type":"function","name":"submitBatchSwapProofWithLightClientUpdate","inputs":[{"name":"swapParams","type":"tuple[]","internalType":"struct Types.SubmitSwapProofParams[]","components":[{"name":"swapBitcoinTxid","type":"bytes32","internalType":"bytes32"},{"name":"vault","type":"tuple","internalType":"struct Types.DepositVault","components":[{"name":"vaultIndex","type":"uint256","internalType":"uint256"},{"name":"depositTimestamp","type":"uint64","internalType":"uint64"},{"name":"depositAmount","type":"uint256","internalType":"uint256"},{"name":"depositFee","type":"uint256","internalType":"uint256"},{"name":"expectedSats","type":"uint64","internalType":"uint64"},{"name":"btcPayoutScriptPubKey","type":"bytes25","internalType":"bytes25"},{"name":"specifiedPayoutAddress","type":"address","internalType":"address"},{"name":"ownerAddress","type":"address","internalType":"address"},{"name":"salt","type":"bytes32","internalType":"bytes32"},{"name":"confirmationBlocks","type":"uint8","internalType":"uint8"},{"name":"attestedBitcoinBlockHeight","type":"uint64","internalType":"uint64"}]},{"name":"storageStrategy","type":"uint8","internalType":"enum Types.StorageStrategy"},{"name":"localOverwriteIndex","type":"uint16","internalType":"uint16"},{"name":"swapBitcoinBlockLeaf","type":"tuple","internalType":"struct Types.BlockLeaf","components":[{"name":"blockHash","type":"bytes32","internalType":"bytes32"},{"name":"height","type":"uint32","internalType":"uint32"},{"name":"cumulativeChainwork","type":"uint256","internalType":"uint256"}]},{"name":"swapBitcoinBlockSiblings","type":"bytes32[]","internalType":"bytes32[]"},{"name":"swapBitcoinBlockPeaks","type":"bytes32[]","internalType":"bytes32[]"}]},{"name":"blockProofParams","type":"tuple","internalType":"struct Types.BlockProofParams","components":[{"name":"priorMmrRoot","type":"bytes32","internalType":"bytes32"},{"name":"newMmrRoot","type":"bytes32","internalType":"bytes32"},{"name":"compressedBlockLeaves","type":"bytes","internalType":"bytes"},{"name":"tipBlockLeaf","type":"tuple","internalType":"struct Types.BlockLeaf","components":[{"name":"blockHash","type":"bytes32","internalType":"bytes32"},{"name":"height","type":"uint32","internalType":"uint32"},{"name":"cumulativeChainwork","type":"uint256","internalType":"uint256"}]}]},{"name":"overwriteSwaps","type":"tuple[]","internalType":"struct Types.ProposedSwap[]","components":[{"name":"swapIndex","type":"uint256","internalType":"uint256"},{"name":"depositVaultCommitment","type":"bytes32","internalType":"bytes32"},{"name":"swapBitcoinBlockHash","type":"bytes32","internalType":"bytes32"},{"name":"confirmationBlocks","type":"uint8","internalType":"uint8"},{"name":"liquidityUnlockTimestamp","type":"uint64","internalType":"uint64"},{"name":"specifiedPayoutAddress","type":"address","internalType":"address"},{"name":"totalSwapFee","type":"uint256","internalType":"uint256"},{"name":"totalSwapOutput","type":"uint256","internalType":"uint256"},{"name":"state","type":"uint8","internalType":"enum Types.SwapState"}]},{"name":"proof","type":"bytes","internalType":"bytes"}],"outputs":[],"stateMutability":"nonpayable"},{"type":"function","name":"swapCommitments","inputs":[{"name":"","type":"uint256","internalType":"uint256"}],"outputs":[{"name":"","type":"bytes32","internalType":"bytes32"}],"stateMutability":"view"},{"type":"function","name":"updateLightClient","inputs":[{"name":"blockProofParams","type":"tuple","internalType":"struct Types.BlockProofParams","components":[{"name":"priorMmrRoot","type":"bytes32","internalType":"bytes32"},{"name":"newMmrRoot","type":"bytes32","internalType":"bytes32"},{"name":"compressedBlockLeaves","type":"bytes","internalType":"bytes"},{"name":"tipBlockLeaf","type":"tuple","internalType":"struct Types.BlockLeaf","components":[{"name":"blockHash","type":"bytes32","internalType":"bytes32"},{"name":"height","type":"uint32","internalType":"uint32"},{"name":"cumulativeChainwork","type":"uint256","internalType":"uint256"}]}]},{"name":"proof","type":"bytes","internalType":"bytes"}],"outputs":[],"stateMutability":"nonpayable"},{"type":"function","name":"vaultCommitments","inputs":[{"name":"","type":"uint256","internalType":"uint256"}],"outputs":[{"name":"","type":"bytes32","internalType":"bytes32"}],"stateMutability":"view"},{"type":"function","name":"withdrawLiquidity","inputs":[{"name":"vault","type":"tuple","internalType":"struct Types.DepositVault","components":[{"name":"vaultIndex","type":"uint256","internalType":"uint256"},{"name":"depositTimestamp","type":"uint64","internalType":"uint64"},{"name":"depositAmount","type":"uint256","internalType":"uint256"},{"name":"depositFee","type":"uint256","internalType":"uint256"},{"name":"expectedSats","type":"uint64","internalType":"uint64"},{"name":"btcPayoutScriptPubKey","type":"bytes25","internalType":"bytes25"},{"name":"specifiedPayoutAddress","type":"address","internalType":"address"},{"name":"ownerAddress","type":"address","internalType":"address"},{"name":"salt","type":"bytes32","internalType":"bytes32"},{"name":"confirmationBlocks","type":"uint8","internalType":"uint8"},{"name":"attestedBitcoinBlockHeight","type":"uint64","internalType":"uint64"}]}],"outputs":[],"stateMutability":"nonpayable"},{"type":"event","name":"BitcoinLightClientUpdated","inputs":[{"name":"priorMmrRoot","type":"bytes32","indexed":false,"internalType":"bytes32"},{"name":"newMmrRoot","type":"bytes32","indexed":false,"internalType":"bytes32"},{"name":"compressedBlockLeaves","type":"bytes","indexed":false,"internalType":"bytes"}],"anonymous":false},{"type":"event","name":"SwapsUpdated","inputs":[{"name":"swaps","type":"tuple[]","indexed":false,"internalType":"struct Types.ProposedSwap[]","components":[{"name":"swapIndex","type":"uint256","internalType":"uint256"},{"name":"depositVaultCommitment","type":"bytes32","internalType":"bytes32"},{"name":"swapBitcoinBlockHash","type":"bytes32","internalType":"bytes32"},{"name":"confirmationBlocks","type":"uint8","internalType":"uint8"},{"name":"liquidityUnlockTimestamp","type":"uint64","internalType":"uint64"},{"name":"specifiedPayoutAddress","type":"address","internalType":"address"},{"name":"totalSwapFee","type":"uint256","internalType":"uint256"},{"name":"totalSwapOutput","type":"uint256","internalType":"uint256"},{"name":"state","type":"uint8","internalType":"enum Types.SwapState"}]},{"name":"context","type":"uint8","indexed":false,"internalType":"enum Types.SwapUpdateContext"}],"anonymous":false},{"type":"event","name":"VaultsUpdated","inputs":[{"name":"vaults","type":"tuple[]","indexed":false,"internalType":"struct Types.DepositVault[]","components":[{"name":"vaultIndex","type":"uint256","internalType":"uint256"},{"name":"depositTimestamp","type":"uint64","internalType":"uint64"},{"name":"depositAmount","type":"uint256","internalType":"uint256"},{"name":"depositFee","type":"uint256","internalType":"uint256"},{"name":"expectedSats","type":"uint64","internalType":"uint64"},{"name":"btcPayoutScriptPubKey","type":"bytes25","internalType":"bytes25"},{"name":"specifiedPayoutAddress","type":"address","internalType":"address"},{"name":"ownerAddress","type":"address","internalType":"address"},{"name":"salt","type":"bytes32","internalType":"bytes32"},{"name":"confirmationBlocks","type":"uint8","internalType":"uint8"},{"name":"attestedBitcoinBlockHeight","type":"uint64","internalType":"uint64"}]},{"name":"context","type":"uint8","indexed":false,"internalType":"enum Types.VaultUpdateContext"}],"anonymous":false},{"type":"error","name":"CannotOverwriteOngoingSwap","inputs":[]},{"type":"error","name":"ChainworkTooLow","inputs":[]},{"type":"error","name":"CheckpointNotEstablished","inputs":[]},{"type":"error","name":"DepositAmountTooLow","inputs":[]},{"type":"error","name":"DepositStillLocked","inputs":[]},{"type":"error","name":"DepositVaultDoesNotExist","inputs":[]},{"type":"error","name":"DepositVaultNotOverwritable","inputs":[]},{"type":"error","name":"EmptyDepositVault","inputs":[]},{"type":"error","name":"InvalidBlockInclusionProof","inputs":[]},{"type":"error","name":"InvalidConfirmationBlockDelta","inputs":[]},{"type":"error","name":"InvalidScriptPubKey","inputs":[]},{"type":"error","name":"InvalidSwapBlockInclusionProof","inputs":[]},{"type":"error","name":"InvalidVaultCommitment","inputs":[]},{"type":"error","name":"NoFeeToPay","inputs":[]},{"type":"error","name":"NoSwapsToSubmit","inputs":[]},{"type":"error","name":"NotEnoughConfirmations","inputs":[]},{"type":"error","name":"SatOutputTooLow","inputs":[]},{"type":"error","name":"StillInChallengePeriod","inputs":[]},{"type":"error","name":"SwapDoesNotExist","inputs":[]},{"type":"error","name":"SwapNotProved","inputs":[]},{"type":"error","name":"TransferFailed","inputs":[]}],"bytecode":{"object":"0x61012080604052346102235780612daa803803809161001e828561024e565b83398101039061010082126102235780519061003c60208201610271565b9160408201519161004f60608201610271565b93606061005e60808401610271565b96609f1901126102235760405191606083016001600160401b0381118482101761023a5760405260a0810151835260c08101519063ffffffff821682036102235760e091602085015201516040830152825f55604051604081019381851060018060401b0386111761023a5760406020946003926004978352600185528685019182525f5260018652815f209351151560ff8019865416911617845551805160018501556002840163ffffffff878301511663ffffffff19825416179055015191015560018060a01b0316806080526040519283809263313ce56760e01b82525afa90811561022f575f916101ef575b5060a05260c0526001600160a01b031660e05261010052604051612b24908161028682396080518181816101b401528181610cd401528181610d710152818161134c01526128a4015260a0518161075f015260c05181818161040701528181610646015281816108e50152610bca015260e0518181816105bc0152818161080601528181610b56015261118901526101005181818161017801526104400152f35b90506020813d602011610227575b8161020a6020938361024e565b81010312610223575160ff81168103610223575f61014e565b5f80fd5b3d91506101fd565b6040513d5f823e3d90fd5b634e487b7160e01b5f52604160045260245ffd5b601f909101601f19168101906001600160401b0382119082101761023a57604052565b51906001600160a01b03821682036102235756fe60a06040526004361015610011575f80fd5b5f5f3560e01c806304d17775146111b857806308c84e701461117457806309d8a82914610d0357806313f6658714610cbf5780631cbeebeb14610c82578063365df23314610c595780633a6d63ea14610a4d5780634276994614610983578063592b6649146107835780635b7f415c14610745578063640179d8146106ed5780636ddd42f81461048e5780637ed34a361461046f578063898aeacb1461042a5780638d5ca052146103ef578063992284a6146103d15780639f63bd97146103b2578063a6a0f96e14610378578063ca18100d1461035a578063d21ddc611461033d578063e85062ac146102b1578063eb5e91ff1461024d578063f23a94a9146101425763f5095c1614610122575f80fd5b3461013f578060031936011261013f576020600254604051908152f35b80fd5b503461013f578060031936011261013f57600454801561023e57600482815560405163a9059cbb60e01b81526001600160a01b037f00000000000000000000000000000000000000000000000000000000000000001691810191909152602481019190915260208180604481010381857f00000000000000000000000000000000000000000000000000000000000000006001600160a01b03165af1908115610233578291610204575b50156101f55780f35b6312171d8360e31b8152600490fd5b610226915060203d60201161022c575b61021e81836115f1565b8101906117e6565b5f6101ec565b503d610214565b6040513d84823e3d90fd5b630fbcad4560e21b8252600482fd5b503461013f57602036600319011261013f57604060809160043581526001602052206102af610283600160ff8454169301611686565b60405192151583526020830190604080918051845263ffffffff60208201511660208501520151910152565bf35b503461013f576102c036611652565b60208101908135813561017e198336030181121561033957826102ea836060936102f29601612607565b949095611dd1565b50013561032a57610327929161030a6103229261149d565b90919082549060031b91821b915f19901b1916179055565b6127f6565b80f35b630faaae6760e31b8452600484fd5b8480fd5b503461013f578060031936011261013f5760209054604051908152f35b503461013f578060031936011261013f576020600454604051908152f35b503461013f57602036600319011261013f576004359060025482101561013f5760206103a38361149d565b90549060031b1c604051908152f35b503461013f57602036600319011261013f5760206103a360043561149d565b503461013f578060031936011261013f576020600354604051908152f35b503461013f578060031936011261013f5760206040517f00000000000000000000000000000000000000000000000000000000000000008152f35b503461013f578060031936011261013f576040517f00000000000000000000000000000000000000000000000000000000000000006001600160a01b03168152602090f35b503461013f57602036600319011261013f5760206103a36004356114c9565b503461013f57608036600319011261013f576004356001600160401b0381116106c9576104bf90369060040161146d565b90602435906001600160401b0382116106e957816004019260c06003198436030112610339576044356001600160401b0381116106e5576105049036906004016114f6565b916064356001600160401b0381116106e157610524903690600401611527565b929094873594602488013592606489019460448a01996105448b8d611bda565b61054e368a611612565b9161055a92898d6124b8565b60840161056690611a12565b9361057094611f5e565b9661057b9198611bda565b369061058692611c0c565b80519060200120906040519461059b86611583565b855260208501526040840152366105b191611612565b6060830152604051937f00000000000000000000000000000000000000000000000000000000000000006001600160a01b0316906105ee86611554565b85610615946106239260028b99526020830152604082015260405194859160208301611c6f565b03601f1981018552846115f1565b803b156103395761066e9385936040519586948593849363020a49e360e51b85527f000000000000000000000000000000000000000000000000000000000000000060048601611d4e565b03915afa8015610233576106b4575b506040517fe8b89fd0756cdb35ef6d9ff605cca13c890bbd62d2befac12cdf4cf4d3e73a7290806106ae8582611b72565b0390a180f35b816106be916115f1565b6106c957815f61067d565b5080fd5b634e487b7160e01b5f52602160045260245ffd5b8780fd5b8580fd5b8380fd5b503461013f576107086106ff36611652565b60025490612607565b600254600160401b81101561073157610327929161030a826001610322940160025560026114e1565b634e487b7160e01b84526041600452602484fd5b503461013f578060031936011261013f57602060405160ff7f0000000000000000000000000000000000000000000000000000000000000000168152f35b503461013f57604036600319011261013f576004356001600160401b0381116106c957806004019060c0600319823603011261097f576024356001600160401b0381116106e9576107d8903690600401611527565b909160448101856107f36107ec8388611bda565b3691611c0c565b8051602090910120946001600160a01b037f00000000000000000000000000000000000000000000000000000000000000001694610830836117fe565b9561083e60405197886115f1565b838752601f1961084d856117fe565b01845b81811061095d57505090610615916108c28a3598606460248a013599019a6040519061087b82611583565b8b82528a60208301526040820152610893368d611612565b6060820152604051916108a583611554565b600183526020830152604082015260405194859160208301611c6f565b803b156103395761090d9385936040519586948593849363020a49e360e51b85527f000000000000000000000000000000000000000000000000000000000000000060048601611d4e565b03915afa801561023357610940575b5061032761093a868686610930878c611bda565b9490933690611612565b916124b8565b8161094f9196959493966115f1565b6106e557909192855f61091c565b602091929394955061096d611c51565b82828b01015201908a94939291610850565b8280fd5b503461013f57366003190160a081126106c95760601361013f576040516109a981611554565b600435815260243563ffffffff8116810361097f57602082015260443560408201526064356001600160401b03811161097f576109ea90369060040161146d565b906084356001600160401b038111610339579160209491610a13610a439594369060040161146d565b929091610a3b610a365f545f52600160205263ffffffff600260405f2001541690565b611bc2565b9454956123b3565b6040519015158152f35b5034610c55576060366003190112610c55576004356001600160401b038111610c5557610a7e90369060040161146d565b906024356001600160401b038111610c5557610a9e9036906004016114f6565b604435916001600160401b038311610c5557610ac1610ae6933690600401611527565b959094610ae15f545f52600160205263ffffffff600260405f2001541690565b611f5e565b9092604051610af481611583565b5f81525f60208201525f60408201526060610b0d611c51565b91015260405191610b1d83611554565b5f83525f60208401525f604084015260405192610b3984611583565b5f84525f60208501525f6040850152606084015260018060a01b037f00000000000000000000000000000000000000000000000000000000000000001690604051610b8381611554565b61061594610ba7925f83526020830152604082015260405194859160208301611c6f565b803b15610c5557610bf2935f936040519586948593849363020a49e360e51b85527f000000000000000000000000000000000000000000000000000000000000000060048601611d4e565b03915afa8015610c4a57610c33575b506106ae7fe8b89fd0756cdb35ef6d9ff605cca13c890bbd62d2befac12cdf4cf4d3e73a729160405191829182611b72565b610c409192505f906115f1565b5f906106ae610c01565b6040513d5f823e3d90fd5b5f80fd5b34610c55576020366003190112610c5557600435600354811015610c55576103a36020916114c9565b34610c55575f366003190112610c55576020610cb15f545f52600160205263ffffffff600260405f2001541690565b63ffffffff60405191168152f35b34610c55575f366003190112610c55576040517f00000000000000000000000000000000000000000000000000000000000000006001600160a01b03168152602090f35b34610c55576020366003190112610c55576004356001600160401b038111610c5557610d3390369060040161146d565b610d3c81611969565b90610d46816117fe565b92610d5460405194856115f1565b818452601f19610d63836117fe565b015f5b81811061115d5750507f00000000000000000000000000000000000000000000000000000000000000006001600160a01b03165f5b838110610e8c578585604051604081016040825282518091526020606083019301905f5b818110610e6b57505050807fe8b89fd0756cdb35ef6d9ff605cca13c890bbd62d2befac12cdf4cf4d3e73a7292600160208301520390a1604051604081016040825282518091526020606083019301905f5b818110610e4a57505050807fabae29d2be997f80e9a4d0baeda7e82a9a341ffe6717cf78aa348afaae370e1d92600260208301520390a1005b909193602061016082610e6060019489516118c7565b019501929101610e11565b909193602061012082610e816001948951611af5565b019501929101610dbf565b610e9f610e9a8286866119ef565b611e12565b50610100610eae8286866119ef565b01356003811015610c5557600190610ec58161195f565b0361114e576001600160401b03610ee86080610ee28488886119ef565b016116b4565b16421061113f57610f066101a0610f008387876119ef565b01611dd1565b6020610f138387876119ef565b01350361113057610fc86040610f2a8387876119ef565b0135610f43610140610f3d8589896119ef565b01611a12565b63ffffffff610120610f56868a8a6119ef565b01359160405193610f6685611554565b845216602083015260408201528585610f8e610f838684846119ef565b610160810190611a23565b9060ff610fc16060610fbb8a610fb3610fa8828b8b6119ef565b610180810190611a23565b9990986119ef565b016116c8565b1694611e4f565b610fe0366101a0610fda8488886119ef565b0161170c565b5f60408201525f6060820152611002610ff882611dea565b61030a835161149d565b61100c82886118b3565b5261101781876118b3565b5061102c366110278387876119ef565b611a58565b90600261010083015261105561104183611f1c565b61030a61104f8489896119ef565b356114c9565b61106f60c06110658388886119ef565b0135600454611ae8565b6004556110ca602061108d60a0611087858a8a6119ef565b016117d2565b60e061109a858a8a6119ef565b60405163a9059cbb60e01b81526001600160a01b0390931660048401520135602482015291829081906044820190565b03815f885af1908115610c4a575f91611112575b5015611103576001916110f182886118b3565b526110fc81876118b3565b5001610d9b565b6312171d8360e31b5f5260045ffd5b61112a915060203d811161022c5761021e81836115f1565b886110de565b63ceb1159d60e01b5f5260045ffd5b632d5c37f560e21b5f5260045ffd5b6322fc5d4360e21b5f5260045ffd5b602090611168611815565b82828901015201610d66565b34610c55575f366003190112610c55576040517f00000000000000000000000000000000000000000000000000000000000000006001600160a01b03168152602090f35b34610c555736600319016101608112610c55576111d3611d92565b5060443590811561145e57602435916001600160401b03831691828403610c5557610124359260ff8416808503610c5557611c20029063ffffffff821691820361144a57016001600160401b03811161144a576001600160401b0316421061143b5761016013610c55576040519261124a8461159e565b600435845260208401526040830190808252606084019260643584526084356001600160401b0381168103610c5557608086015260a43566ffffffffffffff1981168103610c555760a086015260c4356001600160a01b0381168103610c555760c086015260e435906001600160a01b0382168203610c55578160e08701526101043561010087015261012086015261014435926001600160401b0384168403610c5557611347945f80926020966101408a0152525261131661130c86611dea565b61030a875161149d565b60405163a9059cbb60e01b81526001600160a01b039091166004820152602481019190915291829081906044820190565b03815f7f00000000000000000000000000000000000000000000000000000000000000006001600160a01b03165af1908115610c4a575f9161141c575b501561110357611392611866565b9061139c826118a6565b526113a6816118a6565b50604051604081016040825282518091526020606083019301905f5b8181106113fb57505050807fabae29d2be997f80e9a4d0baeda7e82a9a341ffe6717cf78aa348afaae370e1d92600160208301520390a1005b90919360206101608261141160019489516118c7565b0195019291016113c2565b611435915060203d60201161022c5761021e81836115f1565b82611384565b6301b512a960e21b5f5260045ffd5b634e487b7160e01b5f52601160045260245ffd5b637941e9ad60e01b5f5260045ffd5b9181601f84011215610c55578235916001600160401b038311610c55576020808501948460051b010111610c5557565b6002548110156114b55760025f5260205f2001905f90565b634e487b7160e01b5f52603260045260245ffd5b6003548110156114b55760035f5260205f2001905f90565b80548210156114b5575f5260205f2001905f90565b9181601f84011215610c55578235916001600160401b038311610c55576020808501946101208502010111610c5557565b9181601f84011215610c55578235916001600160401b038311610c555760208381860195010111610c5557565b606081019081106001600160401b0382111761156f57604052565b634e487b7160e01b5f52604160045260245ffd5b608081019081106001600160401b0382111761156f57604052565b61016081019081106001600160401b0382111761156f57604052565b61012081019081106001600160401b0382111761156f57604052565b604081019081106001600160401b0382111761156f57604052565b90601f801991011681019081106001600160401b0382111761156f57604052565b9190826060910312610c555760405161162a81611554565b809280358252602081013563ffffffff81168103610c55576020830152604090810135910152565b6020600319820112610c5557600435906001600160401b038211610c5557610180908290036003190112610c555760040190565b9060405161169381611554565b6040600282948054845263ffffffff60018201541660208501520154910152565b356001600160401b0381168103610c555790565b3560ff81168103610c555790565b35906001600160401b0382168203610c5557565b35906001600160a01b0382168203610c5557565b359060ff82168203610c5557565b919082610160910312610c55576040516117258161159e565b809280358252611737602082016116d6565b6020830152604081013560408301526060810135606083015261175c608082016116d6565b608083015260a08101359066ffffffffffffff1982168203610c55576101406117cd91819360a086015261179260c082016116ea565b60c08601526117a360e082016116ea565b60e08601526101008101356101008601526117c161012082016116fe565b610120860152016116d6565b910152565b356001600160a01b0381168103610c555790565b90816020910312610c5557518015158103610c555790565b6001600160401b03811161156f5760051b60200190565b604051906118228261159e565b5f610140838281528260208201528260408201528260608201528260808201528260a08201528260c08201528260e082015282610100820152826101208201520152565b6040805190919061187783826115f1565b6001815291601f1901825f5b82811061188f57505050565b60209061189a611815565b82828501015201611883565b8051156114b55760200190565b80518210156114b55760209160051b010190565b6001600160401b03610140809280518552826020820151166020860152604081015160408601526060810151606086015282608082015116608086015266ffffffffffffff1960a08201511660a086015260018060a01b0360c08201511660c086015260018060a01b0360e08201511660e086015261010081015161010086015260ff61012082015116610120860152015116910152565b600311156106cd57565b90611973826117fe565b61198060405191826115f1565b8281528092611991601f19916117fe565b01905f5b8281106119a157505050565b6020906040516119b0816115ba565b5f81525f838201525f60408201525f60608201525f60808201525f60a08201525f60c08201525f60e08201525f61010082015282828501015201611995565b91908110156114b55760051b8101359061031e1981360301821215610c55570190565b3563ffffffff81168103610c555790565b903590601e1981360301821215610c5557018035906001600160401b038211610c5557602001918160051b36038313610c5557565b919082610120910312610c5557604051611a71816115ba565b6101008193803583526020810135602084015260408101356040840152611a9a606082016116fe565b6060840152611aab608082016116d6565b6080840152611abc60a082016116ea565b60a084015260c081013560c084015260e081013560e08401520135906003821015610c55576101000152565b9190820180921161144a57565b610100809180518452602081015160208501526040810151604085015260ff60608201511660608501526001600160401b03608082015116608085015260018060a01b0360a08201511660a085015260c081015160c085015260e081015160e0850152015191611b648361195f565b0152565b600211156106cd57565b9190604083016040845281518091526020606085019201905f5b818110611ba15750919391505060205f910152565b909192602061012082611bb76001948851611af5565b019401929101611b8c565b63ffffffff60019116019063ffffffff821161144a57565b903590601e1981360301821215610c5557018035906001600160401b038211610c5557602001918136038313610c5557565b9291926001600160401b03821161156f5760405191611c35601f8201601f1916602001846115f1565b829481845281830111610c55578281602093845f960137010152565b60405190611c5e82611554565b5f6040838281528260208201520152565b602081526101208101918051611c848161195f565b602083015260208101519261010060408401528351809152602061014084019401905f5b818110611d00575050509060c060606040611cfd94015180518285015260208101516080850152604081015160a08501520151910190604080918051845263ffffffff60208201511660208501520151910152565b90565b9091946020606060019260408951805183528481015185840152015160408201520196019101919091611ca8565b908060209392818452848401375f828201840152601f01601f1916010190565b6020611cfd959360809383526060828401528051918291826060860152018484015e5f838284010152601f8019910116810190604083828403019101520191611d2e565b611da5611da036600461170c565b611dea565b611db260043560026114e1565b90549060031b1c8103611dc25790565b63cd1d240d60e01b5f5260045ffd5b611db2611de1611da0368461170c565b913560026114e1565b604051611dfb6020820180936118c7565b6101608152611e0c610180826115f1565b51902090565b611e30611e27611e223684611a58565b611f1c565b913560036114e1565b90549060031b1c8103611e405790565b631a40316d60e01b5f5260045ffd5b9463ffffffff169390919060028510611f0d57611e9093611e86610a365f545f52600160205263ffffffff600260405f2001541690565b925f5494886123b3565b15611efe5763ffffffff6020611eb95f545f52600160205263ffffffff600260405f2001541690565b93015116905f190163ffffffff811161144a5763ffffffff160163ffffffff811161144a5763ffffffff809116911610611eef57565b635c9885ab60e11b5f5260045ffd5b637344e0b760e01b5f5260045ffd5b638e082f6760e01b5f5260045ffd5b604051611f2d602082018093611af5565b6101208152611e0c610140826115f1565b3561ffff81168103610c555790565b91908110156114b557610120020190565b90939193608052831561239457611f74846117fe565b611f8160405191826115f1565b848152601f19611f90866117fe565b015f5b81811061237d5750508091611fa786611969565b92600354975f985b888a10156123715780998060051b608051013561025e19608051360301811215610c555760026101808260805101013510159283610c5557611ff961018083608051010135611b68565b608051820161018001356122ce575f19811461144a576001019b5b6020826080510101612026368261170c565b606060408201519101908151918260011b928084046002149015171561144a5761205b916120559151906125fa565b92611dd1565b8a6120fe6101c087608051010161209f8982359460405161207b81611554565b8b6080510135815286602082015287604082015261209983836118b3565b526118b3565b506120f96120b96102208a60805101018a60805101611a23565b6080519193916120d0908c01610240810190611a23565b916101408d60805101019560ff6120f16120e9896116c8565b963690611612565b951694611e4f565b6116c8565b6001600160401b036121176101608960805101016116b4565b1663ffffffff8d16036001600160401b03811161144a576001600160401b03166085026001600160401b03811690810361144a5761e3b3016001600160401b03811161144a576001600160401b036103e88161012c9316041601906001600160401b03821161144a576001600160401b036121968160ff941642611ae8565b16926121a860e08a60805101016117d2565b94604051986121b68a6115ba565b89526020890152604088015216606086015260808501526001600160a01b031660a084015260c083015260e082015260016101008201526121f7838a6118b3565b5261220282896118b3565b50612216612210838a6118b3565b51611f1c565b92610c5557888a9161223061018082608051010135611b68565b6080518101610180013561226e57505050600354600160401b81101561156f5760019261030a8285612267940160035560036114e1565b0198611faf565b906001949161228561018082608051010135611b68565b85610180826080510101351461229f575b50505050612267565b6122c59361030a9261ffff6122be6101a061104f956080510101611f3e565b1691611f4d565b885f8981612296565b9b92505f926122e561018083608051010135611b68565b6001610180836080510101350361201457506101a0816080510101612314610e9a8c8c61ffff6122be86611f3e565b506101006123298c8c61ffff6122be86611f3e565b01356003811015610c55576002906123408161195f565b036123625761ffff61235461235c92611f3e565b168a8c611f4d565b35612014565b63a5f611fd60e01b5f5260045ffd5b50955095505050935050565b602090612388611c51565b82828601015201611f93565b6308d98c4f60e01b5f5260045ffd5b91908110156114b55760051b0190565b919093929363ffffffff6123ea84516020860195604084885116910151919091606092604051928352602083015260408201522090565b935116905f925b80841061246757505050505f905f5b838110612441575b5050156124395761241891612924565b9081156124325763ffffffff165f5260205260405f201490565b5050505f90565b505050505f90565b8161244d8286886123a3565b351461245b57600101612400565b50505060015f80612408565b9293600183811c94929381160361249a576124838583856123a3565b355f52602052600160405f20945b019291906123f1565b6124a58583856123a3565b35905f52602052600160405f2094612491565b9190925f548085146125dd57835f52600160205260405f206124f16001604051926124e2846115d6565b60ff8154161515845201611686565b602082015251156125ce575f526001602052600360405f2001546040830151106125bf577f6768baae39ee0e687f7c44f7006a147b15ffb56031969140096fe95461eea2fd946125ba926003604080519261254b846115d6565b6001845260208401908152885f526001602052815f209351151560ff8019865416911617845551805160018501556002840163ffffffff60208301511663ffffffff198254161790550151910155845f5560405194859485526020850152606060408501526060840191611d2e565b0390a1565b6307800bf560e21b5f5260045ffd5b63e1965c6560e01b5f5260045ffd5b505050505050565b3566ffffffffffffff1981168103610c555790565b9190820391821161144a57565b919091612612611815565b5060408101356107d181106127e75760608201906103e86001600160401b0361263a846116b4565b16106127d8576080830192612656612651856125e5565b612975565b156127c9576126b361266c610140830183611a23565b9061267b610160850185611a23565b906126893660e08801611612565b936126aa610a365f545f52600160205263ffffffff600260405f2001541690565b935f54956123b3565b156127ba5760058202918083046005148115171561144a5763ffffffff946126f46126ee6126e861271060ff970480956125fa565b966116b4565b916125e5565b612700602085016117d2565b906001600160401b03612712866117d2565b93612736468d60a08a01359091606092604051928352602083015260408201522090565b9561275061010061274960c08b016116c8565b9901611a12565b99604080519e8f906127618261159e565b81524286166020820152015260608d01521660808b015266ffffffffffffff191660a08a01526001600160a01b0390811660c08a01521660e08801526101008701521661012085015216610140830152611cfd82611dea565b634784fd3160e01b5f5260045ffd5b63fad7db0760e01b5f5260045ffd5b63fde5943160e01b5f5260045ffd5b6355fcd02760e01b5f5260045ffd5b6127fe611866565b9080612809836118a6565b52612813826118a6565b5060405191604083016040845281518091526020606085019201905f5b8181106129035750505082807fabae29d2be997f80e9a4d0baeda7e82a9a341ffe6717cf78aa348afaae370e1d925f602061287a9701520390a16060604082015191015190611ae8565b6040516323b872dd60e01b815233600482015230602482015260448101919091526020816064815f7f00000000000000000000000000000000000000000000000000000000000000006001600160a01b03165af1908115610c4a575f916128e4575b501561110357565b6128fd915060203d60201161022c5761021e81836115f1565b5f6128dc565b90919260206101608261291960019488516118c7565b019401929101612830565b811561296f575f1982019180831161144a576129418382846123a3565b3592805b61294f5750505090565b5f19019261295e8483856123a3565b355f526020528260405f2093612945565b50505f90565b5f81901a60f81b6001600160f81b031916806129d0575069ffffffffffffffffffff19165f81901a60f81b6001600160f81b0319161590816129b5575090565b60011a60f81b6001600160f81b031916600560fa1b14919050565b60a960f81b8103612a49575068ffffffffffffffffff19165f81901a60f81b6001600160f81b03191660a960f81b149081612a2a575b81612a0f575090565b60161a60f81b6001600160f81b031916608760f81b14919050565b600181901a60f81b6001600160f81b031916600560fa1b149150612a06565b603b60f91b149081612a5b5750505f90565b81612acf575b81612ab0575b81612a91575b81612a76575090565b60181a60f81b6001600160f81b031916602b60fa1b14919050565b601781901a60f81b6001600160f81b031916601160fb1b149150612a6d565b600281901a60f81b6001600160f81b031916600560fa1b149150612a67565b600181901a60f81b6001600160f81b03191660a960f81b149150612a6156fea264697066735822122006ae5c7dbd8e61b07ec0cd04520ac7829724f9f94de6656b9a7ea6365450dac064736f6c634300081c0033","linkReferences":{}},"methodIdentifiers":{"CIRCUIT_VERIFICATION_KEY()":"8d5ca052","DEPOSIT_TOKEN()":"13f66587","FEE_ROUTER_ADDRESS()":"898aeacb","TOKEN_DECIMALS()":"5b7f415c","VERIFIER()":"08c84e70","accumulatedFeeBalance()":"ca18100d","checkpoints(bytes32)":"eb5e91ff","depositLiquidity((address,address,uint256,uint64,bytes25,bytes32,uint8,(bytes32,uint32,uint256),bytes32[],bytes32[]))":"640179d8","depositLiquidityWithOverwrite(((address,address,uint256,uint64,bytes25,bytes32,uint8,(bytes32,uint32,uint256),bytes32[],bytes32[]),(uint256,uint64,uint256,uint256,uint64,bytes25,address,address,bytes32,uint8,uint64)))":"e85062ac","getLightClientHeight()":"1cbeebeb","getSwapCommitment(uint256)":"7ed34a36","getSwapCommitmentsLength()":"992284a6","getVaultCommitment(uint256)":"9f63bd97","getVaultCommitmentsLength()":"f5095c16","mmrRoot()":"d21ddc61","payoutToFeeRouter()":"f23a94a9","proveBlockInclusion((bytes32,uint32,uint256),bytes32[],bytes32[])":"42769946","releaseLiquidityBatch(((uint256,bytes32,bytes32,uint8,uint64,address,uint256,uint256,uint8),uint256,uint32,bytes32[],bytes32[],(uint256,uint64,uint256,uint256,uint64,bytes25,address,address,bytes32,uint8,uint64),uint32)[])":"09d8a829","submitBatchSwapProof((bytes32,(uint256,uint64,uint256,uint256,uint64,bytes25,address,address,bytes32,uint8,uint64),uint8,uint16,(bytes32,uint32,uint256),bytes32[],bytes32[])[],(uint256,bytes32,bytes32,uint8,uint64,address,uint256,uint256,uint8)[],bytes)":"3a6d63ea","submitBatchSwapProofWithLightClientUpdate((bytes32,(uint256,uint64,uint256,uint256,uint64,bytes25,address,address,bytes32,uint8,uint64),uint8,uint16,(bytes32,uint32,uint256),bytes32[],bytes32[])[],(bytes32,bytes32,bytes,(bytes32,uint32,uint256)),(uint256,bytes32,bytes32,uint8,uint64,address,uint256,uint256,uint8)[],bytes)":"6ddd42f8","swapCommitments(uint256)":"365df233","updateLightClient((bytes32,bytes32,bytes,(bytes32,uint32,uint256)),bytes)":"592b6649","vaultCommitments(uint256)":"a6a0f96e","withdrawLiquidity((uint256,uint64,uint256,uint256,uint64,bytes25,address,address,bytes32,uint8,uint64))":"04d17775"},"storageLayout":{"storage":[{"astId":41709,"contract":"src/RiftExchange.sol:RiftExchange","label":"mmrRoot","offset":0,"slot":"0","type":"t_bytes32"},{"astId":41714,"contract":"src/RiftExchange.sol:RiftExchange","label":"checkpoints","offset":0,"slot":"1","type":"t_mapping(t_bytes32,t_struct(BitcoinCheckpoint)44082_storage)"},{"astId":41955,"contract":"src/RiftExchange.sol:RiftExchange","label":"vaultCommitments","offset":0,"slot":"2","type":"t_array(t_bytes32)dyn_storage"},{"astId":41958,"contract":"src/RiftExchange.sol:RiftExchange","label":"swapCommitments","offset":0,"slot":"3","type":"t_array(t_bytes32)dyn_storage"},{"astId":41960,"contract":"src/RiftExchange.sol:RiftExchange","label":"accumulatedFeeBalance","offset":0,"slot":"4","type":"t_uint256"}],"types":{"t_array(t_bytes32)dyn_storage":{"encoding":"dynamic_array","label":"bytes32[]","numberOfBytes":"32","base":"t_bytes32"},"t_bool":{"encoding":"inplace","label":"bool","numberOfBytes":"1"},"t_bytes32":{"encoding":"inplace","label":"bytes32","numberOfBytes":"32"},"t_mapping(t_bytes32,t_struct(BitcoinCheckpoint)44082_storage)":{"encoding":"mapping","key":"t_bytes32","label":"mapping(bytes32 => struct Types.BitcoinCheckpoint)","numberOfBytes":"32","value":"t_struct(BitcoinCheckpoint)44082_storage"},"t_struct(BitcoinCheckpoint)44082_storage":{"encoding":"inplace","label":"struct Types.BitcoinCheckpoint","numberOfBytes":"128","members":[{"astId":44078,"contract":"src/RiftExchange.sol:RiftExchange","label":"established","offset":0,"slot":"0","type":"t_bool"},{"astId":44081,"contract":"src/RiftExchange.sol:RiftExchange","label":"tipBlockLeaf","offset":0,"slot":"1","type":"t_struct(BlockLeaf)43873_storage"}]},"t_struct(BlockLeaf)43873_storage":{"encoding":"inplace","label":"struct Types.BlockLeaf","numberOfBytes":"96","members":[{"astId":43868,"contract":"src/RiftExchange.sol:RiftExchange","label":"blockHash","offset":0,"slot":"0","type":"t_bytes32"},{"astId":43870,"contract":"src/RiftExchange.sol:RiftExchange","label":"height","offset":0,"slot":"1","type":"t_uint32"},{"astId":43872,"contract":"src/RiftExchange.sol:RiftExchange","label":"cumulativeChainwork","offset":0,"slot":"2","type":"t_uint256"}]},"t_uint256":{"encoding":"inplace","label":"uint256","numberOfBytes":"32"},"t_uint32":{"encoding":"inplace","label":"uint32","numberOfBytes":"4"}}},"id":39}