{"abi":[{"type":"constructor","inputs":[{"name":"_mmrRoot","type":"bytes32","internalType":"bytes32"},{"name":"_depositToken","type":"address","internalType":"address"},{"name":"_circuitVerificationKey","type":"bytes32","internalType":"bytes32"},{"name":"_verifier","type":"address","internalType":"address"},{"name":"_feeRouter","type":"address","internalType":"address"}],"stateMutability":"nonpayable"},{"type":"function","name":"CIRCUIT_VERIFICATION_KEY","inputs":[],"outputs":[{"name":"","type":"bytes32","internalType":"bytes32"}],"stateMutability":"view"},{"type":"function","name":"DEPOSIT_TOKEN","inputs":[],"outputs":[{"name":"","type":"address","internalType":"contract IERC20"}],"stateMutability":"view"},{"type":"function","name":"FEE_ROUTER_ADDRESS","inputs":[],"outputs":[{"name":"","type":"address","internalType":"address"}],"stateMutability":"view"},{"type":"function","name":"TOKEN_DECIMALS","inputs":[],"outputs":[{"name":"","type":"uint8","internalType":"uint8"}],"stateMutability":"view"},{"type":"function","name":"VERIFIER","inputs":[],"outputs":[{"name":"","type":"address","internalType":"contract ISP1Verifier"}],"stateMutability":"view"},{"type":"function","name":"_proveBlockInclusion","inputs":[{"name":"blockLeaf","type":"tuple","internalType":"struct Types.BlockLeaf","components":[{"name":"blockHash","type":"bytes32","internalType":"bytes32"},{"name":"height","type":"uint32","internalType":"uint32"},{"name":"cumulativeChainwork","type":"uint256","internalType":"uint256"}]},{"name":"siblings","type":"bytes32[]","internalType":"bytes32[]"},{"name":"peaks","type":"bytes32[]","internalType":"bytes32[]"},{"name":"tipBlockHeight","type":"uint32","internalType":"uint32"}],"outputs":[{"name":"","type":"bool","internalType":"bool"}],"stateMutability":"view"},{"type":"function","name":"_proveBlockInclusionAtTip","inputs":[{"name":"blockLeaf","type":"tuple","internalType":"struct Types.BlockLeaf","components":[{"name":"blockHash","type":"bytes32","internalType":"bytes32"},{"name":"height","type":"uint32","internalType":"uint32"},{"name":"cumulativeChainwork","type":"uint256","internalType":"uint256"}]},{"name":"siblings","type":"bytes32[]","internalType":"bytes32[]"},{"name":"peaks","type":"bytes32[]","internalType":"bytes32[]"}],"outputs":[{"name":"","type":"bool","internalType":"bool"}],"stateMutability":"view"},{"type":"function","name":"accumulatedFeeBalance","inputs":[],"outputs":[{"name":"","type":"uint256","internalType":"uint256"}],"stateMutability":"view"},{"type":"function","name":"depositLiquidity","inputs":[{"name":"params","type":"tuple","internalType":"struct Types.DepositLiquidityParams","components":[{"name":"specifiedPayoutAddress","type":"address","internalType":"address"},{"name":"depositAmount","type":"uint256","internalType":"uint256"},{"name":"expectedSats","type":"uint64","internalType":"uint64"},{"name":"btcPayoutScriptPubKey","type":"bytes22","internalType":"bytes22"},{"name":"depositSalt","type":"bytes32","internalType":"bytes32"},{"name":"confirmationBlocks","type":"uint8","internalType":"uint8"},{"name":"tipBlockLeaf","type":"tuple","internalType":"struct Types.BlockLeaf","components":[{"name":"blockHash","type":"bytes32","internalType":"bytes32"},{"name":"height","type":"uint32","internalType":"uint32"},{"name":"cumulativeChainwork","type":"uint256","internalType":"uint256"}]},{"name":"tipBlockSiblings","type":"bytes32[]","internalType":"bytes32[]"},{"name":"tipBlockPeaks","type":"bytes32[]","internalType":"bytes32[]"}]}],"outputs":[],"stateMutability":"nonpayable"},{"type":"function","name":"depositLiquidityWithOverwrite","inputs":[{"name":"params","type":"tuple","internalType":"struct Types.DepositLiquidityWithOverwriteParams","components":[{"name":"depositParams","type":"tuple","internalType":"struct Types.DepositLiquidityParams","components":[{"name":"specifiedPayoutAddress","type":"address","internalType":"address"},{"name":"depositAmount","type":"uint256","internalType":"uint256"},{"name":"expectedSats","type":"uint64","internalType":"uint64"},{"name":"btcPayoutScriptPubKey","type":"bytes22","internalType":"bytes22"},{"name":"depositSalt","type":"bytes32","internalType":"bytes32"},{"name":"confirmationBlocks","type":"uint8","internalType":"uint8"},{"name":"tipBlockLeaf","type":"tuple","internalType":"struct Types.BlockLeaf","components":[{"name":"blockHash","type":"bytes32","internalType":"bytes32"},{"name":"height","type":"uint32","internalType":"uint32"},{"name":"cumulativeChainwork","type":"uint256","internalType":"uint256"}]},{"name":"tipBlockSiblings","type":"bytes32[]","internalType":"bytes32[]"},{"name":"tipBlockPeaks","type":"bytes32[]","internalType":"bytes32[]"}]},{"name":"overwriteVault","type":"tuple","internalType":"struct Types.DepositVault","components":[{"name":"vaultIndex","type":"uint256","internalType":"uint256"},{"name":"depositTimestamp","type":"uint64","internalType":"uint64"},{"name":"depositAmount","type":"uint256","internalType":"uint256"},{"name":"depositFee","type":"uint256","internalType":"uint256"},{"name":"expectedSats","type":"uint64","internalType":"uint64"},{"name":"btcPayoutScriptPubKey","type":"bytes22","internalType":"bytes22"},{"name":"specifiedPayoutAddress","type":"address","internalType":"address"},{"name":"ownerAddress","type":"address","internalType":"address"},{"name":"salt","type":"bytes32","internalType":"bytes32"},{"name":"confirmationBlocks","type":"uint8","internalType":"uint8"},{"name":"attestedBitcoinBlockHeight","type":"uint64","internalType":"uint64"}]}]}],"outputs":[],"stateMutability":"nonpayable"},{"type":"function","name":"getSwapCommitment","inputs":[{"name":"swapIndex","type":"uint256","internalType":"uint256"}],"outputs":[{"name":"","type":"bytes32","internalType":"bytes32"}],"stateMutability":"view"},{"type":"function","name":"getSwapCommitmentsLength","inputs":[],"outputs":[{"name":"","type":"uint256","internalType":"uint256"}],"stateMutability":"view"},{"type":"function","name":"getVaultCommitment","inputs":[{"name":"vaultIndex","type":"uint256","internalType":"uint256"}],"outputs":[{"name":"","type":"bytes32","internalType":"bytes32"}],"stateMutability":"view"},{"type":"function","name":"getVaultCommitmentsLength","inputs":[],"outputs":[{"name":"","type":"uint256","internalType":"uint256"}],"stateMutability":"view"},{"type":"function","name":"mmrRoot","inputs":[],"outputs":[{"name":"","type":"bytes32","internalType":"bytes32"}],"stateMutability":"view"},{"type":"function","name":"payoutToFeeRouter","inputs":[],"outputs":[],"stateMutability":"nonpayable"},{"type":"function","name":"releaseLiquidity","inputs":[{"name":"params","type":"tuple","internalType":"struct Types.ReleaseLiquidityParams","components":[{"name":"swap","type":"tuple","internalType":"struct Types.ProposedSwap","components":[{"name":"swapIndex","type":"uint256","internalType":"uint256"},{"name":"depositVaultCommitment","type":"bytes32","internalType":"bytes32"},{"name":"swapBitcoinBlockHash","type":"bytes32","internalType":"bytes32"},{"name":"confirmationBlocks","type":"uint8","internalType":"uint8"},{"name":"liquidityUnlockTimestamp","type":"uint64","internalType":"uint64"},{"name":"specifiedPayoutAddress","type":"address","internalType":"address"},{"name":"totalSwapFee","type":"uint256","internalType":"uint256"},{"name":"totalSwapOutput","type":"uint256","internalType":"uint256"},{"name":"state","type":"uint8","internalType":"enum Types.SwapState"}]},{"name":"swapBlockChainwork","type":"uint256","internalType":"uint256"},{"name":"swapBlockHeight","type":"uint32","internalType":"uint32"},{"name":"bitcoinSwapBlockSiblings","type":"bytes32[]","internalType":"bytes32[]"},{"name":"bitcoinSwapBlockPeaks","type":"bytes32[]","internalType":"bytes32[]"},{"name":"bitcoinConfirmationBlockLeaf","type":"tuple","internalType":"struct Types.BlockLeaf","components":[{"name":"blockHash","type":"bytes32","internalType":"bytes32"},{"name":"height","type":"uint32","internalType":"uint32"},{"name":"cumulativeChainwork","type":"uint256","internalType":"uint256"}]},{"name":"bitcoinConfirmationBlockSiblings","type":"bytes32[]","internalType":"bytes32[]"},{"name":"bitcoinConfirmationBlockPeaks","type":"bytes32[]","internalType":"bytes32[]"},{"name":"utilizedVault","type":"tuple","internalType":"struct Types.DepositVault","components":[{"name":"vaultIndex","type":"uint256","internalType":"uint256"},{"name":"depositTimestamp","type":"uint64","internalType":"uint64"},{"name":"depositAmount","type":"uint256","internalType":"uint256"},{"name":"depositFee","type":"uint256","internalType":"uint256"},{"name":"expectedSats","type":"uint64","internalType":"uint64"},{"name":"btcPayoutScriptPubKey","type":"bytes22","internalType":"bytes22"},{"name":"specifiedPayoutAddress","type":"address","internalType":"address"},{"name":"ownerAddress","type":"address","internalType":"address"},{"name":"salt","type":"bytes32","internalType":"bytes32"},{"name":"confirmationBlocks","type":"uint8","internalType":"uint8"},{"name":"attestedBitcoinBlockHeight","type":"uint64","internalType":"uint64"}]},{"name":"tipBlockHeight","type":"uint32","internalType":"uint32"}]}],"outputs":[],"stateMutability":"nonpayable"},{"type":"function","name":"submitBatchSwapProof","inputs":[{"name":"swapParams","type":"tuple[]","internalType":"struct Types.SubmitSwapProofParams[]","components":[{"name":"swapBitcoinTxid","type":"bytes32","internalType":"bytes32"},{"name":"swapBitcoinBlockHash","type":"bytes32","internalType":"bytes32"},{"name":"vault","type":"tuple","internalType":"struct Types.DepositVault","components":[{"name":"vaultIndex","type":"uint256","internalType":"uint256"},{"name":"depositTimestamp","type":"uint64","internalType":"uint64"},{"name":"depositAmount","type":"uint256","internalType":"uint256"},{"name":"depositFee","type":"uint256","internalType":"uint256"},{"name":"expectedSats","type":"uint64","internalType":"uint64"},{"name":"btcPayoutScriptPubKey","type":"bytes22","internalType":"bytes22"},{"name":"specifiedPayoutAddress","type":"address","internalType":"address"},{"name":"ownerAddress","type":"address","internalType":"address"},{"name":"salt","type":"bytes32","internalType":"bytes32"},{"name":"confirmationBlocks","type":"uint8","internalType":"uint8"},{"name":"attestedBitcoinBlockHeight","type":"uint64","internalType":"uint64"}]},{"name":"storageStrategy","type":"uint8","internalType":"enum Types.StorageStrategy"},{"name":"localOverwriteIndex","type":"uint16","internalType":"uint16"}]},{"name":"blockProofParams","type":"tuple","internalType":"struct Types.BlockProofParams","components":[{"name":"priorMmrRoot","type":"bytes32","internalType":"bytes32"},{"name":"newMmrRoot","type":"bytes32","internalType":"bytes32"},{"name":"compressedBlockLeaves","type":"bytes","internalType":"bytes"},{"name":"tipBlockLeaf","type":"tuple","internalType":"struct Types.BlockLeaf","components":[{"name":"blockHash","type":"bytes32","internalType":"bytes32"},{"name":"height","type":"uint32","internalType":"uint32"},{"name":"cumulativeChainwork","type":"uint256","internalType":"uint256"}]},{"name":"tipBlockSiblings","type":"bytes32[]","internalType":"bytes32[]"},{"name":"tipBlockPeaks","type":"bytes32[]","internalType":"bytes32[]"}]},{"name":"overwriteSwaps","type":"tuple[]","internalType":"struct Types.ProposedSwap[]","components":[{"name":"swapIndex","type":"uint256","internalType":"uint256"},{"name":"depositVaultCommitment","type":"bytes32","internalType":"bytes32"},{"name":"swapBitcoinBlockHash","type":"bytes32","internalType":"bytes32"},{"name":"confirmationBlocks","type":"uint8","internalType":"uint8"},{"name":"liquidityUnlockTimestamp","type":"uint64","internalType":"uint64"},{"name":"specifiedPayoutAddress","type":"address","internalType":"address"},{"name":"totalSwapFee","type":"uint256","internalType":"uint256"},{"name":"totalSwapOutput","type":"uint256","internalType":"uint256"},{"name":"state","type":"uint8","internalType":"enum Types.SwapState"}]},{"name":"proof","type":"bytes","internalType":"bytes"}],"outputs":[],"stateMutability":"nonpayable"},{"type":"function","name":"swapCommitments","inputs":[{"name":"","type":"uint256","internalType":"uint256"}],"outputs":[{"name":"","type":"bytes32","internalType":"bytes32"}],"stateMutability":"view"},{"type":"function","name":"vaultCommitments","inputs":[{"name":"","type":"uint256","internalType":"uint256"}],"outputs":[{"name":"","type":"bytes32","internalType":"bytes32"}],"stateMutability":"view"},{"type":"function","name":"withdrawLiquidity","inputs":[{"name":"vault","type":"tuple","internalType":"struct Types.DepositVault","components":[{"name":"vaultIndex","type":"uint256","internalType":"uint256"},{"name":"depositTimestamp","type":"uint64","internalType":"uint64"},{"name":"depositAmount","type":"uint256","internalType":"uint256"},{"name":"depositFee","type":"uint256","internalType":"uint256"},{"name":"expectedSats","type":"uint64","internalType":"uint64"},{"name":"btcPayoutScriptPubKey","type":"bytes22","internalType":"bytes22"},{"name":"specifiedPayoutAddress","type":"address","internalType":"address"},{"name":"ownerAddress","type":"address","internalType":"address"},{"name":"salt","type":"bytes32","internalType":"bytes32"},{"name":"confirmationBlocks","type":"uint8","internalType":"uint8"},{"name":"attestedBitcoinBlockHeight","type":"uint64","internalType":"uint64"}]}],"outputs":[],"stateMutability":"nonpayable"},{"type":"event","name":"BlockTreeUpdated","inputs":[{"name":"treeRoot","type":"bytes32","indexed":false,"internalType":"bytes32"},{"name":"compressedBlockLeaves","type":"bytes","indexed":false,"internalType":"bytes"}],"anonymous":false},{"type":"event","name":"SwapsUpdated","inputs":[{"name":"swaps","type":"tuple[]","indexed":false,"internalType":"struct Types.ProposedSwap[]","components":[{"name":"swapIndex","type":"uint256","internalType":"uint256"},{"name":"depositVaultCommitment","type":"bytes32","internalType":"bytes32"},{"name":"swapBitcoinBlockHash","type":"bytes32","internalType":"bytes32"},{"name":"confirmationBlocks","type":"uint8","internalType":"uint8"},{"name":"liquidityUnlockTimestamp","type":"uint64","internalType":"uint64"},{"name":"specifiedPayoutAddress","type":"address","internalType":"address"},{"name":"totalSwapFee","type":"uint256","internalType":"uint256"},{"name":"totalSwapOutput","type":"uint256","internalType":"uint256"},{"name":"state","type":"uint8","internalType":"enum Types.SwapState"}]},{"name":"context","type":"uint8","indexed":false,"internalType":"enum Types.SwapUpdateContext"}],"anonymous":false},{"type":"event","name":"VaultUpdated","inputs":[{"name":"vault","type":"tuple","indexed":false,"internalType":"struct Types.DepositVault","components":[{"name":"vaultIndex","type":"uint256","internalType":"uint256"},{"name":"depositTimestamp","type":"uint64","internalType":"uint64"},{"name":"depositAmount","type":"uint256","internalType":"uint256"},{"name":"depositFee","type":"uint256","internalType":"uint256"},{"name":"expectedSats","type":"uint64","internalType":"uint64"},{"name":"btcPayoutScriptPubKey","type":"bytes22","internalType":"bytes22"},{"name":"specifiedPayoutAddress","type":"address","internalType":"address"},{"name":"ownerAddress","type":"address","internalType":"address"},{"name":"salt","type":"bytes32","internalType":"bytes32"},{"name":"confirmationBlocks","type":"uint8","internalType":"uint8"},{"name":"attestedBitcoinBlockHeight","type":"uint64","internalType":"uint64"}]},{"name":"context","type":"uint8","indexed":false,"internalType":"enum Types.VaultUpdateContext"}],"anonymous":false},{"type":"error","name":"CannotOverwriteOngoingSwap","inputs":[]},{"type":"error","name":"DepositAmountTooLow","inputs":[]},{"type":"error","name":"DepositStillLocked","inputs":[]},{"type":"error","name":"DepositVaultDoesNotExist","inputs":[]},{"type":"error","name":"DepositVaultNotOverwritable","inputs":[]},{"type":"error","name":"EmptyDepositVault","inputs":[]},{"type":"error","name":"InvalidConfirmationBlockDelta","inputs":[]},{"type":"error","name":"InvalidConfirmationBlockInclusionProof","inputs":[]},{"type":"error","name":"InvalidScriptPubKey","inputs":[]},{"type":"error","name":"InvalidSwapBlockInclusionProof","inputs":[]},{"type":"error","name":"InvalidTipBlockInclusionProof","inputs":[]},{"type":"error","name":"InvalidVaultCommitment","inputs":[]},{"type":"error","name":"NoFeeToPay","inputs":[]},{"type":"error","name":"SatOutputTooLow","inputs":[]},{"type":"error","name":"StillInChallengePeriod","inputs":[]},{"type":"error","name":"SwapDoesNotExist","inputs":[]},{"type":"error","name":"SwapNotProved","inputs":[]},{"type":"error","name":"TransferFailed","inputs":[]}],"bytecode":{"object":"0x61012080604052346101495760a08161223280380380916100208285610160565b8339810103126101495780519061003960208201610197565b6004602060408401519261005b608061005460608801610197565b9601610197565b5f969096556001600160a01b0316608081905260405163313ce56760e01b815292839182905afa908115610155575f91610115575b5060a05260c0526001600160a01b031660e0526101005260405161208690816101ac82396080518181816101950152818161103c0152818161137e0152818161144b0152611d4e015260a051816104a3015260c0518181816104020152610b1f015260e051818181610a21015261148c01526101005181818161015b015261043b0152f35b90506020813d60201161014d575b8161013060209383610160565b81010312610149575160ff81168103610149575f610090565b5f80fd5b3d9150610123565b6040513d5f823e3d90fd5b601f909101601f19168101906001600160401b0382119082101761018357604052565b634e487b7160e01b5f52604160045260245ffd5b51906001600160a01b03821682036101495756fe6080806040526004361015610012575f80fd5b5f905f3560e01c90816308c84e701461147a5750806313f665871461143657806316a6db20146111fa57806322f66c0e1461118f5780632e2d2dde14610d2657806334abb156146105a8578063365df2331461057d5780635a6f4eb7146104c75780635b7f415c146104895780637ed34a361461046a578063898aeacb146104255780638d5ca052146103ea578063992284a6146103cc5780639f63bd97146103ad578063a6a0f96e14610373578063ca18100d14610355578063d21ddc6114610338578063d9c2328f146102cd578063e78aa9d51461022e578063f23a94a9146101255763f5095c1614610105575f80fd5b346101225780600319360112610122576020600154604051908152f35b80fd5b5034610122578060031936011261012257600354801561021f57600382905560405163a9059cbb60e01b81526001600160a01b037f0000000000000000000000000000000000000000000000000000000000000000166004820152602481019190915260208180604481010381857f00000000000000000000000000000000000000000000000000000000000000006001600160a01b03165af19081156102145782916101e5575b50156101d65780f35b6312171d8360e31b8152600490fd5b610207915060203d60201161020d575b6101ff8183611567565b81019061175d565b5f6101cd565b503d6101f5565b6040513d84823e3d90fd5b630fbcad4560e21b8252600482fd5b50346101225760c03660031901126101225761024936611588565b6064356001600160401b0381116102c957610268903690600401611606565b906084356001600160401b0381116102c557610288903690600401611606565b92909160a43563ffffffff811681036102c1579160209693916102af6102b797969461186e565b945495611e8e565b6040519015158152f35b8680fd5b8480fd5b8280fd5b50346101225760a0366003190112610122576102e836611588565b6064356001600160401b0381116102c957610307903690600401611606565b9092608435906001600160401b0382116101225760206102b78686866103303660048901611606565b9390926119eb565b503461012257806003193601126101225760209054604051908152f35b50346101225780600319360112610122576020600354604051908152f35b5034610122576020366003190112610122576004359060015482101561012257602061039e836114bb565b90549060031b1c604051908152f35b503461012257602036600319011261012257602061039e6004356114bb565b50346101225780600319360112610122576020600254604051908152f35b503461012257806003193601126101225760206040517f00000000000000000000000000000000000000000000000000000000000000008152f35b50346101225780600319360112610122576040517f00000000000000000000000000000000000000000000000000000000000000006001600160a01b03168152602090f35b503461012257602036600319011261012257602061039e6004356114e7565b5034610122578060031936011261012257602060405160ff7f0000000000000000000000000000000000000000000000000000000000000000168152f35b5034610122576020366003190112610122576004356001600160401b03811161057957803603906101806003198301126102c957602481019182359060048301359061016219018112156102c5578261052a836004606494610532970101611ab6565b949095611a50565b50013561056a57610567929161054a610562926114bb565b90919082549060031b91821b915f19901b1916179055565b611cd7565b80f35b630faaae6760e31b8452600484fd5b5080fd5b5034610122576020366003190112610122576004359060025482101561012257602061039e836114e7565b5034610981576080366003190112610981576004356001600160401b0381116109815736602382011215610981578060040135906001600160401b038211610981573660246101e0840283010111610981576024356001600160401b0381116109815780600401610100600319833603011261098157604435906001600160401b03821161098157366023830112156109815781600401356001600160401b03811161098157602483019260243691610120840201011161098157606435916001600160401b0383116109815736602384011215610981578260040135976001600160401b038911610981573660248a86010111610981576106a988611923565b986106b76040519a8b611567565b888a52601f196106c68a611923565b015f5b818110610cfc575050600254945f955b8a871015610985576101e087028a0196816101c48901356002811015610981578e90610704816119e1565b806108e65750505f1983146108d25760018e9301985b60648101906107293683611680565b90606060408301519201908151928360011b93808504600214901517156108d2578f926107619161075b915190611aa9565b94611a50565b9161079b8760448401359960405161077881611514565b602486013581528b6020820152866040820152610795838361195a565b5261195a565b506107b560846107ae6101848501611860565b920161181a565b63ffffffff6001600160401b036107cf6101a48601611636565b169116036001600160401b0381116108d2576001600160401b03166085026001600160401b0381169081036108d25761e3b3016001600160401b0381116108d2576001600160401b036103e881603c9316041601906001600160401b0382116108d2576001986108596101246001600160401b036108518160ff971642611916565b169501611749565b94604051986108678a61152f565b8952602089015260408801521660608601526080850152858060a01b031660a084015260c083015260e0820152826101008201526108a482611947565b526108ae81611947565b506108c16108bb82611947565b51611dea565b6108ca82611947565b5201956106d9565b634e487b7160e01b5f52601160045260245ffd5b939990936001906108f6816119e1565b0361071a576101e481019350905061092361091e61ffff61091686611e0c565b168a8d611e1b565b611dad565b5061010061093661ffff61091686611e0c565b013560038110156109815760029061094d81611810565b036109725761096b61ffff8f9461096390611e0c565b16898c611e1b565b359061071a565b63a5f611fd60e01b5f5260045ffd5b5f80fd5b508a9188916109bd61099a60c485018861182b565b906109a860e487018a61182b565b9290916109b83660648a016115c6565b6119eb565b15610ced5760448301916109d18388611e2c565b6001600160401b038111610cd957604051906109f7601f8201601f191660200183611567565b8082526020820192368282011161098157815f926020928637830101525190209160018060a01b037f000000000000000000000000000000000000000000000000000000000000000016602489359601359660405194610a5686611514565b878652886020870152604086015260405194610a7186611514565b600286526020860191825260408601908152604051809660208201936020855260e083019151610aa081611810565b6040840152519060a060608401528151809152602061010084019201905f5b818110610c9f575050925180516080840152602081015160a08401526040015160c083015203601f1981018752610af7915086611567565b813b1561098157602494610b7d6084945f966040519889978896879663020a49e360e51b88527f000000000000000000000000000000000000000000000000000000000000000060048901526060848901525180918160648a01528389015e86810182018b9052601f01601f191686018681038201600319016044880152019201611e5e565b03915afa8015610c9457610c78575b50610b9b90610ba39495611e2c565b929091611f93565b805b606051811015610bfa57610bb881611947565b51600254600160401b811015610be6576001929161054a8285610be0940160025560026114ff565b01610ba5565b634e487b7160e01b84526041600452602484fd5b5060405160408101604082526060518091526060820190608090845b818110610c5757857fe8b89fd0756cdb35ef6d9ff605cca13c890bbd62d2befac12cdf4cf4d3e73a72868087610c4b856119e1565b8460208301520390a180f35b909192602061012082610c6d600194885161196e565b019401929101610c16565b610ba3945090610c8b5f610b9b93611567565b5f945090610b8c565b6040513d5f823e3d90fd5b91949350916020606082610cca60019489516040809180518452602081015160208501520151910152565b01950191019189939492610abf565b634e487b7160e01b5f52604160045260245ffd5b633666f0e160e21b5f5260045ffd5b808c6020809360405192610d0f84611514565b5f84525f838501525f6040850152010152016106c9565b34610981576020366003190112610981576004356001600160401b0381116109815780600401906103c0600319823603011261098157610d6582611dad565b50610104810135600381101561098157600190610d8181611810565b03611180576001600160401b03610d9a60848301611636565b164210611171576101448101610e1e610db28261181a565b63ffffffff60405191610dc483611514565b604486013583521660208201526101248401356040820152610dea61016485018661182b565b929091610dfb61018487018861182b565b6103a488019591610e13610e0e8861181a565b61186e565b925f54968795611e8e565b1561116257610e6f91610e51610e3861020487018861182b565b610e4961022489959395018a61182b565b93909261181a565b93610e69610e63366101a48c016115c6565b9561186e565b94611e8e565b1561115357610e8a610e846101c4840161181a565b9161181a565b63ffffffff60ff610e9d60648601611860565b1691160163ffffffff81116108d25763ffffffff809116911603611144576102448101610ec981611a50565b60248301350361113557610180610f027f24e3dfec7094aa50543676beff35467ddf376469fa05571e4d1b729f3514507f923690611680565b5f60408201525f6060820152610f24610f1a82611a69565b61054a83516114bb565b610f316040518092611775565b6002610160820152a1610f63610f473684611886565b92600261010085015261054a610f5c85611dea565b91356114e7565b610f7360c4820135600354611916565b600355604091825190610f868483611567565b60018252601f1984015f5b8181106110e9575050610fa38261193a565b52610fad8161193a565b50825183810184825282518091526020606083019301905f5b8181106110c857505050807fe8b89fd0756cdb35ef6d9ff605cca13c890bbd62d2befac12cdf4cf4d3e73a7292600160208301520390a1602060e461100d60a48401611749565b845163a9059cbb60e01b81526001600160a01b039091166004820152920135602483015281806044810103815f7f00000000000000000000000000000000000000000000000000000000000000006001600160a01b03165af19182156110ab57505f9161108c575b501561107d57005b6312171d8360e31b5f5260045ffd5b6110a5915060203d60201161020d576101ff8183611567565b81611075565b513d5f823e3d90fd5b634e487b7160e01b5f52602160045260245ffd5b9091936020610120826110de600194895161196e565b019501929101610fc6565b60209086516110f78161152f565b5f81525f838201525f888201525f60608201525f60808201525f60a08201525f60c08201525f60e08201525f61010082015282828701015201610f91565b63ceb1159d60e01b5f5260045ffd5b638e082f6760e01b5f5260045ffd5b638ce0b4c760e01b5f5260045ffd5b637344e0b760e01b5f5260045ffd5b632d5c37f560e21b5f5260045ffd5b6322fc5d4360e21b5f5260045ffd5b34610981576020366003190112610981576004356001600160401b038111610981576101606003198236030112610981576001546111cf91600401611ab6565b90600154600160401b811015610cd9576111f89261054a826001610562940160015560016114ff565b005b34610981573660031901610160811261098157611215611a11565b50604435801561142757602435916001600160401b03831680840361098157617080016001600160401b0381116108d2576001600160401b031642106114185761016013610981576040519161126a8361154b565b6004359081845260208401526040830191808352606084019160643583526084356001600160401b038116810361098157608086015260a43569ffffffffffffffffffff19811681036109815760a086015260c4356001600160a01b03811681036109815760c086015260e435906001600160a01b0382168203610981578160e0870152610104356101008701526101243560ff811681036109815761012087015261014435906001600160401b0382168203610981575f6020958161137998611348956101408c0152525261054a61134288611a69565b916114bb565b60405163a9059cbb60e01b81526001600160a01b039091166004820152602481019190915291829081906044820190565b03815f7f00000000000000000000000000000000000000000000000000000000000000006001600160a01b03165af1908115610c94575f916113f9575b501561107d576101807f24e3dfec7094aa50543676beff35467ddf376469fa05571e4d1b729f3514507f916113ee6040518092611775565b6001610160820152a1005b611412915060203d60201161020d576101ff8183611567565b826113b6565b6301b512a960e21b5f5260045ffd5b637941e9ad60e01b5f5260045ffd5b34610981575f366003190112610981576040517f00000000000000000000000000000000000000000000000000000000000000006001600160a01b03168152602090f35b34610981575f366003190112610981577f00000000000000000000000000000000000000000000000000000000000000006001600160a01b03168152602090f35b6001548110156114d35760015f5260205f2001905f90565b634e487b7160e01b5f52603260045260245ffd5b6002548110156114d35760025f5260205f2001905f90565b80548210156114d3575f5260205f2001905f90565b606081019081106001600160401b03821117610cd957604052565b61012081019081106001600160401b03821117610cd957604052565b61016081019081106001600160401b03821117610cd957604052565b90601f801991011681019081106001600160401b03821117610cd957604052565b606090600319011261098157604051906115a182611514565b81600435815260243563ffffffff811681036109815760208201526040604435910152565b9190826060910312610981576040516115de81611514565b809280358252602081013563ffffffff81168103610981576020830152604090810135910152565b9181601f84011215610981578235916001600160401b038311610981576020808501948460051b01011161098157565b356001600160401b03811681036109815790565b35906001600160401b038216820361098157565b35906001600160a01b038216820361098157565b359060ff8216820361098157565b919082610160910312610981576040516116998161154b565b8092803582526116ab6020820161164a565b602083015260408101356040830152606081013560608301526116d06080820161164a565b608083015260a08101359069ffffffffffffffffffff19821682036109815761014061174491819360a086015261170960c0820161165e565b60c086015261171a60e0820161165e565b60e08601526101008101356101008601526117386101208201611672565b6101208601520161164a565b910152565b356001600160a01b03811681036109815790565b90816020910312610981575180151581036109815790565b6001600160401b03610140809280518552826020820151166020860152604081015160408601526060810151606086015282608082015116608086015269ffffffffffffffffffff1960a08201511660a086015260018060a01b0360c08201511660c086015260018060a01b0360e08201511660e086015261010081015161010086015260ff61012082015116610120860152015116910152565b600311156110b457565b3563ffffffff811681036109815790565b903590601e198136030182121561098157018035906001600160401b03821161098157602001918160051b3603831361098157565b3560ff811681036109815790565b63ffffffff60019116019063ffffffff82116108d257565b9190826101209103126109815760405161189f8161152f565b61010081938035835260208101356020840152604081013560408401526118c860608201611672565b60608401526118d96080820161164a565b60808401526118ea60a0820161165e565b60a084015260c081013560c084015260e081013560e08401520135906003821015610981576101000152565b919082018092116108d257565b6001600160401b038111610cd95760051b60200190565b8051156114d35760200190565b6060518110156114d35760051b60800190565b80518210156114d35760209160051b010190565b610100809180518452602081015160208501526040810151604085015260ff60608201511660608501526001600160401b03608082015116608085015260018060a01b0360a08201511660a085015260c081015160c085015260e081015160e08501520151916119dd83611810565b0152565b600211156110b457565b92611a0e949192611a0563ffffffff60208701511661186e565b935f5495611e8e565b90565b611a24611a1f366004611680565b611a69565b611a3160043560016114ff565b90549060031b1c8103611a415790565b63cd1d240d60e01b5f5260045ffd5b611a31611a60611a1f3684611680565b913560016114ff565b604051611a7a602082018093611775565b6101608152611a8b61018082611567565b51902090565b3569ffffffffffffffffffff19811681036109815790565b919082039182116108d257565b9190915f610140604051611ac98161154b565b8281528260208201528260408201528260608201528260808201528260a08201528260c08201528260e0820152826101008201528261012082015201526020810135926107d18410611cc857604082016103e86001600160401b03611b2d83611636565b1610611cb9576060830192611b4184611a91565b5f81901a60f81b6001600160f81b031916159081611c9b575b5015611c8c57611b90611b7161012083018361182b565b90611b8061014085018561182b565b9290916109b83660c088016115c6565b15610ced576005860291868304600514871517156108d257611c2f9663ffffffff956001600160401b03611bdd611bd7611bd161271060ff99048096611aa9565b95611636565b92611a91565b91611be786611749565b93611c0b468a60808a01359091606092604051928352602083015260408201522090565b95611c2460e0611c1d60a08b01611860565b990161181a565b996040519d8e61154b565b8d5242841660208e015260408d015260608c01521660808a015269ffffffffffffffffffff191660a08901526001600160a01b031660c08801523360e08801526101008701521661012085015216610140830152611a0e82611a69565b63fad7db0760e01b5f5260045ffd5b60011a60f81b6001600160f81b031916600560fa1b1490505f611b5a565b63fde5943160e01b5f5260045ffd5b6355fcd02760e01b5f5260045ffd5b611d24907f24e3dfec7094aa50543676beff35467ddf376469fa05571e4d1b729f3514507f610180604051611d0c8185611775565b5f610160820152a16060604082015191015190611916565b6040516323b872dd60e01b815233600482015230602482015260448101919091526020816064815f7f00000000000000000000000000000000000000000000000000000000000000006001600160a01b03165af1908115610c94575f91611d8e575b501561107d57565b611da7915060203d60201161020d576101ff8183611567565b5f611d86565b611dcb611dc2611dbd3684611886565b611dea565b913560026114ff565b90549060031b1c8103611ddb5790565b631a40316d60e01b5f5260045ffd5b604051611dfb60208201809361196e565b6101208152611a8b61014082611567565b3561ffff811681036109815790565b91908110156114d357610120020190565b903590601e198136030182121561098157018035906001600160401b0382116109815760200191813603831361098157565b908060209392818452848401375f828201840152601f01601f1916010190565b91908110156114d35760051b0190565b919093929363ffffffff611ec584516020860195604084885116910151919091606092604051928352602083015260408201522090565b935116905f925b808410611f4257505050505f905f5b838110611f1c575b505015611f1457611ef391611fff565b908115611f0d5763ffffffff165f5260205260405f201490565b5050505f90565b505050505f90565b81611f28828688611e7e565b3514611f3657600101611edb565b50505060015f80611ee3565b9293600183811c949293811603611f7557611f5e858385611e7e565b355f52602052600160405f20945b01929190611ecc565b611f80858385611e7e565b35905f52602052600160405f2094611f6c565b929192815f54821491821592611ff5575b5050611ff057611feb7f9b2f63e83fb6fca69cac8064b1700d250ea342927ef73fb1a519b5df4e4f111893825f556040519384938452604060208501526040840191611e5e565b0390a1565b505050565b149050815f611fa4565b811561204a575f198201918083116108d25761201c838284611e7e565b3592805b61202a5750505090565b5f190192612039848385611e7e565b355f526020528260405f2093612020565b50505f9056fea264697066735822122059ea7a1f6dbe5654393bf5cd4ea187a3c5d71ac78a682dad10987b8e2809ce4164736f6c634300081c0033","linkReferences":{}},"methodIdentifiers":{"CIRCUIT_VERIFICATION_KEY()":"8d5ca052","DEPOSIT_TOKEN()":"13f66587","FEE_ROUTER_ADDRESS()":"898aeacb","TOKEN_DECIMALS()":"5b7f415c","VERIFIER()":"08c84e70","_proveBlockInclusion((bytes32,uint32,uint256),bytes32[],bytes32[],uint32)":"e78aa9d5","_proveBlockInclusionAtTip((bytes32,uint32,uint256),bytes32[],bytes32[])":"d9c2328f","accumulatedFeeBalance()":"ca18100d","depositLiquidity((address,uint256,uint64,bytes22,bytes32,uint8,(bytes32,uint32,uint256),bytes32[],bytes32[]))":"22f66c0e","depositLiquidityWithOverwrite(((address,uint256,uint64,bytes22,bytes32,uint8,(bytes32,uint32,uint256),bytes32[],bytes32[]),(uint256,uint64,uint256,uint256,uint64,bytes22,address,address,bytes32,uint8,uint64)))":"5a6f4eb7","getSwapCommitment(uint256)":"7ed34a36","getSwapCommitmentsLength()":"992284a6","getVaultCommitment(uint256)":"9f63bd97","getVaultCommitmentsLength()":"f5095c16","mmrRoot()":"d21ddc61","payoutToFeeRouter()":"f23a94a9","releaseLiquidity(((uint256,bytes32,bytes32,uint8,uint64,address,uint256,uint256,uint8),uint256,uint32,bytes32[],bytes32[],(bytes32,uint32,uint256),bytes32[],bytes32[],(uint256,uint64,uint256,uint256,uint64,bytes22,address,address,bytes32,uint8,uint64),uint32))":"2e2d2dde","submitBatchSwapProof((bytes32,bytes32,(uint256,uint64,uint256,uint256,uint64,bytes22,address,address,bytes32,uint8,uint64),uint8,uint16)[],(bytes32,bytes32,bytes,(bytes32,uint32,uint256),bytes32[],bytes32[]),(uint256,bytes32,bytes32,uint8,uint64,address,uint256,uint256,uint8)[],bytes)":"34abb156","swapCommitments(uint256)":"365df233","vaultCommitments(uint256)":"a6a0f96e","withdrawLiquidity((uint256,uint64,uint256,uint256,uint64,bytes22,address,address,bytes32,uint8,uint64))":"16a6db20"},"storageLayout":{"storage":[{"astId":42260,"contract":"src/RiftExchange.sol:RiftExchange","label":"mmrRoot","offset":0,"slot":"0","type":"t_bytes32"},{"astId":42402,"contract":"src/RiftExchange.sol:RiftExchange","label":"vaultCommitments","offset":0,"slot":"1","type":"t_array(t_bytes32)dyn_storage"},{"astId":42405,"contract":"src/RiftExchange.sol:RiftExchange","label":"swapCommitments","offset":0,"slot":"2","type":"t_array(t_bytes32)dyn_storage"},{"astId":42407,"contract":"src/RiftExchange.sol:RiftExchange","label":"accumulatedFeeBalance","offset":0,"slot":"3","type":"t_uint256"}],"types":{"t_array(t_bytes32)dyn_storage":{"encoding":"dynamic_array","label":"bytes32[]","numberOfBytes":"32","base":"t_bytes32"},"t_bytes32":{"encoding":"inplace","label":"bytes32","numberOfBytes":"32"},"t_uint256":{"encoding":"inplace","label":"uint256","numberOfBytes":"32"}}},"id":41}