{"abi":[{"type":"constructor","inputs":[{"name":"_mmrRoot","type":"bytes32","internalType":"bytes32"},{"name":"_depositToken","type":"address","internalType":"address"},{"name":"_circuitVerificationKey","type":"bytes32","internalType":"bytes32"},{"name":"_verifier","type":"address","internalType":"address"},{"name":"_feeRouter","type":"address","internalType":"address"},{"name":"_tipBlockLeaf","type":"tuple","internalType":"struct Types.BlockLeaf","components":[{"name":"blockHash","type":"bytes32","internalType":"bytes32"},{"name":"height","type":"uint32","internalType":"uint32"},{"name":"cumulativeChainwork","type":"uint256","internalType":"uint256"}]}],"stateMutability":"nonpayable"},{"type":"function","name":"CIRCUIT_VERIFICATION_KEY","inputs":[],"outputs":[{"name":"","type":"bytes32","internalType":"bytes32"}],"stateMutability":"view"},{"type":"function","name":"DEPOSIT_TOKEN","inputs":[],"outputs":[{"name":"","type":"address","internalType":"contract IERC20"}],"stateMutability":"view"},{"type":"function","name":"TOKEN_DECIMALS","inputs":[],"outputs":[{"name":"","type":"uint8","internalType":"uint8"}],"stateMutability":"view"},{"type":"function","name":"VERIFIER","inputs":[],"outputs":[{"name":"","type":"address","internalType":"contract ISP1Verifier"}],"stateMutability":"view"},{"type":"function","name":"accumulatedFeeBalance","inputs":[],"outputs":[{"name":"","type":"uint256","internalType":"uint256"}],"stateMutability":"view"},{"type":"function","name":"checkpoints","inputs":[{"name":"","type":"bytes32","internalType":"bytes32"}],"outputs":[{"name":"established","type":"bool","internalType":"bool"},{"name":"tipBlockLeaf","type":"tuple","internalType":"struct Types.BlockLeaf","components":[{"name":"blockHash","type":"bytes32","internalType":"bytes32"},{"name":"height","type":"uint32","internalType":"uint32"},{"name":"cumulativeChainwork","type":"uint256","internalType":"uint256"}]}],"stateMutability":"view"},{"type":"function","name":"depositLiquidity","inputs":[{"name":"params","type":"tuple","internalType":"struct Types.DepositLiquidityParams","components":[{"name":"depositOwnerAddress","type":"address","internalType":"address"},{"name":"specifiedPayoutAddress","type":"address","internalType":"address"},{"name":"depositAmount","type":"uint256","internalType":"uint256"},{"name":"expectedSats","type":"uint64","internalType":"uint64"},{"name":"btcPayoutScriptPubKey","type":"bytes25","internalType":"bytes25"},{"name":"depositSalt","type":"bytes32","internalType":"bytes32"},{"name":"confirmationBlocks","type":"uint8","internalType":"uint8"},{"name":"safeBlockLeaf","type":"tuple","internalType":"struct Types.BlockLeaf","components":[{"name":"blockHash","type":"bytes32","internalType":"bytes32"},{"name":"height","type":"uint32","internalType":"uint32"},{"name":"cumulativeChainwork","type":"uint256","internalType":"uint256"}]},{"name":"safeBlockSiblings","type":"bytes32[]","internalType":"bytes32[]"},{"name":"safeBlockPeaks","type":"bytes32[]","internalType":"bytes32[]"}]}],"outputs":[{"name":"","type":"bytes32","internalType":"bytes32"}],"stateMutability":"nonpayable"},{"type":"function","name":"depositLiquidityWithOverwrite","inputs":[{"name":"params","type":"tuple","internalType":"struct Types.DepositLiquidityWithOverwriteParams","components":[{"name":"depositParams","type":"tuple","internalType":"struct Types.DepositLiquidityParams","components":[{"name":"depositOwnerAddress","type":"address","internalType":"address"},{"name":"specifiedPayoutAddress","type":"address","internalType":"address"},{"name":"depositAmount","type":"uint256","internalType":"uint256"},{"name":"expectedSats","type":"uint64","internalType":"uint64"},{"name":"btcPayoutScriptPubKey","type":"bytes25","internalType":"bytes25"},{"name":"depositSalt","type":"bytes32","internalType":"bytes32"},{"name":"confirmationBlocks","type":"uint8","internalType":"uint8"},{"name":"safeBlockLeaf","type":"tuple","internalType":"struct Types.BlockLeaf","components":[{"name":"blockHash","type":"bytes32","internalType":"bytes32"},{"name":"height","type":"uint32","internalType":"uint32"},{"name":"cumulativeChainwork","type":"uint256","internalType":"uint256"}]},{"name":"safeBlockSiblings","type":"bytes32[]","internalType":"bytes32[]"},{"name":"safeBlockPeaks","type":"bytes32[]","internalType":"bytes32[]"}]},{"name":"overwriteVault","type":"tuple","internalType":"struct Types.DepositVault","components":[{"name":"vaultIndex","type":"uint256","internalType":"uint256"},{"name":"depositTimestamp","type":"uint64","internalType":"uint64"},{"name":"depositAmount","type":"uint256","internalType":"uint256"},{"name":"depositFee","type":"uint256","internalType":"uint256"},{"name":"expectedSats","type":"uint64","internalType":"uint64"},{"name":"btcPayoutScriptPubKey","type":"bytes25","internalType":"bytes25"},{"name":"specifiedPayoutAddress","type":"address","internalType":"address"},{"name":"ownerAddress","type":"address","internalType":"address"},{"name":"salt","type":"bytes32","internalType":"bytes32"},{"name":"confirmationBlocks","type":"uint8","internalType":"uint8"},{"name":"attestedBitcoinBlockHeight","type":"uint64","internalType":"uint64"}]}]}],"outputs":[{"name":"","type":"bytes32","internalType":"bytes32"}],"stateMutability":"nonpayable"},{"type":"function","name":"feeRouterAddress","inputs":[],"outputs":[{"name":"","type":"address","internalType":"address"}],"stateMutability":"view"},{"type":"function","name":"getLightClientHeight","inputs":[],"outputs":[{"name":"","type":"uint32","internalType":"uint32"}],"stateMutability":"view"},{"type":"function","name":"getSwapCommitment","inputs":[{"name":"swapIndex","type":"uint256","internalType":"uint256"}],"outputs":[{"name":"","type":"bytes32","internalType":"bytes32"}],"stateMutability":"view"},{"type":"function","name":"getSwapCommitmentsLength","inputs":[],"outputs":[{"name":"","type":"uint256","internalType":"uint256"}],"stateMutability":"view"},{"type":"function","name":"getVaultCommitment","inputs":[{"name":"vaultIndex","type":"uint256","internalType":"uint256"}],"outputs":[{"name":"","type":"bytes32","internalType":"bytes32"}],"stateMutability":"view"},{"type":"function","name":"getVaultCommitmentsLength","inputs":[],"outputs":[{"name":"","type":"uint256","internalType":"uint256"}],"stateMutability":"view"},{"type":"function","name":"mmrRoot","inputs":[],"outputs":[{"name":"","type":"bytes32","internalType":"bytes32"}],"stateMutability":"view"},{"type":"function","name":"owner","inputs":[],"outputs":[{"name":"","type":"address","internalType":"address"}],"stateMutability":"view"},{"type":"function","name":"payoutToFeeRouter","inputs":[],"outputs":[],"stateMutability":"nonpayable"},{"type":"function","name":"proveBlockInclusion","inputs":[{"name":"blockLeaf","type":"tuple","internalType":"struct Types.BlockLeaf","components":[{"name":"blockHash","type":"bytes32","internalType":"bytes32"},{"name":"height","type":"uint32","internalType":"uint32"},{"name":"cumulativeChainwork","type":"uint256","internalType":"uint256"}]},{"name":"siblings","type":"bytes32[]","internalType":"bytes32[]"},{"name":"peaks","type":"bytes32[]","internalType":"bytes32[]"}],"outputs":[{"name":"","type":"bool","internalType":"bool"}],"stateMutability":"view"},{"type":"function","name":"releaseLiquidityBatch","inputs":[{"name":"paramsArray","type":"tuple[]","internalType":"struct Types.ReleaseLiquidityParams[]","components":[{"name":"swap","type":"tuple","internalType":"struct Types.ProposedSwap","components":[{"name":"swapIndex","type":"uint256","internalType":"uint256"},{"name":"depositVaultCommitment","type":"bytes32","internalType":"bytes32"},{"name":"swapBitcoinBlockHash","type":"bytes32","internalType":"bytes32"},{"name":"confirmationBlocks","type":"uint8","internalType":"uint8"},{"name":"liquidityUnlockTimestamp","type":"uint64","internalType":"uint64"},{"name":"specifiedPayoutAddress","type":"address","internalType":"address"},{"name":"totalSwapFee","type":"uint256","internalType":"uint256"},{"name":"totalSwapOutput","type":"uint256","internalType":"uint256"},{"name":"state","type":"uint8","internalType":"enum Types.SwapState"}]},{"name":"swapBlockChainwork","type":"uint256","internalType":"uint256"},{"name":"swapBlockHeight","type":"uint32","internalType":"uint32"},{"name":"bitcoinSwapBlockSiblings","type":"bytes32[]","internalType":"bytes32[]"},{"name":"bitcoinSwapBlockPeaks","type":"bytes32[]","internalType":"bytes32[]"},{"name":"utilizedVault","type":"tuple","internalType":"struct Types.DepositVault","components":[{"name":"vaultIndex","type":"uint256","internalType":"uint256"},{"name":"depositTimestamp","type":"uint64","internalType":"uint64"},{"name":"depositAmount","type":"uint256","internalType":"uint256"},{"name":"depositFee","type":"uint256","internalType":"uint256"},{"name":"expectedSats","type":"uint64","internalType":"uint64"},{"name":"btcPayoutScriptPubKey","type":"bytes25","internalType":"bytes25"},{"name":"specifiedPayoutAddress","type":"address","internalType":"address"},{"name":"ownerAddress","type":"address","internalType":"address"},{"name":"salt","type":"bytes32","internalType":"bytes32"},{"name":"confirmationBlocks","type":"uint8","internalType":"uint8"},{"name":"attestedBitcoinBlockHeight","type":"uint64","internalType":"uint64"}]},{"name":"tipBlockHeight","type":"uint32","internalType":"uint32"}]}],"outputs":[],"stateMutability":"nonpayable"},{"type":"function","name":"renounceOwnership","inputs":[],"outputs":[],"stateMutability":"nonpayable"},{"type":"function","name":"setFeeRouterAddress","inputs":[{"name":"_feeRouter","type":"address","internalType":"address"}],"outputs":[],"stateMutability":"nonpayable"},{"type":"function","name":"submitBatchSwapProof","inputs":[{"name":"swapParams","type":"tuple[]","internalType":"struct Types.SubmitSwapProofParams[]","components":[{"name":"swapBitcoinTxid","type":"bytes32","internalType":"bytes32"},{"name":"vault","type":"tuple","internalType":"struct Types.DepositVault","components":[{"name":"vaultIndex","type":"uint256","internalType":"uint256"},{"name":"depositTimestamp","type":"uint64","internalType":"uint64"},{"name":"depositAmount","type":"uint256","internalType":"uint256"},{"name":"depositFee","type":"uint256","internalType":"uint256"},{"name":"expectedSats","type":"uint64","internalType":"uint64"},{"name":"btcPayoutScriptPubKey","type":"bytes25","internalType":"bytes25"},{"name":"specifiedPayoutAddress","type":"address","internalType":"address"},{"name":"ownerAddress","type":"address","internalType":"address"},{"name":"salt","type":"bytes32","internalType":"bytes32"},{"name":"confirmationBlocks","type":"uint8","internalType":"uint8"},{"name":"attestedBitcoinBlockHeight","type":"uint64","internalType":"uint64"}]},{"name":"storageStrategy","type":"uint8","internalType":"enum Types.StorageStrategy"},{"name":"localOverwriteIndex","type":"uint16","internalType":"uint16"},{"name":"swapBitcoinBlockLeaf","type":"tuple","internalType":"struct Types.BlockLeaf","components":[{"name":"blockHash","type":"bytes32","internalType":"bytes32"},{"name":"height","type":"uint32","internalType":"uint32"},{"name":"cumulativeChainwork","type":"uint256","internalType":"uint256"}]},{"name":"swapBitcoinBlockSiblings","type":"bytes32[]","internalType":"bytes32[]"},{"name":"swapBitcoinBlockPeaks","type":"bytes32[]","internalType":"bytes32[]"}]},{"name":"overwriteSwaps","type":"tuple[]","internalType":"struct Types.ProposedSwap[]","components":[{"name":"swapIndex","type":"uint256","internalType":"uint256"},{"name":"depositVaultCommitment","type":"bytes32","internalType":"bytes32"},{"name":"swapBitcoinBlockHash","type":"bytes32","internalType":"bytes32"},{"name":"confirmationBlocks","type":"uint8","internalType":"uint8"},{"name":"liquidityUnlockTimestamp","type":"uint64","internalType":"uint64"},{"name":"specifiedPayoutAddress","type":"address","internalType":"address"},{"name":"totalSwapFee","type":"uint256","internalType":"uint256"},{"name":"totalSwapOutput","type":"uint256","internalType":"uint256"},{"name":"state","type":"uint8","internalType":"enum Types.SwapState"}]},{"name":"proof","type":"bytes","internalType":"bytes"}],"outputs":[],"stateMutability":"nonpayable"},{"type":"function","name":"submitBatchSwapProofWithLightClientUpdate","inputs":[{"name":"swapParams","type":"tuple[]","internalType":"struct Types.SubmitSwapProofParams[]","components":[{"name":"swapBitcoinTxid","type":"bytes32","internalType":"bytes32"},{"name":"vault","type":"tuple","internalType":"struct Types.DepositVault","components":[{"name":"vaultIndex","type":"uint256","internalType":"uint256"},{"name":"depositTimestamp","type":"uint64","internalType":"uint64"},{"name":"depositAmount","type":"uint256","internalType":"uint256"},{"name":"depositFee","type":"uint256","internalType":"uint256"},{"name":"expectedSats","type":"uint64","internalType":"uint64"},{"name":"btcPayoutScriptPubKey","type":"bytes25","internalType":"bytes25"},{"name":"specifiedPayoutAddress","type":"address","internalType":"address"},{"name":"ownerAddress","type":"address","internalType":"address"},{"name":"salt","type":"bytes32","internalType":"bytes32"},{"name":"confirmationBlocks","type":"uint8","internalType":"uint8"},{"name":"attestedBitcoinBlockHeight","type":"uint64","internalType":"uint64"}]},{"name":"storageStrategy","type":"uint8","internalType":"enum Types.StorageStrategy"},{"name":"localOverwriteIndex","type":"uint16","internalType":"uint16"},{"name":"swapBitcoinBlockLeaf","type":"tuple","internalType":"struct Types.BlockLeaf","components":[{"name":"blockHash","type":"bytes32","internalType":"bytes32"},{"name":"height","type":"uint32","internalType":"uint32"},{"name":"cumulativeChainwork","type":"uint256","internalType":"uint256"}]},{"name":"swapBitcoinBlockSiblings","type":"bytes32[]","internalType":"bytes32[]"},{"name":"swapBitcoinBlockPeaks","type":"bytes32[]","internalType":"bytes32[]"}]},{"name":"blockProofParams","type":"tuple","internalType":"struct Types.BlockProofParams","components":[{"name":"priorMmrRoot","type":"bytes32","internalType":"bytes32"},{"name":"newMmrRoot","type":"bytes32","internalType":"bytes32"},{"name":"compressedBlockLeaves","type":"bytes","internalType":"bytes"},{"name":"tipBlockLeaf","type":"tuple","internalType":"struct Types.BlockLeaf","components":[{"name":"blockHash","type":"bytes32","internalType":"bytes32"},{"name":"height","type":"uint32","internalType":"uint32"},{"name":"cumulativeChainwork","type":"uint256","internalType":"uint256"}]}]},{"name":"overwriteSwaps","type":"tuple[]","internalType":"struct Types.ProposedSwap[]","components":[{"name":"swapIndex","type":"uint256","internalType":"uint256"},{"name":"depositVaultCommitment","type":"bytes32","internalType":"bytes32"},{"name":"swapBitcoinBlockHash","type":"bytes32","internalType":"bytes32"},{"name":"confirmationBlocks","type":"uint8","internalType":"uint8"},{"name":"liquidityUnlockTimestamp","type":"uint64","internalType":"uint64"},{"name":"specifiedPayoutAddress","type":"address","internalType":"address"},{"name":"totalSwapFee","type":"uint256","internalType":"uint256"},{"name":"totalSwapOutput","type":"uint256","internalType":"uint256"},{"name":"state","type":"uint8","internalType":"enum Types.SwapState"}]},{"name":"proof","type":"bytes","internalType":"bytes"}],"outputs":[],"stateMutability":"nonpayable"},{"type":"function","name":"swapCommitments","inputs":[{"name":"","type":"uint256","internalType":"uint256"}],"outputs":[{"name":"","type":"bytes32","internalType":"bytes32"}],"stateMutability":"view"},{"type":"function","name":"transferOwnership","inputs":[{"name":"newOwner","type":"address","internalType":"address"}],"outputs":[],"stateMutability":"nonpayable"},{"type":"function","name":"updateLightClient","inputs":[{"name":"blockProofParams","type":"tuple","internalType":"struct Types.BlockProofParams","components":[{"name":"priorMmrRoot","type":"bytes32","internalType":"bytes32"},{"name":"newMmrRoot","type":"bytes32","internalType":"bytes32"},{"name":"compressedBlockLeaves","type":"bytes","internalType":"bytes"},{"name":"tipBlockLeaf","type":"tuple","internalType":"struct Types.BlockLeaf","components":[{"name":"blockHash","type":"bytes32","internalType":"bytes32"},{"name":"height","type":"uint32","internalType":"uint32"},{"name":"cumulativeChainwork","type":"uint256","internalType":"uint256"}]}]},{"name":"proof","type":"bytes","internalType":"bytes"}],"outputs":[],"stateMutability":"nonpayable"},{"type":"function","name":"vaultCommitments","inputs":[{"name":"","type":"uint256","internalType":"uint256"}],"outputs":[{"name":"","type":"bytes32","internalType":"bytes32"}],"stateMutability":"view"},{"type":"function","name":"withdrawLiquidity","inputs":[{"name":"vault","type":"tuple","internalType":"struct Types.DepositVault","components":[{"name":"vaultIndex","type":"uint256","internalType":"uint256"},{"name":"depositTimestamp","type":"uint64","internalType":"uint64"},{"name":"depositAmount","type":"uint256","internalType":"uint256"},{"name":"depositFee","type":"uint256","internalType":"uint256"},{"name":"expectedSats","type":"uint64","internalType":"uint64"},{"name":"btcPayoutScriptPubKey","type":"bytes25","internalType":"bytes25"},{"name":"specifiedPayoutAddress","type":"address","internalType":"address"},{"name":"ownerAddress","type":"address","internalType":"address"},{"name":"salt","type":"bytes32","internalType":"bytes32"},{"name":"confirmationBlocks","type":"uint8","internalType":"uint8"},{"name":"attestedBitcoinBlockHeight","type":"uint64","internalType":"uint64"}]}],"outputs":[],"stateMutability":"nonpayable"},{"type":"event","name":"BitcoinLightClientUpdated","inputs":[{"name":"priorMmrRoot","type":"bytes32","indexed":false,"internalType":"bytes32"},{"name":"newMmrRoot","type":"bytes32","indexed":false,"internalType":"bytes32"},{"name":"compressedBlockLeaves","type":"bytes","indexed":false,"internalType":"bytes"}],"anonymous":false},{"type":"event","name":"OwnershipTransferred","inputs":[{"name":"previousOwner","type":"address","indexed":true,"internalType":"address"},{"name":"newOwner","type":"address","indexed":true,"internalType":"address"}],"anonymous":false},{"type":"event","name":"SwapsUpdated","inputs":[{"name":"swaps","type":"tuple[]","indexed":false,"internalType":"struct Types.ProposedSwap[]","components":[{"name":"swapIndex","type":"uint256","internalType":"uint256"},{"name":"depositVaultCommitment","type":"bytes32","internalType":"bytes32"},{"name":"swapBitcoinBlockHash","type":"bytes32","internalType":"bytes32"},{"name":"confirmationBlocks","type":"uint8","internalType":"uint8"},{"name":"liquidityUnlockTimestamp","type":"uint64","internalType":"uint64"},{"name":"specifiedPayoutAddress","type":"address","internalType":"address"},{"name":"totalSwapFee","type":"uint256","internalType":"uint256"},{"name":"totalSwapOutput","type":"uint256","internalType":"uint256"},{"name":"state","type":"uint8","internalType":"enum Types.SwapState"}]},{"name":"context","type":"uint8","indexed":false,"internalType":"enum Types.SwapUpdateContext"}],"anonymous":false},{"type":"event","name":"VaultsUpdated","inputs":[{"name":"vaults","type":"tuple[]","indexed":false,"internalType":"struct Types.DepositVault[]","components":[{"name":"vaultIndex","type":"uint256","internalType":"uint256"},{"name":"depositTimestamp","type":"uint64","internalType":"uint64"},{"name":"depositAmount","type":"uint256","internalType":"uint256"},{"name":"depositFee","type":"uint256","internalType":"uint256"},{"name":"expectedSats","type":"uint64","internalType":"uint64"},{"name":"btcPayoutScriptPubKey","type":"bytes25","internalType":"bytes25"},{"name":"specifiedPayoutAddress","type":"address","internalType":"address"},{"name":"ownerAddress","type":"address","internalType":"address"},{"name":"salt","type":"bytes32","internalType":"bytes32"},{"name":"confirmationBlocks","type":"uint8","internalType":"uint8"},{"name":"attestedBitcoinBlockHeight","type":"uint64","internalType":"uint64"}]},{"name":"context","type":"uint8","indexed":false,"internalType":"enum Types.VaultUpdateContext"}],"anonymous":false},{"type":"error","name":"CannotOverwriteOngoingSwap","inputs":[]},{"type":"error","name":"ChainworkTooLow","inputs":[]},{"type":"error","name":"CheckpointNotEstablished","inputs":[]},{"type":"error","name":"DepositAmountTooLow","inputs":[]},{"type":"error","name":"DepositStillLocked","inputs":[]},{"type":"error","name":"DepositVaultDoesNotExist","inputs":[]},{"type":"error","name":"DepositVaultNotOverwritable","inputs":[]},{"type":"error","name":"EmptyDepositVault","inputs":[]},{"type":"error","name":"InvalidBlockInclusionProof","inputs":[]},{"type":"error","name":"InvalidConfirmationBlockDelta","inputs":[]},{"type":"error","name":"InvalidScriptPubKey","inputs":[]},{"type":"error","name":"InvalidSwapBlockInclusionProof","inputs":[]},{"type":"error","name":"InvalidVaultCommitment","inputs":[]},{"type":"error","name":"NoFeeToPay","inputs":[]},{"type":"error","name":"NoSwapsToSubmit","inputs":[]},{"type":"error","name":"NotEnoughConfirmations","inputs":[]},{"type":"error","name":"OwnableInvalidOwner","inputs":[{"name":"owner","type":"address","internalType":"address"}]},{"type":"error","name":"OwnableUnauthorizedAccount","inputs":[{"name":"account","type":"address","internalType":"address"}]},{"type":"error","name":"SatOutputTooLow","inputs":[]},{"type":"error","name":"StillInChallengePeriod","inputs":[]},{"type":"error","name":"SwapDoesNotExist","inputs":[]},{"type":"error","name":"SwapNotProved","inputs":[]},{"type":"error","name":"TransferFailed","inputs":[]}],"bytecode":{"object":"0x61010080604052346102795780612fa8803803809161001e82856102b7565b83398101039061010082126102795780519061003c602082016102da565b60408201519161004e606082016102da565b93606061005d608084016102da565b96609f1901126102795760405191606083016001600160401b038111848210176102a35760405260a0810151835260c08101519063ffffffff821682036102795760e091602085015201516040830152805f5560405191604083019083821060018060401b038311176102a357600392604092835260018552602085019182525f526001602052815f209351151560ff8019865416911617845551805160018501556002840163ffffffff60208301511663ffffffff19825416179055015191015533156102905760028054336001600160a01b031982168117909255604051926020928492600492849290916001600160a01b03167f8be0079c531659141344cd1fd0a4f28419497f9722a3daafe3b4186f6b6457e05f80a36001600160a01b0316608081905263313ce56760e01b82525afa908115610285575f91610245575b5060a05260c0526001600160a01b0390811660e052600680546001600160a01b03191692909116919091179055604051612cb990816102ef823960805181818161024b01528181610e2b01528181610ec8015281816114a30152612a39015260a0518161088a015260c0518181816104cb0152818161072201528181610a100152610d21015260e0518181816106980152818161093101528181610cad01526112e00152f35b90506020813d60201161027d575b81610260602093836102b7565b81010312610279575160ff81168103610279575f61019f565b5f80fd5b3d9150610253565b6040513d5f823e3d90fd5b631e4fbdf760e01b5f525f60045260245ffd5b634e487b7160e01b5f52604160045260245ffd5b601f909101601f19168101906001600160401b038211908210176102a357604052565b51906001600160a01b03821682036102795756fe60a06040526004361015610011575f80fd5b5f5f3560e01c806304d177751461130f57806308c84e70146112cb57806309d8a82914610e5a57806313f6658714610e165780631cbeebeb14610dd9578063365df23314610db05780633a6d63ea14610ba45780634276994614610ada578063428f29b814610ab1578063592b6649146108ae5780635b7f415c14610870578063609385501461082b578063640179d8146107cd5780636ddd42f81461056a578063715018a61461050d5780637ed34a36146104ee5780638d5ca052146104b35780638da5cb5b1461048a578063992284a61461046c5780639f63bd971461044d578063a6a0f96e14610413578063ca18100d146103f5578063d21ddc61146103d8578063e85062ac14610348578063eb5e91ff146102e4578063f23a94a9146101f7578063f2fde38b1461016e5763f5095c161461014e575f80fd5b3461016b578060031936011261016b576020600354604051908152f35b80fd5b503461016b57602036600319011261016b576101886117a9565b610190612753565b6001600160a01b031680156101e357600280546001600160a01b0319811683179091556001600160a01b03167f8be0079c531659141344cd1fd0a4f28419497f9722a3daafe3b4186f6b6457e08380a380f35b631e4fbdf760e01b82526004829052602482fd5b503461016b578060031936011261016b5760055480156102d557600582905560065460405163a9059cbb60e01b81526001600160a01b039091166004820152602481019190915260208180604481010381857f00000000000000000000000000000000000000000000000000000000000000006001600160a01b03165af19081156102ca57829161029b575b501561028c5780f35b6312171d8360e31b8152600490fd5b6102bd915060203d6020116102c3575b6102b58183611748565b810190611953565b5f610283565b503d6102ab565b6040513d84823e3d90fd5b630fbcad4560e21b8252600482fd5b503461016b57602036600319011261016b576040608091600435815260016020522061034661031a600160ff8454169301611807565b60405192151583526020830190604080918051845263ffffffff60208201511660208501520151910152565bf35b503461016b57610357366117d3565b906020820161036581611f3e565b5060608301356103c957359180359161017e198236030183121561016b5760206103a46103c1866103bc61039b8289890161279c565b948591936115f4565b90919082549060031b91821b915f19901b1916179055565b61298b565b604051908152f35b630faaae6760e31b8252600482fd5b503461016b578060031936011261016b5760209054604051908152f35b503461016b578060031936011261016b576020600554604051908152f35b503461016b57602036600319011261016b576004359060035482101561016b57602061043e836115f4565b90549060031b1c604051908152f35b503461016b57602036600319011261016b57602061043e6004356115f4565b503461016b578060031936011261016b576020600454604051908152f35b503461016b578060031936011261016b576002546040516001600160a01b039091168152602090f35b503461016b578060031936011261016b5760206040517f00000000000000000000000000000000000000000000000000000000000000008152f35b503461016b57602036600319011261016b57602061043e600435611620565b503461016b578060031936011261016b57610526612753565b600280546001600160a01b0319811690915581906001600160a01b03167f8be0079c531659141344cd1fd0a4f28419497f9722a3daafe3b4186f6b6457e08280a380f35b503461016b57608036600319011261016b576004356001600160401b0381116107a55761059b9036906004016115c4565b90602435906001600160401b0382116107c957816004019260c060031984360301126107a9576044356001600160401b0381116107c5576105e090369060040161164d565b916064356001600160401b0381116107c15761060090369060040161167e565b929094873594602488013592606489019460448a01996106208b8d611d47565b61062a368a611769565b9161063692898d612625565b60840161064290611b7f565b9361064c946120cb565b966106579198611d47565b369061066292611d79565b805190602001209060405194610677866116da565b8552602085015260408401523661068d91611769565b6060830152604051937f00000000000000000000000000000000000000000000000000000000000000006001600160a01b0316906106ca866116ab565b856106f1946106ff9260028b99526020830152604082015260405194859160208301611ddc565b03601f198101855284611748565b803b156107a95761074a9385936040519586948593849363020a49e360e51b85527f000000000000000000000000000000000000000000000000000000000000000060048601611ebb565b03915afa80156102ca57610790575b506040517fe8b89fd0756cdb35ef6d9ff605cca13c890bbd62d2befac12cdf4cf4d3e73a72908061078a8582611cdf565b0390a180f35b8161079a91611748565b6107a557815f610759565b5080fd5b8480fd5b634e487b7160e01b5f52602160045260245ffd5b8780fd5b8580fd5b8380fd5b503461016b576107e86107df366117d3565b6003549061279c565b909160035490600160401b82101561081757506020926103bc836103a48460016103c196016003556003611638565b634e487b7160e01b81526041600452602490fd5b503461016b57602036600319011261016b576108456117a9565b61084d612753565b60018060a01b03166bffffffffffffffffffffffff60a01b600654161760065580f35b503461016b578060031936011261016b57602060405160ff7f0000000000000000000000000000000000000000000000000000000000000000168152f35b503461016b57604036600319011261016b576004356001600160401b0381116107a557806004019060c06003198236030112610aad576024356001600160401b0381116107c95761090390369060040161167e565b9091604481018561091e6109178388611d47565b3691611d79565b8051602090910120946001600160a01b037f0000000000000000000000000000000000000000000000000000000000000000169461095b8361196b565b956109696040519788611748565b838752601f196109788561196b565b01845b818110610a8b575050906106f1916109ed8a3598606460248a013599019a604051906109a6826116da565b8b82528a602083015260408201526109be368d611769565b6060820152604051916109d0836116ab565b600183526020830152604082015260405194859160208301611ddc565b803b156107a957610a389385936040519586948593849363020a49e360e51b85527f000000000000000000000000000000000000000000000000000000000000000060048601611ebb565b03915afa80156102ca57610a6e575b50610a6b610a65868686610a5b878c611d47565b9490933690611769565b91612625565b80f35b81610a7d919695949396611748565b6107c557909192855f610a47565b6020919293949550610a9b611dbe565b82828b01015201908a9493929161097b565b8280fd5b503461016b578060031936011261016b576006546040516001600160a01b039091168152602090f35b503461016b57366003190160a081126107a55760601361016b57604051610b00816116ab565b600435815260243563ffffffff81168103610aad57602082015260443560408201526064356001600160401b038111610aad57610b419036906004016115c4565b906084356001600160401b0381116107a9579160209491610b6a610b9a959436906004016115c4565b929091610b92610b8d5f545f52600160205263ffffffff600260405f2001541690565b611d2f565b945495612520565b6040519015158152f35b5034610dac576060366003190112610dac576004356001600160401b038111610dac57610bd59036906004016115c4565b906024356001600160401b038111610dac57610bf590369060040161164d565b604435916001600160401b038311610dac57610c18610c3d93369060040161167e565b959094610c385f545f52600160205263ffffffff600260405f2001541690565b6120cb565b9092604051610c4b816116da565b5f81525f60208201525f60408201526060610c64611dbe565b91015260405191610c74836116ab565b5f83525f60208401525f604084015260405192610c90846116da565b5f84525f60208501525f6040850152606084015260018060a01b037f00000000000000000000000000000000000000000000000000000000000000001690604051610cda816116ab565b6106f194610cfe925f83526020830152604082015260405194859160208301611ddc565b803b15610dac57610d49935f936040519586948593849363020a49e360e51b85527f000000000000000000000000000000000000000000000000000000000000000060048601611ebb565b03915afa8015610da157610d8a575b5061078a7fe8b89fd0756cdb35ef6d9ff605cca13c890bbd62d2befac12cdf4cf4d3e73a729160405191829182611cdf565b610d979192505f90611748565b5f9061078a610d58565b6040513d5f823e3d90fd5b5f80fd5b34610dac576020366003190112610dac57600435600454811015610dac5761043e602091611620565b34610dac575f366003190112610dac576020610e085f545f52600160205263ffffffff600260405f2001541690565b63ffffffff60405191168152f35b34610dac575f366003190112610dac576040517f00000000000000000000000000000000000000000000000000000000000000006001600160a01b03168152602090f35b34610dac576020366003190112610dac576004356001600160401b038111610dac57610e8a9036906004016115c4565b610e9381611ad6565b90610e9d8161196b565b92610eab6040519485611748565b818452601f19610eba8361196b565b015f5b8181106112b45750507f00000000000000000000000000000000000000000000000000000000000000006001600160a01b03165f5b838110610fe3578585604051604081016040825282518091526020606083019301905f5b818110610fc257505050807fe8b89fd0756cdb35ef6d9ff605cca13c890bbd62d2befac12cdf4cf4d3e73a7292600160208301520390a1604051604081016040825282518091526020606083019301905f5b818110610fa157505050807fabae29d2be997f80e9a4d0baeda7e82a9a341ffe6717cf78aa348afaae370e1d92600260208301520390a1005b909193602061016082610fb76001948951611a34565b019501929101610f68565b909193602061012082610fd86001948951611c62565b019501929101610f16565b610ff6610ff1828686611b5c565b611f7f565b50610100611005828686611b5c565b01356003811015610dac5760019061101c81611acc565b036112a5576001600160401b0361103f6080611039848888611b5c565b01611835565b1642106112965761105d6101a0611057838787611b5c565b01611f3e565b602061106a838787611b5c565b0135036112875761111f6040611081838787611b5c565b013561109a610140611094858989611b5c565b01611b7f565b63ffffffff6101206110ad868a8a611b5c565b013591604051936110bd856116ab565b8452166020830152604082015285856110e56110da868484611b5c565b610160810190611b90565b9060ff61111860606111128a61110a6110ff828b8b611b5c565b610180810190611b90565b999098611b5c565b01611849565b1694611fbc565b611137366101a0611131848888611b5c565b01611879565b5f60408201525f606082015261115961114f82611f57565b6103a483516115f4565b6111638288611a20565b5261116e8187611a20565b506111833661117e838787611b5c565b611bc5565b9060026101008301526111ac61119883612089565b6103a46111a6848989611b5c565b35611620565b6111c660c06111bc838888611b5c565b0135600554611c55565b60055561122160206111e460a06111de858a8a611b5c565b0161193f565b60e06111f1858a8a611b5c565b60405163a9059cbb60e01b81526001600160a01b0390931660048401520135602482015291829081906044820190565b03815f885af1908115610da1575f91611269575b501561125a576001916112488288611a20565b526112538187611a20565b5001610ef2565b6312171d8360e31b5f5260045ffd5b611281915060203d81116102c3576102b58183611748565b88611235565b63ceb1159d60e01b5f5260045ffd5b632d5c37f560e21b5f5260045ffd5b6322fc5d4360e21b5f5260045ffd5b6020906112bf611982565b82828901015201610ebd565b34610dac575f366003190112610dac576040517f00000000000000000000000000000000000000000000000000000000000000006001600160a01b03168152602090f35b34610dac5736600319016101608112610dac5761132a611eff565b506044359081156115b557602435916001600160401b03831691828403610dac57610124359260ff8416808503610dac57611c20029063ffffffff82169182036115a157016001600160401b0381116115a1576001600160401b031642106115925761016013610dac57604051926113a1846116f5565b600435845260208401526040830190808252606084019260643584526084356001600160401b0381168103610dac57608086015260a43566ffffffffffffff1981168103610dac5760a086015260c4356001600160a01b0381168103610dac5760c086015260e435906001600160a01b0382168203610dac578160e08701526101043561010087015261012086015261014435926001600160401b0384168403610dac5761149e945f80926020966101408a0152525261146d61146386611f57565b6103a487516115f4565b60405163a9059cbb60e01b81526001600160a01b039091166004820152602481019190915291829081906044820190565b03815f7f00000000000000000000000000000000000000000000000000000000000000006001600160a01b03165af1908115610da1575f91611573575b501561125a576114e96119d3565b906114f382611a13565b526114fd81611a13565b50604051604081016040825282518091526020606083019301905f5b81811061155257505050807fabae29d2be997f80e9a4d0baeda7e82a9a341ffe6717cf78aa348afaae370e1d92600160208301520390a1005b9091936020610160826115686001948951611a34565b019501929101611519565b61158c915060203d6020116102c3576102b58183611748565b826114db565b6301b512a960e21b5f5260045ffd5b634e487b7160e01b5f52601160045260245ffd5b637941e9ad60e01b5f5260045ffd5b9181601f84011215610dac578235916001600160401b038311610dac576020808501948460051b010111610dac57565b60035481101561160c5760035f5260205f2001905f90565b634e487b7160e01b5f52603260045260245ffd5b60045481101561160c5760045f5260205f2001905f90565b805482101561160c575f5260205f2001905f90565b9181601f84011215610dac578235916001600160401b038311610dac576020808501946101208502010111610dac57565b9181601f84011215610dac578235916001600160401b038311610dac5760208381860195010111610dac57565b606081019081106001600160401b038211176116c657604052565b634e487b7160e01b5f52604160045260245ffd5b608081019081106001600160401b038211176116c657604052565b61016081019081106001600160401b038211176116c657604052565b61012081019081106001600160401b038211176116c657604052565b604081019081106001600160401b038211176116c657604052565b90601f801991011681019081106001600160401b038211176116c657604052565b9190826060910312610dac57604051611781816116ab565b809280358252602081013563ffffffff81168103610dac576020830152604090810135910152565b600435906001600160a01b0382168203610dac57565b35906001600160a01b0382168203610dac57565b6020600319820112610dac57600435906001600160401b038211610dac57610180908290036003190112610dac5760040190565b90604051611814816116ab565b6040600282948054845263ffffffff60018201541660208501520154910152565b356001600160401b0381168103610dac5790565b3560ff81168103610dac5790565b35906001600160401b0382168203610dac57565b359060ff82168203610dac57565b919082610160910312610dac57604051611892816116f5565b8092803582526118a460208201611857565b602083015260408101356040830152606081013560608301526118c960808201611857565b608083015260a08101359066ffffffffffffff1982168203610dac5761014061193a91819360a08601526118ff60c082016117bf565b60c086015261191060e082016117bf565b60e086015261010081013561010086015261192e610120820161186b565b61012086015201611857565b910152565b356001600160a01b0381168103610dac5790565b90816020910312610dac57518015158103610dac5790565b6001600160401b0381116116c65760051b60200190565b6040519061198f826116f5565b5f610140838281528260208201528260408201528260608201528260808201528260a08201528260c08201528260e082015282610100820152826101208201520152565b604080519091906119e48382611748565b6001815291601f1901825f5b8281106119fc57505050565b602090611a07611982565b828285010152016119f0565b80511561160c5760200190565b805182101561160c5760209160051b010190565b6001600160401b03610140809280518552826020820151166020860152604081015160408601526060810151606086015282608082015116608086015266ffffffffffffff1960a08201511660a086015260018060a01b0360c08201511660c086015260018060a01b0360e08201511660e086015261010081015161010086015260ff61012082015116610120860152015116910152565b600311156107ad57565b90611ae08261196b565b611aed6040519182611748565b8281528092611afe601f199161196b565b01905f5b828110611b0e57505050565b602090604051611b1d81611711565b5f81525f838201525f60408201525f60608201525f60808201525f60a08201525f60c08201525f60e08201525f61010082015282828501015201611b02565b919081101561160c5760051b8101359061031e1981360301821215610dac570190565b3563ffffffff81168103610dac5790565b903590601e1981360301821215610dac57018035906001600160401b038211610dac57602001918160051b36038313610dac57565b919082610120910312610dac57604051611bde81611711565b6101008193803583526020810135602084015260408101356040840152611c076060820161186b565b6060840152611c1860808201611857565b6080840152611c2960a082016117bf565b60a084015260c081013560c084015260e081013560e08401520135906003821015610dac576101000152565b919082018092116115a157565b610100809180518452602081015160208501526040810151604085015260ff60608201511660608501526001600160401b03608082015116608085015260018060a01b0360a08201511660a085015260c081015160c085015260e081015160e0850152015191611cd183611acc565b0152565b600211156107ad57565b9190604083016040845281518091526020606085019201905f5b818110611d0e5750919391505060205f910152565b909192602061012082611d246001948851611c62565b019401929101611cf9565b63ffffffff60019116019063ffffffff82116115a157565b903590601e1981360301821215610dac57018035906001600160401b038211610dac57602001918136038313610dac57565b9291926001600160401b0382116116c65760405191611da2601f8201601f191660200184611748565b829481845281830111610dac578281602093845f960137010152565b60405190611dcb826116ab565b5f6040838281528260208201520152565b602081526101208101918051611df181611acc565b602083015260208101519261010060408401528351809152602061014084019401905f5b818110611e6d575050509060c060606040611e6a94015180518285015260208101516080850152604081015160a08501520151910190604080918051845263ffffffff60208201511660208501520151910152565b90565b9091946020606060019260408951805183528481015185840152015160408201520196019101919091611e15565b908060209392818452848401375f828201840152601f01601f1916010190565b6020611e6a959360809383526060828401528051918291826060860152018484015e5f838284010152601f8019910116810190604083828403019101520191611e9b565b611f12611f0d366004611879565b611f57565b611f1f6004356003611638565b90549060031b1c8103611f2f5790565b63cd1d240d60e01b5f5260045ffd5b611f1f611f4e611f0d3684611879565b91356003611638565b604051611f68602082018093611a34565b6101608152611f7961018082611748565b51902090565b611f9d611f94611f8f3684611bc5565b612089565b91356004611638565b90549060031b1c8103611fad5790565b631a40316d60e01b5f5260045ffd5b9463ffffffff16939091906002851061207a57611ffd93611ff3610b8d5f545f52600160205263ffffffff600260405f2001541690565b925f549488612520565b1561206b5763ffffffff60206120265f545f52600160205263ffffffff600260405f2001541690565b93015116905f190163ffffffff81116115a15763ffffffff160163ffffffff81116115a15763ffffffff80911691161061205c57565b635c9885ab60e11b5f5260045ffd5b637344e0b760e01b5f5260045ffd5b638e082f6760e01b5f5260045ffd5b60405161209a602082018093611c62565b6101208152611f7961014082611748565b3561ffff81168103610dac5790565b919081101561160c57610120020190565b909391936080528315612501576120e18461196b565b6120ee6040519182611748565b848152601f196120fd8661196b565b015f5b8181106124ea575050809161211486611ad6565b92600454975f985b888a10156124de5780998060051b608051013561025e19608051360301811215610dac5760026101808260805101013510159283610dac5761216661018083608051010135611cd5565b6080518201610180013561243b575f1981146115a1576001019b5b60208260805101016121933682611879565b606060408201519101908151918260011b92808404600214901517156115a1576121c8916121c291519061278f565b92611f3e565b8a61226b6101c087608051010161220c898235946040516121e8816116ab565b8b608051013581528660208201528760408201526122068383611a20565b52611a20565b506122666122266102208a60805101018a60805101611b90565b60805191939161223d908c01610240810190611b90565b916101408d60805101019560ff61225e61225689611849565b963690611769565b951694611fbc565b611849565b6001600160401b03612284610160896080510101611835565b1663ffffffff8d16036001600160401b0381116115a1576001600160401b03166085026001600160401b0381169081036115a15761e3b3016001600160401b0381116115a1576001600160401b036103e88161012c9316041601906001600160401b0382116115a1576001600160401b036123038160ff941642611c55565b169261231560e08a608051010161193f565b94604051986123238a611711565b89526020890152604088015216606086015260808501526001600160a01b031660a084015260c083015260e08201526001610100820152612364838a611a20565b5261236f8289611a20565b5061238361237d838a611a20565b51612089565b92610dac57888a9161239d61018082608051010135611cd5565b608051810161018001356123db57505050600454600160401b8110156116c6576001926103a482856123d494016004556004611638565b019861211c565b90600194916123f261018082608051010135611cd5565b85610180826080510101351461240c575b505050506123d4565b612432936103a49261ffff61242b6101a06111a69560805101016120ab565b16916120ba565b885f8981612403565b9b92505f9261245261018083608051010135611cd5565b6001610180836080510101350361218157506101a0816080510101612481610ff18c8c61ffff61242b866120ab565b506101006124968c8c61ffff61242b866120ab565b01356003811015610dac576002906124ad81611acc565b036124cf5761ffff6124c16124c9926120ab565b168a8c6120ba565b35612181565b63a5f611fd60e01b5f5260045ffd5b50955095505050935050565b6020906124f5611dbe565b82828601015201612100565b6308d98c4f60e01b5f5260045ffd5b919081101561160c5760051b0190565b919093929363ffffffff61255784516020860195604084885116910151919091606092604051928352602083015260408201522090565b935116905f925b8084106125d457505050505f905f5b8381106125ae575b5050156125a65761258591612ab9565b90811561259f5763ffffffff165f5260205260405f201490565b5050505f90565b505050505f90565b816125ba828688612510565b35146125c85760010161256d565b50505060015f80612575565b9293600183811c949293811603612607576125f0858385612510565b355f52602052600160405f20945b0192919061255e565b612612858385612510565b35905f52602052600160405f20946125fe565b9190925f5480851461274b57835f52600160205260405f2061265e60016040519261264f8461172d565b60ff8154161515845201611807565b6020820152511561273c575f526001602052600360405f2001546040830151111561272d577f6768baae39ee0e687f7c44f7006a147b15ffb56031969140096fe95461eea2fd9461272892600360408051926126b98461172d565b6001845260208401908152885f526001602052815f209351151560ff8019865416911617845551805160018501556002840163ffffffff60208301511663ffffffff198254161790550151910155845f5560405194859485526020850152606060408501526060840191611e9b565b0390a1565b6307800bf560e21b5f5260045ffd5b63e1965c6560e01b5f5260045ffd5b505050505050565b6002546001600160a01b0316330361276757565b63118cdaa760e01b5f523360045260245ffd5b3566ffffffffffffff1981168103610dac5790565b919082039182116115a157565b9190916127a7611982565b5060408101356107d1811061297c5760608201906103e86001600160401b036127cf84611835565b161061296d5760808301926127eb6127e68561277a565b612b0a565b1561295e57612848612801610140830183611b90565b90612810610160850185611b90565b9061281e3660e08801611769565b9361283f610b8d5f545f52600160205263ffffffff600260405f2001541690565b935f5495612520565b1561294f576005820291808304600514811517156115a15763ffffffff9461288961288361287d61271060ff9704809561278f565b96611835565b9161277a565b6128956020850161193f565b906001600160401b036128a78661193f565b936128cb468d60a08a01359091606092604051928352602083015260408201522090565b956128e56101006128de60c08b01611849565b9901611b7f565b99604080519e8f906128f6826116f5565b81524286166020820152015260608d01521660808b015266ffffffffffffff191660a08a01526001600160a01b0390811660c08a01521660e08801526101008701521661012085015216610140830152611e6a82611f57565b634784fd3160e01b5f5260045ffd5b63fad7db0760e01b5f5260045ffd5b63fde5943160e01b5f5260045ffd5b6355fcd02760e01b5f5260045ffd5b6129936119d3565b908061299e83611a13565b526129a882611a13565b5060405191604083016040845281518091526020606085019201905f5b818110612a985750505082807fabae29d2be997f80e9a4d0baeda7e82a9a341ffe6717cf78aa348afaae370e1d925f6020612a0f9701520390a16060604082015191015190611c55565b6040516323b872dd60e01b815233600482015230602482015260448101919091526020816064815f7f00000000000000000000000000000000000000000000000000000000000000006001600160a01b03165af1908115610da1575f91612a79575b501561125a57565b612a92915060203d6020116102c3576102b58183611748565b5f612a71565b909192602061016082612aae6001948851611a34565b0194019291016129c5565b8115612b04575f198201918083116115a157612ad6838284612510565b3592805b612ae45750505090565b5f190192612af3848385612510565b355f526020528260405f2093612ada565b50505f90565b5f81901a60f81b6001600160f81b03191680612b65575069ffffffffffffffffffff19165f81901a60f81b6001600160f81b031916159081612b4a575090565b60011a60f81b6001600160f81b031916600560fa1b14919050565b60a960f81b8103612bde575068ffffffffffffffffff19165f81901a60f81b6001600160f81b03191660a960f81b149081612bbf575b81612ba4575090565b60161a60f81b6001600160f81b031916608760f81b14919050565b600181901a60f81b6001600160f81b031916600560fa1b149150612b9b565b603b60f91b149081612bf05750505f90565b81612c64575b81612c45575b81612c26575b81612c0b575090565b60181a60f81b6001600160f81b031916602b60fa1b14919050565b601781901a60f81b6001600160f81b031916601160fb1b149150612c02565b600281901a60f81b6001600160f81b031916600560fa1b149150612bfc565b600181901a60f81b6001600160f81b03191660a960f81b149150612bf656fea2646970667358221220581b7d1ce73d3a1124c3570e16a09a3cd931fa2e4af6c85a4a41abc226cd515964736f6c634300081c0033","linkReferences":{}},"methodIdentifiers":{"CIRCUIT_VERIFICATION_KEY()":"8d5ca052","DEPOSIT_TOKEN()":"13f66587","TOKEN_DECIMALS()":"5b7f415c","VERIFIER()":"08c84e70","accumulatedFeeBalance()":"ca18100d","checkpoints(bytes32)":"eb5e91ff","depositLiquidity((address,address,uint256,uint64,bytes25,bytes32,uint8,(bytes32,uint32,uint256),bytes32[],bytes32[]))":"640179d8","depositLiquidityWithOverwrite(((address,address,uint256,uint64,bytes25,bytes32,uint8,(bytes32,uint32,uint256),bytes32[],bytes32[]),(uint256,uint64,uint256,uint256,uint64,bytes25,address,address,bytes32,uint8,uint64)))":"e85062ac","feeRouterAddress()":"428f29b8","getLightClientHeight()":"1cbeebeb","getSwapCommitment(uint256)":"7ed34a36","getSwapCommitmentsLength()":"992284a6","getVaultCommitment(uint256)":"9f63bd97","getVaultCommitmentsLength()":"f5095c16","mmrRoot()":"d21ddc61","owner()":"8da5cb5b","payoutToFeeRouter()":"f23a94a9","proveBlockInclusion((bytes32,uint32,uint256),bytes32[],bytes32[])":"42769946","releaseLiquidityBatch(((uint256,bytes32,bytes32,uint8,uint64,address,uint256,uint256,uint8),uint256,uint32,bytes32[],bytes32[],(uint256,uint64,uint256,uint256,uint64,bytes25,address,address,bytes32,uint8,uint64),uint32)[])":"09d8a829","renounceOwnership()":"715018a6","setFeeRouterAddress(address)":"60938550","submitBatchSwapProof((bytes32,(uint256,uint64,uint256,uint256,uint64,bytes25,address,address,bytes32,uint8,uint64),uint8,uint16,(bytes32,uint32,uint256),bytes32[],bytes32[])[],(uint256,bytes32,bytes32,uint8,uint64,address,uint256,uint256,uint8)[],bytes)":"3a6d63ea","submitBatchSwapProofWithLightClientUpdate((bytes32,(uint256,uint64,uint256,uint256,uint64,bytes25,address,address,bytes32,uint8,uint64),uint8,uint16,(bytes32,uint32,uint256),bytes32[],bytes32[])[],(bytes32,bytes32,bytes,(bytes32,uint32,uint256)),(uint256,bytes32,bytes32,uint8,uint64,address,uint256,uint256,uint8)[],bytes)":"6ddd42f8","swapCommitments(uint256)":"365df233","transferOwnership(address)":"f2fde38b","updateLightClient((bytes32,bytes32,bytes,(bytes32,uint32,uint256)),bytes)":"592b6649","vaultCommitments(uint256)":"a6a0f96e","withdrawLiquidity((uint256,uint64,uint256,uint256,uint64,bytes25,address,address,bytes32,uint8,uint64))":"04d17775"},"storageLayout":{"storage":[{"astId":41887,"contract":"src/RiftExchange.sol:RiftExchange","label":"mmrRoot","offset":0,"slot":"0","type":"t_bytes32"},{"astId":41892,"contract":"src/RiftExchange.sol:RiftExchange","label":"checkpoints","offset":0,"slot":"1","type":"t_mapping(t_bytes32,t_struct(BitcoinCheckpoint)44288_storage)"},{"astId":8,"contract":"src/RiftExchange.sol:RiftExchange","label":"_owner","offset":0,"slot":"2","type":"t_address"},{"astId":42135,"contract":"src/RiftExchange.sol:RiftExchange","label":"vaultCommitments","offset":0,"slot":"3","type":"t_array(t_bytes32)dyn_storage"},{"astId":42138,"contract":"src/RiftExchange.sol:RiftExchange","label":"swapCommitments","offset":0,"slot":"4","type":"t_array(t_bytes32)dyn_storage"},{"astId":42140,"contract":"src/RiftExchange.sol:RiftExchange","label":"accumulatedFeeBalance","offset":0,"slot":"5","type":"t_uint256"},{"astId":42142,"contract":"src/RiftExchange.sol:RiftExchange","label":"feeRouterAddress","offset":0,"slot":"6","type":"t_address"}],"types":{"t_address":{"encoding":"inplace","label":"address","numberOfBytes":"20"},"t_array(t_bytes32)dyn_storage":{"encoding":"dynamic_array","label":"bytes32[]","numberOfBytes":"32","base":"t_bytes32"},"t_bool":{"encoding":"inplace","label":"bool","numberOfBytes":"1"},"t_bytes32":{"encoding":"inplace","label":"bytes32","numberOfBytes":"32"},"t_mapping(t_bytes32,t_struct(BitcoinCheckpoint)44288_storage)":{"encoding":"mapping","key":"t_bytes32","label":"mapping(bytes32 => struct Types.BitcoinCheckpoint)","numberOfBytes":"32","value":"t_struct(BitcoinCheckpoint)44288_storage"},"t_struct(BitcoinCheckpoint)44288_storage":{"encoding":"inplace","label":"struct Types.BitcoinCheckpoint","numberOfBytes":"128","members":[{"astId":44284,"contract":"src/RiftExchange.sol:RiftExchange","label":"established","offset":0,"slot":"0","type":"t_bool"},{"astId":44287,"contract":"src/RiftExchange.sol:RiftExchange","label":"tipBlockLeaf","offset":0,"slot":"1","type":"t_struct(BlockLeaf)44079_storage"}]},"t_struct(BlockLeaf)44079_storage":{"encoding":"inplace","label":"struct Types.BlockLeaf","numberOfBytes":"96","members":[{"astId":44074,"contract":"src/RiftExchange.sol:RiftExchange","label":"blockHash","offset":0,"slot":"0","type":"t_bytes32"},{"astId":44076,"contract":"src/RiftExchange.sol:RiftExchange","label":"height","offset":0,"slot":"1","type":"t_uint32"},{"astId":44078,"contract":"src/RiftExchange.sol:RiftExchange","label":"cumulativeChainwork","offset":0,"slot":"2","type":"t_uint256"}]},"t_uint256":{"encoding":"inplace","label":"uint256","numberOfBytes":"32"},"t_uint32":{"encoding":"inplace","label":"uint32","numberOfBytes":"4"}}},"id":41}