{"abi":[{"type":"constructor","inputs":[{"name":"_mmrRoot","type":"bytes32","internalType":"bytes32"},{"name":"_initialCheckpointLeaf","type":"tuple","internalType":"struct Types.BlockLeaf","components":[{"name":"blockHash","type":"bytes32","internalType":"bytes32"},{"name":"height","type":"uint64","internalType":"uint64"},{"name":"cumulativeChainwork","type":"uint256","internalType":"uint256"}]},{"name":"_depositToken","type":"address","internalType":"address"},{"name":"_circuitVerificationKey","type":"bytes32","internalType":"bytes32"},{"name":"_verifier","type":"address","internalType":"address"},{"name":"_feeRouter","type":"address","internalType":"address"}],"stateMutability":"nonpayable"},{"type":"function","name":"CIRCUIT_VERIFICATION_KEY","inputs":[],"outputs":[{"name":"","type":"bytes32","internalType":"bytes32"}],"stateMutability":"view"},{"type":"function","name":"DEPOSIT_TOKEN","inputs":[],"outputs":[{"name":"","type":"address","internalType":"contract IERC20"}],"stateMutability":"view"},{"type":"function","name":"FEE_ROUTER_ADDRESS","inputs":[],"outputs":[{"name":"","type":"address","internalType":"address"}],"stateMutability":"view"},{"type":"function","name":"TOKEN_DECIMALS","inputs":[],"outputs":[{"name":"","type":"uint8","internalType":"uint8"}],"stateMutability":"view"},{"type":"function","name":"VERIFIER","inputs":[],"outputs":[{"name":"","type":"address","internalType":"contract ISP1Verifier"}],"stateMutability":"view"},{"type":"function","name":"_proveBlockInclusion","inputs":[{"name":"blockLeaf","type":"tuple","internalType":"struct Types.BlockLeaf","components":[{"name":"blockHash","type":"bytes32","internalType":"bytes32"},{"name":"height","type":"uint64","internalType":"uint64"},{"name":"cumulativeChainwork","type":"uint256","internalType":"uint256"}]},{"name":"inclusionProof","type":"bytes32[]","internalType":"bytes32[]"}],"outputs":[{"name":"","type":"bool","internalType":"bool"}],"stateMutability":"view"},{"type":"function","name":"_proveBlockInclusionAtTip","inputs":[{"name":"blockLeaf","type":"tuple","internalType":"struct Types.BlockLeaf","components":[{"name":"blockHash","type":"bytes32","internalType":"bytes32"},{"name":"height","type":"uint64","internalType":"uint64"},{"name":"cumulativeChainwork","type":"uint256","internalType":"uint256"}]},{"name":"inclusionProof","type":"bytes32[]","internalType":"bytes32[]"}],"outputs":[{"name":"","type":"bool","internalType":"bool"}],"stateMutability":"view"},{"type":"function","name":"accumulatedFeeBalance","inputs":[],"outputs":[{"name":"","type":"uint256","internalType":"uint256"}],"stateMutability":"view"},{"type":"function","name":"depositLiquidity","inputs":[{"name":"specifiedPayoutAddress","type":"address","internalType":"address"},{"name":"depositAmountInSmallestTokenUnit","type":"uint256","internalType":"uint256"},{"name":"expectedSats","type":"uint64","internalType":"uint64"},{"name":"btcPayoutScriptPubKey","type":"bytes22","internalType":"bytes22"},{"name":"depositSalt","type":"bytes32","internalType":"bytes32"},{"name":"confirmationBlocks","type":"uint8","internalType":"uint8"},{"name":"tipBlockLeaf","type":"tuple","internalType":"struct Types.BlockLeaf","components":[{"name":"blockHash","type":"bytes32","internalType":"bytes32"},{"name":"height","type":"uint64","internalType":"uint64"},{"name":"cumulativeChainwork","type":"uint256","internalType":"uint256"}]},{"name":"tipBlockInclusionProof","type":"bytes32[]","internalType":"bytes32[]"}],"outputs":[],"stateMutability":"nonpayable"},{"type":"function","name":"depositLiquidityWithOverwrite","inputs":[{"name":"specifiedPayoutAddress","type":"address","internalType":"address"},{"name":"depositAmountInSmallestTokenUnit","type":"uint256","internalType":"uint256"},{"name":"expectedSats","type":"uint64","internalType":"uint64"},{"name":"btcPayoutScriptPubKey","type":"bytes22","internalType":"bytes22"},{"name":"depositSalt","type":"bytes32","internalType":"bytes32"},{"name":"confirmationBlocks","type":"uint8","internalType":"uint8"},{"name":"tipBlockLeaf","type":"tuple","internalType":"struct Types.BlockLeaf","components":[{"name":"blockHash","type":"bytes32","internalType":"bytes32"},{"name":"height","type":"uint64","internalType":"uint64"},{"name":"cumulativeChainwork","type":"uint256","internalType":"uint256"}]},{"name":"tipBlockInclusionProof","type":"bytes32[]","internalType":"bytes32[]"},{"name":"overwriteVault","type":"tuple","internalType":"struct Types.DepositVault","components":[{"name":"vaultIndex","type":"uint256","internalType":"uint256"},{"name":"depositTimestamp","type":"uint64","internalType":"uint64"},{"name":"depositAmount","type":"uint256","internalType":"uint256"},{"name":"depositFee","type":"uint256","internalType":"uint256"},{"name":"expectedSats","type":"uint64","internalType":"uint64"},{"name":"btcPayoutScriptPubKey","type":"bytes22","internalType":"bytes22"},{"name":"specifiedPayoutAddress","type":"address","internalType":"address"},{"name":"ownerAddress","type":"address","internalType":"address"},{"name":"nonce","type":"bytes32","internalType":"bytes32"},{"name":"confirmationBlocks","type":"uint8","internalType":"uint8"},{"name":"attestedBitcoinBlockHeight","type":"uint64","internalType":"uint64"}]}],"outputs":[],"stateMutability":"nonpayable"},{"type":"function","name":"getSwapCommitment","inputs":[{"name":"swapIndex","type":"uint256","internalType":"uint256"}],"outputs":[{"name":"","type":"bytes32","internalType":"bytes32"}],"stateMutability":"view"},{"type":"function","name":"getSwapCommitmentsLength","inputs":[],"outputs":[{"name":"","type":"uint256","internalType":"uint256"}],"stateMutability":"view"},{"type":"function","name":"getVaultCommitment","inputs":[{"name":"vaultIndex","type":"uint256","internalType":"uint256"}],"outputs":[{"name":"","type":"bytes32","internalType":"bytes32"}],"stateMutability":"view"},{"type":"function","name":"getVaultCommitmentsLength","inputs":[],"outputs":[{"name":"","type":"uint256","internalType":"uint256"}],"stateMutability":"view"},{"type":"function","name":"initialCheckpointLeaf","inputs":[],"outputs":[{"name":"blockHash","type":"bytes32","internalType":"bytes32"},{"name":"height","type":"uint64","internalType":"uint64"},{"name":"cumulativeChainwork","type":"uint256","internalType":"uint256"}],"stateMutability":"view"},{"type":"function","name":"mmrRoot","inputs":[],"outputs":[{"name":"","type":"bytes32","internalType":"bytes32"}],"stateMutability":"view"},{"type":"function","name":"payoutToFeeRouter","inputs":[],"outputs":[],"stateMutability":"nonpayable"},{"type":"function","name":"releaseLiquidity","inputs":[{"name":"swap","type":"tuple","internalType":"struct Types.ProposedSwap","components":[{"name":"swapIndex","type":"uint256","internalType":"uint256"},{"name":"aggregateVaultCommitment","type":"bytes32","internalType":"bytes32"},{"name":"swapBitcoinBlockHash","type":"bytes32","internalType":"bytes32"},{"name":"confirmationBlocks","type":"uint8","internalType":"uint8"},{"name":"liquidityUnlockTimestamp","type":"uint64","internalType":"uint64"},{"name":"specifiedPayoutAddress","type":"address","internalType":"address"},{"name":"totalSwapFee","type":"uint256","internalType":"uint256"},{"name":"totalSwapOutput","type":"uint256","internalType":"uint256"},{"name":"state","type":"uint8","internalType":"enum Types.SwapState"}]},{"name":"swapBlockChainwork","type":"uint256","internalType":"uint256"},{"name":"swapBlockHeight","type":"uint64","internalType":"uint64"},{"name":"bitcoinSwapBlockInclusionProof","type":"bytes32[]","internalType":"bytes32[]"},{"name":"bitcoinConfirmationBlockInclusionProof","type":"bytes32[]","internalType":"bytes32[]"},{"name":"bitcoinConfirmationBlockLeaf","type":"tuple","internalType":"struct Types.BlockLeaf","components":[{"name":"blockHash","type":"bytes32","internalType":"bytes32"},{"name":"height","type":"uint64","internalType":"uint64"},{"name":"cumulativeChainwork","type":"uint256","internalType":"uint256"}]},{"name":"utilizedVaults","type":"tuple[]","internalType":"struct Types.DepositVault[]","components":[{"name":"vaultIndex","type":"uint256","internalType":"uint256"},{"name":"depositTimestamp","type":"uint64","internalType":"uint64"},{"name":"depositAmount","type":"uint256","internalType":"uint256"},{"name":"depositFee","type":"uint256","internalType":"uint256"},{"name":"expectedSats","type":"uint64","internalType":"uint64"},{"name":"btcPayoutScriptPubKey","type":"bytes22","internalType":"bytes22"},{"name":"specifiedPayoutAddress","type":"address","internalType":"address"},{"name":"ownerAddress","type":"address","internalType":"address"},{"name":"nonce","type":"bytes32","internalType":"bytes32"},{"name":"confirmationBlocks","type":"uint8","internalType":"uint8"},{"name":"attestedBitcoinBlockHeight","type":"uint64","internalType":"uint64"}]}],"outputs":[],"stateMutability":"nonpayable"},{"type":"function","name":"submitSwapProof","inputs":[{"name":"swapBitcoinTxid","type":"bytes32","internalType":"bytes32"},{"name":"swapBitcoinBlockHash","type":"bytes32","internalType":"bytes32"},{"name":"vaults","type":"tuple[]","internalType":"struct Types.DepositVault[]","components":[{"name":"vaultIndex","type":"uint256","internalType":"uint256"},{"name":"depositTimestamp","type":"uint64","internalType":"uint64"},{"name":"depositAmount","type":"uint256","internalType":"uint256"},{"name":"depositFee","type":"uint256","internalType":"uint256"},{"name":"expectedSats","type":"uint64","internalType":"uint64"},{"name":"btcPayoutScriptPubKey","type":"bytes22","internalType":"bytes22"},{"name":"specifiedPayoutAddress","type":"address","internalType":"address"},{"name":"ownerAddress","type":"address","internalType":"address"},{"name":"nonce","type":"bytes32","internalType":"bytes32"},{"name":"confirmationBlocks","type":"uint8","internalType":"uint8"},{"name":"attestedBitcoinBlockHeight","type":"uint64","internalType":"uint64"}]},{"name":"specifiedPayoutAddress","type":"address","internalType":"address"},{"name":"priorMmrRoot","type":"bytes32","internalType":"bytes32"},{"name":"newMmrRoot","type":"bytes32","internalType":"bytes32"},{"name":"confirmationBlocks","type":"uint8","internalType":"uint8"},{"name":"totalSwapFee","type":"uint256","internalType":"uint256"},{"name":"totalSwapOutput","type":"uint256","internalType":"uint256"},{"name":"proof","type":"bytes","internalType":"bytes"},{"name":"compressedBlockLeaves","type":"bytes","internalType":"bytes"},{"name":"tipBlockLeaf","type":"tuple","internalType":"struct Types.BlockLeaf","components":[{"name":"blockHash","type":"bytes32","internalType":"bytes32"},{"name":"height","type":"uint64","internalType":"uint64"},{"name":"cumulativeChainwork","type":"uint256","internalType":"uint256"}]},{"name":"tipBlockInclusionProof","type":"bytes32[]","internalType":"bytes32[]"}],"outputs":[],"stateMutability":"nonpayable"},{"type":"function","name":"submitSwapProofWithOverwrite","inputs":[{"name":"swapBitcoinBlockHash","type":"bytes32","internalType":"bytes32"},{"name":"swapBitcoinTxid","type":"bytes32","internalType":"bytes32"},{"name":"confirmationBlocks","type":"uint8","internalType":"uint8"},{"name":"vaults","type":"tuple[]","internalType":"struct Types.DepositVault[]","components":[{"name":"vaultIndex","type":"uint256","internalType":"uint256"},{"name":"depositTimestamp","type":"uint64","internalType":"uint64"},{"name":"depositAmount","type":"uint256","internalType":"uint256"},{"name":"depositFee","type":"uint256","internalType":"uint256"},{"name":"expectedSats","type":"uint64","internalType":"uint64"},{"name":"btcPayoutScriptPubKey","type":"bytes22","internalType":"bytes22"},{"name":"specifiedPayoutAddress","type":"address","internalType":"address"},{"name":"ownerAddress","type":"address","internalType":"address"},{"name":"nonce","type":"bytes32","internalType":"bytes32"},{"name":"confirmationBlocks","type":"uint8","internalType":"uint8"},{"name":"attestedBitcoinBlockHeight","type":"uint64","internalType":"uint64"}]},{"name":"specifiedPayoutAddress","type":"address","internalType":"address"},{"name":"priorMmrRoot","type":"bytes32","internalType":"bytes32"},{"name":"newMmrRoot","type":"bytes32","internalType":"bytes32"},{"name":"totalSwapFee","type":"uint256","internalType":"uint256"},{"name":"totalSwapOutput","type":"uint256","internalType":"uint256"},{"name":"proof","type":"bytes","internalType":"bytes"},{"name":"compressedBlockLeaves","type":"bytes","internalType":"bytes"},{"name":"overwriteSwap","type":"tuple","internalType":"struct Types.ProposedSwap","components":[{"name":"swapIndex","type":"uint256","internalType":"uint256"},{"name":"aggregateVaultCommitment","type":"bytes32","internalType":"bytes32"},{"name":"swapBitcoinBlockHash","type":"bytes32","internalType":"bytes32"},{"name":"confirmationBlocks","type":"uint8","internalType":"uint8"},{"name":"liquidityUnlockTimestamp","type":"uint64","internalType":"uint64"},{"name":"specifiedPayoutAddress","type":"address","internalType":"address"},{"name":"totalSwapFee","type":"uint256","internalType":"uint256"},{"name":"totalSwapOutput","type":"uint256","internalType":"uint256"},{"name":"state","type":"uint8","internalType":"enum Types.SwapState"}]},{"name":"tipBlockLeaf","type":"tuple","internalType":"struct Types.BlockLeaf","components":[{"name":"blockHash","type":"bytes32","internalType":"bytes32"},{"name":"height","type":"uint64","internalType":"uint64"},{"name":"cumulativeChainwork","type":"uint256","internalType":"uint256"}]},{"name":"tipBlockInclusionProof","type":"bytes32[]","internalType":"bytes32[]"}],"outputs":[],"stateMutability":"nonpayable"},{"type":"function","name":"swapCommitments","inputs":[{"name":"","type":"uint256","internalType":"uint256"}],"outputs":[{"name":"","type":"bytes32","internalType":"bytes32"}],"stateMutability":"view"},{"type":"function","name":"vaultCommitments","inputs":[{"name":"","type":"uint256","internalType":"uint256"}],"outputs":[{"name":"","type":"bytes32","internalType":"bytes32"}],"stateMutability":"view"},{"type":"function","name":"withdrawLiquidity","inputs":[{"name":"vault","type":"tuple","internalType":"struct Types.DepositVault","components":[{"name":"vaultIndex","type":"uint256","internalType":"uint256"},{"name":"depositTimestamp","type":"uint64","internalType":"uint64"},{"name":"depositAmount","type":"uint256","internalType":"uint256"},{"name":"depositFee","type":"uint256","internalType":"uint256"},{"name":"expectedSats","type":"uint64","internalType":"uint64"},{"name":"btcPayoutScriptPubKey","type":"bytes22","internalType":"bytes22"},{"name":"specifiedPayoutAddress","type":"address","internalType":"address"},{"name":"ownerAddress","type":"address","internalType":"address"},{"name":"nonce","type":"bytes32","internalType":"bytes32"},{"name":"confirmationBlocks","type":"uint8","internalType":"uint8"},{"name":"attestedBitcoinBlockHeight","type":"uint64","internalType":"uint64"}]}],"outputs":[],"stateMutability":"nonpayable"},{"type":"event","name":"BlockTreeUpdated","inputs":[{"name":"treeRoot","type":"bytes32","indexed":false,"internalType":"bytes32"}],"anonymous":false},{"type":"event","name":"SwapUpdated","inputs":[{"name":"swap","type":"tuple","indexed":false,"internalType":"struct Types.ProposedSwap","components":[{"name":"swapIndex","type":"uint256","internalType":"uint256"},{"name":"aggregateVaultCommitment","type":"bytes32","internalType":"bytes32"},{"name":"swapBitcoinBlockHash","type":"bytes32","internalType":"bytes32"},{"name":"confirmationBlocks","type":"uint8","internalType":"uint8"},{"name":"liquidityUnlockTimestamp","type":"uint64","internalType":"uint64"},{"name":"specifiedPayoutAddress","type":"address","internalType":"address"},{"name":"totalSwapFee","type":"uint256","internalType":"uint256"},{"name":"totalSwapOutput","type":"uint256","internalType":"uint256"},{"name":"state","type":"uint8","internalType":"enum Types.SwapState"}]}],"anonymous":false},{"type":"event","name":"VaultUpdated","inputs":[{"name":"vault","type":"tuple","indexed":false,"internalType":"struct Types.DepositVault","components":[{"name":"vaultIndex","type":"uint256","internalType":"uint256"},{"name":"depositTimestamp","type":"uint64","internalType":"uint64"},{"name":"depositAmount","type":"uint256","internalType":"uint256"},{"name":"depositFee","type":"uint256","internalType":"uint256"},{"name":"expectedSats","type":"uint64","internalType":"uint64"},{"name":"btcPayoutScriptPubKey","type":"bytes22","internalType":"bytes22"},{"name":"specifiedPayoutAddress","type":"address","internalType":"address"},{"name":"ownerAddress","type":"address","internalType":"address"},{"name":"nonce","type":"bytes32","internalType":"bytes32"},{"name":"confirmationBlocks","type":"uint8","internalType":"uint8"},{"name":"attestedBitcoinBlockHeight","type":"uint64","internalType":"uint64"}]}],"anonymous":false},{"type":"error","name":"CannotOverwriteOnGoingSwap","inputs":[]},{"type":"error","name":"DepositAmountTooLow","inputs":[]},{"type":"error","name":"DepositStillLocked","inputs":[]},{"type":"error","name":"DepositVaultDoesNotExist","inputs":[]},{"type":"error","name":"DepositVaultNotOverwritable","inputs":[]},{"type":"error","name":"EmptyDepositVault","inputs":[]},{"type":"error","name":"InvalidConfirmationBlockDelta","inputs":[]},{"type":"error","name":"InvalidConfirmationBlockInclusionProof","inputs":[]},{"type":"error","name":"InvalidScriptPubKey","inputs":[]},{"type":"error","name":"InvalidSwapBlockInclusionProof","inputs":[]},{"type":"error","name":"InvalidSwapTotals","inputs":[]},{"type":"error","name":"InvalidTipBlockInclusionProof","inputs":[]},{"type":"error","name":"InvalidVaultCommitment","inputs":[]},{"type":"error","name":"NoFeeToPay","inputs":[]},{"type":"error","name":"NoVaults","inputs":[]},{"type":"error","name":"NotEnoughConfirmationBlocks","inputs":[]},{"type":"error","name":"PayoutAddressMismatch","inputs":[]},{"type":"error","name":"SatOutputTooLow","inputs":[]},{"type":"error","name":"StillInChallengePeriod","inputs":[]},{"type":"error","name":"SwapDoesNotExist","inputs":[]},{"type":"error","name":"SwapNotProved","inputs":[]},{"type":"error","name":"TransferFailed","inputs":[]}],"bytecode":{"object":"0x61012080604052346101cf5780612848803803809161001e82856101fa565b83398101039061010082126101cf576060815192601f1901126101cf57604051606081016001600160401b038111828210176101e657604090815260208301518083529083015190916001600160401b0382168083036101cf576040826004946020809501526060870151918291015261009a6080870161021d565b9160a0870151956100b960e06100b260c08b0161021d565b990161021d565b5f99909955600155600280546001600160401b0319169190911790556003556001600160a01b0316608081905260405163313ce56760e01b815292839182905afa9081156101db575f9161019b575b5060a05260c0526001600160a01b031660e05261010052604051612616908161023282396080518181816103c6015281816105e30152818161199801528181611a6d01526123bc015260a051816108d2015260c05181818161082e01528181610d5f0152611483015260e051818181610d13015281816114350152611aae01526101005181818161059f01526108690152f35b90506020813d6020116101d3575b816101b6602093836101fa565b810103126101cf575160ff811681036101cf575f610108565b5f80fd5b3d91506101a9565b6040513d5f823e3d90fd5b634e487b7160e01b5f52604160045260245ffd5b601f909101601f19168101906001600160401b038211908210176101e657604052565b51906001600160a01b03821682036101cf5756fe610180806040526004361015610013575f80fd5b5f610140525f3560e01c90816308c84e7014611a9c5750806313f6658714611a5857806316a6db20146118145780631e3d77f514611772578063265cdd1a146110bb57806333ce4dae14610964578063365df2331461093b578063434ca46b1461091257806346046474146108f65780635b7f415c146108b65780637ed34a3614610898578063898aeacb146108515780638d5ca05214610814578063992284a6146107f45780639f63bd97146107d6578063a6a0f96e1461079e578063c283581614610764578063ca18100d14610744578063d21ddc6114610722578063d45ce10f14610656578063f23a94a914610565578063f5095c16146105455763f56de11f1461011f575f80fd5b346104585736600319016102208112610458576101201361045857610144356001600160401b0381169081900361045857610164356001600160401b03811161045857610170903690600401611b69565b5050610184356001600160401b03811161045857610192903690600401611b69565b50506060366101a319011261045857610204356001600160401b038111610458576101c1903690600401611b99565b916101ca612473565b506101043560038110918215610458575f19820161053057608435906001600160401b03821680830361045857421061051b576044359560405161020d81611c50565b87815282602082015260406101243591015261022836611ce0565b506101c4356001600160401b0381169081810361045857506064359260ff84169081850361045857016001600160401b038111610501576001600160401b039081165f1901908111610501576001600160401b0316036104ec5761028c81876124de565b956024358097036104d757610140515b82811061045f5750506040519690506102b487611c87565b600435808852602088019690965260408701526060860152608085015260a435906001600160a01b0382168203610458578160a086015260c435908160c087015260e435938460e08801521561045857856103747f5d248001ee862aebdfe43bfaf026be2d34c08573daa99dcd4290c61dd78cee4b9361036c6020986002610383966101006103b79d019081525261035461034e8661257a565b91611c23565b90919082549060031b91821b915f19901b1916179055565b6006546120e2565b60065560405191829182611f82565b0390a160405163a9059cbb60e01b81526001600160a01b039091166004820152602481019190915291829081906044820190565b03816101405160018060a01b037f0000000000000000000000000000000000000000000000000000000000000000165af190811561044a57610140519161041b575b5015610406576101405180f35b6312171d8360e31b6101405152600461014051fd5b61043d915060203d602011610443575b6104358183611cbf565b810190611ec7565b5f6103f9565b503d61042b565b6040513d61014051823e3d90fd5b6101405180fd5b6001907f32471f3f0779c3838c27ab991c84d0b550621b719c340d6f61a682d979f35f626104ce61049a36610495858989612041565b611dea565b6101405160408201526101405160608201526104c26104b88261214b565b6103548351611bf7565b60405191829182611edf565b0390a10161029c565b63ceb1159d60e01b6101405152600461014051fd5b638e082f6760e01b6101405152600461014051fd5b634e487b7160e01b61014051526011600452602461014051fd5b632d5c37f560e21b6101405152600461014051fd5b6322fc5d4360e21b6101405152600461014051fd5b346104585761014051366003190112610458576020600454604051908152f35b346104585761014051366003190112610458576006548015610641576101405160065560405163a9059cbb60e01b81526001600160a01b037f00000000000000000000000000000000000000000000000000000000000000001660048201526024810191909152602081806044810103816101405160018060a01b037f0000000000000000000000000000000000000000000000000000000000000000165af190811561044a576101405191610622575015610406576101405180f35b61063b915060203d602011610443576104358183611cbf565b816103f9565b630fbcad4560e21b6101405152600461014051fd5b34610458576102a036600319011261045857610670611add565b610678611b07565b610680611b31565b91610689611b4b565b9060603660c319011261045857610124356001600160401b038111610458576106b6903690600401611b69565b92909161016036610143190112610458576106df94610144359687916084359360243590612181565b916106e861212e565b506101843561070d576107069261035461070192611bf7565b61234c565b6101405180f35b630faaae6760e31b6101405152600461014051fd5b3461045857610140513660031901126104585760206101405154604051908152f35b346104585761014051366003190112610458576020600654604051908152f35b3461045857610140513660031901126104585760606001546001600160401b03600254166003549060405192835260208301526040820152f35b3461045857602036600319011261045857600435600454811015610458576107c7602091611bf7565b90549060031b1c604051908152f35b346104585760203660031901126104585760206107c7600435611bf7565b346104585761014051366003190112610458576020600554604051908152f35b3461045857610140513660031901126104585760206040517f00000000000000000000000000000000000000000000000000000000000000008152f35b346104585761014051366003190112610458576040517f00000000000000000000000000000000000000000000000000000000000000006001600160a01b03168152602090f35b346104585760203660031901126104585760206107c7600435611c23565b34610458576101405136600319011261045857602060405160ff7f0000000000000000000000000000000000000000000000000000000000000000168152f35b346104585761090436611d5e565b505050602060405160018152f35b3461045857602061093161092536611d5e565b9061014051549261248e565b6040519015158152f35b3461045857602036600319011261045857600435600554811015610458576107c7602091611c23565b34610458576103003660031901126104585760443560ff81168103610458576064356001600160401b038111610458576109a2903690600401611b99565b90916084356001600160a01b038116810361045857610124356001600160401b038111610458576109d7903690600401611bca565b610144356001600160401b038111610458576109f7903690600401611bca565b9290916101203661016319011261045857606036610283190112610458576102e4356001600160401b03811161045857610a35903690600401611b69565b929091610a40612432565b5061026435600381101561045857600119016110a657604051610a6281611c87565b6101405181526101405160208201526101405160408201526101405160608201526101405160808201526101405160a08201526101405160c08201526101405160e082015261010061014051910152881561109157610ac46101408b01611d99565b9460015b8a811061103b5750610140515b8b8a8c808410610ffc5750505050610140515b8a8c8a828410610fb3575050610b109150610b029061241b565b60405160e05260e051611cbf565b60e080518b905251602001366101608c028d0111610458578b905b6101608c028d018210610f9857505061014051608081905260c08190529a8b5b60e0515160c0511015610bd057610b78610b89916040610b6f60c05160e0516124ca565b510151906120e2565b9c6060610b6f60c05160e0516124ca565b9a6060610b9a60c05160e0516124ca565b510151808060011b046002148115171561050157610bbd9060011b6080516120e2565b608052600160c0510160c0529a9b610b4b565b8b90610be08e6101043592612174565b14801590610f8a575b610f7557610bf6916124de565b966001600160401b038111610f5b5760405191610c1d601f8301601f191660200184611cbf565b818352368282011161045857819060208401376020610140519183010152602081519101208860405191610c5083611ca3565b60ff8216835260208301926004358452604081016024358152606082018b8152608083018d60018060a01b0316815260a084019060e435825260c085019261010435845260e086019460a435865261012061010088019760c4358952019788526040519960ff60208c019a168a525160408b01525160608a015251608089015260018060a01b0390511660a08801525160c08701525160e08601525161010085015251610120840152516101408301526101408252610d1161016083611cbf565b7f00000000000000000000000000000000000000000000000000000000000000006001600160a01b031690813b15610458576020849360846040519788968795869463020a49e360e51b86527f00000000000000000000000000000000000000000000000000000000000000006004870152606060248701525180918160648801528587015e61014051858201850152601f01601f1916840184810384016003190160448601528084018290529160a48301376101408051828a0184018601525197601f01601f191601010301915afa801561044a57610f40575b50610e1791610dff60c43560a43561258f565b610e0b36610284611d25565b9161014051549261248e565b15610f2b576102a4356001600160401b0381168103610458576001600160401b0391610e4291612021565b16608502916001600160401b038316928303610501577f5d248001ee862aebdfe43bfaf026be2d34c08573daa99dcd4290c61dd78cee4b9360ff6001600160401b03610ea981610ea26103e882610e9b610f219b611dad565b1604611dcc565b16426120e2565b169160405194610eb886611c87565b6101643586526020860152600435604086015216606084015260808301526001600160a01b031660a082015260e43560c08201526101043560e08201526001610100820152610f15610f098261257a565b61035461016435611c23565b60405191829182611f82565b0390a16101405180f35b633666f0e160e21b6101405152600461014051fd5b61014051610f4d91611cbf565b610140516104585786610dec565b634e487b7160e01b61014051526041600452602461014051fd5b63234758f560e21b6101405152600461014051fd5b5060e4356080511415610be9565b602061016091610fa83685611dea565b815201910190610b2b565b6001600160a01b03908116929091610fd99160c091610fd3918791612041565b01611eb3565b1603610fe757600101610ae8565b631e2ad0ad60e21b6101405152600461014051fd5b610120611012856110189360ff80961696612041565b01612013565b161161102657600101610ad5565b63bdf8f2b360e01b6101405152600461014051fd5b8a8c61105461014061104e858585612041565b01611d99565b6001600160401b03808b16911610611071575b5050600101610ac8565b82985061104e6001936110879361014093612041565b9690508a8c611067565b639406b8a760e01b6101405152600461014051fd5b6318cf65dd60e21b6101405152600461014051fd5b3461164e576101e036600319011261164e576044356001600160401b03811161164e576110ec903690600401611b99565b6064356101008190526001600160a01b038116900361164e5760c43560ff8116810361164e57610124356001600160401b03811161164e57611132903690600401611bca565b9091610144356001600160401b03811161164e57611154903690600401611bca565b9260603661016319011261164e576101c4356001600160401b03811161164e57611182903690600401611b69565b600554965f61010060405161119681611c87565b8281528260208201528260408201528260608201528260808201528260a08201528260c08201528260e082015201528815611763576111d86101408b01611d99565b9460015b8a811061171357505f5b8b888c8084106116e057505050505f5b8a811061169e575061121a61120a8b61241b565b6040516101605261016051611cbf565b610160515089610160515260206101605101366101608c028d011161164e578b905b6101608c028d0182106116835750505f60a08190526101208190529a8b5b61016051516101205110156112f357611282611295916040610b6f61012051610160516124ca565b9c6060610b6f61012051610160516124ca565b9a60606112a861012051610160516124ca565b5101518060011b90808204600214901517156112df576112ca9060a0516120e2565b60a05260016101205101610120529a9b61125a565b634e487b7160e01b5f52601160045260245ffd5b8b906113038e6101043592612174565b14801590611675575b61166657611319916124de565b976001600160401b0381116116525760405191611340601f8301601f191660200184611cbf565b818352368282011161164e57815f92602092838601378301015260208151910120866040519161136f83611ca3565b60ff8216835260208301926024358452604081016004358152606082018c81526080830160018060a01b036101005116815260a084019060e435825260c085019261010435845260e0860194608435865261012061010088019760a4358952019788526040519960ff60208c019a168a525160408b01525160608a015251608089015260018060a01b0390511660a08801525160c08701525160e0860152516101008501525161012084015251610140830152610140825261143361016083611cbf565b7f00000000000000000000000000000000000000000000000000000000000000006001600160a01b031690813b1561164e576020879360845f966040519a8b978896879563020a49e360e51b87527f00000000000000000000000000000000000000000000000000000000000000006004880152606060248801525180918160648901528688015e85810185018b9052601f01601f1916850185810385016003190160448701528085018290529260a484013781810183018501899052601f01601f191601010301915afa928315611643576115299361162e575b5061151d60a43560843561258f565b610e0b36610164611d25565b15610f2b57610184356001600160401b0381168103610458576001600160401b039161155491612021565b16608502906001600160401b038216918203610501576001600160401b0361158881610ea26103e882610e9b60ff98611dad565b16926040519461159786611c87565b855260208501526024356040850152166060830152608082015261010080516001600160a01b031660a083015260e43560c08301526101043560e08301526001908201526115e48161257a565b60055491600160401b831015610f5b57610f15610f21926103548560017f5d248001ee862aebdfe43bfaf026be2d34c08573daa99dcd4290c61dd78cee4b97016005556005611c3b565b5f61163891611cbf565b5f610140528761150e565b6040513d5f823e3d90fd5b5f80fd5b634e487b7160e01b5f52604160045260245ffd5b63234758f560e21b5f5260045ffd5b5060e43560a051141561130c565b6020610160916116933685611dea565b81520191019061123c565b8a8c6116c360c0610fd38560018060a01b0361010051169560018060a01b0395612041565b16036116d1576001016111f6565b631e2ad0ad60e21b5f5260045ffd5b610120611012856116f69360ff80961696612041565b1611611704576001016111e6565b63bdf8f2b360e01b5f5260045ffd5b8a8c61172661014061104e858585612041565b6001600160401b03808b16911610611743575b50506001016111dc565b82985061104e6001936117599361014093612041565b9690508a8c611739565b639406b8a760e01b5f5260045ffd5b3461164e5761014036600319011261164e5761178c611add565b611794611b07565b9061179d611b31565b6117a5611b4b565b60603660c319011261164e5761012435936001600160401b03851161164e576117d56117e9953690600401611b69565b949093608435926004549260243590612181565b90600454600160401b811015611652576118129261035482600161070194016004556004611c3b565b005b3461164e573660031901610160811261164e5761182f6120ef565b506044358015611a4957602435916001600160401b03831680840361164e57617080016001600160401b0381116112df576001600160401b03164210611a3a576101601361164e576040519161188483611c6b565b6004359081845260208401526040830191808352606084019160643583526084356001600160401b038116810361164e57608086015260a43569ffffffffffffffffffff198116810361164e5760a086015260c4356001600160a01b038116810361164e5760c086015260e435906001600160a01b038216820361164e578160e0870152610104356101008701526101243560ff8116810361164e5761012087015261014435906001600160401b038216820361164e575f6020958161199398611962956101408c0152525261035461195c8861214b565b91611bf7565b60405163a9059cbb60e01b81526001600160a01b039091166004820152602481019190915291829081906044820190565b03815f7f00000000000000000000000000000000000000000000000000000000000000006001600160a01b03165af1908115611643575f91611a1b575b5015611a0c57611a077f32471f3f0779c3838c27ab991c84d0b550621b719c340d6f61a682d979f35f629160405191829182611edf565b0390a1005b6312171d8360e31b5f5260045ffd5b611a34915060203d602011610443576104358183611cbf565b826119d0565b6301b512a960e21b5f5260045ffd5b637941e9ad60e01b5f5260045ffd5b3461164e575f36600319011261164e576040517f00000000000000000000000000000000000000000000000000000000000000006001600160a01b03168152602090f35b3461164e575f36600319011261164e577f00000000000000000000000000000000000000000000000000000000000000006001600160a01b03168152602090f35b600435906001600160a01b038216820361164e57565b35906001600160a01b038216820361164e57565b604435906001600160401b038216820361164e57565b35906001600160401b038216820361164e57565b6064359069ffffffffffffffffffff198216820361164e57565b60a4359060ff8216820361164e57565b359060ff8216820361164e57565b9181601f8401121561164e578235916001600160401b03831161164e576020808501948460051b01011161164e57565b9181601f8401121561164e578235916001600160401b03831161164e57602080850194610160850201011161164e57565b9181601f8401121561164e578235916001600160401b03831161164e576020838186019501011161164e57565b600454811015611c0f5760045f5260205f2001905f90565b634e487b7160e01b5f52603260045260245ffd5b600554811015611c0f5760055f5260205f2001905f90565b8054821015611c0f575f5260205f2001905f90565b606081019081106001600160401b0382111761165257604052565b61016081019081106001600160401b0382111761165257604052565b61012081019081106001600160401b0382111761165257604052565b61014081019081106001600160401b0382111761165257604052565b90601f801991011681019081106001600160401b0382111761165257604052565b6060906101a319011261164e5760405190611cfa82611c50565b816101a43581526101c4356001600160401b038116810361164e57602082015260406101e435910152565b919082606091031261164e57604051611d3d81611c50565b604080829480358452611d5260208201611b1d565b60208501520135910152565b90608060031983011261164e57611d76826004611d25565b91606435906001600160401b03821161164e57611d9591600401611b69565b9091565b356001600160401b038116810361164e5790565b6001600160401b0361e3b3911601906001600160401b0382116112df57565b6001600160401b03603c911601906001600160401b0382116112df57565b91908261016091031261164e57604051611e0381611c6b565b809280358252611e1560208201611b1d565b60208301526040810135604083015260608101356060830152611e3a60808201611b1d565b608083015260a08101359069ffffffffffffffffffff198216820361164e57610140611eae91819360a0860152611e7360c08201611af3565b60c0860152611e8460e08201611af3565b60e0860152610100810135610100860152611ea26101208201611b5b565b61012086015201611b1d565b910152565b356001600160a01b038116810361164e5790565b9081602091031261164e5751801515810361164e5790565b9190916101406001600160401b038161016084019580518552826020820151166020860152604081015160408601526060810151606086015282608082015116608086015269ffffffffffffffffffff1960a08201511660a086015260018060a01b0360c08201511660c086015260018060a01b0360e08201511660e086015261010081015161010086015260ff61012082015116610120860152015116910152565b91909161010061012082019380518352602081015160208401526040810151604084015260ff60608201511660608401526001600160401b03608082015116608084015260018060a01b0360a08201511660a084015260c081015160c084015260e081015160e08401520151906003821015611fff576101000152565b634e487b7160e01b5f52602160045260245ffd5b3560ff8116810361164e5790565b906001600160401b03809116911603906001600160401b0382116112df57565b9190811015611c0f57610160020190565b91908261012091031261164e5760405161206b81611c87565b610100819380358352602081013560208401526040810135604084015261209460608201611b5b565b60608401526120a560808201611b1d565b60808401526120b660a08201611af3565b60a084015260c081013560c084015260e081013560e0840152013590600382101561164e576101000152565b919082018092116112df57565b6121026120fd366004611dea565b61214b565b61210f6004356004611c3b565b90549060031b1c810361211f5790565b63cd1d240d60e01b5f5260045ffd5b61213d6120fd36610144611dea565b61210f610144356004611c3b565b60405161216e81612160602082019485611edf565b03601f198101835282611cbf565b51902090565b919082039182116112df57565b929198979095949693985f61014060405161219b81611c6b565b8281528260208201528260408201528260608201528260808201528260a08201528260c08201528260e0820152826101008201528261012082015201526107d1871061233d576001600160401b0316936103e8851061232e575f83901a60f81b6001600160f81b0319161580612310575b1561230157612229916122203660c4611d25565b915f549261248e565b156122f25760058502858104600514861517156112df57612251612710606092048097612174565b96604051908152896020820152466040820152209260e435956001600160401b0387169788880361164e5760ff97506040519a61228d8c611c6b565b8b52426001600160401b031660208c015260408b015260608a0152608089015269ffffffffffffffffffff191660a08801526001600160a01b031660c08701523360e0870152610100860152166101208401526101408301526122ef8261214b565b90565b633666f0e160e21b5f5260045ffd5b63fad7db0760e01b5f5260045ffd5b50600183901a60f81b6001600160f81b031916600560fa1b1461220c565b63fde5943160e01b5f5260045ffd5b6355fcd02760e01b5f5260045ffd5b612392907f32471f3f0779c3838c27ab991c84d0b550621b719c340d6f61a682d979f35f626040518061237f8482611edf565b0390a160606040820151910151906120e2565b6040516323b872dd60e01b815233600482015230602482015260448101919091526020816064815f7f00000000000000000000000000000000000000000000000000000000000000006001600160a01b03165af1908115611643575f916123fc575b5015611a0c57565b612415915060203d602011610443576104358183611cbf565b5f6123f4565b6001600160401b0381116116525760051b60200190565b61244661244136610164612052565b61257a565b612454610164356005611c3b565b90549060031b1c81036124645790565b631a40316d60e01b5f5260045ffd5b612481612441366004612052565b6124546004356005611c3b565b602001516001600160401b031692505f198201918083116112df57821015611c0f5763ffffffff9160051b013516036124c657600190565b5f90565b8051821015611c0f5760209160051b010190565b6124e78261241b565b906124f56040519283611cbf565b8282526125018361241b565b602083019390601f19013685376004905f5b81811061252757505050505160051b902090565b612532818386612041565b61254a6125426120fd3684611dea565b913585611c3b565b90549060031b1c810361256c576001919061256582886124ca565b5201612513565b8363cd1d240d60e01b5f525ffd5b60405161216e81612160602082019485611f82565b815f548214918215926125d6575b50506125d3576020817f6a4b923d1c5dda45ec7bb1dbea585a753c54a92c68a94adaab178a99b3c64b85925f55604051908152a1565b50565b149050815f61259d56fea264697066735822122010ec2eb3cf64118841bee456281bf96f7981184b0f50fb3ddece80607017f56664736f6c634300081b0033","linkReferences":{}},"methodIdentifiers":{"CIRCUIT_VERIFICATION_KEY()":"8d5ca052","DEPOSIT_TOKEN()":"13f66587","FEE_ROUTER_ADDRESS()":"898aeacb","TOKEN_DECIMALS()":"5b7f415c","VERIFIER()":"08c84e70","_proveBlockInclusion((bytes32,uint64,uint256),bytes32[])":"46046474","_proveBlockInclusionAtTip((bytes32,uint64,uint256),bytes32[])":"434ca46b","accumulatedFeeBalance()":"ca18100d","depositLiquidity(address,uint256,uint64,bytes22,bytes32,uint8,(bytes32,uint64,uint256),bytes32[])":"1e3d77f5","depositLiquidityWithOverwrite(address,uint256,uint64,bytes22,bytes32,uint8,(bytes32,uint64,uint256),bytes32[],(uint256,uint64,uint256,uint256,uint64,bytes22,address,address,bytes32,uint8,uint64))":"d45ce10f","getSwapCommitment(uint256)":"7ed34a36","getSwapCommitmentsLength()":"992284a6","getVaultCommitment(uint256)":"9f63bd97","getVaultCommitmentsLength()":"f5095c16","initialCheckpointLeaf()":"c2835816","mmrRoot()":"d21ddc61","payoutToFeeRouter()":"f23a94a9","releaseLiquidity((uint256,bytes32,bytes32,uint8,uint64,address,uint256,uint256,uint8),uint256,uint64,bytes32[],bytes32[],(bytes32,uint64,uint256),(uint256,uint64,uint256,uint256,uint64,bytes22,address,address,bytes32,uint8,uint64)[])":"f56de11f","submitSwapProof(bytes32,bytes32,(uint256,uint64,uint256,uint256,uint64,bytes22,address,address,bytes32,uint8,uint64)[],address,bytes32,bytes32,uint8,uint256,uint256,bytes,bytes,(bytes32,uint64,uint256),bytes32[])":"265cdd1a","submitSwapProofWithOverwrite(bytes32,bytes32,uint8,(uint256,uint64,uint256,uint256,uint64,bytes22,address,address,bytes32,uint8,uint64)[],address,bytes32,bytes32,uint256,uint256,bytes,bytes,(uint256,bytes32,bytes32,uint8,uint64,address,uint256,uint256,uint8),(bytes32,uint64,uint256),bytes32[])":"33ce4dae","swapCommitments(uint256)":"365df233","vaultCommitments(uint256)":"a6a0f96e","withdrawLiquidity((uint256,uint64,uint256,uint256,uint64,bytes22,address,address,bytes32,uint8,uint64))":"16a6db20"},"storageLayout":{"storage":[{"astId":42260,"contract":"src/RiftExchange.sol:RiftExchange","label":"mmrRoot","offset":0,"slot":"0","type":"t_bytes32"},{"astId":42263,"contract":"src/RiftExchange.sol:RiftExchange","label":"initialCheckpointLeaf","offset":0,"slot":"1","type":"t_struct(BlockLeaf)43728_storage"},{"astId":42390,"contract":"src/RiftExchange.sol:RiftExchange","label":"vaultCommitments","offset":0,"slot":"4","type":"t_array(t_bytes32)dyn_storage"},{"astId":42393,"contract":"src/RiftExchange.sol:RiftExchange","label":"swapCommitments","offset":0,"slot":"5","type":"t_array(t_bytes32)dyn_storage"},{"astId":42395,"contract":"src/RiftExchange.sol:RiftExchange","label":"accumulatedFeeBalance","offset":0,"slot":"6","type":"t_uint256"}],"types":{"t_array(t_bytes32)dyn_storage":{"encoding":"dynamic_array","label":"bytes32[]","numberOfBytes":"32","base":"t_bytes32"},"t_bytes32":{"encoding":"inplace","label":"bytes32","numberOfBytes":"32"},"t_struct(BlockLeaf)43728_storage":{"encoding":"inplace","label":"struct Types.BlockLeaf","numberOfBytes":"96","members":[{"astId":43723,"contract":"src/RiftExchange.sol:RiftExchange","label":"blockHash","offset":0,"slot":"0","type":"t_bytes32"},{"astId":43725,"contract":"src/RiftExchange.sol:RiftExchange","label":"height","offset":0,"slot":"1","type":"t_uint64"},{"astId":43727,"contract":"src/RiftExchange.sol:RiftExchange","label":"cumulativeChainwork","offset":0,"slot":"2","type":"t_uint256"}]},"t_uint256":{"encoding":"inplace","label":"uint256","numberOfBytes":"32"},"t_uint64":{"encoding":"inplace","label":"uint64","numberOfBytes":"8"}}},"id":41}